{
  "address": "0x1db2a56ee11b87e2f4a0efbe3f5ccf2551019db6",
  "abi": [
    {
      "inputs": [
        {
          "internalType": "contract AggregatorV2V3Interface",
          "name": "feed_",
          "type": "address"
        },
        {
          "internalType": "address",
          "name": "owner_",
          "type": "address"
        }
      ],
      "stateMutability": "nonpayable",
      "type": "constructor"
    },
    {
      "inputs": [],
      "name": "AddressIsZero",
      "type": "error"
    },
    {
      "inputs": [],
      "name": "CooldownNotExpired",
      "type": "error"
    },
    {
      "inputs": [],
      "name": "DecimalsDoNotMatch",
      "type": "error"
    },
    {
      "inputs": [],
      "name": "NoPendingFeed",
      "type": "error"
    },
    {
      "inputs": [
        {
          "internalType": "address",
          "name": "owner",
          "type": "address"
        }
      ],
      "name": "OwnableInvalidOwner",
      "type": "error"
    },
    {
      "inputs": [
        {
          "internalType": "address",
          "name": "account",
          "type": "address"
        }
      ],
      "name": "OwnableUnauthorizedAccount",
      "type": "error"
    },
    {
      "anonymous": false,
      "inputs": [
        {
          "indexed": true,
          "internalType": "int256",
          "name": "current",
          "type": "int256"
        },
        {
          "indexed": true,
          "internalType": "uint256",
          "name": "roundId",
          "type": "uint256"
        },
        {
          "indexed": false,
          "internalType": "uint256",
          "name": "updatedAt",
          "type": "uint256"
        }
      ],
      "name": "AnswerUpdated",
      "type": "event"
    },
    {
      "anonymous": false,
      "inputs": [
        {
          "indexed": true,
          "internalType": "address",
          "name": "oldFeed",
          "type": "address"
        },
        {
          "indexed": true,
          "internalType": "address",
          "name": "newFeed",
          "type": "address"
        },
        {
          "indexed": false,
          "internalType": "uint96",
          "name": "pendingUntil",
          "type": "uint96"
        }
      ],
      "name": "FeedUpdateInitialized",
      "type": "event"
    },
    {
      "anonymous": false,
      "inputs": [
        {
          "indexed": true,
          "internalType": "address",
          "name": "oldFeed",
          "type": "address"
        },
        {
          "indexed": true,
          "internalType": "address",
          "name": "newFeed",
          "type": "address"
        }
      ],
      "name": "FeedUpdated",
      "type": "event"
    },
    {
      "anonymous": false,
      "inputs": [
        {
          "indexed": true,
          "internalType": "uint256",
          "name": "roundId",
          "type": "uint256"
        },
        {
          "indexed": true,
          "internalType": "address",
          "name": "startedBy",
          "type": "address"
        },
        {
          "indexed": false,
          "internalType": "uint256",
          "name": "startedAt",
          "type": "uint256"
        }
      ],
      "name": "NewRound",
      "type": "event"
    },
    {
      "anonymous": false,
      "inputs": [
        {
          "indexed": true,
          "internalType": "address",
          "name": "previousOwner",
          "type": "address"
        },
        {
          "indexed": true,
          "internalType": "address",
          "name": "newOwner",
          "type": "address"
        }
      ],
      "name": "OwnershipTransferStarted",
      "type": "event"
    },
    {
      "anonymous": false,
      "inputs": [
        {
          "indexed": true,
          "internalType": "address",
          "name": "previousOwner",
          "type": "address"
        },
        {
          "indexed": true,
          "internalType": "address",
          "name": "newOwner",
          "type": "address"
        }
      ],
      "name": "OwnershipTransferred",
      "type": "event"
    },
    {
      "inputs": [],
      "name": "acceptOwnership",
      "outputs": [],
      "stateMutability": "nonpayable",
      "type": "function"
    },
    {
      "inputs": [],
      "name": "decimals",
      "outputs": [
        {
          "internalType": "uint8",
          "name": "",
          "type": "uint8"
        }
      ],
      "stateMutability": "view",
      "type": "function"
    },
    {
      "inputs": [],
      "name": "description",
      "outputs": [
        {
          "internalType": "string",
          "name": "",
          "type": "string"
        }
      ],
      "stateMutability": "view",
      "type": "function"
    },
    {
      "inputs": [],
      "name": "feed",
      "outputs": [
        {
          "internalType": "contract AggregatorV2V3Interface",
          "name": "",
          "type": "address"
        }
      ],
      "stateMutability": "view",
      "type": "function"
    },
    {
      "inputs": [
        {
          "internalType": "uint256",
          "name": "roundId_",
          "type": "uint256"
        }
      ],
      "name": "getAnswer",
      "outputs": [
        {
          "internalType": "int256",
          "name": "",
          "type": "int256"
        }
      ],
      "stateMutability": "view",
      "type": "function"
    },
    {
      "inputs": [
        {
          "internalType": "uint80",
          "name": "roundId_",
          "type": "uint80"
        }
      ],
      "name": "getRoundData",
      "outputs": [
        {
          "internalType": "uint80",
          "name": "roundId",
          "type": "uint80"
        },
        {
          "internalType": "int256",
          "name": "answer",
          "type": "int256"
        },
        {
          "internalType": "uint256",
          "name": "startedAt",
          "type": "uint256"
        },
        {
          "internalType": "uint256",
          "name": "updatedAt",
          "type": "uint256"
        },
        {
          "internalType": "uint80",
          "name": "answeredInRound",
          "type": "uint80"
        }
      ],
      "stateMutability": "view",
      "type": "function"
    },
    {
      "inputs": [
        {
          "internalType": "uint256",
          "name": "roundId_",
          "type": "uint256"
        }
      ],
      "name": "getTimestamp",
      "outputs": [
        {
          "internalType": "uint256",
          "name": "",
          "type": "uint256"
        }
      ],
      "stateMutability": "view",
      "type": "function"
    },
    {
      "inputs": [
        {
          "internalType": "contract AggregatorV2V3Interface",
          "name": "newFeed_",
          "type": "address"
        }
      ],
      "name": "initializeFeedUpdate",
      "outputs": [],
      "stateMutability": "nonpayable",
      "type": "function"
    },
    {
      "inputs": [],
      "name": "latestAnswer",
      "outputs": [
        {
          "internalType": "int256",
          "name": "",
          "type": "int256"
        }
      ],
      "stateMutability": "view",
      "type": "function"
    },
    {
      "inputs": [],
      "name": "latestRound",
      "outputs": [
        {
          "internalType": "uint256",
          "name": "",
          "type": "uint256"
        }
      ],
      "stateMutability": "view",
      "type": "function"
    },
    {
      "inputs": [],
      "name": "latestRoundData",
      "outputs": [
        {
          "internalType": "uint80",
          "name": "roundId",
          "type": "uint80"
        },
        {
          "internalType": "int256",
          "name": "answer",
          "type": "int256"
        },
        {
          "internalType": "uint256",
          "name": "startedAt",
          "type": "uint256"
        },
        {
          "internalType": "uint256",
          "name": "updatedAt",
          "type": "uint256"
        },
        {
          "internalType": "uint80",
          "name": "answeredInRound",
          "type": "uint80"
        }
      ],
      "stateMutability": "view",
      "type": "function"
    },
    {
      "inputs": [],
      "name": "latestTimestamp",
      "outputs": [
        {
          "internalType": "uint256",
          "name": "",
          "type": "uint256"
        }
      ],
      "stateMutability": "view",
      "type": "function"
    },
    {
      "inputs": [],
      "name": "owner",
      "outputs": [
        {
          "internalType": "address",
          "name": "",
          "type": "address"
        }
      ],
      "stateMutability": "view",
      "type": "function"
    },
    {
      "inputs": [],
      "name": "pendingFeed",
      "outputs": [
        {
          "internalType": "contract AggregatorV2V3Interface",
          "name": "",
          "type": "address"
        }
      ],
      "stateMutability": "view",
      "type": "function"
    },
    {
      "inputs": [],
      "name": "pendingOwner",
      "outputs": [
        {
          "internalType": "address",
          "name": "",
          "type": "address"
        }
      ],
      "stateMutability": "view",
      "type": "function"
    },
    {
      "inputs": [],
      "name": "pendingUntil",
      "outputs": [
        {
          "internalType": "uint96",
          "name": "",
          "type": "uint96"
        }
      ],
      "stateMutability": "view",
      "type": "function"
    },
    {
      "inputs": [],
      "name": "renounceOwnership",
      "outputs": [],
      "stateMutability": "nonpayable",
      "type": "function"
    },
    {
      "inputs": [
        {
          "internalType": "address",
          "name": "newOwner",
          "type": "address"
        }
      ],
      "name": "transferOwnership",
      "outputs": [],
      "stateMutability": "nonpayable",
      "type": "function"
    },
    {
      "inputs": [],
      "name": "updateFeed",
      "outputs": [],
      "stateMutability": "nonpayable",
      "type": "function"
    },
    {
      "inputs": [],
      "name": "version",
      "outputs": [
        {
          "internalType": "uint256",
          "name": "",
          "type": "uint256"
        }
      ],
      "stateMutability": "view",
      "type": "function"
    }
  ],
  "transactionHash": "0x025423a410501ba93a88cc60006496093c6691d05b53a6671ee92825dafcffb3",
  "args": [
    "0xF4030086522a5bEEa4988F8cA5B36dbC97BeE88c",
    "0xE173b056eF552c7322040703dDfC1e0638A575d3"
  ],
  "numDeployments": 1,
  "bytecode": "0x608060405234801561000f575f5ffd5b50604051610e7f380380610e7f83398101604081905261002e9161015b565b806001600160a01b03811661005c57604051631e4fbdf760e01b81525f600482015260240160405180910390fd5b610065816100dc565b506001600160a01b03821661008d5760405163867915ab60e01b815260040160405180910390fd5b600280546001600160a01b0319166001600160a01b0384169081179091556040515f907f20b52803553f0b8c676a87da67f3e7302e54150ae46c988eee590f11ac5ebc9b908290a35050610193565b600180546001600160a01b03191690556100f5816100f8565b50565b5f80546001600160a01b038381166001600160a01b0319831681178455604051919092169283917f8be0079c531659141344cd1fd0a4f28419497f9722a3daafe3b4186f6b6457e09190a35050565b6001600160a01b03811681146100f5575f5ffd5b5f5f6040838503121561016c575f5ffd5b825161017781610147565b602084015190925061018881610147565b809150509250929050565b610cdf806101a05f395ff3fe608060405234801561000f575f5ffd5b5060043610610127575f3560e01c80638205bf6a116100a9578063b5ab58dc1161006e578063b5ab58dc14610284578063b633620c14610297578063e30c3978146102aa578063f2fde38b146102bb578063feaf968c146102ce575f5ffd5b80638205bf6a146101e85780638da5cb5b146101f05780639a6fc8f514610200578063a298ba6b1461024a578063b47e7f7b1461027c575f5ffd5b806354fd4d50116100ef57806354fd4d50146101b3578063668a0f02146101bb578063715018a6146101c35780637284e416146101cb57806379ba5097146101e0575f5ffd5b806319bdd0951461012b578063313ce5671461014057806331f8e6611461015f57806337a7b7d81461018a57806350d25bcd1461019d575b5f5ffd5b61013e610139366004610a98565b6102d6565b005b610148610486565b60405160ff90911681526020015b60405180910390f35b600354610172906001600160a01b031681565b6040516001600160a01b039091168152602001610156565b600254610172906001600160a01b031681565b6101a56104f6565b604051908152602001610156565b6101a5610561565b6101a56105a8565b61013e6105ef565b6101d3610602565b6040516101569190610aba565b61013e610670565b6101a56106b9565b5f546001600160a01b0316610172565b61021361020e366004610b06565b610700565b6040805169ffffffffffffffffffff968716815260208101959095528401929092526060830152909116608082015260a001610156565b60035461026490600160a01b90046001600160601b031681565b6040516001600160601b039091168152602001610156565b61013e610790565b6101a5610292366004610b21565b610858565b6101a56102a5366004610b21565b6108ca565b6001546001600160a01b0316610172565b61013e6102c9366004610a98565b6108fb565b61021361096b565b6102de6109f5565b6001600160a01b0381166103055760405163867915ab60e01b815260040160405180910390fd5b6002546040805163313ce56760e01b815290516001600160a01b0390921691829163313ce5679160048083019260209291908290030181865afa15801561034e573d5f5f3e3d5ffd5b505050506040513d601f19601f820116820180604052508101906103729190610b38565b60ff16826001600160a01b031663313ce5676040518163ffffffff1660e01b8152600401602060405180830381865afa1580156103b1573d5f5f3e3d5ffd5b505050506040513d601f19601f820116820180604052508101906103d59190610b38565b60ff16146103f55760405162f0065960e11b815260040160405180910390fd5b600380546001600160a01b0319166001600160a01b03841617905561041d62093a8042610b58565b600380546001600160601b03928316600160a01b9081026001600160a01b03928316179283905560405192049092168152838216918316907fc2b54881a79b042a55fba70f79eafaa2b77ffc3a6043926970d056dafdeeb2da9060200160405180910390a35050565b6002546040805163313ce56760e01b815290515f926001600160a01b03169163313ce5679160048083019260209291908290030181865afa1580156104cd573d5f5f3e3d5ffd5b505050506040513d601f19601f820116820180604052508101906104f19190610b38565b905090565b600254604080516350d25bcd60e01b815290515f926001600160a01b0316916350d25bcd9160048083019260209291908290030181865afa15801561053d573d5f5f3e3d5ffd5b505050506040513d601f19601f820116820180604052508101906104f19190610b77565b6002546040805163054fd4d560e41b815290515f926001600160a01b0316916354fd4d509160048083019260209291908290030181865afa15801561053d573d5f5f3e3d5ffd5b60025460408051633345078160e11b815290515f926001600160a01b03169163668a0f029160048083019260209291908290030181865afa15801561053d573d5f5f3e3d5ffd5b6105f76109f5565b6106005f610a21565b565b60025460408051633942720b60e11b815290516060926001600160a01b031691637284e416916004808301925f9291908290030181865afa158015610649573d5f5f3e3d5ffd5b505050506040513d5f823e601f3d908101601f191682016040526104f19190810190610ba2565b60015433906001600160a01b031681146106ad5760405163118cdaa760e01b81526001600160a01b03821660048201526024015b60405180910390fd5b6106b681610a21565b50565b60025460408051634102dfb560e11b815290515f926001600160a01b031691638205bf6a9160048083019260209291908290030181865afa15801561053d573d5f5f3e3d5ffd5b600254604051639a6fc8f560e01b815269ffffffffffffffffffff831660048201525f9182918291829182916001600160a01b031690639a6fc8f59060240160a060405180830381865afa15801561075a573d5f5f3e3d5ffd5b505050506040513d601f19601f8201168201806040525081019061077e9190610c55565b939a9299509097509550909350915050565b6107986109f5565b6003546001600160a01b03166107c15760405163513ca25560e11b815260040160405180910390fd5b600354600160a01b90046001600160601b03164210156107f457604051633ce33ddb60e01b815260040160405180910390fd5b6003546002546040516001600160a01b0392831692839216907f20b52803553f0b8c676a87da67f3e7302e54150ae46c988eee590f11ac5ebc9b905f90a35f600355600280546001600160a01b0319166001600160a01b0392909216919091179055565b600254604051632d6ad63760e21b8152600481018390525f916001600160a01b03169063b5ab58dc906024015b602060405180830381865afa1580156108a0573d5f5f3e3d5ffd5b505050506040513d601f19601f820116820180604052508101906108c49190610b77565b92915050565b600254604051632d8cd88360e21b8152600481018390525f916001600160a01b03169063b633620c90602401610885565b6109036109f5565b600180546001600160a01b0383166001600160a01b031990911681179091556109335f546001600160a01b031690565b6001600160a01b03167f38d16b8cac22d99fc7c124b9cd0de2d3fa1faef420bfe791d8c362d765e2270060405160405180910390a350565b5f5f5f5f5f60025f9054906101000a90046001600160a01b03166001600160a01b031663feaf968c6040518163ffffffff1660e01b815260040160a060405180830381865afa1580156109c0573d5f5f3e3d5ffd5b505050506040513d601f19601f820116820180604052508101906109e49190610c55565b945094509450945094509091929394565b5f546001600160a01b031633146106005760405163118cdaa760e01b81523360048201526024016106a4565b600180546001600160a01b03191690556106b6815f80546001600160a01b038381166001600160a01b0319831681178455604051919092169283917f8be0079c531659141344cd1fd0a4f28419497f9722a3daafe3b4186f6b6457e09190a35050565b6001600160a01b03811681146106b6575f5ffd5b5f60208284031215610aa8575f5ffd5b8135610ab381610a84565b9392505050565b602081525f82518060208401528060208501604085015e5f604082850101526040601f19601f83011684010191505092915050565b69ffffffffffffffffffff811681146106b6575f5ffd5b5f60208284031215610b16575f5ffd5b8135610ab381610aef565b5f60208284031215610b31575f5ffd5b5035919050565b5f60208284031215610b48575f5ffd5b815160ff81168114610ab3575f5ffd5b808201808211156108c457634e487b7160e01b5f52601160045260245ffd5b5f60208284031215610b87575f5ffd5b5051919050565b634e487b7160e01b5f52604160045260245ffd5b5f60208284031215610bb2575f5ffd5b815167ffffffffffffffff811115610bc8575f5ffd5b8201601f81018413610bd8575f5ffd5b805167ffffffffffffffff811115610bf257610bf2610b8e565b604051601f8201601f19908116603f0116810167ffffffffffffffff81118282101715610c2157610c21610b8e565b604052818152828201602001861015610c38575f5ffd5b8160208401602083015e5f91810160200191909152949350505050565b5f5f5f5f5f60a08688031215610c69575f5ffd5b8551610c7481610aef565b60208701516040880151606089015160808a015193985091965094509250610c9b81610aef565b80915050929550929590935056fea2646970667358221220dabcf81b732684e3e8b642841db4a1ab30723e30996bbe97ba82b997708a8adc64736f6c634300081e0033",
  "solcInputHash": "02d8ea76e2916585716ca3d7d2aad7ad",
  "devdoc": {
    "errors": {
      "AccessControlBadConfirmation()": [
        {
          "details": "The caller of a function is not the expected one. NOTE: Don't confuse with {AccessControlUnauthorizedAccount}."
        }
      ],
      "AccessControlEnforcedDefaultAdminDelay(uint48)": [
        {
          "details": "The delay for transferring the default admin delay is enforced and the operation must wait until `schedule`. NOTE: `schedule` can be 0 indicating there's no transfer scheduled."
        }
      ],
      "AccessControlEnforcedDefaultAdminRules()": [
        {
          "details": "At least one of the following rules was violated: - The `DEFAULT_ADMIN_ROLE` must only be managed by itself. - The `DEFAULT_ADMIN_ROLE` must only be held by one account at the time. - Any `DEFAULT_ADMIN_ROLE` transfer must be in two delayed steps."
        }
      ],
      "AccessControlInvalidDefaultAdmin(address)": [
        {
          "details": "The new default admin is not a valid default admin."
        }
      ],
      "AccessControlUnauthorizedAccount(address,bytes32)": [
        {
          "details": "The `account` is missing a role."
        }
      ],
      "ReentrancyGuardReentrantCall()": [
        {
          "details": "Unauthorized reentrant call."
        }
      ],
      "SafeCastOverflowedUintDowncast(uint8,uint256)": [
        {
          "details": "Value doesn't fit in an uint of `bits` size."
        }
      ],
      "SafeERC20FailedOperation(address)": [
        {
          "details": "An operation with an ERC-20 token failed."
        }
      ]
    },
    "events": {
      "DefaultAdminDelayChangeCanceled()": {
        "details": "Emitted when a {pendingDefaultAdminDelay} is reset if its schedule didn't pass."
      },
      "DefaultAdminDelayChangeScheduled(uint48,uint48)": {
        "details": "Emitted when a {defaultAdminDelay} change is started, setting `newDelay` as the next delay to be applied between default admin transfer after `effectSchedule` has passed."
      },
      "DefaultAdminTransferCanceled()": {
        "details": "Emitted when a {pendingDefaultAdmin} is reset if it was never accepted, regardless of its schedule."
      },
      "DefaultAdminTransferScheduled(address,uint48)": {
        "details": "Emitted when a {defaultAdmin} transfer is started, setting `newAdmin` as the next address to become the {defaultAdmin} by calling {acceptDefaultAdminTransfer} only after `acceptSchedule` passes."
      },
      "RoleAdminChanged(bytes32,bytes32,bytes32)": {
        "details": "Emitted when `newAdminRole` is set as ``role``'s admin role, replacing `previousAdminRole` `DEFAULT_ADMIN_ROLE` is the starting admin for all roles, despite {RoleAdminChanged} not being emitted signaling this."
      },
      "RoleGranted(bytes32,address,address)": {
        "details": "Emitted when `account` is granted `role`. `sender` is the account that originated the contract call. This account bears the admin role (for the granted role). Expected in cases where the role was granted using the internal {AccessControl-_grantRole}."
      },
      "RoleRevoked(bytes32,address,address)": {
        "details": "Emitted when `account` is revoked `role`. `sender` is the account that originated the contract call:   - if using `revokeRole`, it is the admin role bearer   - if using `renounceRole`, it is the role bearer (i.e. `account`)"
      }
    },
    "kind": "dev",
    "methods": {
      "acceptDefaultAdminTransfer()": {
        "details": "Completes a {defaultAdmin} transfer previously started with {beginDefaultAdminTransfer}. After calling the function: - `DEFAULT_ADMIN_ROLE` should be granted to the caller. - `DEFAULT_ADMIN_ROLE` should be revoked from the previous holder. - {pendingDefaultAdmin} should be reset to zero values. Requirements: - Only can be called by the {pendingDefaultAdmin}'s `newAdmin`. - The {pendingDefaultAdmin}'s `acceptSchedule` should've passed."
      },
      "addToWhitelist(address,address,address,uint256)": {
        "params": {
          "oracle_": "Chainlink oracle address for token/USD feed",
          "stalePeriod_": "Custom stale period for oracle price",
          "token_": "token address to add in whitelist.",
          "vault_": "ERC4626 yield vault address correspond to _token"
        }
      },
      "beginDefaultAdminTransfer(address)": {
        "details": "Starts a {defaultAdmin} transfer by setting a {pendingDefaultAdmin} scheduled for acceptance after the current timestamp plus a {defaultAdminDelay}. Requirements: - Only can be called by the current {defaultAdmin}. Emits a DefaultAdminRoleChangeStarted event."
      },
      "cancelDefaultAdminTransfer()": {
        "details": "Cancels a {defaultAdmin} transfer previously started with {beginDefaultAdminTransfer}. A {pendingDefaultAdmin} not yet accepted can also be cancelled with this function. Requirements: - Only can be called by the current {defaultAdmin}. May emit a DefaultAdminTransferCanceled event."
      },
      "changeDefaultAdminDelay(uint48)": {
        "details": "Initiates a {defaultAdminDelay} update by setting a {pendingDefaultAdminDelay} scheduled for getting into effect after the current timestamp plus a {defaultAdminDelay}. This function guarantees that any call to {beginDefaultAdminTransfer} done between the timestamp this method is called and the {pendingDefaultAdminDelay} effect schedule will use the current {defaultAdminDelay} set before calling. The {pendingDefaultAdminDelay}'s effect schedule is defined in a way that waiting until the schedule and then calling {beginDefaultAdminTransfer} with the new delay will take at least the same as another {defaultAdmin} complete transfer (including acceptance). The schedule is designed for two scenarios: - When the delay is changed for a larger one the schedule is `block.timestamp + newDelay` capped by {defaultAdminDelayIncreaseWait}. - When the delay is changed for a shorter one, the schedule is `block.timestamp + (current delay - new delay)`. A {pendingDefaultAdminDelay} that never got into effect will be canceled in favor of a new scheduled change. Requirements: - Only can be called by the current {defaultAdmin}. Emits a DefaultAdminDelayChangeScheduled event and may emit a DefaultAdminDelayChangeCanceled event."
      },
      "defaultAdmin()": {
        "details": "Returns the address of the current `DEFAULT_ADMIN_ROLE` holder."
      },
      "defaultAdminDelay()": {
        "details": "Returns the delay required to schedule the acceptance of a {defaultAdmin} transfer started. This delay will be added to the current timestamp when calling {beginDefaultAdminTransfer} to set the acceptance schedule. NOTE: If a delay change has been scheduled, it will take effect as soon as the schedule passes, making this function returns the new delay. See {changeDefaultAdminDelay}."
      },
      "defaultAdminDelayIncreaseWait()": {
        "details": "Maximum time in seconds for an increase to {defaultAdminDelay} (that is scheduled using {changeDefaultAdminDelay}) to take effect. Default to 5 days. When the {defaultAdminDelay} is scheduled to be increased, it goes into effect after the new delay has passed with the purpose of giving enough time for reverting any accidental change (i.e. using milliseconds instead of seconds) that may lock the contract. However, to avoid excessive schedules, the wait is capped by this function and it can be overrode for a custom {defaultAdminDelay} increase scheduling. IMPORTANT: Make sure to add a reasonable amount of time while overriding this value, otherwise, there's a risk of setting a high new delay that goes into effect almost immediately without the possibility of human intervention in the case of an input error (eg. set milliseconds instead of seconds)."
      },
      "deposit(address,uint256)": {
        "details": "`depositActive` must be true to call deposit.",
        "params": {
          "amount_": "token amount",
          "token_": "token to deposit, must be one of the whitelisted tokens."
        }
      },
      "getRoleAdmin(bytes32)": {
        "details": "Returns the admin role that controls `role`. See {grantRole} and {revokeRole}. To change a role's admin, use {_setRoleAdmin}."
      },
      "grantRole(bytes32,address)": {
        "details": "See {AccessControl-grantRole}. Reverts for `DEFAULT_ADMIN_ROLE`."
      },
      "harvest(address,address)": {
        "params": {
          "receiver_": "Address to receive the withdrawn tokens",
          "token_": "Token address to withdraw excess"
        },
        "returns": {
          "_0": "Amount of tokens withdrawn"
        }
      },
      "hasRole(bytes32,address)": {
        "details": "Returns `true` if `account` has been granted `role`."
      },
      "migrate(address)": {
        "params": {
          "newTreasury_": "Address of new treasury of PeggedToken"
        }
      },
      "owner()": {
        "details": "See {IERC5313-owner}."
      },
      "pendingDefaultAdmin()": {
        "details": "Returns a tuple of a `newAdmin` and an accept schedule. After the `schedule` passes, the `newAdmin` will be able to accept the {defaultAdmin} role by calling {acceptDefaultAdminTransfer}, completing the role transfer. A zero value only in `acceptSchedule` indicates no pending admin transfer. NOTE: A zero address `newAdmin` means that {defaultAdmin} is being renounced."
      },
      "pendingDefaultAdminDelay()": {
        "details": "Returns a tuple of `newDelay` and an effect schedule. After the `schedule` passes, the `newDelay` will get into effect immediately for every new {defaultAdmin} transfer started with {beginDefaultAdminTransfer}. A zero value only in `effectSchedule` indicates no pending delay change. NOTE: A zero value only for `newDelay` means that the next {defaultAdminDelay} will be zero after the effect schedule."
      },
      "pull(address,uint256)": {
        "details": "Keeper is allowed to withdraw even if withdrawActive is false.Keeper can withdraw tokens at treasury address only.",
        "params": {
          "amount_": "token amount to withdraw",
          "token_": "token to withdraw from vault"
        }
      },
      "push(address,uint256)": {
        "details": "Keeper is allowed to deposit even if depositActive is false.",
        "params": {
          "amount_": "token amount to deposit",
          "token_": "token to deposit into the vault"
        }
      },
      "removeFromWhitelist(address)": {
        "details": "Removing token even if treasury has some balance of that token is intended behavior.",
        "params": {
          "token_": "token address to remove from whitelist."
        }
      },
      "renounceRole(bytes32,address)": {
        "details": "See {AccessControl-renounceRole}. For the `DEFAULT_ADMIN_ROLE`, it only allows renouncing in two steps by first calling {beginDefaultAdminTransfer} to the `address(0)`, so it's required that the {pendingDefaultAdmin} schedule has also passed when calling this function. After its execution, it will not be possible to call `onlyRole(DEFAULT_ADMIN_ROLE)` functions. NOTE: Renouncing `DEFAULT_ADMIN_ROLE` will leave the contract without a {defaultAdmin}, thereby disabling any functionality that is only available for it, and the possibility of reassigning a non-administrated role."
      },
      "revokeRole(bytes32,address)": {
        "details": "See {AccessControl-revokeRole}. Reverts for `DEFAULT_ADMIN_ROLE`."
      },
      "rollbackDefaultAdminDelay()": {
        "details": "Cancels a scheduled {defaultAdminDelay} change. Requirements: - Only can be called by the current {defaultAdmin}. May emit a DefaultAdminDelayChangeCanceled event."
      },
      "setDepositActive(address,bool)": {
        "params": {
          "active_": "The intended deposit active state",
          "token_": "Token to set deposit activity for"
        }
      },
      "setWithdrawActive(address,bool)": {
        "params": {
          "active_": "The intended withdraw active state",
          "token_": "Token to set withdraw activity for"
        }
      },
      "supportsInterface(bytes4)": {
        "details": "See {IERC165-supportsInterface}."
      },
      "sweep(address,address)": {
        "details": "DEFAULT_ADMIN_ROLE can call this and vault shares are not allowed to sweep",
        "params": {
          "fromToken_": "Token address to sweep",
          "receiver_": "recipient of tokens being swept"
        }
      },
      "updateOracle(address,address,uint256)": {
        "params": {
          "newStalePeriod_": "New stale period threshold in seconds",
          "oracle_": "New Chainlink oracle address",
          "token_": "Token to update oracle configuration for"
        }
      },
      "updateSwapper(address)": {
        "params": {
          "swapper_": "new swapper address"
        }
      },
      "withdraw(address,uint256,address)": {
        "details": "`withdrawActive` must be true to call withdraw.",
        "params": {
          "amount_": "token amount to withdraw",
          "tokenReceiver_": "address of token receiver",
          "token_": "token to withdraw, must be one of the whitelisted tokens."
        }
      },
      "withdrawable(address)": {
        "params": {
          "token_": "token address"
        }
      }
    },
    "title": "PeggedToken Treasury",
    "version": 1
  },
  "userdoc": {
    "kind": "user",
    "methods": {
      "addToWhitelist(address,address,address,uint256)": {
        "notice": "DEFAULT_ADMIN_ROLE: Add token as whitelisted token for PeggedToken"
      },
      "deposit(address,uint256)": {
        "notice": "onlyGateway: Deposit token to yield vault"
      },
      "harvest(address,address)": {
        "notice": "UMM_ROLE: Withdraw excess tokens from reserve. Note: As treasury reserve is in multiple tokens, there is no guarantee that this function will withdraw all of the excess in given token."
      },
      "isWhitelistedToken(address)": {
        "notice": "Returns whether given token is whitelisted"
      },
      "migrate(address)": {
        "notice": "DEFAULT_ADMIN_ROLE: Migrate assets to new treasury"
      },
      "pull(address,uint256)": {
        "notice": "KEEPER_ROLE: Withdraw token from vault."
      },
      "push(address,uint256)": {
        "notice": "KEEPER_ROLE: Deposit token into the vault"
      },
      "removeFromWhitelist(address)": {
        "notice": "DEFAULT_ADMIN_ROLE: Remove token from whitelist"
      },
      "reserve()": {
        "notice": "Returns total reserve value denominated in PeggedToken units"
      },
      "setDepositActive(address,bool)": {
        "notice": "KEEPER_ROLE: Set deposit activity for a whitelisted token"
      },
      "setWithdrawActive(address,bool)": {
        "notice": "KEEPER_ROLE: Set withdraw activity for a whitelisted token"
      },
      "sweep(address,address)": {
        "notice": "DEFAULT_ADMIN_ROLE: Sweep any ERC20 token to owner address"
      },
      "updateOracle(address,address,uint256)": {
        "notice": "MAINTAINER_ROLE: Update oracle and stale period"
      },
      "updatePriceTolerance(uint256)": {
        "notice": "MAINTAINER_ROLE: Update oracle price tolerance"
      },
      "updateSwapper(address)": {
        "notice": "MAINTAINER_ROLE: Update swapper address"
      },
      "whitelistedTokens()": {
        "notice": "Return list of whitelisted tokens"
      },
      "withdraw(address,uint256,address)": {
        "notice": "onlyGateway: Withdraw given amount of token."
      },
      "withdrawable(address)": {
        "notice": "Current withdrawable for given token. If token is not supported by treasury it will return 0."
      }
    },
    "version": 1
  },
  "storageLayout": {
    "storage": [
      {
        "astId": 3288,
        "contract": "src/Treasury.sol:Treasury",
        "label": "_roles",
        "offset": 0,
        "slot": "0",
        "type": "t_mapping(t_bytes32,t_struct(RoleData)3283_storage)"
      },
      {
        "astId": 3896,
        "contract": "src/Treasury.sol:Treasury",
        "label": "_pendingDefaultAdmin",
        "offset": 0,
        "slot": "1",
        "type": "t_address"
      },
      {
        "astId": 3898,
        "contract": "src/Treasury.sol:Treasury",
        "label": "_pendingDefaultAdminSchedule",
        "offset": 20,
        "slot": "1",
        "type": "t_uint48"
      },
      {
        "astId": 3900,
        "contract": "src/Treasury.sol:Treasury",
        "label": "_currentDelay",
        "offset": 26,
        "slot": "1",
        "type": "t_uint48"
      },
      {
        "astId": 3902,
        "contract": "src/Treasury.sol:Treasury",
        "label": "_currentDefaultAdmin",
        "offset": 0,
        "slot": "2",
        "type": "t_address"
      },
      {
        "astId": 3904,
        "contract": "src/Treasury.sol:Treasury",
        "label": "_pendingDelay",
        "offset": 20,
        "slot": "2",
        "type": "t_uint48"
      },
      {
        "astId": 3906,
        "contract": "src/Treasury.sol:Treasury",
        "label": "_pendingDelaySchedule",
        "offset": 26,
        "slot": "2",
        "type": "t_uint48"
      },
      {
        "astId": 17718,
        "contract": "src/Treasury.sol:Treasury",
        "label": "NAME",
        "offset": 0,
        "slot": "3",
        "type": "t_string_storage"
      },
      {
        "astId": 17748,
        "contract": "src/Treasury.sol:Treasury",
        "label": "priceTolerance",
        "offset": 0,
        "slot": "4",
        "type": "t_uint256"
      },
      {
        "astId": 17753,
        "contract": "src/Treasury.sol:Treasury",
        "label": "swapper",
        "offset": 0,
        "slot": "5",
        "type": "t_address"
      },
      {
        "astId": 17771,
        "contract": "src/Treasury.sol:Treasury",
        "label": "tokenConfig",
        "offset": 0,
        "slot": "6",
        "type": "t_mapping(t_address,t_struct(TokenConfig)17766_storage)"
      },
      {
        "astId": 17774,
        "contract": "src/Treasury.sol:Treasury",
        "label": "_whitelistedTokens",
        "offset": 0,
        "slot": "7",
        "type": "t_struct(AddressSet)13065_storage"
      }
    ],
    "types": {
      "t_address": {
        "encoding": "inplace",
        "label": "address",
        "numberOfBytes": "20"
      },
      "t_array(t_bytes32)dyn_storage": {
        "base": "t_bytes32",
        "encoding": "dynamic_array",
        "label": "bytes32[]",
        "numberOfBytes": "32"
      },
      "t_bool": {
        "encoding": "inplace",
        "label": "bool",
        "numberOfBytes": "1"
      },
      "t_bytes32": {
        "encoding": "inplace",
        "label": "bytes32",
        "numberOfBytes": "32"
      },
      "t_mapping(t_address,t_bool)": {
        "encoding": "mapping",
        "key": "t_address",
        "label": "mapping(address => bool)",
        "numberOfBytes": "32",
        "value": "t_bool"
      },
      "t_mapping(t_address,t_struct(TokenConfig)17766_storage)": {
        "encoding": "mapping",
        "key": "t_address",
        "label": "mapping(address => struct Treasury.TokenConfig)",
        "numberOfBytes": "32",
        "value": "t_struct(TokenConfig)17766_storage"
      },
      "t_mapping(t_bytes32,t_struct(RoleData)3283_storage)": {
        "encoding": "mapping",
        "key": "t_bytes32",
        "label": "mapping(bytes32 => struct AccessControl.RoleData)",
        "numberOfBytes": "32",
        "value": "t_struct(RoleData)3283_storage"
      },
      "t_mapping(t_bytes32,t_uint256)": {
        "encoding": "mapping",
        "key": "t_bytes32",
        "label": "mapping(bytes32 => uint256)",
        "numberOfBytes": "32",
        "value": "t_uint256"
      },
      "t_string_storage": {
        "encoding": "bytes",
        "label": "string",
        "numberOfBytes": "32"
      },
      "t_struct(AddressSet)13065_storage": {
        "encoding": "inplace",
        "label": "struct EnumerableSet.AddressSet",
        "members": [
          {
            "astId": 13064,
            "contract": "src/Treasury.sol:Treasury",
            "label": "_inner",
            "offset": 0,
            "slot": "0",
            "type": "t_struct(Set)12750_storage"
          }
        ],
        "numberOfBytes": "64"
      },
      "t_struct(RoleData)3283_storage": {
        "encoding": "inplace",
        "label": "struct AccessControl.RoleData",
        "members": [
          {
            "astId": 3280,
            "contract": "src/Treasury.sol:Treasury",
            "label": "hasRole",
            "offset": 0,
            "slot": "0",
            "type": "t_mapping(t_address,t_bool)"
          },
          {
            "astId": 3282,
            "contract": "src/Treasury.sol:Treasury",
            "label": "adminRole",
            "offset": 0,
            "slot": "1",
            "type": "t_bytes32"
          }
        ],
        "numberOfBytes": "64"
      },
      "t_struct(Set)12750_storage": {
        "encoding": "inplace",
        "label": "struct EnumerableSet.Set",
        "members": [
          {
            "astId": 12745,
            "contract": "src/Treasury.sol:Treasury",
            "label": "_values",
            "offset": 0,
            "slot": "0",
            "type": "t_array(t_bytes32)dyn_storage"
          },
          {
            "astId": 12749,
            "contract": "src/Treasury.sol:Treasury",
            "label": "_positions",
            "offset": 0,
            "slot": "1",
            "type": "t_mapping(t_bytes32,t_uint256)"
          }
        ],
        "numberOfBytes": "64"
      },
      "t_struct(TokenConfig)17766_storage": {
        "encoding": "inplace",
        "label": "struct Treasury.TokenConfig",
        "members": [
          {
            "astId": 17755,
            "contract": "src/Treasury.sol:Treasury",
            "label": "vault",
            "offset": 0,
            "slot": "0",
            "type": "t_address"
          },
          {
            "astId": 17757,
            "contract": "src/Treasury.sol:Treasury",
            "label": "oracle",
            "offset": 0,
            "slot": "1",
            "type": "t_address"
          },
          {
            "astId": 17759,
            "contract": "src/Treasury.sol:Treasury",
            "label": "stalePeriod",
            "offset": 0,
            "slot": "2",
            "type": "t_uint256"
          },
          {
            "astId": 17761,
            "contract": "src/Treasury.sol:Treasury",
            "label": "depositActive",
            "offset": 0,
            "slot": "3",
            "type": "t_bool"
          },
          {
            "astId": 17763,
            "contract": "src/Treasury.sol:Treasury",
            "label": "withdrawActive",
            "offset": 1,
            "slot": "3",
            "type": "t_bool"
          },
          {
            "astId": 17765,
            "contract": "src/Treasury.sol:Treasury",
            "label": "decimals",
            "offset": 2,
            "slot": "3",
            "type": "t_uint8"
          }
        ],
        "numberOfBytes": "128"
      },
      "t_uint256": {
        "encoding": "inplace",
        "label": "uint256",
        "numberOfBytes": "32"
      },
      "t_uint48": {
        "encoding": "inplace",
        "label": "uint48",
        "numberOfBytes": "6"
      },
      "t_uint8": {
        "encoding": "inplace",
        "label": "uint8",
        "numberOfBytes": "1"
      }
    }
  }
}