{
  "address": "0x3B677f95A3B340A655Cd39a13FC056F625bB9492",
  "abi": [
    {
      "inputs": [],
      "stateMutability": "nonpayable",
      "type": "constructor"
    },
    {
      "inputs": [
        {
          "internalType": "address",
          "name": "account",
          "type": "address"
        },
        {
          "internalType": "bytes32",
          "name": "role",
          "type": "bytes32"
        }
      ],
      "name": "AccessControlUnauthorizedAccount",
      "type": "error"
    },
    {
      "inputs": [
        {
          "internalType": "address",
          "name": "account",
          "type": "address"
        }
      ],
      "name": "AccountAlreadyWhitelisted",
      "type": "error"
    },
    {
      "inputs": [
        {
          "internalType": "address",
          "name": "account",
          "type": "address"
        }
      ],
      "name": "AccountNotWhitelisted",
      "type": "error"
    },
    {
      "inputs": [],
      "name": "AddressIsZero",
      "type": "error"
    },
    {
      "inputs": [
        {
          "internalType": "uint256",
          "name": "requested",
          "type": "uint256"
        },
        {
          "internalType": "uint256",
          "name": "available",
          "type": "uint256"
        }
      ],
      "name": "AmoBurnExceedsSupply",
      "type": "error"
    },
    {
      "inputs": [],
      "name": "AmountIsZero",
      "type": "error"
    },
    {
      "inputs": [
        {
          "internalType": "address",
          "name": "caller",
          "type": "address"
        }
      ],
      "name": "CallerNotWhitelisted",
      "type": "error"
    },
    {
      "inputs": [
        {
          "internalType": "uint256",
          "name": "requested",
          "type": "uint256"
        },
        {
          "internalType": "uint256",
          "name": "available",
          "type": "uint256"
        }
      ],
      "name": "ExceededExcessReserve",
      "type": "error"
    },
    {
      "inputs": [
        {
          "internalType": "uint256",
          "name": "requested",
          "type": "uint256"
        },
        {
          "internalType": "uint256",
          "name": "available",
          "type": "uint256"
        }
      ],
      "name": "ExceededMaxMint",
      "type": "error"
    },
    {
      "inputs": [
        {
          "internalType": "uint256",
          "name": "requested",
          "type": "uint256"
        },
        {
          "internalType": "uint256",
          "name": "available",
          "type": "uint256"
        }
      ],
      "name": "ExceededMaxWithdraw",
      "type": "error"
    },
    {
      "inputs": [
        {
          "internalType": "address",
          "name": "token",
          "type": "address"
        }
      ],
      "name": "FeeOnTransferToken",
      "type": "error"
    },
    {
      "inputs": [
        {
          "internalType": "uint256",
          "name": "limit",
          "type": "uint256"
        },
        {
          "internalType": "uint256",
          "name": "constraint",
          "type": "uint256"
        }
      ],
      "name": "InvalidAmoMintLimit",
      "type": "error"
    },
    {
      "inputs": [],
      "name": "InvalidInitialization",
      "type": "error"
    },
    {
      "inputs": [
        {
          "internalType": "uint256",
          "name": "fee",
          "type": "uint256"
        }
      ],
      "name": "InvalidMintFee",
      "type": "error"
    },
    {
      "inputs": [
        {
          "internalType": "uint256",
          "name": "fee",
          "type": "uint256"
        }
      ],
      "name": "InvalidRedeemFee",
      "type": "error"
    },
    {
      "inputs": [],
      "name": "InvalidWithdrawalDelay",
      "type": "error"
    },
    {
      "inputs": [
        {
          "internalType": "uint256",
          "name": "peggedTokenOut",
          "type": "uint256"
        },
        {
          "internalType": "uint256",
          "name": "minPeggedTokenOut",
          "type": "uint256"
        }
      ],
      "name": "MintableIsLessThanMinimum",
      "type": "error"
    },
    {
      "inputs": [],
      "name": "NoActiveWithdrawalRequest",
      "type": "error"
    },
    {
      "inputs": [
        {
          "internalType": "uint256",
          "name": "reserve",
          "type": "uint256"
        },
        {
          "internalType": "uint256",
          "name": "supply",
          "type": "uint256"
        }
      ],
      "name": "NoExcessReserve",
      "type": "error"
    },
    {
      "inputs": [],
      "name": "NotInitializing",
      "type": "error"
    },
    {
      "inputs": [
        {
          "internalType": "uint256",
          "name": "peggedTokenIn",
          "type": "uint256"
        },
        {
          "internalType": "uint256",
          "name": "maxPeggedTokenIn",
          "type": "uint256"
        }
      ],
      "name": "PeggedTokenToBurnIsHigherThanMax",
      "type": "error"
    },
    {
      "inputs": [
        {
          "internalType": "uint256",
          "name": "tokenOut",
          "type": "uint256"
        },
        {
          "internalType": "uint256",
          "name": "minTokenOut",
          "type": "uint256"
        }
      ],
      "name": "RedeemableIsLessThanMinimum",
      "type": "error"
    },
    {
      "inputs": [],
      "name": "ReentrancyGuardReentrantCall",
      "type": "error"
    },
    {
      "inputs": [
        {
          "internalType": "address",
          "name": "token",
          "type": "address"
        }
      ],
      "name": "SafeERC20FailedOperation",
      "type": "error"
    },
    {
      "inputs": [
        {
          "internalType": "uint256",
          "name": "tokenIn",
          "type": "uint256"
        },
        {
          "internalType": "uint256",
          "name": "maxTokenIn",
          "type": "uint256"
        }
      ],
      "name": "TokenAmountIsHigherThanMax",
      "type": "error"
    },
    {
      "inputs": [
        {
          "internalType": "address",
          "name": "token",
          "type": "address"
        }
      ],
      "name": "TokenNotSupported",
      "type": "error"
    },
    {
      "inputs": [],
      "name": "WithdrawalDelayFeatureNotEnabled",
      "type": "error"
    },
    {
      "anonymous": false,
      "inputs": [
        {
          "indexed": true,
          "internalType": "address",
          "name": "account",
          "type": "address"
        }
      ],
      "name": "AddedToInstantRedeemWhitelist",
      "type": "event"
    },
    {
      "anonymous": false,
      "inputs": [
        {
          "indexed": false,
          "internalType": "uint256",
          "name": "amountBurned",
          "type": "uint256"
        },
        {
          "indexed": false,
          "internalType": "uint256",
          "name": "newAmoSupply",
          "type": "uint256"
        }
      ],
      "name": "BurnedFromAMO",
      "type": "event"
    },
    {
      "anonymous": false,
      "inputs": [
        {
          "indexed": true,
          "internalType": "address",
          "name": "token",
          "type": "address"
        },
        {
          "indexed": false,
          "internalType": "uint256",
          "name": "tokenAmount",
          "type": "uint256"
        },
        {
          "indexed": false,
          "internalType": "uint256",
          "name": "peggedTokenAmount",
          "type": "uint256"
        },
        {
          "indexed": true,
          "internalType": "address",
          "name": "receiver",
          "type": "address"
        }
      ],
      "name": "Deposit",
      "type": "event"
    },
    {
      "anonymous": false,
      "inputs": [
        {
          "indexed": false,
          "internalType": "uint64",
          "name": "version",
          "type": "uint64"
        }
      ],
      "name": "Initialized",
      "type": "event"
    },
    {
      "anonymous": false,
      "inputs": [
        {
          "indexed": false,
          "internalType": "uint256",
          "name": "previousMintLimit",
          "type": "uint256"
        },
        {
          "indexed": false,
          "internalType": "uint256",
          "name": "newMintLimit",
          "type": "uint256"
        }
      ],
      "name": "MintLimitUpdated",
      "type": "event"
    },
    {
      "anonymous": false,
      "inputs": [
        {
          "indexed": true,
          "internalType": "address",
          "name": "receiver",
          "type": "address"
        },
        {
          "indexed": false,
          "internalType": "uint256",
          "name": "amountMinted",
          "type": "uint256"
        },
        {
          "indexed": false,
          "internalType": "uint256",
          "name": "newAmoSupply",
          "type": "uint256"
        }
      ],
      "name": "MintedToAMO",
      "type": "event"
    },
    {
      "anonymous": false,
      "inputs": [
        {
          "indexed": true,
          "internalType": "address",
          "name": "user",
          "type": "address"
        },
        {
          "indexed": false,
          "internalType": "uint256",
          "name": "amount",
          "type": "uint256"
        }
      ],
      "name": "RedeemRequestCancelled",
      "type": "event"
    },
    {
      "anonymous": false,
      "inputs": [
        {
          "indexed": true,
          "internalType": "address",
          "name": "user",
          "type": "address"
        },
        {
          "indexed": false,
          "internalType": "uint256",
          "name": "amount",
          "type": "uint256"
        },
        {
          "indexed": false,
          "internalType": "uint256",
          "name": "claimableAt",
          "type": "uint256"
        }
      ],
      "name": "RedeemRequested",
      "type": "event"
    },
    {
      "anonymous": false,
      "inputs": [
        {
          "indexed": true,
          "internalType": "address",
          "name": "account",
          "type": "address"
        }
      ],
      "name": "RemovedFromInstantRedeemWhitelist",
      "type": "event"
    },
    {
      "anonymous": false,
      "inputs": [
        {
          "indexed": false,
          "internalType": "uint256",
          "name": "previousLimit",
          "type": "uint256"
        },
        {
          "indexed": false,
          "internalType": "uint256",
          "name": "newLimit",
          "type": "uint256"
        }
      ],
      "name": "UpdatedAmoMintLimit",
      "type": "event"
    },
    {
      "anonymous": false,
      "inputs": [
        {
          "indexed": false,
          "internalType": "uint256",
          "name": "previousMintFee",
          "type": "uint256"
        },
        {
          "indexed": false,
          "internalType": "uint256",
          "name": "newMintFee",
          "type": "uint256"
        }
      ],
      "name": "UpdatedMintFee",
      "type": "event"
    },
    {
      "anonymous": false,
      "inputs": [
        {
          "indexed": false,
          "internalType": "uint256",
          "name": "previousRedeemFee",
          "type": "uint256"
        },
        {
          "indexed": false,
          "internalType": "uint256",
          "name": "newRedeemFee",
          "type": "uint256"
        }
      ],
      "name": "UpdatedRedeemFee",
      "type": "event"
    },
    {
      "anonymous": false,
      "inputs": [
        {
          "indexed": true,
          "internalType": "address",
          "name": "token",
          "type": "address"
        },
        {
          "indexed": false,
          "internalType": "uint256",
          "name": "tokenAmount",
          "type": "uint256"
        },
        {
          "indexed": false,
          "internalType": "uint256",
          "name": "peggedTokenAmount",
          "type": "uint256"
        },
        {
          "indexed": true,
          "internalType": "address",
          "name": "receiver",
          "type": "address"
        }
      ],
      "name": "Withdraw",
      "type": "event"
    },
    {
      "anonymous": false,
      "inputs": [
        {
          "indexed": false,
          "internalType": "bool",
          "name": "enabled",
          "type": "bool"
        }
      ],
      "name": "WithdrawalDelayToggled",
      "type": "event"
    },
    {
      "anonymous": false,
      "inputs": [
        {
          "indexed": false,
          "internalType": "uint256",
          "name": "previousDelay",
          "type": "uint256"
        },
        {
          "indexed": false,
          "internalType": "uint256",
          "name": "newDelay",
          "type": "uint256"
        }
      ],
      "name": "WithdrawalDelayUpdated",
      "type": "event"
    },
    {
      "inputs": [],
      "name": "MAX_BPS",
      "outputs": [
        {
          "internalType": "uint256",
          "name": "",
          "type": "uint256"
        }
      ],
      "stateMutability": "view",
      "type": "function"
    },
    {
      "inputs": [],
      "name": "NAME",
      "outputs": [
        {
          "internalType": "string",
          "name": "",
          "type": "string"
        }
      ],
      "stateMutability": "view",
      "type": "function"
    },
    {
      "inputs": [],
      "name": "PEGGED_TOKEN",
      "outputs": [
        {
          "internalType": "contract IPeggedToken",
          "name": "",
          "type": "address"
        }
      ],
      "stateMutability": "view",
      "type": "function"
    },
    {
      "inputs": [],
      "name": "VERSION",
      "outputs": [
        {
          "internalType": "string",
          "name": "",
          "type": "string"
        }
      ],
      "stateMutability": "view",
      "type": "function"
    },
    {
      "inputs": [
        {
          "internalType": "address",
          "name": "account_",
          "type": "address"
        }
      ],
      "name": "addToInstantRedeemWhitelist",
      "outputs": [],
      "stateMutability": "nonpayable",
      "type": "function"
    },
    {
      "inputs": [],
      "name": "amoMintLimit",
      "outputs": [
        {
          "internalType": "uint256",
          "name": "",
          "type": "uint256"
        }
      ],
      "stateMutability": "view",
      "type": "function"
    },
    {
      "inputs": [],
      "name": "amoSupply",
      "outputs": [
        {
          "internalType": "uint256",
          "name": "",
          "type": "uint256"
        }
      ],
      "stateMutability": "view",
      "type": "function"
    },
    {
      "inputs": [
        {
          "internalType": "uint256",
          "name": "amount_",
          "type": "uint256"
        }
      ],
      "name": "burnFromAMO",
      "outputs": [],
      "stateMutability": "nonpayable",
      "type": "function"
    },
    {
      "inputs": [],
      "name": "cancelRedeemRequest",
      "outputs": [],
      "stateMutability": "nonpayable",
      "type": "function"
    },
    {
      "inputs": [
        {
          "internalType": "address",
          "name": "tokenIn_",
          "type": "address"
        },
        {
          "internalType": "uint256",
          "name": "amountIn_",
          "type": "uint256"
        },
        {
          "internalType": "uint256",
          "name": "minPeggedTokenOut_",
          "type": "uint256"
        },
        {
          "internalType": "address",
          "name": "receiver_",
          "type": "address"
        }
      ],
      "name": "deposit",
      "outputs": [
        {
          "internalType": "uint256",
          "name": "",
          "type": "uint256"
        }
      ],
      "stateMutability": "nonpayable",
      "type": "function"
    },
    {
      "inputs": [],
      "name": "getInstantRedeemWhitelist",
      "outputs": [
        {
          "internalType": "address[]",
          "name": "",
          "type": "address[]"
        }
      ],
      "stateMutability": "view",
      "type": "function"
    },
    {
      "inputs": [
        {
          "internalType": "address",
          "name": "user_",
          "type": "address"
        }
      ],
      "name": "getRedeemRequest",
      "outputs": [
        {
          "internalType": "uint256",
          "name": "amountLocked",
          "type": "uint256"
        },
        {
          "internalType": "uint256",
          "name": "claimableAt",
          "type": "uint256"
        }
      ],
      "stateMutability": "view",
      "type": "function"
    },
    {
      "inputs": [
        {
          "internalType": "address",
          "name": "peggedToken_",
          "type": "address"
        },
        {
          "internalType": "uint256",
          "name": "mintLimit_",
          "type": "uint256"
        },
        {
          "internalType": "uint256",
          "name": "initialWithdrawalDelay_",
          "type": "uint256"
        }
      ],
      "name": "initialize",
      "outputs": [],
      "stateMutability": "nonpayable",
      "type": "function"
    },
    {
      "inputs": [
        {
          "internalType": "address",
          "name": "account_",
          "type": "address"
        }
      ],
      "name": "isInstantRedeemWhitelisted",
      "outputs": [
        {
          "internalType": "bool",
          "name": "",
          "type": "bool"
        }
      ],
      "stateMutability": "view",
      "type": "function"
    },
    {
      "inputs": [],
      "name": "maxAmoMint",
      "outputs": [
        {
          "internalType": "uint256",
          "name": "",
          "type": "uint256"
        }
      ],
      "stateMutability": "view",
      "type": "function"
    },
    {
      "inputs": [],
      "name": "maxDeposit",
      "outputs": [
        {
          "internalType": "uint256",
          "name": "",
          "type": "uint256"
        }
      ],
      "stateMutability": "pure",
      "type": "function"
    },
    {
      "inputs": [],
      "name": "maxMint",
      "outputs": [
        {
          "internalType": "uint256",
          "name": "",
          "type": "uint256"
        }
      ],
      "stateMutability": "view",
      "type": "function"
    },
    {
      "inputs": [
        {
          "internalType": "address",
          "name": "owner_",
          "type": "address"
        }
      ],
      "name": "maxRedeem",
      "outputs": [
        {
          "internalType": "uint256",
          "name": "",
          "type": "uint256"
        }
      ],
      "stateMutability": "view",
      "type": "function"
    },
    {
      "inputs": [
        {
          "internalType": "address",
          "name": "tokenOut_",
          "type": "address"
        }
      ],
      "name": "maxWithdraw",
      "outputs": [
        {
          "internalType": "uint256",
          "name": "",
          "type": "uint256"
        }
      ],
      "stateMutability": "view",
      "type": "function"
    },
    {
      "inputs": [
        {
          "internalType": "address",
          "name": "tokenIn_",
          "type": "address"
        },
        {
          "internalType": "uint256",
          "name": "peggedTokenOut_",
          "type": "uint256"
        },
        {
          "internalType": "uint256",
          "name": "maxAmountIn_",
          "type": "uint256"
        },
        {
          "internalType": "address",
          "name": "receiver_",
          "type": "address"
        }
      ],
      "name": "mint",
      "outputs": [
        {
          "internalType": "uint256",
          "name": "",
          "type": "uint256"
        }
      ],
      "stateMutability": "nonpayable",
      "type": "function"
    },
    {
      "inputs": [],
      "name": "mintFee",
      "outputs": [
        {
          "internalType": "uint256",
          "name": "",
          "type": "uint256"
        }
      ],
      "stateMutability": "view",
      "type": "function"
    },
    {
      "inputs": [],
      "name": "mintLimit",
      "outputs": [
        {
          "internalType": "uint256",
          "name": "",
          "type": "uint256"
        }
      ],
      "stateMutability": "view",
      "type": "function"
    },
    {
      "inputs": [
        {
          "internalType": "uint256",
          "name": "amount_",
          "type": "uint256"
        },
        {
          "internalType": "address",
          "name": "receiver_",
          "type": "address"
        }
      ],
      "name": "mintToAMO",
      "outputs": [],
      "stateMutability": "nonpayable",
      "type": "function"
    },
    {
      "inputs": [],
      "name": "owner",
      "outputs": [
        {
          "internalType": "address",
          "name": "",
          "type": "address"
        }
      ],
      "stateMutability": "view",
      "type": "function"
    },
    {
      "inputs": [
        {
          "internalType": "address",
          "name": "tokenIn_",
          "type": "address"
        },
        {
          "internalType": "uint256",
          "name": "amountIn_",
          "type": "uint256"
        }
      ],
      "name": "previewDeposit",
      "outputs": [
        {
          "internalType": "uint256",
          "name": "",
          "type": "uint256"
        }
      ],
      "stateMutability": "view",
      "type": "function"
    },
    {
      "inputs": [
        {
          "internalType": "address",
          "name": "tokenIn_",
          "type": "address"
        },
        {
          "internalType": "uint256",
          "name": "peggedTokenOut_",
          "type": "uint256"
        }
      ],
      "name": "previewMint",
      "outputs": [
        {
          "internalType": "uint256",
          "name": "",
          "type": "uint256"
        }
      ],
      "stateMutability": "view",
      "type": "function"
    },
    {
      "inputs": [
        {
          "internalType": "address",
          "name": "tokenOut_",
          "type": "address"
        },
        {
          "internalType": "uint256",
          "name": "peggedTokenIn_",
          "type": "uint256"
        }
      ],
      "name": "previewRedeem",
      "outputs": [
        {
          "internalType": "uint256",
          "name": "",
          "type": "uint256"
        }
      ],
      "stateMutability": "view",
      "type": "function"
    },
    {
      "inputs": [
        {
          "internalType": "address",
          "name": "tokenOut_",
          "type": "address"
        },
        {
          "internalType": "uint256",
          "name": "amountOut_",
          "type": "uint256"
        }
      ],
      "name": "previewWithdraw",
      "outputs": [
        {
          "internalType": "uint256",
          "name": "",
          "type": "uint256"
        }
      ],
      "stateMutability": "view",
      "type": "function"
    },
    {
      "inputs": [
        {
          "internalType": "address",
          "name": "tokenOut_",
          "type": "address"
        },
        {
          "internalType": "uint256",
          "name": "peggedTokenIn_",
          "type": "uint256"
        },
        {
          "internalType": "uint256",
          "name": "minAmountOut_",
          "type": "uint256"
        },
        {
          "internalType": "address",
          "name": "receiver_",
          "type": "address"
        }
      ],
      "name": "redeem",
      "outputs": [
        {
          "internalType": "uint256",
          "name": "",
          "type": "uint256"
        }
      ],
      "stateMutability": "nonpayable",
      "type": "function"
    },
    {
      "inputs": [],
      "name": "redeemFee",
      "outputs": [
        {
          "internalType": "uint256",
          "name": "",
          "type": "uint256"
        }
      ],
      "stateMutability": "view",
      "type": "function"
    },
    {
      "inputs": [
        {
          "internalType": "address",
          "name": "account_",
          "type": "address"
        }
      ],
      "name": "removeFromInstantRedeemWhitelist",
      "outputs": [],
      "stateMutability": "nonpayable",
      "type": "function"
    },
    {
      "inputs": [
        {
          "internalType": "uint256",
          "name": "peggedTokenAmount_",
          "type": "uint256"
        }
      ],
      "name": "requestRedeem",
      "outputs": [],
      "stateMutability": "nonpayable",
      "type": "function"
    },
    {
      "inputs": [],
      "name": "toggleWithdrawalDelay",
      "outputs": [],
      "stateMutability": "nonpayable",
      "type": "function"
    },
    {
      "inputs": [],
      "name": "treasury",
      "outputs": [
        {
          "internalType": "address",
          "name": "",
          "type": "address"
        }
      ],
      "stateMutability": "view",
      "type": "function"
    },
    {
      "inputs": [
        {
          "internalType": "uint256",
          "name": "newAmoMintLimit_",
          "type": "uint256"
        }
      ],
      "name": "updateAmoMintLimit",
      "outputs": [],
      "stateMutability": "nonpayable",
      "type": "function"
    },
    {
      "inputs": [
        {
          "internalType": "uint256",
          "name": "newMintFee_",
          "type": "uint256"
        }
      ],
      "name": "updateMintFee",
      "outputs": [],
      "stateMutability": "nonpayable",
      "type": "function"
    },
    {
      "inputs": [
        {
          "internalType": "uint256",
          "name": "newMintLimit_",
          "type": "uint256"
        }
      ],
      "name": "updateMintLimit",
      "outputs": [],
      "stateMutability": "nonpayable",
      "type": "function"
    },
    {
      "inputs": [
        {
          "internalType": "uint256",
          "name": "newRedeemFee_",
          "type": "uint256"
        }
      ],
      "name": "updateRedeemFee",
      "outputs": [],
      "stateMutability": "nonpayable",
      "type": "function"
    },
    {
      "inputs": [
        {
          "internalType": "uint256",
          "name": "newDelay_",
          "type": "uint256"
        }
      ],
      "name": "updateWithdrawalDelay",
      "outputs": [],
      "stateMutability": "nonpayable",
      "type": "function"
    },
    {
      "inputs": [
        {
          "internalType": "address",
          "name": "tokenOut_",
          "type": "address"
        },
        {
          "internalType": "uint256",
          "name": "amountOut_",
          "type": "uint256"
        },
        {
          "internalType": "uint256",
          "name": "maxPeggedTokenIn_",
          "type": "uint256"
        },
        {
          "internalType": "address",
          "name": "receiver_",
          "type": "address"
        }
      ],
      "name": "withdraw",
      "outputs": [
        {
          "internalType": "uint256",
          "name": "",
          "type": "uint256"
        }
      ],
      "stateMutability": "nonpayable",
      "type": "function"
    },
    {
      "inputs": [],
      "name": "withdrawalDelay",
      "outputs": [
        {
          "internalType": "uint256",
          "name": "",
          "type": "uint256"
        }
      ],
      "stateMutability": "view",
      "type": "function"
    },
    {
      "inputs": [],
      "name": "withdrawalDelayEnabled",
      "outputs": [
        {
          "internalType": "bool",
          "name": "",
          "type": "bool"
        }
      ],
      "stateMutability": "view",
      "type": "function"
    }
  ],
  "transactionHash": "0x0df887639ffb2b4d1a866abe50267d712186810d884eb13323fb00c4c39fae94",
  "args": [],
  "numDeployments": 1,
  "solcInputHash": "7cc6ed228f6fbdc65c13c8b508fad749",
  "bytecode": "0x6080604052348015600e575f5ffd5b5060156019565b60c9565b7ff0c57e16840df040f15088dc2f81fe391c3923bec73e23a9662efc9c229c6a00805468010000000000000000900460ff161560685760405163f92ee8a960e01b815260040160405180910390fd5b80546001600160401b039081161460c65780546001600160401b0319166001600160401b0390811782556040519081527fc7f505b2f371ae2175ee4913f4499e1f2633a7b5936321eed1cdaeb6115181d29060200160405180910390a15b50565b612db3806100d65f395ff3fe608060405234801561000f575f5ffd5b5060043610610255575f3560e01c8063996517cf11610140578063d392ff84116100bf578063e2ad443011610084578063e2ad4430146104c4578063f4a8bfce146104cc578063f74bfe8e146104df578063fb00d514146104f2578063fd967f4714610505578063ffa1ad741461050e575f5ffd5b8063d392ff8414610470578063d7811ca814610478578063d905777e1461048b578063dc4aca0b1461049e578063e01d55c5146104b1575f5ffd5b8063bba6b6d911610105578063bba6b6d914610411578063bbc6f1dc14610424578063cbe52ae314610437578063ce96cb771461044a578063d1f810a51461045d575f5ffd5b8063996517cf146103c6578063a3f4df7e146103ce578063a7ab6961146103e3578063aa2f892d146103eb578063b8f82b26146103fe575f5ffd5b8063569e7665116101d757806384017e521161019c57806384017e521461037557806385a8715c14610388578063864cf4061461039b5780638b6099db146103a35780638da5cb5b146103b6578063965fa21e146103be575f5ffd5b8063569e7665146103385780636083e59a1461034b57806361d027b3146103525780637501f7411461035a5780637a1ac61e14610362575f5ffd5b80633c05e18f1161021d5780633c05e18f146102b057806343bcfab6146102d85780634b5f70e9146102eb5780634e485cf71461030357806352cd67e914610323575f5ffd5b806311dbcb6a1461025957806313966db5146102775780631543b9961461028d57806316762eed146102955780631d0f9254146102a8575b5f5ffd5b610261610532565b60405161026e9190612732565b60405180910390f35b61027f61054c565b60405190815260200161026e565b61027f61055e565b61027f6102a3366004612791565b610570565b61027f6105d4565b6102c36102be3660046127d8565b6105e6565b6040805192835260208301919091520161026e565b61027f6102e6366004612791565b610632565b6102f361067f565b604051901515815260200161026e565b61030b610694565b6040516001600160a01b03909116815260200161026e565b6103366103313660046127f3565b6106af565b005b6102f36103463660046127d8565b610734565b5f1961027f565b61030b610750565b61027f6107b8565b61033661037036600461280a565b610871565b6103366103833660046127f3565b610b18565b6103366103963660046127f3565b610ba2565b610336610cc3565b61027f6103b1366004612791565b610d2f565b61030b610d7c565b61027f610dc0565b61027f610dd2565b6103d6610de4565b60405161026e919061283c565b61027f610e7a565b6103366103f93660046127f3565b610e8c565b61027f61040c366004612871565b610f89565b61033661041f36600461289b565b610f9b565b61027f610432366004612871565b6110ef565b61027f610445366004612871565b611129565b61027f6104583660046127d8565b611134565b61027f61046b366004612871565b6111a8565b610336611222565b6103366104863660046127d8565b6112f7565b61027f6104993660046127d8565b6113a7565b6103366104ac3660046127f3565b6113e0565b6103366104bf3660046127f3565b611476565b61027f6114db565b6103366104da3660046127d8565b61150a565b61027f6104ed366004612791565b611593565b6103366105003660046127f3565b6115e0565b61027f61271081565b6103d6604051806040016040528060058152602001640312e302e360dc1b81525081565b606061054761053f61166a565b60090161168e565b905090565b5f61055561166a565b60020154905090565b5f61056761166a565b60060154905090565b5f61057961169a565b5f61058486866110ef565b9050838111156105b657604051637a41461360e01b815260048101829052602481018590526044015b60405180910390fd5b6105c286828786611707565b90506105cc611770565b949350505050565b5f6105dd61166a565b60050154905090565b5f5f5f6105f161166a565b6001600160a01b039094165f908152600b94909401602090815260409485902085518087019096528054808752600190910154959091018590529492505050565b5f61063b61169a565b5f6106468686611129565b9050838110156106735760405163c419416760e01b815260048101829052602481018590526044016105ad565b6105c286868386611707565b5f61068861166a565b6007015460ff16919050565b5f61069d61166a565b600101546001600160a01b0316919050565b6106b761179a565b6106c081611802565b815f036106e057604051633cb2b8d760e11b815260040160405180910390fd5b5f6106e961166a565b600881015460408051918252602082018690529192507f9c3f1b54b1487e018f1d0593ff5cf7fb625b2df6332c974a6cc56bb358879841910160405180910390a16008019190915550565b5f61074a8261074161166a565b6009019061189a565b92915050565b5f610759610694565b6001600160a01b03166361d027b36040518163ffffffff1660e01b8152600401602060405180830381865afa158015610794573d5f5f3e3d5ffd5b505050506040513d601f19601f8201168201806040525081019061054791906128c9565b5f5f6107c261166a565b90505f816001015f9054906101000a90046001600160a01b03166001600160a01b03166318160ddd6040518163ffffffff1660e01b8152600401602060405180830381865afa158015610817573d5f5f3e3d5ffd5b505050506040513d601f19601f8201168201806040525081019061083b91906128e4565b60068301549091505f61084e828461290f565b6004850154909150818111610868575f9550505050505090565b03949350505050565b7ff0c57e16840df040f15088dc2f81fe391c3923bec73e23a9662efc9c229c6a008054600160401b810460ff16159067ffffffffffffffff165f811580156108b65750825b90505f8267ffffffffffffffff1660011480156108d25750303b155b9050811580156108e0575080155b156108fe5760405163f92ee8a960e01b815260040160405180910390fd5b845467ffffffffffffffff19166001178555831561092857845460ff60401b1916600160401b1785555b6001600160a01b03881661094f5760405163867915ab60e01b815260040160405180910390fd5b5f61095861166a565b6001810180546001600160a01b0319166001600160a01b038c1690811790915560048083018b90556040805163313ce56760e01b81529051939450919263313ce5679280830192602092918290030181865afa1580156109ba573d5f5f3e3d5ffd5b505050506040513d601f19601f820116820180604052508101906109de9190612922565b8160010160146101000a81548160ff021916908360ff160217905550886001600160a01b03166395d89b416040518163ffffffff1660e01b81526004015f60405180830381865afa158015610a35573d5f5f3e3d5ffd5b505050506040513d5f823e601f3d908101601f19168201604052610a5c9190810190612956565b604051602001610a6c9190612a09565b60408051601f198184030181529190528190610a889082612ab0565b5060078101805460ff191660011790555f879003610ab957604051633cb2b8d760e11b815260040160405180910390fd5b60088101879055601e6003909101558315610b0e57845460ff60401b19168555604051600181527fc7f505b2f371ae2175ee4913f4499e1f2633a7b5936321eed1cdaeb6115181d29060200160405180910390a15b5050505050505050565b610b2061179a565b610b2981611802565b6127108210610b4e5760405163cdbb209f60e01b8152600481018390526024016105ad565b5f610b5761166a565b600281015460408051918252602082018690529192507f1f93d80c9d1daf1c3fdfc5142d685a330092f4b9c9539447435f568926e5197c910160405180910390a16002019190915550565b610baa6118bb565b610bb381611802565b815f03610bd3576040516310eb483f60e21b815260040160405180910390fd5b5f610bdc61166a565b600181015460405163079cc67960e41b81529192506001600160a01b0316906379cc679090610c119033908790600401612b6b565b5f604051808303815f87803b158015610c28575f5ffd5b505af1158015610c3a573d5f5f3e3d5ffd5b50505050600681015480841115610c6e576040516312d5d0b560e11b815260048101859052602481018290526044016105ad565b5f610c79858361290f565b6006840181905560408051878152602081018390529192507fa840d857be4fa627a8b83209753d23db02a27dc32782579e9332a69d5fc881dd910160405180910390a15050505050565b610ccb61179a565b610cd481611802565b5f610cdd61166a565b60078101805460ff81161560ff199091168117909155604051818152919250907ff76cda7079b70dea7b100d529767212df9f00f83f55ab8771a8bfcc6ca1e099b9060200160405180910390a1505050565b5f610d3861169a565b5f610d438686610f89565b905083811015610d70576040516302a33a4160e21b815260048101829052602481018590526044016105ad565b6105c2868683866118ff565b5f610d85610750565b6001600160a01b0316638da5cb5b6040518163ffffffff1660e01b8152600401602060405180830381865afa158015610794573d5f5f3e3d5ffd5b5f610dc961166a565b60030154905090565b5f610ddb61166a565b60040154905090565b6060610dee61166a565b8054610df990612a2d565b80601f0160208091040260200160405190810160405280929190818152602001828054610e2590612a2d565b8015610e705780601f10610e4757610100808354040283529160200191610e70565b820191905f5260205f20905b815481529060010190602001808311610e5357829003601f168201915b5050505050905090565b5f610e8361166a565b60080154905090565b610e9461169a565b805f03610eb4576040516310eb483f60e21b815260040160405180910390fd5b5f610ebd61166a565b600781015490915060ff16610ee55760405163dda8b6db60e01b815260040160405180910390fd5b6001810154610eff906001600160a01b0316333085611b79565b335f908152600b8201602052604081208054909190610f1f908590612b84565b90505f836008015442610f329190612b84565b82845560018401819055604080518481526020810183905291925033917f58fe322fc5911ed072ec92f570e517b9793e350eb1ff7be0019fd9f3fade87bc910160405180910390a250505050610f86611770565b50565b5f610f948383611be0565b9392505050565b610fa36118bb565b610fac81611802565b6001600160a01b038216610fd35760405163867915ab60e01b815260040160405180910390fd5b5f610fdc61166a565b60068101546005820154919250905f828211610ff8575f611002565b611002838361290f565b90508087111561102f57604051634a768b1360e01b815260048101889052602481018290526044016105ad565b6110398784612b84565b6006850181905560018501546040516340c10f1960e01b81529194506001600160a01b0316906340c10f19906110759089908b90600401612b6b565b5f604051808303815f87803b15801561108c575f5ffd5b505af115801561109e573d5f5f3e3d5ffd5b5050604080518a8152602081018790526001600160a01b038a1693507f5b12134695cb4f1d04e9c6f5747e4f28d084940f9ac912162a12ea4c50790c7b92500160405180910390a250505050505050565b5f5f6110f9611dc2565b61110490600a612c7a565b90505f6111118583611dde565b90506111208483836001611f3b565b95945050505050565b5f610f948383611dde565b5f61113d610750565b60405163ce513b6f60e01b81526001600160a01b038481166004830152919091169063ce513b6f906024015b602060405180830381865afa158015611184573d5f5f3e3d5ffd5b505050506040513d601f19601f8201168201806040525081019061074a91906128e4565b5f5f836001600160a01b031663313ce5676040518163ffffffff1660e01b8152600401602060405180830381865afa1580156111e6573d5f5f3e3d5ffd5b505050506040513d601f19601f8201168201806040525081019061120a9190612922565b61121590600a612c7a565b90505f6111118583611be0565b61122a61169a565b5f61123361166a565b335f908152600b82016020908152604080832081518083019092528054825260010154918101829052929350900361127e57604051636a9cf0e160e11b815260040160405180910390fd5b8051335f818152600b8501602052604081208181556001908101919091558401546112b5916001600160a01b039091169083611f7d565b60405181815233907f046d3e17087d323298991516e3fdec36fe1204d6bff7fb6e2b8eca77b80a22ad9060200160405180910390a25050506112f5611770565b565b6112ff61179a565b61130881611802565b6001600160a01b03821661132f5760405163867915ab60e01b815260040160405180910390fd5b5f61133861166a565b90506113476009820184611fa8565b61136f57604051631da8dae560e21b81526001600160a01b03841660048201526024016105ad565b6040516001600160a01b038416907f797517369e23ffd3af45a8a42a13b6db0a4826ad2ef98121c434e14f150e6240905f90a2505050565b5f6113b0610694565b6040516370a0823160e01b81526001600160a01b03848116600483015291909116906370a0823190602401611169565b6113e8611fbc565b6113f181611802565b5f6113fa61166a565b60068101549091508084101561142d5760405163c502fa4b60e01b815260048101859052602481018290526044016105ad565b600582015460408051918252602082018690527fa15e75b23c4dcef1647713af3c7fdf585008390108be4b7936c438297047726d910160405180910390a1506005019190915550565b61147e611fbc565b61148781611802565b5f61149061166a565b600481015460408051918252602082018690529192507f864790bdf9878a0378c6fc2b0ce53bf74ca13b901bc97a1cb94aa88f1600e482910160405180910390a16004019190915550565b5f5f6114e561166a565b6006810154600582015491925090818111611503575f935050505090565b0392915050565b61151261179a565b61151b81611802565b5f61152461166a565b90506115336009820184612000565b61155b57604051636a95c69760e11b81526001600160a01b03841660048201526024016105ad565b6040516001600160a01b038416907f33ab47afb8a85cbb067a9be15fcd6a7d60556a446b47f204e65a37cf7ad19c38905f90a2505050565b5f61159c61169a565b5f6115a786866111a8565b9050838111156115d4576040516366bd3b3160e01b815260048101829052602481018590526044016105ad565b6105c2868287866118ff565b6115e861179a565b6115f181611802565b6127108210611616576040516319fd0bd760e21b8152600481018390526024016105ad565b5f61161f61166a565b600381015460408051918252602082018690529192507f78f68725a1b1a56a998dd7a8d279eb9bfbd45bc0fcee78f408200737275873e5910160405180910390a16003019190915550565b7f776acce308c7c164a04fb34f4f55c1dfc0a572b40aacd748a96ecbbeebf6780090565b60605f610f9483612014565b7f9b779b17422d0df92223018b32b4d1fa46e071723d6817e2486d003becc55f005c156116da57604051633ee5aeb560e01b815260040160405180910390fd5b6112f560017f9b779b17422d0df92223018b32b4d1fa46e071723d6817e2486d003becc55f005b9061206d565b5f61171061166a565b335f908152600b8201602052604090206001810154919250901580159061173b575080600101544210155b156117535761174c86868686612074565b505061176a565b61175b6122fd565b61176786858786612347565b50505b50505050565b6112f55f7f9b779b17422d0df92223018b32b4d1fa46e071723d6817e2486d003becc55f00611701565b5f6117a3610750565b6001600160a01b031663f87422546040518163ffffffff1660e01b8152600401602060405180830381865afa1580156117de573d5f5f3e3d5ffd5b505050506040513d601f19601f8201168201806040525081019061054791906128e4565b61180a610750565b604051632474521560e21b8152600481018390523360248201526001600160a01b0391909116906391d1485490604401602060405180830381865afa158015611855573d5f5f3e3d5ffd5b505050506040513d601f19601f820116820180604052508101906118799190612c88565b610f8657338160405163e2517d3f60e01b81526004016105ad929190612b6b565b6001600160a01b0381165f9081526001830160205260408120541515610f94565b5f6118c4610750565b6001600160a01b031663f69516bd6040518163ffffffff1660e01b8152600401602060405180830381865afa1580156117de573d5f5f3e3d5ffd5b5f6119086107b8565b90508083111561193557604051634a768b1360e01b815260048101849052602481018290526044016105ad565b5f61193e610750565b6040516370a0823160e01b81526001600160a01b0380831660048301529192505f918816906370a0823190602401602060405180830381865afa158015611987573d5f5f3e3d5ffd5b505050506040513d601f19601f820116820180604052508101906119ab91906128e4565b90506119c26001600160a01b038816338489611b79565b6040516370a0823160e01b81526001600160a01b0383811660048301525f91908916906370a0823190602401602060405180830381865afa158015611a09573d5f5f3e3d5ffd5b505050506040513d601f19601f82011682018060405250810190611a2d91906128e4565b905086611a3a838361290f565b14611a63576040516335822d6b60e11b81526001600160a01b03891660048201526024016105ad565b6040516311f9fbc960e21b81526001600160a01b038416906347e7ef2490611a91908b908b90600401612b6b565b5f604051808303815f87803b158015611aa8575f5ffd5b505af1158015611aba573d5f5f3e3d5ffd5b505050505f611ac7610694565b6040516340c10f1960e01b81529091506001600160a01b038216906340c10f1990611af89089908b90600401612b6b565b5f604051808303815f87803b158015611b0f575f5ffd5b505af1158015611b21573d5f5f3e3d5ffd5b5050604080518b8152602081018b90526001600160a01b03808b1694508d1692507f02d7e648dd130fc184d383e55bb126ac4c9c60e8f94bf05acdf557ba2d540b4791015b60405180910390a3505050505050505050565b6040516001600160a01b03848116602483015283811660448301526064820183905261176a9186918216906323b872dd906084015b604051602081830303815290604052915060e01b6020820180516001600160e01b0383818316178352505050506124a4565b5f5f611bea61166a565b90505f5f826001015f9054906101000a90046001600160a01b03166001600160a01b03166361d027b36040518163ffffffff1660e01b8152600401602060405180830381865afa158015611c40573d5f5f3e3d5ffd5b505050506040513d601f19601f82011682018060405250810190611c6491906128c9565b6040516341976e0960e01b81526001600160a01b03888116600483015291909116906341976e09906024016040805180830381865afa158015611ca9573d5f5f3e3d5ffd5b505050506040513d601f19601f82011682018060405250810190611ccd9190612ca7565b915091505f5f846002015411611ce35785611d02565b611d028460020154612710611cf8919061290f565b8790612710612510565b90505f82841015611d1d57611d18828585612510565b611d1f565b815b90505f8560010160149054906101000a900460ff169050886001600160a01b031663313ce5676040518163ffffffff1660e01b8152600401602060405180830381865afa158015611d72573d5f5f3e3d5ffd5b505050506040513d601f19601f82011682018060405250810190611d969190612922565b611da09082612cc9565b611dab90600a612c7a565b611db59083612ce2565b9998505050505050505050565b5f611dcb61166a565b60010154600160a01b900460ff16919050565b5f5f611de861166a565b90505f5f611df4610750565b6040516341976e0960e01b81526001600160a01b03888116600483015291909116906341976e09906024016040805180830381865afa158015611e39573d5f5f3e3d5ffd5b505050506040513d601f19601f82011682018060405250810190611e5d9190612ca7565b915091505f5f846003015411611e735785611e88565b611e888460030154612710611cf8919061290f565b90505f82841115611ea357611e9e828486612510565b611ea5565b815b90505f8560010160149054906101000a900460ff169050886001600160a01b031663313ce5676040518163ffffffff1660e01b8152600401602060405180830381865afa158015611ef8573d5f5f3e3d5ffd5b505050506040513d601f19601f82011682018060405250810190611f1c9190612922565b611f269082612cc9565b611f3190600a612c7a565b611db59083612d0d565b5f611f68611f48836125c6565b8015611f6357505f8480611f5e57611f5e612cf9565b868809115b151590565b611f73868686612510565b6111209190612b84565b611fa383846001600160a01b031663a9059cbb8585604051602401611bae929190612b6b565b505050565b5f610f94836001600160a01b0384166125f2565b5f611fc5610750565b6001600160a01b031663a217fddf6040518163ffffffff1660e01b8152600401602060405180830381865afa1580156117de573d5f5f3e3d5ffd5b5f610f94836001600160a01b03841661263e565b6060815f0180548060200260200160405190810160405280929190818152602001828054801561206157602002820191905f5260205f20905b81548152602001906001019080831161204d575b50505050509050919050565b80825d5050565b5f61207e85611134565b9050808311156120ab5760405163264f877960e21b815260048101849052602481018290526044016105ad565b5f6120b461166a565b335f908152600b8201602052604090208054600183015492935090916001600160a01b031681881161216c578782039150815f0361210857335f908152600b8501602052604081208181556001015561210c565b8183555b60405163079cc67960e41b81526001600160a01b038216906379cc67909061213a9030908c90600401612b6b565b5f604051808303815f87803b158015612151575f5ffd5b505af1158015612163573d5f5f3e3d5ffd5b50505050612249565b6121746122fd565b335f908152600b85016020526040808220828155600101919091555163079cc67960e41b8152828903906001600160a01b038316906379cc6790906121bf9030908790600401612b6b565b5f604051808303815f87803b1580156121d6575f5ffd5b505af11580156121e8573d5f5f3e3d5ffd5b505060405163079cc67960e41b81526001600160a01b03851692506379cc6790915061221a9033908590600401612b6b565b5f604051808303815f87803b158015612231575f5ffd5b505af1158015612243573d5f5f3e3d5ffd5b50505050505b612251610750565b604051631a4ca37b60e21b81526001600160a01b038b81166004830152602482018a9052888116604483015291909116906369328dec906064015f604051808303815f87803b1580156122a2575f5ffd5b505af11580156122b4573d5f5f3e3d5ffd5b5050604080518a8152602081018c90526001600160a01b03808b1694508d1692507f8166bf25f8a2b7ed3c85049207da4358d16edbed977d23fa2ee6f0dde3ec21329101611b66565b5f61230661166a565b600781015490915060ff1680156123275750612325600982013361189a565b155b15610f865760405163252c827360e01b81523360048201526024016105ad565b5f61235185611134565b90508084111561237e5760405163264f877960e21b815260048101859052602481018290526044016105ad565b5f612387610694565b60405163079cc67960e41b81529091506001600160a01b038216906379cc6790906123b89033908890600401612b6b565b5f604051808303815f87803b1580156123cf575f5ffd5b505af11580156123e1573d5f5f3e3d5ffd5b505050506123ed610750565b604051631a4ca37b60e21b81526001600160a01b03888116600483015260248201889052858116604483015291909116906369328dec906064015f604051808303815f87803b15801561243e575f5ffd5b505af1158015612450573d5f5f3e3d5ffd5b505060408051888152602081018890526001600160a01b0380881694508a1692507f8166bf25f8a2b7ed3c85049207da4358d16edbed977d23fa2ee6f0dde3ec2132910160405180910390a3505050505050565b5f5f60205f8451602086015f885af1806124c3576040513d5f823e3d81fd5b50505f513d915081156124da5780600114156124e7565b6001600160a01b0384163b155b1561176a57604051635274afe760e01b81526001600160a01b03851660048201526024016105ad565b5f838302815f1985870982811083820303915050805f036125445783828161253a5761253a612cf9565b0492505050610f94565b80841161255b5761255b6003851502601118612721565b5f848688095f868103871696879004966002600389028118808a02820302808a02820302808a02820302808a02820302808a02820302808a02909103029181900381900460010186841190950394909402919094039290920491909117919091029150509392505050565b5f60028260038111156125db576125db612d20565b6125e59190612d34565b60ff166001149050919050565b5f81815260018301602052604081205461263757508154600181810184555f84815260208082209093018490558454848252828601909352604090209190915561074a565b505f61074a565b5f8181526001830160205260408120548015612718575f61266060018361290f565b85549091505f906126739060019061290f565b90508082146126d2575f865f01828154811061269157612691612d55565b905f5260205f200154905080875f0184815481106126b1576126b1612d55565b5f918252602080832090910192909255918252600188019052604090208390555b85548690806126e3576126e3612d69565b600190038181905f5260205f20015f90559055856001015f8681526020019081526020015f205f90556001935050505061074a565b5f91505061074a565b634e487b715f52806020526024601cfd5b602080825282518282018190525f918401906040840190835b818110156127725783516001600160a01b031683526020938401939092019160010161274b565b509095945050505050565b6001600160a01b0381168114610f86575f5ffd5b5f5f5f5f608085870312156127a4575f5ffd5b84356127af8161277d565b9350602085013592506040850135915060608501356127cd8161277d565b939692955090935050565b5f602082840312156127e8575f5ffd5b8135610f948161277d565b5f60208284031215612803575f5ffd5b5035919050565b5f5f5f6060848603121561281c575f5ffd5b83356128278161277d565b95602085013595506040909401359392505050565b602081525f82518060208401528060208501604085015e5f604082850101526040601f19601f83011684010191505092915050565b5f5f60408385031215612882575f5ffd5b823561288d8161277d565b946020939093013593505050565b5f5f604083850312156128ac575f5ffd5b8235915060208301356128be8161277d565b809150509250929050565b5f602082840312156128d9575f5ffd5b8151610f948161277d565b5f602082840312156128f4575f5ffd5b5051919050565b634e487b7160e01b5f52601160045260245ffd5b8181038181111561074a5761074a6128fb565b5f60208284031215612932575f5ffd5b815160ff81168114610f94575f5ffd5b634e487b7160e01b5f52604160045260245ffd5b5f60208284031215612966575f5ffd5b815167ffffffffffffffff81111561297c575f5ffd5b8201601f8101841361298c575f5ffd5b805167ffffffffffffffff8111156129a6576129a6612942565b604051601f8201601f19908116603f0116810167ffffffffffffffff811182821017156129d5576129d5612942565b6040528181528282016020018610156129ec575f5ffd5b8160208401602083015e5f91810160200191909152949350505050565b5f82518060208501845e672d4761746577617960c01b920191825250600801919050565b600181811c90821680612a4157607f821691505b602082108103612a5f57634e487b7160e01b5f52602260045260245ffd5b50919050565b601f821115611fa357805f5260205f20601f840160051c81016020851015612a8a5750805b601f840160051c820191505b81811015612aa9575f8155600101612a96565b5050505050565b815167ffffffffffffffff811115612aca57612aca612942565b612ade81612ad88454612a2d565b84612a65565b6020601f821160018114612b10575f8315612af95750848201515b5f19600385901b1c1916600184901b178455612aa9565b5f84815260208120601f198516915b82811015612b3f5787850151825560209485019460019092019101612b1f565b5084821015612b5c57868401515f19600387901b60f8161c191681555b50505050600190811b01905550565b6001600160a01b03929092168252602082015260400190565b8082018082111561074a5761074a6128fb565b6001815b6001841115612bd257808504811115612bb657612bb66128fb565b6001841615612bc457908102905b60019390931c928002612b9b565b935093915050565b5f82612be85750600161074a565b81612bf457505f61074a565b8160018114612c0a5760028114612c1457612c30565b600191505061074a565b60ff841115612c2557612c256128fb565b50506001821b61074a565b5060208310610133831016604e8410600b8410161715612c53575081810a61074a565b612c5f5f198484612b97565b805f1904821115612c7257612c726128fb565b029392505050565b5f610f9460ff841683612bda565b5f60208284031215612c98575f5ffd5b81518015158114610f94575f5ffd5b5f5f60408385031215612cb8575f5ffd5b505080516020909101519092909150565b60ff828116828216039081111561074a5761074a6128fb565b808202811582820484141761074a5761074a6128fb565b634e487b7160e01b5f52601260045260245ffd5b5f82612d1b57612d1b612cf9565b500490565b634e487b7160e01b5f52602160045260245ffd5b5f60ff831680612d4657612d46612cf9565b8060ff84160691505092915050565b634e487b7160e01b5f52603260045260245ffd5b634e487b7160e01b5f52603160045260245ffdfea26469706673582212201a63bc6e3eff9643431d0da64148a04ce4cb3c3fe2697481385ffea16116d2fe64736f6c634300081e0033",
  "implementation": "0x9b2759857c70b3E5992D27ae095Bb231077c88B2",
  "devdoc": {
    "custom:storage-location": "erc7201:victor.storage.Gateway",
    "errors": {
      "InvalidInitialization()": [
        {
          "details": "The contract is already initialized."
        }
      ],
      "NotInitializing()": [
        {
          "details": "The contract is not initializing."
        }
      ],
      "ReentrancyGuardReentrantCall()": [
        {
          "details": "Unauthorized reentrant call."
        }
      ],
      "SafeERC20FailedOperation(address)": [
        {
          "details": "An operation with an ERC-20 token failed."
        }
      ]
    },
    "events": {
      "Initialized(uint64)": {
        "details": "Triggered when the contract has been initialized or reinitialized."
      }
    },
    "kind": "dev",
    "methods": {
      "addToInstantRedeemWhitelist(address)": {
        "params": {
          "account_": "Address to whitelist"
        }
      },
      "burnFromAMO(uint256)": {
        "params": {
          "amount_": "Amount of PeggedToken to burn"
        }
      },
      "constructor": {
        "custom:oz-upgrades-unsafe-allow": "constructor"
      },
      "deposit(address,uint256,uint256,address)": {
        "params": {
          "amountIn_": "Amount of tokens to deposit",
          "minPeggedTokenOut_": "Minimum PeggedToken to receive",
          "receiver_": "Address to receive the PeggedToken",
          "tokenIn_": "Token to deposit"
        },
        "returns": {
          "_0": "Amount of PeggedToken minted"
        }
      },
      "getInstantRedeemWhitelist()": {
        "returns": {
          "_0": "Array of whitelisted addresses"
        }
      },
      "getRedeemRequest(address)": {
        "params": {
          "user_": "User address"
        },
        "returns": {
          "amountLocked": "Amount of peggedToken locked in Gateway contract",
          "claimableAt": "Timestamp when request can be claimed"
        }
      },
      "initialize(address,uint256,uint256)": {
        "params": {
          "initialWithdrawalDelay_": "Initial withdrawal delay period in seconds",
          "mintLimit_": "Maximum mint limit for PeggedToken",
          "peggedToken_": "Address of the PeggedToken contract"
        }
      },
      "isInstantRedeemWhitelisted(address)": {
        "params": {
          "account_": "Address to check"
        },
        "returns": {
          "_0": "True if whitelisted"
        }
      },
      "maxAmoMint()": {
        "details": "Returns remaining AMO mint capacity"
      },
      "maxMint()": {
        "details": "Returns remaining mint capacity (excludes AMO supply from calculation)Invariant: amoSupply <= totalSupply always holds, so subtraction is safe"
      },
      "maxRedeem(address)": {
        "params": {
          "owner_": "Address to check redeem limit for"
        }
      },
      "maxWithdraw(address)": {
        "params": {
          "tokenOut_": "Token to withdraw"
        }
      },
      "mint(address,uint256,uint256,address)": {
        "params": {
          "maxAmountIn_": "Maximum tokens to deposit",
          "peggedTokenOut_": "Exact PeggedToken amount to mint",
          "receiver_": "Address to receive the PeggedToken",
          "tokenIn_": "Token to deposit"
        },
        "returns": {
          "_0": "Amount of tokens deposited"
        }
      },
      "mintToAMO(uint256,address)": {
        "params": {
          "amount_": "Amount of PeggedToken to mint",
          "receiver_": "Address to receive the minted PeggedToken"
        }
      },
      "previewDeposit(address,uint256)": {
        "params": {
          "amountIn_": "Amount of tokens to deposit",
          "tokenIn_": "Token to deposit"
        },
        "returns": {
          "_0": "Expected PeggedToken output"
        }
      },
      "previewMint(address,uint256)": {
        "params": {
          "peggedTokenOut_": "PeggedToken amount to mint",
          "tokenIn_": "Token to deposit"
        },
        "returns": {
          "_0": "Required token input"
        }
      },
      "previewRedeem(address,uint256)": {
        "params": {
          "peggedTokenIn_": "PeggedToken amount to redeem",
          "tokenOut_": "Token to receive"
        },
        "returns": {
          "_0": "Expected token output"
        }
      },
      "previewWithdraw(address,uint256)": {
        "params": {
          "amountOut_": "Token amount to withdraw",
          "tokenOut_": "Token to withdraw"
        },
        "returns": {
          "_0": "Required PeggedToken input"
        }
      },
      "redeem(address,uint256,uint256,address)": {
        "params": {
          "minAmountOut_": "Minimum tokens to receive",
          "peggedTokenIn_": "PeggedToken amount to burn",
          "receiver_": "Address to receive the tokens",
          "tokenOut_": "Token to receive"
        },
        "returns": {
          "_0": "Amount of tokens received"
        }
      },
      "removeFromInstantRedeemWhitelist(address)": {
        "params": {
          "account_": "Address to remove from whitelist"
        }
      },
      "requestRedeem(uint256)": {
        "params": {
          "peggedTokenAmount_": "Amount of peggedToken to lock in request"
        }
      },
      "toggleWithdrawalDelay()": {
        "details": "When disabled, all users can instant redeem/withdraw"
      },
      "updateAmoMintLimit(uint256)": {
        "params": {
          "newAmoMintLimit_": "New limit value"
        }
      },
      "updateMintFee(uint256)": {
        "params": {
          "newMintFee_": "New fee in basis points (1 = 0.01%)"
        }
      },
      "updateMintLimit(uint256)": {
        "params": {
          "newMintLimit_": "New maximum mint limit in PeggedToken"
        }
      },
      "updateRedeemFee(uint256)": {
        "params": {
          "newRedeemFee_": "New fee in basis points (1 = 0.01%)"
        }
      },
      "updateWithdrawalDelay(uint256)": {
        "params": {
          "newDelay_": "New delay period in seconds"
        }
      },
      "withdraw(address,uint256,uint256,address)": {
        "params": {
          "amountOut_": "Exact token amount to receive",
          "maxPeggedTokenIn_": "Maximum PeggedToken to burn",
          "receiver_": "Address to receive the tokens",
          "tokenOut_": "Token to receive"
        },
        "returns": {
          "_0": "Amount of PeggedToken burnt"
        }
      }
    },
    "title": "Gateway - Handles both minting and redeeming of PeggedToken",
    "version": 1
  },
  "userdoc": {
    "kind": "user",
    "methods": {
      "NAME()": {
        "notice": "Returns the name of the Gateway"
      },
      "PEGGED_TOKEN()": {
        "notice": "Returns PeggedToken token contract"
      },
      "addToInstantRedeemWhitelist(address)": {
        "notice": "Add address to instant redeem whitelist"
      },
      "amoMintLimit()": {
        "notice": "Returns current AMO mint limit above reserve"
      },
      "amoSupply()": {
        "notice": "Returns current AMO-minted supply tracked by treasury"
      },
      "burnFromAMO(uint256)": {
        "notice": "Burns AMO-minted PeggedToken to reduce AMO supply"
      },
      "cancelRedeemRequest()": {
        "notice": "Cancel redeem request and return locked peggedToken to user"
      },
      "deposit(address,uint256,uint256,address)": {
        "notice": "Deposits tokens to receive PeggedToken"
      },
      "getInstantRedeemWhitelist()": {
        "notice": "Get all whitelisted addresses"
      },
      "getRedeemRequest(address)": {
        "notice": "Get redeem request details for a user"
      },
      "initialize(address,uint256,uint256)": {
        "notice": "Initializes the Gateway contract"
      },
      "isInstantRedeemWhitelisted(address)": {
        "notice": "Check if address is whitelisted for instant redeem/withdraw"
      },
      "maxAmoMint()": {
        "notice": "Returns remaining AMO mint capacity"
      },
      "maxDeposit()": {
        "notice": "Returns maximum deposit amount possible"
      },
      "maxMint()": {
        "notice": "Returns remaining mint capacity"
      },
      "maxRedeem(address)": {
        "notice": "Returns maximum PeggedToken amount owner can redeem"
      },
      "maxWithdraw(address)": {
        "notice": "Returns maximum token amount that can be withdrawn"
      },
      "mint(address,uint256,uint256,address)": {
        "notice": "Mints exact PeggedToken amount by depositing tokens"
      },
      "mintFee()": {
        "notice": "Returns current mint fee in basis points"
      },
      "mintLimit()": {
        "notice": "Returns current mint limit in PeggedToken"
      },
      "mintToAMO(uint256,address)": {
        "notice": "Mints PeggedToken to AMO operations (UMM role)"
      },
      "owner()": {
        "notice": "Returns contract owner address"
      },
      "previewDeposit(address,uint256)": {
        "notice": "Simulates deposit of tokens for PeggedToken"
      },
      "previewMint(address,uint256)": {
        "notice": "Simulates minting exact PeggedToken amount"
      },
      "previewRedeem(address,uint256)": {
        "notice": "Simulates redeeming PeggedToken for tokens"
      },
      "previewWithdraw(address,uint256)": {
        "notice": "Simulates withdrawing exact token amount"
      },
      "redeem(address,uint256,uint256,address)": {
        "notice": "Redeems PeggedToken for exact token amount"
      },
      "redeemFee()": {
        "notice": "Returns current redeem fee in basis points"
      },
      "removeFromInstantRedeemWhitelist(address)": {
        "notice": "Remove address from instant redeem whitelist"
      },
      "requestRedeem(uint256)": {
        "notice": "Request a redeem with delay period (locks peggedToken in contract)"
      },
      "toggleWithdrawalDelay()": {
        "notice": "Toggle withdrawal delay feature on/off"
      },
      "treasury()": {
        "notice": "Returns treasury contract address"
      },
      "updateAmoMintLimit(uint256)": {
        "notice": "Updates the AMO mint limit"
      },
      "updateMintFee(uint256)": {
        "notice": "Updates the mint fee percentage"
      },
      "updateMintLimit(uint256)": {
        "notice": "Updates the maximum mint limit"
      },
      "updateRedeemFee(uint256)": {
        "notice": "Updates the redeem fee percentage"
      },
      "updateWithdrawalDelay(uint256)": {
        "notice": "Update the withdrawal delay period"
      },
      "withdraw(address,uint256,uint256,address)": {
        "notice": "Withdraws exact token amount by burning PeggedToken"
      },
      "withdrawalDelay()": {
        "notice": "Returns withdrawal delay period in seconds"
      },
      "withdrawalDelayEnabled()": {
        "notice": "Returns withdrawal delay enabled status"
      }
    },
    "version": 1
  },
  "storageLayout": {
    "storage": [],
    "types": null
  }
}