{
  "address": "0xDaD503f8B9d42bb7af3AfC588358D30163e4416F",
  "abi": [
    {
      "inputs": [],
      "stateMutability": "nonpayable",
      "type": "constructor"
    },
    {
      "inputs": [
        {
          "internalType": "address",
          "name": "account",
          "type": "address"
        },
        {
          "internalType": "bytes32",
          "name": "role",
          "type": "bytes32"
        }
      ],
      "name": "AccessControlUnauthorizedAccount",
      "type": "error"
    },
    {
      "inputs": [
        {
          "internalType": "address",
          "name": "account",
          "type": "address"
        }
      ],
      "name": "AccountAlreadyWhitelisted",
      "type": "error"
    },
    {
      "inputs": [
        {
          "internalType": "address",
          "name": "account",
          "type": "address"
        }
      ],
      "name": "AccountNotWhitelisted",
      "type": "error"
    },
    {
      "inputs": [],
      "name": "AddressIsZero",
      "type": "error"
    },
    {
      "inputs": [
        {
          "internalType": "uint256",
          "name": "requested",
          "type": "uint256"
        },
        {
          "internalType": "uint256",
          "name": "available",
          "type": "uint256"
        }
      ],
      "name": "AmoBurnExceedsSupply",
      "type": "error"
    },
    {
      "inputs": [],
      "name": "AmountIsZero",
      "type": "error"
    },
    {
      "inputs": [
        {
          "internalType": "address",
          "name": "caller",
          "type": "address"
        }
      ],
      "name": "CallerNotWhitelisted",
      "type": "error"
    },
    {
      "inputs": [
        {
          "internalType": "uint256",
          "name": "requested",
          "type": "uint256"
        },
        {
          "internalType": "uint256",
          "name": "available",
          "type": "uint256"
        }
      ],
      "name": "ExceededMaxMint",
      "type": "error"
    },
    {
      "inputs": [
        {
          "internalType": "uint256",
          "name": "requested",
          "type": "uint256"
        },
        {
          "internalType": "uint256",
          "name": "available",
          "type": "uint256"
        }
      ],
      "name": "ExceededMaxWithdraw",
      "type": "error"
    },
    {
      "inputs": [
        {
          "internalType": "address",
          "name": "token",
          "type": "address"
        }
      ],
      "name": "FeeOnTransferToken",
      "type": "error"
    },
    {
      "inputs": [
        {
          "internalType": "uint256",
          "name": "limit",
          "type": "uint256"
        },
        {
          "internalType": "uint256",
          "name": "constraint",
          "type": "uint256"
        }
      ],
      "name": "InvalidAmoMintLimit",
      "type": "error"
    },
    {
      "inputs": [],
      "name": "InvalidInitialization",
      "type": "error"
    },
    {
      "inputs": [
        {
          "internalType": "uint256",
          "name": "fee",
          "type": "uint256"
        }
      ],
      "name": "InvalidMintFee",
      "type": "error"
    },
    {
      "inputs": [
        {
          "internalType": "uint256",
          "name": "pegBand",
          "type": "uint256"
        },
        {
          "internalType": "uint256",
          "name": "maxPegBandBps",
          "type": "uint256"
        }
      ],
      "name": "InvalidPegBand",
      "type": "error"
    },
    {
      "inputs": [
        {
          "internalType": "uint256",
          "name": "fee",
          "type": "uint256"
        }
      ],
      "name": "InvalidRedeemFee",
      "type": "error"
    },
    {
      "inputs": [],
      "name": "InvalidWithdrawalDelay",
      "type": "error"
    },
    {
      "inputs": [
        {
          "internalType": "uint256",
          "name": "peggedTokenOut",
          "type": "uint256"
        },
        {
          "internalType": "uint256",
          "name": "minPeggedTokenOut",
          "type": "uint256"
        }
      ],
      "name": "MintableIsLessThanMinimum",
      "type": "error"
    },
    {
      "inputs": [],
      "name": "NoActiveWithdrawalRequest",
      "type": "error"
    },
    {
      "inputs": [],
      "name": "NotInitializing",
      "type": "error"
    },
    {
      "inputs": [
        {
          "internalType": "uint256",
          "name": "peggedTokenIn",
          "type": "uint256"
        },
        {
          "internalType": "uint256",
          "name": "maxPeggedTokenIn",
          "type": "uint256"
        }
      ],
      "name": "PeggedTokenToBurnIsHigherThanMax",
      "type": "error"
    },
    {
      "inputs": [
        {
          "internalType": "uint256",
          "name": "tokenOut",
          "type": "uint256"
        },
        {
          "internalType": "uint256",
          "name": "minTokenOut",
          "type": "uint256"
        }
      ],
      "name": "RedeemableIsLessThanMinimum",
      "type": "error"
    },
    {
      "inputs": [],
      "name": "ReentrancyGuardReentrantCall",
      "type": "error"
    },
    {
      "inputs": [
        {
          "internalType": "address",
          "name": "token",
          "type": "address"
        }
      ],
      "name": "SafeERC20FailedOperation",
      "type": "error"
    },
    {
      "inputs": [
        {
          "internalType": "uint256",
          "name": "tokenIn",
          "type": "uint256"
        },
        {
          "internalType": "uint256",
          "name": "maxTokenIn",
          "type": "uint256"
        }
      ],
      "name": "TokenAmountIsHigherThanMax",
      "type": "error"
    },
    {
      "inputs": [
        {
          "internalType": "address",
          "name": "token",
          "type": "address"
        }
      ],
      "name": "TokenNotWhitelisted",
      "type": "error"
    },
    {
      "inputs": [],
      "name": "WithdrawalDelayFeatureNotEnabled",
      "type": "error"
    },
    {
      "anonymous": false,
      "inputs": [
        {
          "indexed": true,
          "internalType": "address",
          "name": "account",
          "type": "address"
        }
      ],
      "name": "AddedToInstantRedeemWhitelist",
      "type": "event"
    },
    {
      "anonymous": false,
      "inputs": [
        {
          "indexed": false,
          "internalType": "uint256",
          "name": "amountBurned",
          "type": "uint256"
        },
        {
          "indexed": false,
          "internalType": "uint256",
          "name": "newAmoSupply",
          "type": "uint256"
        }
      ],
      "name": "BurnedFromAMO",
      "type": "event"
    },
    {
      "anonymous": false,
      "inputs": [
        {
          "indexed": true,
          "internalType": "address",
          "name": "token",
          "type": "address"
        },
        {
          "indexed": false,
          "internalType": "uint256",
          "name": "tokenAmount",
          "type": "uint256"
        },
        {
          "indexed": false,
          "internalType": "uint256",
          "name": "peggedTokenAmount",
          "type": "uint256"
        },
        {
          "indexed": true,
          "internalType": "address",
          "name": "receiver",
          "type": "address"
        }
      ],
      "name": "Deposit",
      "type": "event"
    },
    {
      "anonymous": false,
      "inputs": [
        {
          "indexed": false,
          "internalType": "uint64",
          "name": "version",
          "type": "uint64"
        }
      ],
      "name": "Initialized",
      "type": "event"
    },
    {
      "anonymous": false,
      "inputs": [
        {
          "indexed": true,
          "internalType": "address",
          "name": "token",
          "type": "address"
        },
        {
          "indexed": false,
          "internalType": "uint256",
          "name": "previousMintFee",
          "type": "uint256"
        },
        {
          "indexed": false,
          "internalType": "uint256",
          "name": "newMintFee",
          "type": "uint256"
        }
      ],
      "name": "MintFeeUpdated",
      "type": "event"
    },
    {
      "anonymous": false,
      "inputs": [
        {
          "indexed": false,
          "internalType": "uint256",
          "name": "previousMintLimit",
          "type": "uint256"
        },
        {
          "indexed": false,
          "internalType": "uint256",
          "name": "newMintLimit",
          "type": "uint256"
        }
      ],
      "name": "MintLimitUpdated",
      "type": "event"
    },
    {
      "anonymous": false,
      "inputs": [
        {
          "indexed": true,
          "internalType": "address",
          "name": "receiver",
          "type": "address"
        },
        {
          "indexed": false,
          "internalType": "uint256",
          "name": "amountMinted",
          "type": "uint256"
        },
        {
          "indexed": false,
          "internalType": "uint256",
          "name": "newAmoSupply",
          "type": "uint256"
        }
      ],
      "name": "MintedToAMO",
      "type": "event"
    },
    {
      "anonymous": false,
      "inputs": [
        {
          "indexed": true,
          "internalType": "address",
          "name": "token",
          "type": "address"
        },
        {
          "indexed": false,
          "internalType": "uint256",
          "name": "previousPegBandBps",
          "type": "uint256"
        },
        {
          "indexed": false,
          "internalType": "uint256",
          "name": "newPegBandBps",
          "type": "uint256"
        }
      ],
      "name": "PegBandUpdated",
      "type": "event"
    },
    {
      "anonymous": false,
      "inputs": [
        {
          "indexed": true,
          "internalType": "address",
          "name": "token",
          "type": "address"
        },
        {
          "indexed": false,
          "internalType": "uint256",
          "name": "previousRedeemFee",
          "type": "uint256"
        },
        {
          "indexed": false,
          "internalType": "uint256",
          "name": "newRedeemFee",
          "type": "uint256"
        }
      ],
      "name": "RedeemFeeUpdated",
      "type": "event"
    },
    {
      "anonymous": false,
      "inputs": [
        {
          "indexed": true,
          "internalType": "address",
          "name": "user",
          "type": "address"
        },
        {
          "indexed": false,
          "internalType": "uint256",
          "name": "amount",
          "type": "uint256"
        }
      ],
      "name": "RedeemRequestCancelled",
      "type": "event"
    },
    {
      "anonymous": false,
      "inputs": [
        {
          "indexed": true,
          "internalType": "address",
          "name": "user",
          "type": "address"
        },
        {
          "indexed": false,
          "internalType": "uint256",
          "name": "amount",
          "type": "uint256"
        },
        {
          "indexed": false,
          "internalType": "uint256",
          "name": "claimableAt",
          "type": "uint256"
        }
      ],
      "name": "RedeemRequested",
      "type": "event"
    },
    {
      "anonymous": false,
      "inputs": [
        {
          "indexed": true,
          "internalType": "address",
          "name": "account",
          "type": "address"
        }
      ],
      "name": "RemovedFromInstantRedeemWhitelist",
      "type": "event"
    },
    {
      "anonymous": false,
      "inputs": [
        {
          "indexed": false,
          "internalType": "uint256",
          "name": "previousLimit",
          "type": "uint256"
        },
        {
          "indexed": false,
          "internalType": "uint256",
          "name": "newLimit",
          "type": "uint256"
        }
      ],
      "name": "UpdatedAmoMintLimit",
      "type": "event"
    },
    {
      "anonymous": false,
      "inputs": [
        {
          "indexed": true,
          "internalType": "address",
          "name": "token",
          "type": "address"
        },
        {
          "indexed": false,
          "internalType": "uint256",
          "name": "tokenAmount",
          "type": "uint256"
        },
        {
          "indexed": false,
          "internalType": "uint256",
          "name": "peggedTokenAmount",
          "type": "uint256"
        },
        {
          "indexed": true,
          "internalType": "address",
          "name": "receiver",
          "type": "address"
        }
      ],
      "name": "Withdraw",
      "type": "event"
    },
    {
      "anonymous": false,
      "inputs": [
        {
          "indexed": false,
          "internalType": "bool",
          "name": "enabled",
          "type": "bool"
        }
      ],
      "name": "WithdrawalDelayEnabled",
      "type": "event"
    },
    {
      "anonymous": false,
      "inputs": [
        {
          "indexed": false,
          "internalType": "uint256",
          "name": "previousDelay",
          "type": "uint256"
        },
        {
          "indexed": false,
          "internalType": "uint256",
          "name": "newDelay",
          "type": "uint256"
        }
      ],
      "name": "WithdrawalDelayUpdated",
      "type": "event"
    },
    {
      "inputs": [],
      "name": "DEFAULT_ADMIN_ROLE",
      "outputs": [
        {
          "internalType": "bytes32",
          "name": "",
          "type": "bytes32"
        }
      ],
      "stateMutability": "view",
      "type": "function"
    },
    {
      "inputs": [],
      "name": "MAINTAINER_ROLE",
      "outputs": [
        {
          "internalType": "bytes32",
          "name": "",
          "type": "bytes32"
        }
      ],
      "stateMutability": "view",
      "type": "function"
    },
    {
      "inputs": [],
      "name": "MAX_BPS",
      "outputs": [
        {
          "internalType": "uint256",
          "name": "",
          "type": "uint256"
        }
      ],
      "stateMutability": "view",
      "type": "function"
    },
    {
      "inputs": [],
      "name": "MAX_FEE_BPS",
      "outputs": [
        {
          "internalType": "uint256",
          "name": "",
          "type": "uint256"
        }
      ],
      "stateMutability": "view",
      "type": "function"
    },
    {
      "inputs": [],
      "name": "MAX_WITHDRAWAL_DELAY",
      "outputs": [
        {
          "internalType": "uint256",
          "name": "",
          "type": "uint256"
        }
      ],
      "stateMutability": "view",
      "type": "function"
    },
    {
      "inputs": [],
      "name": "NAME",
      "outputs": [
        {
          "internalType": "string",
          "name": "",
          "type": "string"
        }
      ],
      "stateMutability": "view",
      "type": "function"
    },
    {
      "inputs": [],
      "name": "PEGGED_TOKEN",
      "outputs": [
        {
          "internalType": "contract IPeggedToken",
          "name": "",
          "type": "address"
        }
      ],
      "stateMutability": "view",
      "type": "function"
    },
    {
      "inputs": [],
      "name": "UMM_ROLE",
      "outputs": [
        {
          "internalType": "bytes32",
          "name": "",
          "type": "bytes32"
        }
      ],
      "stateMutability": "view",
      "type": "function"
    },
    {
      "inputs": [],
      "name": "VERSION",
      "outputs": [
        {
          "internalType": "string",
          "name": "",
          "type": "string"
        }
      ],
      "stateMutability": "view",
      "type": "function"
    },
    {
      "inputs": [
        {
          "internalType": "address",
          "name": "account_",
          "type": "address"
        }
      ],
      "name": "addToInstantRedeemWhitelist",
      "outputs": [],
      "stateMutability": "nonpayable",
      "type": "function"
    },
    {
      "inputs": [],
      "name": "amoMintLimit",
      "outputs": [
        {
          "internalType": "uint256",
          "name": "",
          "type": "uint256"
        }
      ],
      "stateMutability": "view",
      "type": "function"
    },
    {
      "inputs": [],
      "name": "amoSupply",
      "outputs": [
        {
          "internalType": "uint256",
          "name": "",
          "type": "uint256"
        }
      ],
      "stateMutability": "view",
      "type": "function"
    },
    {
      "inputs": [
        {
          "internalType": "uint256",
          "name": "amount_",
          "type": "uint256"
        }
      ],
      "name": "burnFromAMO",
      "outputs": [],
      "stateMutability": "nonpayable",
      "type": "function"
    },
    {
      "inputs": [],
      "name": "cancelRedeemRequest",
      "outputs": [],
      "stateMutability": "nonpayable",
      "type": "function"
    },
    {
      "inputs": [
        {
          "internalType": "address",
          "name": "tokenIn_",
          "type": "address"
        },
        {
          "internalType": "uint256",
          "name": "amountIn_",
          "type": "uint256"
        },
        {
          "internalType": "uint256",
          "name": "minPeggedTokenOut_",
          "type": "uint256"
        },
        {
          "internalType": "address",
          "name": "receiver_",
          "type": "address"
        }
      ],
      "name": "deposit",
      "outputs": [
        {
          "internalType": "uint256",
          "name": "",
          "type": "uint256"
        }
      ],
      "stateMutability": "nonpayable",
      "type": "function"
    },
    {
      "inputs": [],
      "name": "getInstantRedeemWhitelist",
      "outputs": [
        {
          "internalType": "address[]",
          "name": "",
          "type": "address[]"
        }
      ],
      "stateMutability": "view",
      "type": "function"
    },
    {
      "inputs": [
        {
          "internalType": "address",
          "name": "user_",
          "type": "address"
        }
      ],
      "name": "getRedeemRequest",
      "outputs": [
        {
          "internalType": "uint256",
          "name": "_amountLocked",
          "type": "uint256"
        },
        {
          "internalType": "uint256",
          "name": "_claimableAt",
          "type": "uint256"
        }
      ],
      "stateMutability": "view",
      "type": "function"
    },
    {
      "inputs": [
        {
          "internalType": "address",
          "name": "peggedToken_",
          "type": "address"
        },
        {
          "internalType": "uint256",
          "name": "mintLimit_",
          "type": "uint256"
        },
        {
          "internalType": "uint256",
          "name": "initialWithdrawalDelay_",
          "type": "uint256"
        }
      ],
      "name": "initialize",
      "outputs": [],
      "stateMutability": "nonpayable",
      "type": "function"
    },
    {
      "inputs": [
        {
          "internalType": "address",
          "name": "account_",
          "type": "address"
        }
      ],
      "name": "isInstantRedeemWhitelisted",
      "outputs": [
        {
          "internalType": "bool",
          "name": "",
          "type": "bool"
        }
      ],
      "stateMutability": "view",
      "type": "function"
    },
    {
      "inputs": [],
      "name": "maxAmoMint",
      "outputs": [
        {
          "internalType": "uint256",
          "name": "",
          "type": "uint256"
        }
      ],
      "stateMutability": "view",
      "type": "function"
    },
    {
      "inputs": [],
      "name": "maxDeposit",
      "outputs": [
        {
          "internalType": "uint256",
          "name": "",
          "type": "uint256"
        }
      ],
      "stateMutability": "pure",
      "type": "function"
    },
    {
      "inputs": [],
      "name": "maxMint",
      "outputs": [
        {
          "internalType": "uint256",
          "name": "",
          "type": "uint256"
        }
      ],
      "stateMutability": "view",
      "type": "function"
    },
    {
      "inputs": [
        {
          "internalType": "address",
          "name": "owner_",
          "type": "address"
        }
      ],
      "name": "maxRedeem",
      "outputs": [
        {
          "internalType": "uint256",
          "name": "",
          "type": "uint256"
        }
      ],
      "stateMutability": "view",
      "type": "function"
    },
    {
      "inputs": [
        {
          "internalType": "address",
          "name": "tokenOut_",
          "type": "address"
        }
      ],
      "name": "maxWithdraw",
      "outputs": [
        {
          "internalType": "uint256",
          "name": "",
          "type": "uint256"
        }
      ],
      "stateMutability": "view",
      "type": "function"
    },
    {
      "inputs": [
        {
          "internalType": "address",
          "name": "tokenIn_",
          "type": "address"
        },
        {
          "internalType": "uint256",
          "name": "peggedTokenOut_",
          "type": "uint256"
        },
        {
          "internalType": "uint256",
          "name": "maxAmountIn_",
          "type": "uint256"
        },
        {
          "internalType": "address",
          "name": "receiver_",
          "type": "address"
        }
      ],
      "name": "mint",
      "outputs": [
        {
          "internalType": "uint256",
          "name": "",
          "type": "uint256"
        }
      ],
      "stateMutability": "nonpayable",
      "type": "function"
    },
    {
      "inputs": [
        {
          "internalType": "address",
          "name": "token_",
          "type": "address"
        }
      ],
      "name": "mintFee",
      "outputs": [
        {
          "internalType": "uint256",
          "name": "",
          "type": "uint256"
        }
      ],
      "stateMutability": "view",
      "type": "function"
    },
    {
      "inputs": [],
      "name": "mintLimit",
      "outputs": [
        {
          "internalType": "uint256",
          "name": "",
          "type": "uint256"
        }
      ],
      "stateMutability": "view",
      "type": "function"
    },
    {
      "inputs": [
        {
          "internalType": "uint256",
          "name": "amount_",
          "type": "uint256"
        },
        {
          "internalType": "address",
          "name": "receiver_",
          "type": "address"
        }
      ],
      "name": "mintToAMO",
      "outputs": [],
      "stateMutability": "nonpayable",
      "type": "function"
    },
    {
      "inputs": [],
      "name": "owner",
      "outputs": [
        {
          "internalType": "address",
          "name": "",
          "type": "address"
        }
      ],
      "stateMutability": "view",
      "type": "function"
    },
    {
      "inputs": [
        {
          "internalType": "address",
          "name": "token_",
          "type": "address"
        }
      ],
      "name": "pegBand",
      "outputs": [
        {
          "internalType": "uint256",
          "name": "",
          "type": "uint256"
        }
      ],
      "stateMutability": "view",
      "type": "function"
    },
    {
      "inputs": [
        {
          "internalType": "address",
          "name": "tokenIn_",
          "type": "address"
        },
        {
          "internalType": "uint256",
          "name": "amountIn_",
          "type": "uint256"
        }
      ],
      "name": "previewDeposit",
      "outputs": [
        {
          "internalType": "uint256",
          "name": "",
          "type": "uint256"
        }
      ],
      "stateMutability": "view",
      "type": "function"
    },
    {
      "inputs": [
        {
          "internalType": "address",
          "name": "tokenIn_",
          "type": "address"
        },
        {
          "internalType": "uint256",
          "name": "peggedTokenOut_",
          "type": "uint256"
        }
      ],
      "name": "previewMint",
      "outputs": [
        {
          "internalType": "uint256",
          "name": "",
          "type": "uint256"
        }
      ],
      "stateMutability": "view",
      "type": "function"
    },
    {
      "inputs": [
        {
          "internalType": "address",
          "name": "tokenOut_",
          "type": "address"
        },
        {
          "internalType": "uint256",
          "name": "peggedTokenIn_",
          "type": "uint256"
        }
      ],
      "name": "previewRedeem",
      "outputs": [
        {
          "internalType": "uint256",
          "name": "",
          "type": "uint256"
        }
      ],
      "stateMutability": "view",
      "type": "function"
    },
    {
      "inputs": [
        {
          "internalType": "address",
          "name": "tokenOut_",
          "type": "address"
        },
        {
          "internalType": "uint256",
          "name": "amountOut_",
          "type": "uint256"
        }
      ],
      "name": "previewWithdraw",
      "outputs": [
        {
          "internalType": "uint256",
          "name": "",
          "type": "uint256"
        }
      ],
      "stateMutability": "view",
      "type": "function"
    },
    {
      "inputs": [
        {
          "internalType": "address",
          "name": "tokenOut_",
          "type": "address"
        },
        {
          "internalType": "uint256",
          "name": "peggedTokenIn_",
          "type": "uint256"
        },
        {
          "internalType": "uint256",
          "name": "minAmountOut_",
          "type": "uint256"
        },
        {
          "internalType": "address",
          "name": "receiver_",
          "type": "address"
        }
      ],
      "name": "redeem",
      "outputs": [
        {
          "internalType": "uint256",
          "name": "",
          "type": "uint256"
        }
      ],
      "stateMutability": "nonpayable",
      "type": "function"
    },
    {
      "inputs": [
        {
          "internalType": "address",
          "name": "token_",
          "type": "address"
        }
      ],
      "name": "redeemFee",
      "outputs": [
        {
          "internalType": "uint256",
          "name": "",
          "type": "uint256"
        }
      ],
      "stateMutability": "view",
      "type": "function"
    },
    {
      "inputs": [
        {
          "internalType": "address",
          "name": "account_",
          "type": "address"
        }
      ],
      "name": "removeFromInstantRedeemWhitelist",
      "outputs": [],
      "stateMutability": "nonpayable",
      "type": "function"
    },
    {
      "inputs": [
        {
          "internalType": "uint256",
          "name": "peggedTokenAmount_",
          "type": "uint256"
        }
      ],
      "name": "requestRedeem",
      "outputs": [],
      "stateMutability": "nonpayable",
      "type": "function"
    },
    {
      "inputs": [
        {
          "internalType": "bool",
          "name": "enabled_",
          "type": "bool"
        }
      ],
      "name": "setWithdrawalDelayEnabled",
      "outputs": [],
      "stateMutability": "nonpayable",
      "type": "function"
    },
    {
      "inputs": [],
      "name": "treasury",
      "outputs": [
        {
          "internalType": "address",
          "name": "",
          "type": "address"
        }
      ],
      "stateMutability": "view",
      "type": "function"
    },
    {
      "inputs": [
        {
          "internalType": "uint256",
          "name": "newAmoMintLimit_",
          "type": "uint256"
        }
      ],
      "name": "updateAmoMintLimit",
      "outputs": [],
      "stateMutability": "nonpayable",
      "type": "function"
    },
    {
      "inputs": [
        {
          "internalType": "address",
          "name": "token_",
          "type": "address"
        },
        {
          "internalType": "uint256",
          "name": "newMintFee_",
          "type": "uint256"
        }
      ],
      "name": "updateMintFee",
      "outputs": [],
      "stateMutability": "nonpayable",
      "type": "function"
    },
    {
      "inputs": [
        {
          "internalType": "uint256",
          "name": "newMintLimit_",
          "type": "uint256"
        }
      ],
      "name": "updateMintLimit",
      "outputs": [],
      "stateMutability": "nonpayable",
      "type": "function"
    },
    {
      "inputs": [
        {
          "internalType": "address",
          "name": "token_",
          "type": "address"
        },
        {
          "internalType": "uint256",
          "name": "newPegBandBps_",
          "type": "uint256"
        }
      ],
      "name": "updatePegBand",
      "outputs": [],
      "stateMutability": "nonpayable",
      "type": "function"
    },
    {
      "inputs": [
        {
          "internalType": "address",
          "name": "token_",
          "type": "address"
        },
        {
          "internalType": "uint256",
          "name": "newRedeemFee_",
          "type": "uint256"
        }
      ],
      "name": "updateRedeemFee",
      "outputs": [],
      "stateMutability": "nonpayable",
      "type": "function"
    },
    {
      "inputs": [
        {
          "internalType": "uint256",
          "name": "newDelay_",
          "type": "uint256"
        }
      ],
      "name": "updateWithdrawalDelay",
      "outputs": [],
      "stateMutability": "nonpayable",
      "type": "function"
    },
    {
      "inputs": [
        {
          "internalType": "address",
          "name": "tokenOut_",
          "type": "address"
        },
        {
          "internalType": "uint256",
          "name": "amountOut_",
          "type": "uint256"
        },
        {
          "internalType": "uint256",
          "name": "maxPeggedTokenIn_",
          "type": "uint256"
        },
        {
          "internalType": "address",
          "name": "receiver_",
          "type": "address"
        }
      ],
      "name": "withdraw",
      "outputs": [
        {
          "internalType": "uint256",
          "name": "",
          "type": "uint256"
        }
      ],
      "stateMutability": "nonpayable",
      "type": "function"
    },
    {
      "inputs": [],
      "name": "withdrawalDelay",
      "outputs": [
        {
          "internalType": "uint256",
          "name": "",
          "type": "uint256"
        }
      ],
      "stateMutability": "view",
      "type": "function"
    },
    {
      "inputs": [],
      "name": "withdrawalDelayEnabled",
      "outputs": [
        {
          "internalType": "bool",
          "name": "",
          "type": "bool"
        }
      ],
      "stateMutability": "view",
      "type": "function"
    }
  ],
  "transactionHash": "0xc1162eebbef6cbb705a7355314e77273176dfe78f49b2132879f2d2ecff629a2",
  "args": [],
  "numDeployments": 1,
  "solcInputHash": "02d8ea76e2916585716ca3d7d2aad7ad",
  "bytecode": "0x6080604052348015600e575f5ffd5b5060156019565b60c9565b7ff0c57e16840df040f15088dc2f81fe391c3923bec73e23a9662efc9c229c6a00805468010000000000000000900460ff161560685760405163f92ee8a960e01b815260040160405180910390fd5b80546001600160401b039081161460c65780546001600160401b0319166001600160401b0390811782556040519081527fc7f505b2f371ae2175ee4913f4499e1f2633a7b5936321eed1cdaeb6115181d29060200160405180910390a15b50565b61323f806100d65f395ff3fe608060405234801561000f575f5ffd5b50600436106102b1575f3560e01c8063a3f4df7e1161017b578063d905777e116100e4578063f4a8bfce1161009e578063f874225411610079578063f8742254146105d6578063f8b49e72146105ea578063fd967f47146105fd578063ffa1ad7414610606575f5ffd5b8063f4a8bfce14610589578063f69516bd1461059c578063f74bfe8e146105c3575f5ffd5b8063d905777e14610522578063dc4aca0b14610535578063de7a8d1114610548578063e01d55c51461055b578063e2ad44301461056e578063ef34e1d314610576575f5ffd5b8063cbe52ae311610135578063cbe52ae3146104c5578063ce96cb77146104d8578063d1f810a5146104eb578063d392ff84146104fe578063d55be8c614610506578063d7811ca81461050f575f5ffd5b8063a3f4df7e1461045c578063a7ab696114610471578063aa2f892d14610479578063b8f82b261461048c578063bba6b6d91461049f578063bbc6f1dc146104b2575f5ffd5b80636083e59a1161021d57806385a8715c116101d757806385a8715c146104155780638b6099db146104285780638da5cb5b1461043b578063996517cf14610443578063a217fddf1461044b578063a238f9df14610452575f5ffd5b80636083e59a146103c557806361d027b3146103cc5780636dd86aa9146103d4578063726c19b6146103e75780637501f741146103fa5780637a1ac61e14610402575f5ffd5b80633c05e18f1161026e5780633c05e18f1461032c57806343bcfab6146103545780634b5f70e9146103675780634e485cf71461037f57806352cd67e91461039f578063569e7665146103b2575f5ffd5b80630ca4bea6146102b557806311dbcb6a146102ca5780631543b996146102e857806316762eed146102fe5780631d0f92541461031157806337c1c97314610319575b5f5ffd5b6102c86102c3366004612b87565b61062a565b005b6102d2610698565b6040516102df9190612ba2565b60405180910390f35b6102f06106b2565b6040519081526020016102df565b6102f061030c366004612c01565b6106c4565b6102f0610728565b6102c8610327366004612c48565b61073a565b61033f61033a366004612c72565b610893565b604080519283526020830191909152016102df565b6102f0610362366004612c01565b6108df565b61036f61092c565b60405190151581526020016102df565b610387610941565b6040516001600160a01b0390911681526020016102df565b6102c86103ad366004612c8d565b61095c565b61036f6103c0366004612c72565b6109f4565b5f196102f0565b610387610a10565b6102c86103e2366004612c48565b610a78565b6102f06103f5366004612c72565b610bd1565b6102f0610bfb565b6102c8610410366004612ca4565b610cb4565b6102c8610423366004612c8d565b610f61565b6102f0610436366004612c01565b61109b565b6103876110e8565b6102f061112c565b6102f05f81565b6102f062278d0081565b61046461113e565b6040516102df9190612cd6565b6102f06111d4565b6102c8610487366004612c8d565b6111e6565b6102f061049a366004612c48565b6112e3565b6102c86104ad366004612d0b565b6112f5565b6102f06104c0366004612c48565b611461565b6102f06104d3366004612c48565b61149b565b6102f06104e6366004612c72565b6114a6565b6102f06104f9366004612c48565b61151a565b6102c8611594565b6102f06101f481565b6102c861051d366004612c72565b611669565b6102f0610530366004612c72565b61171f565b6102c8610543366004612c8d565b611758565b6102f0610556366004612c72565b6117e7565b6102c8610569366004612c8d565b611811565b6102f061186f565b6102c8610584366004612c48565b61189e565b6102c8610597366004612c72565b6119bf565b6102f07f0409f54a149f7e9c092b20899db5e0090f5fe0d95cec1f328884d998633a8de881565b6102f06105d1366004612c01565b611a4e565b6102f05f5160206131ea5f395f51905f5281565b6102f06105f8366004612c72565b611a9b565b6102f061271081565b610464604051806040016040528060058152602001640312e302e360dc1b81525081565b5f5160206131ea5f395f51905f5261064181611ac5565b5f61064a611b5d565b60058101805460ff19168515159081179091556040519081529091507f1ab3cf66155e779afea5e22ccc9d9309ab0b8ac9f8bb280be843272f54202ead9060200160405180910390a1505050565b60606106ad6106a5611b5d565b600701611bbe565b905090565b5f6106bb611b5d565b60040154905090565b5f6106cd611bca565b5f6106d88686611461565b90508381111561070a57604051637a41461360e01b815260048101829052602481018590526044015b60405180910390fd5b61071686828786611c37565b9050610720611ca0565b949350505050565b5f610731611b5d565b60030154905090565b5f5160206131ea5f395f51905f5261075181611ac5565b610759610a10565b60405163559bfa4360e11b81526001600160a01b038581166004830152919091169063ab37f48690602401602060405180830381865afa15801561079f573d5f5f3e3d5ffd5b505050506040513d601f19601f820116820180604052508101906107c39190612d39565b6107eb5760405163751dff9760e11b81526001600160a01b0384166004820152602401610701565b6101f48211156108115760405163cdbb209f60e01b815260048101839052602401610701565b5f61081a611b5d565b6001600160a01b0385165f818152600b8301602090815260409182902054825190815290810187905292935090917f1a15b544093bd3556343e4087772291340e180214a1c35469a6dd8aa1a4d3c68910160405180910390a26001600160a01b039093165f908152600b90930160205250604090912055565b5f5f5f61089e611b5d565b6001600160a01b039094165f908152600994909401602090815260409485902085518087019096528054808752600190910154959091018590529492505050565b5f6108e8611bca565b5f6108f3868661149b565b9050838110156109205760405163c419416760e01b81526004810182905260248101859052604401610701565b61071686868386611c37565b5f610935611b5d565b6005015460ff16919050565b5f61094a611b5d565b600101546001600160a01b0316919050565b5f5160206131ea5f395f51905f5261097381611ac5565b811580610982575062278d0082115b156109a057604051633cb2b8d760e11b815260040160405180910390fd5b5f6109a9611b5d565b600681015460408051918252602082018690529192507f9c3f1b54b1487e018f1d0593ff5cf7fb625b2df6332c974a6cc56bb358879841910160405180910390a16006019190915550565b5f610a0a82610a01611b5d565b60070190611cca565b92915050565b5f610a19610941565b6001600160a01b03166361d027b36040518163ffffffff1660e01b8152600401602060405180830381865afa158015610a54573d5f5f3e3d5ffd5b505050506040513d601f19601f820116820180604052508101906106ad9190612d54565b5f5160206131ea5f395f51905f52610a8f81611ac5565b610a97610a10565b60405163559bfa4360e11b81526001600160a01b038581166004830152919091169063ab37f48690602401602060405180830381865afa158015610add573d5f5f3e3d5ffd5b505050506040513d601f19601f82011682018060405250810190610b019190612d39565b610b295760405163751dff9760e11b81526001600160a01b0384166004820152602401610701565b6101f4821115610b4f576040516319fd0bd760e21b815260048101839052602401610701565b5f610b58611b5d565b6001600160a01b0385165f818152600c8301602090815260409182902054825190815290810187905292935090917f08cf3e85f82bb8308a1225e82694466368f02a7803dbfac0b5b7a5db38d52ca2910160405180910390a26001600160a01b039093165f908152600c90930160205250604090912055565b5f610bda611b5d565b6001600160a01b039092165f908152600a9290920160205250604090205490565b5f5f610c05611b5d565b90505f816001015f9054906101000a90046001600160a01b03166001600160a01b03166318160ddd6040518163ffffffff1660e01b8152600401602060405180830381865afa158015610c5a573d5f5f3e3d5ffd5b505050506040513d601f19601f82011682018060405250810190610c7e9190612d6f565b60048301549091505f610c918284612d9a565b6002850154909150818111610cab575f9550505050505090565b03949350505050565b7ff0c57e16840df040f15088dc2f81fe391c3923bec73e23a9662efc9c229c6a008054600160401b810460ff16159067ffffffffffffffff165f81158015610cf95750825b90505f8267ffffffffffffffff166001148015610d155750303b155b905081158015610d23575080155b15610d415760405163f92ee8a960e01b815260040160405180910390fd5b845467ffffffffffffffff191660011785558315610d6b57845460ff60401b1916600160401b1785555b6001600160a01b038816610d925760405163867915ab60e01b815260040160405180910390fd5b5f610d9b611b5d565b6001810180546001600160a01b0319166001600160a01b038c16908117909155600282018a90556040805163313ce56760e01b81529051929350909163313ce567916004808201926020929091908290030181865afa158015610e00573d5f5f3e3d5ffd5b505050506040513d601f19601f82011682018060405250810190610e249190612dad565b8160010160146101000a81548160ff021916908360ff160217905550886001600160a01b03166395d89b416040518163ffffffff1660e01b81526004015f60405180830381865afa158015610e7b573d5f5f3e3d5ffd5b505050506040513d5f823e601f3d908101601f19168201604052610ea29190810190612de1565b604051602001610eb29190612e94565b60408051601f198184030181529190528190610ece9082612f3b565b5060058101805460ff19166001179055861580610eed575062278d0087115b15610f0b57604051633cb2b8d760e11b815260040160405180910390fd5b6006018690558315610f5757845460ff60401b19168555604051600181527fc7f505b2f371ae2175ee4913f4499e1f2633a7b5936321eed1cdaeb6115181d29060200160405180910390a15b5050505050505050565b7f0409f54a149f7e9c092b20899db5e0090f5fe0d95cec1f328884d998633a8de8610f8b81611ac5565b815f03610fab576040516310eb483f60e21b815260040160405180910390fd5b5f610fb4611b5d565b600181015460405163079cc67960e41b81529192506001600160a01b0316906379cc679090610fe99033908790600401612ff6565b5f604051808303815f87803b158015611000575f5ffd5b505af1158015611012573d5f5f3e3d5ffd5b50505050600481015480841115611046576040516312d5d0b560e11b81526004810185905260248101829052604401610701565b5f6110518583612d9a565b6004840181905560408051878152602081018390529192507fa840d857be4fa627a8b83209753d23db02a27dc32782579e9332a69d5fc881dd910160405180910390a15050505050565b5f6110a4611bca565b5f6110af86866112e3565b9050838110156110dc576040516302a33a4160e21b81526004810182905260248101859052604401610701565b61071686868386611ceb565b5f6110f1610a10565b6001600160a01b0316638da5cb5b6040518163ffffffff1660e01b8152600401602060405180830381865afa158015610a54573d5f5f3e3d5ffd5b5f611135611b5d565b60020154905090565b6060611148611b5d565b805461115390612eb8565b80601f016020809104026020016040519081016040528092919081815260200182805461117f90612eb8565b80156111ca5780601f106111a1576101008083540402835291602001916111ca565b820191905f5260205f20905b8154815290600101906020018083116111ad57829003601f168201915b5050505050905090565b5f6111dd611b5d565b60060154905090565b6111ee611bca565b805f0361120e576040516310eb483f60e21b815260040160405180910390fd5b5f611217611b5d565b600581015490915060ff1661123f5760405163dda8b6db60e01b815260040160405180910390fd5b6001810154611259906001600160a01b0316333085611f65565b335f9081526009820160205260408120805490919061127990859061300f565b90505f83600601544261128c919061300f565b82845560018401819055604080518481526020810183905291925033917f58fe322fc5911ed072ec92f570e517b9793e350eb1ff7be0019fd9f3fade87bc910160405180910390a2505050506112e0611ca0565b50565b5f6112ee8383611fcc565b9392505050565b7f0409f54a149f7e9c092b20899db5e0090f5fe0d95cec1f328884d998633a8de861131f81611ac5565b6001600160a01b0382166113465760405163867915ab60e01b815260040160405180910390fd5b5f61134f611b5d565b60048101546003820154919250905f82821161136b575f611375565b6113758383612d9a565b9050808711156113a257604051634a768b1360e01b81526004810188905260248101829052604401610701565b6113ac878461300f565b600480860182905560018601546040516340c10f1960e01b81529295506001600160a01b0316916340c10f19916113e7918a918c9101612ff6565b5f604051808303815f87803b1580156113fe575f5ffd5b505af1158015611410573d5f5f3e3d5ffd5b5050604080518a8152602081018790526001600160a01b038a1693507f5b12134695cb4f1d04e9c6f5747e4f28d084940f9ac912162a12ea4c50790c7b92500160405180910390a250505050505050565b5f5f61146b6121ff565b61147690600a613105565b90505f611483858361221b565b905061149284838360016123c7565b95945050505050565b5f6112ee838361221b565b5f6114af610a10565b60405163ce513b6f60e01b81526001600160a01b038481166004830152919091169063ce513b6f906024015b602060405180830381865afa1580156114f6573d5f5f3e3d5ffd5b505050506040513d601f19601f82011682018060405250810190610a0a9190612d6f565b5f5f836001600160a01b031663313ce5676040518163ffffffff1660e01b8152600401602060405180830381865afa158015611558573d5f5f3e3d5ffd5b505050506040513d601f19601f8201168201806040525081019061157c9190612dad565b61158790600a613105565b90505f6114838583611fcc565b61159c611bca565b5f6115a5611b5d565b335f90815260098201602090815260408083208151808301909252805482526001015491810182905292935090036115f057604051636a9cf0e160e11b815260040160405180910390fd5b8051335f8181526009850160205260408120818155600190810191909155840154611627916001600160a01b039091169083612409565b60405181815233907f046d3e17087d323298991516e3fdec36fe1204d6bff7fb6e2b8eca77b80a22ad9060200160405180910390a2505050611667611ca0565b565b5f5160206131ea5f395f51905f5261168081611ac5565b6001600160a01b0382166116a75760405163867915ab60e01b815260040160405180910390fd5b5f6116b0611b5d565b90506116bf6007820184612434565b6116e757604051631da8dae560e21b81526001600160a01b0384166004820152602401610701565b6040516001600160a01b038416907f797517369e23ffd3af45a8a42a13b6db0a4826ad2ef98121c434e14f150e6240905f90a2505050565b5f611728610941565b6040516370a0823160e01b81526001600160a01b03848116600483015291909116906370a08231906024016114db565b5f61176281611ac5565b5f61176b611b5d565b60048101549091508084101561179e5760405163c502fa4b60e01b81526004810185905260248101829052604401610701565b600382015460408051918252602082018690527fa15e75b23c4dcef1647713af3c7fdf585008390108be4b7936c438297047726d910160405180910390a1506003019190915550565b5f6117f0611b5d565b6001600160a01b039092165f908152600c9290920160205250604090205490565b5f61181b81611ac5565b5f611824611b5d565b600281015460408051918252602082018690529192507f864790bdf9878a0378c6fc2b0ce53bf74ca13b901bc97a1cb94aa88f1600e482910160405180910390a16002019190915550565b5f5f611879611b5d565b6004810154600382015491925090818111611897575f935050505090565b0392915050565b5f6118a881611ac5565b5f6118b1610a10565b6001600160a01b03166359011cd16040518163ffffffff1660e01b8152600401602060405180830381865afa1580156118ec573d5f5f3e3d5ffd5b505050506040513d601f19601f820116820180604052508101906119109190612d6f565b905080831061193c5760405163d249c39b60e01b81526004810184905260248101829052604401610701565b5f611945611b5d565b6001600160a01b0386165f818152600a8301602090815260409182902054825190815290810188905292935090917f91b5c669b95c944e391cafcd29858c0b8d0f840d1efececa05babf51b3d4684a910160405180910390a26001600160a01b039094165f908152600a9094016020525050604090912055565b5f5160206131ea5f395f51905f526119d681611ac5565b5f6119df611b5d565b90506119ee6007820184612448565b611a1657604051636a95c69760e11b81526001600160a01b0384166004820152602401610701565b6040516001600160a01b038416907f33ab47afb8a85cbb067a9be15fcd6a7d60556a446b47f204e65a37cf7ad19c38905f90a2505050565b5f611a57611bca565b5f611a62868661151a565b905083811115611a8f576040516366bd3b3160e01b81526004810182905260248101859052604401610701565b61071686828786611ceb565b5f611aa4611b5d565b6001600160a01b039092165f908152600b9290920160205250604090205490565b611acd610a10565b604051632474521560e21b8152600481018390523360248201526001600160a01b0391909116906391d1485490604401602060405180830381865afa158015611b18573d5f5f3e3d5ffd5b505050506040513d601f19601f82011682018060405250810190611b3c9190612d39565b6112e057338160405163e2517d3f60e01b8152600401610701929190612ff6565b5f8060ff19611b8d60017fa3a4435365f490e843046070479899515f8f1c66eb53917e96404c72b5dbe54f612d9a565b604051602001611b9f91815260200190565b60408051601f1981840301815291905280516020909101201692915050565b60605f6112ee8361245c565b7f9b779b17422d0df92223018b32b4d1fa46e071723d6817e2486d003becc55f005c15611c0a57604051633ee5aeb560e01b815260040160405180910390fd5b61166760017f9b779b17422d0df92223018b32b4d1fa46e071723d6817e2486d003becc55f005b906124b5565b5f611c40611b5d565b335f908152600982016020526040902060018101549192509015801590611c6b575080600101544210155b15611c8357611c7c868686866124bc565b5050611c9a565b611c8b612745565b611c978685878661278f565b50505b50505050565b6116675f7f9b779b17422d0df92223018b32b4d1fa46e071723d6817e2486d003becc55f00611c31565b6001600160a01b0381165f90815260018301602052604081205415156112ee565b5f611cf4610bfb565b905080831115611d2157604051634a768b1360e01b81526004810184905260248101829052604401610701565b5f611d2a610a10565b6040516370a0823160e01b81526001600160a01b0380831660048301529192505f918816906370a0823190602401602060405180830381865afa158015611d73573d5f5f3e3d5ffd5b505050506040513d601f19601f82011682018060405250810190611d979190612d6f565b9050611dae6001600160a01b038816338489611f65565b6040516370a0823160e01b81526001600160a01b0383811660048301525f91908916906370a0823190602401602060405180830381865afa158015611df5573d5f5f3e3d5ffd5b505050506040513d601f19601f82011682018060405250810190611e199190612d6f565b905086611e268383612d9a565b14611e4f576040516335822d6b60e11b81526001600160a01b0389166004820152602401610701565b6040516311f9fbc960e21b81526001600160a01b038416906347e7ef2490611e7d908b908b90600401612ff6565b5f604051808303815f87803b158015611e94575f5ffd5b505af1158015611ea6573d5f5f3e3d5ffd5b505050505f611eb3610941565b6040516340c10f1960e01b81529091506001600160a01b038216906340c10f1990611ee49089908b90600401612ff6565b5f604051808303815f87803b158015611efb575f5ffd5b505af1158015611f0d573d5f5f3e3d5ffd5b5050604080518b8152602081018b90526001600160a01b03808b1694508d1692507f02d7e648dd130fc184d383e55bb126ac4c9c60e8f94bf05acdf557ba2d540b4791015b60405180910390a3505050505050505050565b6040516001600160a01b038481166024830152838116604483015260648201839052611c9a9186918216906323b872dd906084015b604051602081830303815290604052915060e01b6020820180516001600160e01b0383818316178352505050506128ec565b5f5f611fd6611b5d565b90505f5f826001015f9054906101000a90046001600160a01b03166001600160a01b03166361d027b36040518163ffffffff1660e01b8152600401602060405180830381865afa15801561202c573d5f5f3e3d5ffd5b505050506040513d601f19601f820116820180604052508101906120509190612d54565b6040516341976e0960e01b81526001600160a01b03888116600483015291909116906341976e09906024016040805180830381865afa158015612095573d5f5f3e3d5ffd5b505050506040513d601f19601f820116820180604052508101906120b99190613113565b6001600160a01b0388165f908152600b86016020526040812054929450909250816120e457866120fd565b6120fd6120f383612710612d9a565b8890612710612958565b6001600160a01b0389165f908152600a8701602052604081205491925090612710906121299086613135565b6121339190613160565b61213d9085612d9a565b90505f8186101561215857612153838787612958565b61215a565b825b90505f8760010160149054906101000a900460ff1690508a6001600160a01b031663313ce5676040518163ffffffff1660e01b8152600401602060405180830381865afa1580156121ad573d5f5f3e3d5ffd5b505050506040513d601f19601f820116820180604052508101906121d19190612dad565b6121db9082613173565b6121e690600a613105565b6121f09083613135565b9b9a5050505050505050505050565b5f612208611b5d565b60010154600160a01b900460ff16919050565b5f5f612225611b5d565b90505f5f612231610a10565b6040516341976e0960e01b81526001600160a01b03888116600483015291909116906341976e09906024016040805180830381865afa158015612276573d5f5f3e3d5ffd5b505050506040513d601f19601f8201168201806040525081019061229a9190613113565b6001600160a01b0388165f908152600c86016020526040812054929450909250816122c557866122d4565b6122d46120f383612710612d9a565b6001600160a01b0389165f908152600a8701602052604081205491925090612710906123009086613135565b61230a9190613160565b612314908561300f565b90505f8186111561232f5761232a838688612958565b612331565b825b90505f8760010160149054906101000a900460ff1690508a6001600160a01b031663313ce5676040518163ffffffff1660e01b8152600401602060405180830381865afa158015612384573d5f5f3e3d5ffd5b505050506040513d601f19601f820116820180604052508101906123a89190612dad565b6123b29082613173565b6123bd90600a613105565b6121f09083613160565b5f6123f46123d483612a0e565b80156123ef57505f84806123ea576123ea61314c565b868809115b151590565b6123ff868686612958565b611492919061300f565b61242f83846001600160a01b031663a9059cbb8585604051602401611f9a929190612ff6565b505050565b5f6112ee836001600160a01b038416612a3a565b5f6112ee836001600160a01b038416612a86565b6060815f018054806020026020016040519081016040528092919081815260200182805480156124a957602002820191905f5260205f20905b815481526020019060010190808311612495575b50505050509050919050565b80825d5050565b5f6124c6856114a6565b9050808311156124f35760405163264f877960e21b81526004810184905260248101829052604401610701565b5f6124fc611b5d565b335f90815260098201602052604090208054600183015492935090916001600160a01b03168188116125b4578782039150815f0361255057335f908152600985016020526040812081815560010155612554565b8183555b60405163079cc67960e41b81526001600160a01b038216906379cc6790906125829030908c90600401612ff6565b5f604051808303815f87803b158015612599575f5ffd5b505af11580156125ab573d5f5f3e3d5ffd5b50505050612691565b6125bc612745565b335f908152600985016020526040808220828155600101919091555163079cc67960e41b8152828903906001600160a01b038316906379cc6790906126079030908790600401612ff6565b5f604051808303815f87803b15801561261e575f5ffd5b505af1158015612630573d5f5f3e3d5ffd5b505060405163079cc67960e41b81526001600160a01b03851692506379cc679091506126629033908590600401612ff6565b5f604051808303815f87803b158015612679575f5ffd5b505af115801561268b573d5f5f3e3d5ffd5b50505050505b612699610a10565b604051631a4ca37b60e21b81526001600160a01b038b81166004830152602482018a9052888116604483015291909116906369328dec906064015f604051808303815f87803b1580156126ea575f5ffd5b505af11580156126fc573d5f5f3e3d5ffd5b5050604080518a8152602081018c90526001600160a01b03808b1694508d1692507f8166bf25f8a2b7ed3c85049207da4358d16edbed977d23fa2ee6f0dde3ec21329101611f52565b5f61274e611b5d565b600581015490915060ff16801561276f575061276d6007820133611cca565b155b156112e05760405163252c827360e01b8152336004820152602401610701565b5f612799856114a6565b9050808411156127c65760405163264f877960e21b81526004810185905260248101829052604401610701565b5f6127cf610941565b60405163079cc67960e41b81529091506001600160a01b038216906379cc6790906128009033908890600401612ff6565b5f604051808303815f87803b158015612817575f5ffd5b505af1158015612829573d5f5f3e3d5ffd5b50505050612835610a10565b604051631a4ca37b60e21b81526001600160a01b03888116600483015260248201889052858116604483015291909116906369328dec906064015f604051808303815f87803b158015612886575f5ffd5b505af1158015612898573d5f5f3e3d5ffd5b505060408051888152602081018890526001600160a01b0380881694508a1692507f8166bf25f8a2b7ed3c85049207da4358d16edbed977d23fa2ee6f0dde3ec2132910160405180910390a3505050505050565b5f5f60205f8451602086015f885af18061290b576040513d5f823e3d81fd5b50505f513d9150811561292257806001141561292f565b6001600160a01b0384163b155b15611c9a57604051635274afe760e01b81526001600160a01b0385166004820152602401610701565b5f838302815f1985870982811083820303915050805f0361298c578382816129825761298261314c565b04925050506112ee565b8084116129a3576129a36003851502601118612b69565b5f848688095f868103871696879004966002600389028118808a02820302808a02820302808a02820302808a02820302808a02820302808a02909103029181900381900460010186841190950394909402919094039290920491909117919091029150509392505050565b5f6002826003811115612a2357612a2361318c565b612a2d91906131a0565b60ff166001149050919050565b5f818152600183016020526040812054612a7f57508154600181810184555f848152602080822090930184905584548482528286019093526040902091909155610a0a565b505f610a0a565b5f8181526001830160205260408120548015612b60575f612aa8600183612d9a565b85549091505f90612abb90600190612d9a565b9050808214612b1a575f865f018281548110612ad957612ad96131c1565b905f5260205f200154905080875f018481548110612af957612af96131c1565b5f918252602080832090910192909255918252600188019052604090208390555b8554869080612b2b57612b2b6131d5565b600190038181905f5260205f20015f90559055856001015f8681526020019081526020015f205f905560019350505050610a0a565b5f915050610a0a565b634e487b715f52806020526024601cfd5b80151581146112e0575f5ffd5b5f60208284031215612b97575f5ffd5b81356112ee81612b7a565b602080825282518282018190525f918401906040840190835b81811015612be25783516001600160a01b0316835260209384019390920191600101612bbb565b509095945050505050565b6001600160a01b03811681146112e0575f5ffd5b5f5f5f5f60808587031215612c14575f5ffd5b8435612c1f81612bed565b935060208501359250604085013591506060850135612c3d81612bed565b939692955090935050565b5f5f60408385031215612c59575f5ffd5b8235612c6481612bed565b946020939093013593505050565b5f60208284031215612c82575f5ffd5b81356112ee81612bed565b5f60208284031215612c9d575f5ffd5b5035919050565b5f5f5f60608486031215612cb6575f5ffd5b8335612cc181612bed565b95602085013595506040909401359392505050565b602081525f82518060208401528060208501604085015e5f604082850101526040601f19601f83011684010191505092915050565b5f5f60408385031215612d1c575f5ffd5b823591506020830135612d2e81612bed565b809150509250929050565b5f60208284031215612d49575f5ffd5b81516112ee81612b7a565b5f60208284031215612d64575f5ffd5b81516112ee81612bed565b5f60208284031215612d7f575f5ffd5b5051919050565b634e487b7160e01b5f52601160045260245ffd5b81810381811115610a0a57610a0a612d86565b5f60208284031215612dbd575f5ffd5b815160ff811681146112ee575f5ffd5b634e487b7160e01b5f52604160045260245ffd5b5f60208284031215612df1575f5ffd5b815167ffffffffffffffff811115612e07575f5ffd5b8201601f81018413612e17575f5ffd5b805167ffffffffffffffff811115612e3157612e31612dcd565b604051601f8201601f19908116603f0116810167ffffffffffffffff81118282101715612e6057612e60612dcd565b604052818152828201602001861015612e77575f5ffd5b8160208401602083015e5f91810160200191909152949350505050565b5f82518060208501845e672d4761746577617960c01b920191825250600801919050565b600181811c90821680612ecc57607f821691505b602082108103612eea57634e487b7160e01b5f52602260045260245ffd5b50919050565b601f82111561242f57805f5260205f20601f840160051c81016020851015612f155750805b601f840160051c820191505b81811015612f34575f8155600101612f21565b5050505050565b815167ffffffffffffffff811115612f5557612f55612dcd565b612f6981612f638454612eb8565b84612ef0565b6020601f821160018114612f9b575f8315612f845750848201515b5f19600385901b1c1916600184901b178455612f34565b5f84815260208120601f198516915b82811015612fca5787850151825560209485019460019092019101612faa565b5084821015612fe757868401515f19600387901b60f8161c191681555b50505050600190811b01905550565b6001600160a01b03929092168252602082015260400190565b80820180821115610a0a57610a0a612d86565b6001815b600184111561305d5780850481111561304157613041612d86565b600184161561304f57908102905b60019390931c928002613026565b935093915050565b5f8261307357506001610a0a565b8161307f57505f610a0a565b8160018114613095576002811461309f576130bb565b6001915050610a0a565b60ff8411156130b0576130b0612d86565b50506001821b610a0a565b5060208310610133831016604e8410600b84101617156130de575081810a610a0a565b6130ea5f198484613022565b805f19048211156130fd576130fd612d86565b029392505050565b5f6112ee60ff841683613065565b5f5f60408385031215613124575f5ffd5b505080516020909101519092909150565b8082028115828204841417610a0a57610a0a612d86565b634e487b7160e01b5f52601260045260245ffd5b5f8261316e5761316e61314c565b500490565b60ff8281168282160390811115610a0a57610a0a612d86565b634e487b7160e01b5f52602160045260245ffd5b5f60ff8316806131b2576131b261314c565b8060ff84160691505092915050565b634e487b7160e01b5f52603260045260245ffd5b634e487b7160e01b5f52603160045260245ffdfe339759585899103d2ace64958e37e18ccb0504652c81d4a1b8aa80fe2126ab95a26469706673582212203bc326dab6b613746275f3d1a2ba9e2f6198f0af344cac185fee200fb70caccc64736f6c634300081e0033",
  "implementation": "0x7AFcFcC9619272B4610dDB1E98e6f0cF8E765C81",
  "devdoc": {
    "custom:storage-location": "erc7201:vetro.storage.gateway",
    "errors": {
      "InvalidInitialization()": [
        {
          "details": "The contract is already initialized."
        }
      ],
      "NotInitializing()": [
        {
          "details": "The contract is not initializing."
        }
      ],
      "ReentrancyGuardReentrantCall()": [
        {
          "details": "Unauthorized reentrant call."
        }
      ],
      "SafeERC20FailedOperation(address)": [
        {
          "details": "An operation with an ERC-20 token failed."
        }
      ]
    },
    "events": {
      "Initialized(uint64)": {
        "details": "Triggered when the contract has been initialized or reinitialized."
      }
    },
    "kind": "dev",
    "methods": {
      "addToInstantRedeemWhitelist(address)": {
        "params": {
          "account_": "Address to whitelist"
        }
      },
      "burnFromAMO(uint256)": {
        "params": {
          "amount_": "Amount of PeggedToken to burn"
        }
      },
      "constructor": {
        "custom:oz-upgrades-unsafe-allow": "constructor"
      },
      "deposit(address,uint256,uint256,address)": {
        "params": {
          "amountIn_": "Amount of tokens to deposit",
          "minPeggedTokenOut_": "Minimum PeggedToken to receive",
          "receiver_": "Address to receive the PeggedToken",
          "tokenIn_": "Token to deposit"
        },
        "returns": {
          "_0": "Amount of PeggedToken minted"
        }
      },
      "getInstantRedeemWhitelist()": {
        "returns": {
          "_0": "Array of whitelisted addresses"
        }
      },
      "getRedeemRequest(address)": {
        "params": {
          "user_": "User address"
        },
        "returns": {
          "_amountLocked": "Amount of peggedToken locked in Gateway contract",
          "_claimableAt": "Timestamp when request can be claimed"
        }
      },
      "initialize(address,uint256,uint256)": {
        "params": {
          "initialWithdrawalDelay_": "Initial withdrawal delay period in seconds",
          "mintLimit_": "Maximum mint limit for PeggedToken",
          "peggedToken_": "Address of the PeggedToken contract"
        }
      },
      "isInstantRedeemWhitelisted(address)": {
        "params": {
          "account_": "Address to check"
        },
        "returns": {
          "_0": "True if whitelisted"
        }
      },
      "maxAmoMint()": {
        "details": "Returns remaining AMO mint capacity"
      },
      "maxMint()": {
        "details": "Returns remaining mint capacity (excludes AMO supply from calculation)Invariant: amoSupply <= totalSupply always holds, so subtraction is safe"
      },
      "maxRedeem(address)": {
        "params": {
          "owner_": "Address to check redeem limit for"
        }
      },
      "maxWithdraw(address)": {
        "params": {
          "tokenOut_": "Token to withdraw"
        }
      },
      "mint(address,uint256,uint256,address)": {
        "params": {
          "maxAmountIn_": "Maximum tokens to deposit",
          "peggedTokenOut_": "Exact PeggedToken amount to mint",
          "receiver_": "Address to receive the PeggedToken",
          "tokenIn_": "Token to deposit"
        },
        "returns": {
          "_0": "Amount of tokens deposited"
        }
      },
      "mintFee(address)": {
        "params": {
          "token_": "Token address"
        },
        "returns": {
          "_0": "The mint fee in BPS"
        }
      },
      "mintToAMO(uint256,address)": {
        "params": {
          "amount_": "Amount of PeggedToken to mint",
          "receiver_": "Address to receive the minted PeggedToken"
        }
      },
      "pegBand(address)": {
        "params": {
          "token_": "The token address"
        },
        "returns": {
          "_0": "The peg tolerance in BPS"
        }
      },
      "previewDeposit(address,uint256)": {
        "params": {
          "amountIn_": "Amount of tokens to deposit",
          "tokenIn_": "Token to deposit"
        },
        "returns": {
          "_0": "Expected PeggedToken output"
        }
      },
      "previewMint(address,uint256)": {
        "params": {
          "peggedTokenOut_": "PeggedToken amount to mint",
          "tokenIn_": "Token to deposit"
        },
        "returns": {
          "_0": "Required token input"
        }
      },
      "previewRedeem(address,uint256)": {
        "params": {
          "peggedTokenIn_": "PeggedToken amount to redeem",
          "tokenOut_": "Token to receive"
        },
        "returns": {
          "_0": "Expected token output"
        }
      },
      "previewWithdraw(address,uint256)": {
        "params": {
          "amountOut_": "Token amount to withdraw",
          "tokenOut_": "Token to withdraw"
        },
        "returns": {
          "_0": "Required PeggedToken input"
        }
      },
      "redeem(address,uint256,uint256,address)": {
        "params": {
          "minAmountOut_": "Minimum tokens to receive",
          "peggedTokenIn_": "PeggedToken amount to burn",
          "receiver_": "Address to receive the tokens",
          "tokenOut_": "Token to receive"
        },
        "returns": {
          "_0": "Amount of tokens received"
        }
      },
      "redeemFee(address)": {
        "params": {
          "token_": "Token address"
        },
        "returns": {
          "_0": "The redeem fee in BPS"
        }
      },
      "removeFromInstantRedeemWhitelist(address)": {
        "params": {
          "account_": "Address to remove from whitelist"
        }
      },
      "requestRedeem(uint256)": {
        "params": {
          "peggedTokenAmount_": "Amount of peggedToken to lock in request"
        }
      },
      "setWithdrawalDelayEnabled(bool)": {
        "details": "When disabled, all users can instant redeem/withdraw",
        "params": {
          "enabled_": "The intended state for withdrawal delay"
        }
      },
      "updateAmoMintLimit(uint256)": {
        "params": {
          "newAmoMintLimit_": "New limit value"
        }
      },
      "updateMintFee(address,uint256)": {
        "params": {
          "newMintFee_": "New fee in basis points (1 = 0.01%)",
          "token_": "Token address"
        }
      },
      "updateMintLimit(uint256)": {
        "params": {
          "newMintLimit_": "New maximum mint limit in PeggedToken"
        }
      },
      "updatePegBand(address,uint256)": {
        "details": "Only callable by DEFAULT_ADMIN_ROLE. Tolerance must be less than Treasury's priceTolerance.",
        "params": {
          "newPegBandBps_": "The new peg band in BPS",
          "token_": "The token address"
        }
      },
      "updateRedeemFee(address,uint256)": {
        "params": {
          "newRedeemFee_": "New fee in basis points (1 = 0.01%)",
          "token_": "Token address"
        }
      },
      "updateWithdrawalDelay(uint256)": {
        "params": {
          "newDelay_": "New delay period in seconds"
        }
      },
      "withdraw(address,uint256,uint256,address)": {
        "params": {
          "amountOut_": "Exact token amount to receive",
          "maxPeggedTokenIn_": "Maximum PeggedToken to burn",
          "receiver_": "Address to receive the tokens",
          "tokenOut_": "Token to receive"
        },
        "returns": {
          "_0": "Amount of PeggedToken burnt"
        }
      }
    },
    "title": "Gateway - Handles both minting and redeeming of PeggedToken",
    "version": 1
  },
  "userdoc": {
    "kind": "user",
    "methods": {
      "NAME()": {
        "notice": "Returns the name of the Gateway"
      },
      "PEGGED_TOKEN()": {
        "notice": "Returns PeggedToken token contract"
      },
      "addToInstantRedeemWhitelist(address)": {
        "notice": "Add address to instant redeem whitelist"
      },
      "amoMintLimit()": {
        "notice": "Returns current AMO mint limit above reserve"
      },
      "amoSupply()": {
        "notice": "Returns current AMO-minted supply tracked by treasury"
      },
      "burnFromAMO(uint256)": {
        "notice": "Burns AMO-minted PeggedToken to reduce AMO supply"
      },
      "cancelRedeemRequest()": {
        "notice": "Cancel redeem request and return locked peggedToken to user"
      },
      "deposit(address,uint256,uint256,address)": {
        "notice": "Deposits tokens to receive PeggedToken"
      },
      "getInstantRedeemWhitelist()": {
        "notice": "Get all whitelisted addresses"
      },
      "getRedeemRequest(address)": {
        "notice": "Get redeem request details for a user"
      },
      "initialize(address,uint256,uint256)": {
        "notice": "Initializes the Gateway contract"
      },
      "isInstantRedeemWhitelisted(address)": {
        "notice": "Check if address is whitelisted for instant redeem/withdraw"
      },
      "maxAmoMint()": {
        "notice": "Returns remaining AMO mint capacity"
      },
      "maxDeposit()": {
        "notice": "Returns maximum deposit amount possible"
      },
      "maxMint()": {
        "notice": "Returns remaining mint capacity"
      },
      "maxRedeem(address)": {
        "notice": "Returns maximum PeggedToken amount owner can redeem"
      },
      "maxWithdraw(address)": {
        "notice": "Returns maximum token amount that can be withdrawn"
      },
      "mint(address,uint256,uint256,address)": {
        "notice": "Mints exact PeggedToken amount by depositing tokens"
      },
      "mintFee(address)": {
        "notice": "Gets the mint fee for a specific token"
      },
      "mintLimit()": {
        "notice": "Returns current mint limit in PeggedToken"
      },
      "mintToAMO(uint256,address)": {
        "notice": "Mints PeggedToken to AMO operations (UMM role)"
      },
      "owner()": {
        "notice": "Returns contract owner address"
      },
      "pegBand(address)": {
        "notice": "Get the peg tolerance for a specific token"
      },
      "previewDeposit(address,uint256)": {
        "notice": "Simulates deposit of tokens for PeggedToken"
      },
      "previewMint(address,uint256)": {
        "notice": "Simulates minting exact PeggedToken amount"
      },
      "previewRedeem(address,uint256)": {
        "notice": "Simulates redeeming PeggedToken for tokens"
      },
      "previewWithdraw(address,uint256)": {
        "notice": "Simulates withdrawing exact token amount"
      },
      "redeem(address,uint256,uint256,address)": {
        "notice": "Redeems PeggedToken for exact token amount"
      },
      "redeemFee(address)": {
        "notice": "Gets the redeem fee for a specific token"
      },
      "removeFromInstantRedeemWhitelist(address)": {
        "notice": "Remove address from instant redeem whitelist"
      },
      "requestRedeem(uint256)": {
        "notice": "Request a redeem with delay period (locks peggedToken in contract)"
      },
      "setWithdrawalDelayEnabled(bool)": {
        "notice": "Set withdrawal delay feature enabled or disabled"
      },
      "treasury()": {
        "notice": "Returns treasury contract address"
      },
      "updateAmoMintLimit(uint256)": {
        "notice": "Updates the AMO mint limit"
      },
      "updateMintFee(address,uint256)": {
        "notice": "Updates the mint fee for a specific token"
      },
      "updateMintLimit(uint256)": {
        "notice": "Updates the maximum mint limit"
      },
      "updatePegBand(address,uint256)": {
        "notice": "Update the peg tolerance for a specific token"
      },
      "updateRedeemFee(address,uint256)": {
        "notice": "Updates the redeem fee for a specific token"
      },
      "updateWithdrawalDelay(uint256)": {
        "notice": "Update the withdrawal delay period"
      },
      "withdraw(address,uint256,uint256,address)": {
        "notice": "Withdraws exact token amount by burning PeggedToken"
      },
      "withdrawalDelay()": {
        "notice": "Returns withdrawal delay period in seconds"
      },
      "withdrawalDelayEnabled()": {
        "notice": "Returns withdrawal delay enabled status"
      }
    },
    "version": 1
  },
  "storageLayout": {
    "storage": [],
    "types": null
  }
}