{
  "address": "0x476310E34D2810f7d79C43A74E4D79405bd7a925",
  "abi": [
    {
      "inputs": [],
      "stateMutability": "nonpayable",
      "type": "constructor"
    },
    {
      "inputs": [],
      "name": "CooldownEnabled",
      "type": "error"
    },
    {
      "inputs": [],
      "name": "CooldownNotEnabled",
      "type": "error"
    },
    {
      "inputs": [
        {
          "internalType": "uint256",
          "name": "requestId",
          "type": "uint256"
        },
        {
          "internalType": "uint256",
          "name": "claimableAt",
          "type": "uint256"
        }
      ],
      "name": "CooldownNotMatured",
      "type": "error"
    },
    {
      "inputs": [
        {
          "internalType": "address",
          "name": "spender",
          "type": "address"
        },
        {
          "internalType": "uint256",
          "name": "allowance",
          "type": "uint256"
        },
        {
          "internalType": "uint256",
          "name": "needed",
          "type": "uint256"
        }
      ],
      "name": "ERC20InsufficientAllowance",
      "type": "error"
    },
    {
      "inputs": [
        {
          "internalType": "address",
          "name": "sender",
          "type": "address"
        },
        {
          "internalType": "uint256",
          "name": "balance",
          "type": "uint256"
        },
        {
          "internalType": "uint256",
          "name": "needed",
          "type": "uint256"
        }
      ],
      "name": "ERC20InsufficientBalance",
      "type": "error"
    },
    {
      "inputs": [
        {
          "internalType": "address",
          "name": "approver",
          "type": "address"
        }
      ],
      "name": "ERC20InvalidApprover",
      "type": "error"
    },
    {
      "inputs": [
        {
          "internalType": "address",
          "name": "receiver",
          "type": "address"
        }
      ],
      "name": "ERC20InvalidReceiver",
      "type": "error"
    },
    {
      "inputs": [
        {
          "internalType": "address",
          "name": "sender",
          "type": "address"
        }
      ],
      "name": "ERC20InvalidSender",
      "type": "error"
    },
    {
      "inputs": [
        {
          "internalType": "address",
          "name": "spender",
          "type": "address"
        }
      ],
      "name": "ERC20InvalidSpender",
      "type": "error"
    },
    {
      "inputs": [
        {
          "internalType": "address",
          "name": "receiver",
          "type": "address"
        },
        {
          "internalType": "uint256",
          "name": "assets",
          "type": "uint256"
        },
        {
          "internalType": "uint256",
          "name": "max",
          "type": "uint256"
        }
      ],
      "name": "ERC4626ExceededMaxDeposit",
      "type": "error"
    },
    {
      "inputs": [
        {
          "internalType": "address",
          "name": "receiver",
          "type": "address"
        },
        {
          "internalType": "uint256",
          "name": "shares",
          "type": "uint256"
        },
        {
          "internalType": "uint256",
          "name": "max",
          "type": "uint256"
        }
      ],
      "name": "ERC4626ExceededMaxMint",
      "type": "error"
    },
    {
      "inputs": [
        {
          "internalType": "address",
          "name": "owner",
          "type": "address"
        },
        {
          "internalType": "uint256",
          "name": "shares",
          "type": "uint256"
        },
        {
          "internalType": "uint256",
          "name": "max",
          "type": "uint256"
        }
      ],
      "name": "ERC4626ExceededMaxRedeem",
      "type": "error"
    },
    {
      "inputs": [
        {
          "internalType": "address",
          "name": "owner",
          "type": "address"
        },
        {
          "internalType": "uint256",
          "name": "assets",
          "type": "uint256"
        },
        {
          "internalType": "uint256",
          "name": "max",
          "type": "uint256"
        }
      ],
      "name": "ERC4626ExceededMaxWithdraw",
      "type": "error"
    },
    {
      "inputs": [
        {
          "internalType": "uint256",
          "name": "duration",
          "type": "uint256"
        },
        {
          "internalType": "uint256",
          "name": "minDuration",
          "type": "uint256"
        },
        {
          "internalType": "uint256",
          "name": "maxDuration",
          "type": "uint256"
        }
      ],
      "name": "InvalidCooldownDuration",
      "type": "error"
    },
    {
      "inputs": [],
      "name": "InvalidInitialization",
      "type": "error"
    },
    {
      "inputs": [
        {
          "internalType": "uint256",
          "name": "requestId",
          "type": "uint256"
        }
      ],
      "name": "InvalidRequestId",
      "type": "error"
    },
    {
      "inputs": [],
      "name": "NotInitializing",
      "type": "error"
    },
    {
      "inputs": [],
      "name": "NotRequestOwner",
      "type": "error"
    },
    {
      "inputs": [
        {
          "internalType": "address",
          "name": "owner",
          "type": "address"
        }
      ],
      "name": "OwnableInvalidOwner",
      "type": "error"
    },
    {
      "inputs": [
        {
          "internalType": "address",
          "name": "account",
          "type": "address"
        }
      ],
      "name": "OwnableUnauthorizedAccount",
      "type": "error"
    },
    {
      "inputs": [],
      "name": "ReentrancyGuardReentrantCall",
      "type": "error"
    },
    {
      "inputs": [
        {
          "internalType": "address",
          "name": "token",
          "type": "address"
        }
      ],
      "name": "SafeERC20FailedOperation",
      "type": "error"
    },
    {
      "inputs": [],
      "name": "ZeroAddress",
      "type": "error"
    },
    {
      "inputs": [],
      "name": "ZeroAmount",
      "type": "error"
    },
    {
      "anonymous": false,
      "inputs": [
        {
          "indexed": true,
          "internalType": "address",
          "name": "owner",
          "type": "address"
        },
        {
          "indexed": true,
          "internalType": "address",
          "name": "spender",
          "type": "address"
        },
        {
          "indexed": false,
          "internalType": "uint256",
          "name": "value",
          "type": "uint256"
        }
      ],
      "name": "Approval",
      "type": "event"
    },
    {
      "anonymous": false,
      "inputs": [
        {
          "indexed": false,
          "internalType": "uint256",
          "name": "previousDuration",
          "type": "uint256"
        },
        {
          "indexed": false,
          "internalType": "uint256",
          "name": "newDuration",
          "type": "uint256"
        }
      ],
      "name": "CooldownDurationUpdated",
      "type": "event"
    },
    {
      "anonymous": false,
      "inputs": [
        {
          "indexed": false,
          "internalType": "bool",
          "name": "previousStatus",
          "type": "bool"
        },
        {
          "indexed": false,
          "internalType": "bool",
          "name": "newStatus",
          "type": "bool"
        }
      ],
      "name": "CooldownEnabledUpdated",
      "type": "event"
    },
    {
      "anonymous": false,
      "inputs": [
        {
          "indexed": true,
          "internalType": "address",
          "name": "sender",
          "type": "address"
        },
        {
          "indexed": true,
          "internalType": "address",
          "name": "owner",
          "type": "address"
        },
        {
          "indexed": false,
          "internalType": "uint256",
          "name": "assets",
          "type": "uint256"
        },
        {
          "indexed": false,
          "internalType": "uint256",
          "name": "shares",
          "type": "uint256"
        }
      ],
      "name": "Deposit",
      "type": "event"
    },
    {
      "anonymous": false,
      "inputs": [
        {
          "indexed": false,
          "internalType": "uint64",
          "name": "version",
          "type": "uint64"
        }
      ],
      "name": "Initialized",
      "type": "event"
    },
    {
      "anonymous": false,
      "inputs": [
        {
          "indexed": true,
          "internalType": "address",
          "name": "account",
          "type": "address"
        },
        {
          "indexed": false,
          "internalType": "bool",
          "name": "status",
          "type": "bool"
        }
      ],
      "name": "InstantWithdrawWhitelistUpdated",
      "type": "event"
    },
    {
      "anonymous": false,
      "inputs": [
        {
          "indexed": true,
          "internalType": "address",
          "name": "previousOwner",
          "type": "address"
        },
        {
          "indexed": true,
          "internalType": "address",
          "name": "newOwner",
          "type": "address"
        }
      ],
      "name": "OwnershipTransferStarted",
      "type": "event"
    },
    {
      "anonymous": false,
      "inputs": [
        {
          "indexed": true,
          "internalType": "address",
          "name": "previousOwner",
          "type": "address"
        },
        {
          "indexed": true,
          "internalType": "address",
          "name": "newOwner",
          "type": "address"
        }
      ],
      "name": "OwnershipTransferred",
      "type": "event"
    },
    {
      "anonymous": false,
      "inputs": [
        {
          "indexed": true,
          "internalType": "address",
          "name": "from",
          "type": "address"
        },
        {
          "indexed": true,
          "internalType": "address",
          "name": "to",
          "type": "address"
        },
        {
          "indexed": false,
          "internalType": "uint256",
          "name": "value",
          "type": "uint256"
        }
      ],
      "name": "Transfer",
      "type": "event"
    },
    {
      "anonymous": false,
      "inputs": [
        {
          "indexed": true,
          "internalType": "address",
          "name": "previousVaultRewards",
          "type": "address"
        },
        {
          "indexed": true,
          "internalType": "address",
          "name": "newVaultRewards",
          "type": "address"
        }
      ],
      "name": "VaultRewardsUpdated",
      "type": "event"
    },
    {
      "anonymous": false,
      "inputs": [
        {
          "indexed": true,
          "internalType": "address",
          "name": "sender",
          "type": "address"
        },
        {
          "indexed": true,
          "internalType": "address",
          "name": "receiver",
          "type": "address"
        },
        {
          "indexed": true,
          "internalType": "address",
          "name": "owner",
          "type": "address"
        },
        {
          "indexed": false,
          "internalType": "uint256",
          "name": "assets",
          "type": "uint256"
        },
        {
          "indexed": false,
          "internalType": "uint256",
          "name": "shares",
          "type": "uint256"
        }
      ],
      "name": "Withdraw",
      "type": "event"
    },
    {
      "anonymous": false,
      "inputs": [
        {
          "indexed": true,
          "internalType": "address",
          "name": "owner",
          "type": "address"
        },
        {
          "indexed": true,
          "internalType": "uint256",
          "name": "requestId",
          "type": "uint256"
        },
        {
          "indexed": false,
          "internalType": "uint256",
          "name": "assets",
          "type": "uint256"
        },
        {
          "indexed": false,
          "internalType": "uint256",
          "name": "shares",
          "type": "uint256"
        }
      ],
      "name": "WithdrawCancelled",
      "type": "event"
    },
    {
      "anonymous": false,
      "inputs": [
        {
          "indexed": true,
          "internalType": "address",
          "name": "owner",
          "type": "address"
        },
        {
          "indexed": true,
          "internalType": "address",
          "name": "receiver",
          "type": "address"
        },
        {
          "indexed": true,
          "internalType": "uint256",
          "name": "requestId",
          "type": "uint256"
        },
        {
          "indexed": false,
          "internalType": "uint256",
          "name": "assets",
          "type": "uint256"
        }
      ],
      "name": "WithdrawClaimed",
      "type": "event"
    },
    {
      "anonymous": false,
      "inputs": [
        {
          "indexed": true,
          "internalType": "address",
          "name": "owner",
          "type": "address"
        },
        {
          "indexed": true,
          "internalType": "uint256",
          "name": "requestId",
          "type": "uint256"
        },
        {
          "indexed": false,
          "internalType": "uint256",
          "name": "shares",
          "type": "uint256"
        },
        {
          "indexed": false,
          "internalType": "uint256",
          "name": "assets",
          "type": "uint256"
        },
        {
          "indexed": false,
          "internalType": "uint256",
          "name": "claimableAt",
          "type": "uint256"
        }
      ],
      "name": "WithdrawRequested",
      "type": "event"
    },
    {
      "anonymous": false,
      "inputs": [
        {
          "indexed": true,
          "internalType": "address",
          "name": "previousDistributor",
          "type": "address"
        },
        {
          "indexed": true,
          "internalType": "address",
          "name": "newDistributor",
          "type": "address"
        }
      ],
      "name": "YieldDistributorUpdated",
      "type": "event"
    },
    {
      "inputs": [],
      "name": "DEFAULT_COOLDOWN_DURATION",
      "outputs": [
        {
          "internalType": "uint256",
          "name": "",
          "type": "uint256"
        }
      ],
      "stateMutability": "view",
      "type": "function"
    },
    {
      "inputs": [],
      "name": "MAX_COOLDOWN_DURATION",
      "outputs": [
        {
          "internalType": "uint256",
          "name": "",
          "type": "uint256"
        }
      ],
      "stateMutability": "view",
      "type": "function"
    },
    {
      "inputs": [],
      "name": "MIN_COOLDOWN_DURATION",
      "outputs": [
        {
          "internalType": "uint256",
          "name": "",
          "type": "uint256"
        }
      ],
      "stateMutability": "view",
      "type": "function"
    },
    {
      "inputs": [],
      "name": "acceptOwnership",
      "outputs": [],
      "stateMutability": "nonpayable",
      "type": "function"
    },
    {
      "inputs": [
        {
          "internalType": "address",
          "name": "owner",
          "type": "address"
        },
        {
          "internalType": "address",
          "name": "spender",
          "type": "address"
        }
      ],
      "name": "allowance",
      "outputs": [
        {
          "internalType": "uint256",
          "name": "",
          "type": "uint256"
        }
      ],
      "stateMutability": "view",
      "type": "function"
    },
    {
      "inputs": [
        {
          "internalType": "address",
          "name": "spender",
          "type": "address"
        },
        {
          "internalType": "uint256",
          "name": "value",
          "type": "uint256"
        }
      ],
      "name": "approve",
      "outputs": [
        {
          "internalType": "bool",
          "name": "",
          "type": "bool"
        }
      ],
      "stateMutability": "nonpayable",
      "type": "function"
    },
    {
      "inputs": [],
      "name": "asset",
      "outputs": [
        {
          "internalType": "address",
          "name": "",
          "type": "address"
        }
      ],
      "stateMutability": "view",
      "type": "function"
    },
    {
      "inputs": [
        {
          "internalType": "address",
          "name": "account",
          "type": "address"
        }
      ],
      "name": "balanceOf",
      "outputs": [
        {
          "internalType": "uint256",
          "name": "",
          "type": "uint256"
        }
      ],
      "stateMutability": "view",
      "type": "function"
    },
    {
      "inputs": [
        {
          "internalType": "uint256",
          "name": "requestId_",
          "type": "uint256"
        }
      ],
      "name": "cancelWithdraw",
      "outputs": [
        {
          "internalType": "uint256",
          "name": "shares_",
          "type": "uint256"
        }
      ],
      "stateMutability": "nonpayable",
      "type": "function"
    },
    {
      "inputs": [
        {
          "internalType": "uint256",
          "name": "requestId_",
          "type": "uint256"
        },
        {
          "internalType": "address",
          "name": "receiver_",
          "type": "address"
        }
      ],
      "name": "claimWithdraw",
      "outputs": [
        {
          "internalType": "uint256",
          "name": "assets",
          "type": "uint256"
        }
      ],
      "stateMutability": "nonpayable",
      "type": "function"
    },
    {
      "inputs": [
        {
          "internalType": "uint256[]",
          "name": "requestIds_",
          "type": "uint256[]"
        },
        {
          "internalType": "address",
          "name": "receiver_",
          "type": "address"
        }
      ],
      "name": "claimWithdrawBatch",
      "outputs": [
        {
          "internalType": "uint256",
          "name": "totalAssets_",
          "type": "uint256"
        }
      ],
      "stateMutability": "nonpayable",
      "type": "function"
    },
    {
      "inputs": [
        {
          "internalType": "uint256",
          "name": "shares",
          "type": "uint256"
        }
      ],
      "name": "convertToAssets",
      "outputs": [
        {
          "internalType": "uint256",
          "name": "",
          "type": "uint256"
        }
      ],
      "stateMutability": "view",
      "type": "function"
    },
    {
      "inputs": [
        {
          "internalType": "uint256",
          "name": "assets",
          "type": "uint256"
        }
      ],
      "name": "convertToShares",
      "outputs": [
        {
          "internalType": "uint256",
          "name": "",
          "type": "uint256"
        }
      ],
      "stateMutability": "view",
      "type": "function"
    },
    {
      "inputs": [],
      "name": "cooldownDuration",
      "outputs": [
        {
          "internalType": "uint256",
          "name": "",
          "type": "uint256"
        }
      ],
      "stateMutability": "view",
      "type": "function"
    },
    {
      "inputs": [],
      "name": "cooldownEnabled",
      "outputs": [
        {
          "internalType": "bool",
          "name": "",
          "type": "bool"
        }
      ],
      "stateMutability": "view",
      "type": "function"
    },
    {
      "inputs": [],
      "name": "decimals",
      "outputs": [
        {
          "internalType": "uint8",
          "name": "",
          "type": "uint8"
        }
      ],
      "stateMutability": "view",
      "type": "function"
    },
    {
      "inputs": [
        {
          "internalType": "uint256",
          "name": "assets_",
          "type": "uint256"
        },
        {
          "internalType": "address",
          "name": "receiver_",
          "type": "address"
        }
      ],
      "name": "deposit",
      "outputs": [
        {
          "internalType": "uint256",
          "name": "",
          "type": "uint256"
        }
      ],
      "stateMutability": "nonpayable",
      "type": "function"
    },
    {
      "inputs": [
        {
          "internalType": "address",
          "name": "account_",
          "type": "address"
        }
      ],
      "name": "getActiveRequestIds",
      "outputs": [
        {
          "internalType": "uint256[]",
          "name": "",
          "type": "uint256[]"
        }
      ],
      "stateMutability": "view",
      "type": "function"
    },
    {
      "inputs": [
        {
          "internalType": "address",
          "name": "account_",
          "type": "address"
        }
      ],
      "name": "getClaimableRequests",
      "outputs": [
        {
          "internalType": "uint256[]",
          "name": "requestIds_",
          "type": "uint256[]"
        },
        {
          "internalType": "uint256[]",
          "name": "assets_",
          "type": "uint256[]"
        }
      ],
      "stateMutability": "view",
      "type": "function"
    },
    {
      "inputs": [
        {
          "internalType": "address",
          "name": "account_",
          "type": "address"
        }
      ],
      "name": "getPendingRequests",
      "outputs": [
        {
          "internalType": "uint256[]",
          "name": "requestIds_",
          "type": "uint256[]"
        },
        {
          "internalType": "uint256[]",
          "name": "assets_",
          "type": "uint256[]"
        },
        {
          "internalType": "uint256[]",
          "name": "claimableAt_",
          "type": "uint256[]"
        }
      ],
      "stateMutability": "view",
      "type": "function"
    },
    {
      "inputs": [
        {
          "internalType": "uint256",
          "name": "requestId_",
          "type": "uint256"
        }
      ],
      "name": "getRequestDetails",
      "outputs": [
        {
          "components": [
            {
              "internalType": "address",
              "name": "owner",
              "type": "address"
            },
            {
              "internalType": "uint256",
              "name": "assets",
              "type": "uint256"
            },
            {
              "internalType": "uint256",
              "name": "claimableAt",
              "type": "uint256"
            }
          ],
          "internalType": "struct IStakingVault.CooldownRequest",
          "name": "",
          "type": "tuple"
        }
      ],
      "stateMutability": "view",
      "type": "function"
    },
    {
      "inputs": [
        {
          "internalType": "address",
          "name": "asset_",
          "type": "address"
        },
        {
          "internalType": "string",
          "name": "name_",
          "type": "string"
        },
        {
          "internalType": "string",
          "name": "symbol_",
          "type": "string"
        },
        {
          "internalType": "address",
          "name": "owner_",
          "type": "address"
        }
      ],
      "name": "initialize",
      "outputs": [],
      "stateMutability": "nonpayable",
      "type": "function"
    },
    {
      "inputs": [
        {
          "internalType": "address",
          "name": "account_",
          "type": "address"
        }
      ],
      "name": "instantWithdrawWhitelist",
      "outputs": [
        {
          "internalType": "bool",
          "name": "",
          "type": "bool"
        }
      ],
      "stateMutability": "view",
      "type": "function"
    },
    {
      "inputs": [
        {
          "internalType": "address",
          "name": "",
          "type": "address"
        }
      ],
      "name": "maxDeposit",
      "outputs": [
        {
          "internalType": "uint256",
          "name": "",
          "type": "uint256"
        }
      ],
      "stateMutability": "view",
      "type": "function"
    },
    {
      "inputs": [
        {
          "internalType": "address",
          "name": "",
          "type": "address"
        }
      ],
      "name": "maxMint",
      "outputs": [
        {
          "internalType": "uint256",
          "name": "",
          "type": "uint256"
        }
      ],
      "stateMutability": "view",
      "type": "function"
    },
    {
      "inputs": [
        {
          "internalType": "address",
          "name": "owner",
          "type": "address"
        }
      ],
      "name": "maxRedeem",
      "outputs": [
        {
          "internalType": "uint256",
          "name": "",
          "type": "uint256"
        }
      ],
      "stateMutability": "view",
      "type": "function"
    },
    {
      "inputs": [
        {
          "internalType": "address",
          "name": "owner",
          "type": "address"
        }
      ],
      "name": "maxWithdraw",
      "outputs": [
        {
          "internalType": "uint256",
          "name": "",
          "type": "uint256"
        }
      ],
      "stateMutability": "view",
      "type": "function"
    },
    {
      "inputs": [
        {
          "internalType": "uint256",
          "name": "shares_",
          "type": "uint256"
        },
        {
          "internalType": "address",
          "name": "receiver_",
          "type": "address"
        }
      ],
      "name": "mint",
      "outputs": [
        {
          "internalType": "uint256",
          "name": "",
          "type": "uint256"
        }
      ],
      "stateMutability": "nonpayable",
      "type": "function"
    },
    {
      "inputs": [],
      "name": "name",
      "outputs": [
        {
          "internalType": "string",
          "name": "",
          "type": "string"
        }
      ],
      "stateMutability": "view",
      "type": "function"
    },
    {
      "inputs": [],
      "name": "nextRequestId",
      "outputs": [
        {
          "internalType": "uint256",
          "name": "",
          "type": "uint256"
        }
      ],
      "stateMutability": "view",
      "type": "function"
    },
    {
      "inputs": [],
      "name": "owner",
      "outputs": [
        {
          "internalType": "address",
          "name": "",
          "type": "address"
        }
      ],
      "stateMutability": "view",
      "type": "function"
    },
    {
      "inputs": [],
      "name": "pendingOwner",
      "outputs": [
        {
          "internalType": "address",
          "name": "",
          "type": "address"
        }
      ],
      "stateMutability": "view",
      "type": "function"
    },
    {
      "inputs": [
        {
          "internalType": "uint256",
          "name": "assets",
          "type": "uint256"
        }
      ],
      "name": "previewDeposit",
      "outputs": [
        {
          "internalType": "uint256",
          "name": "",
          "type": "uint256"
        }
      ],
      "stateMutability": "view",
      "type": "function"
    },
    {
      "inputs": [
        {
          "internalType": "uint256",
          "name": "shares",
          "type": "uint256"
        }
      ],
      "name": "previewMint",
      "outputs": [
        {
          "internalType": "uint256",
          "name": "",
          "type": "uint256"
        }
      ],
      "stateMutability": "view",
      "type": "function"
    },
    {
      "inputs": [
        {
          "internalType": "uint256",
          "name": "shares",
          "type": "uint256"
        }
      ],
      "name": "previewRedeem",
      "outputs": [
        {
          "internalType": "uint256",
          "name": "",
          "type": "uint256"
        }
      ],
      "stateMutability": "view",
      "type": "function"
    },
    {
      "inputs": [
        {
          "internalType": "uint256",
          "name": "assets",
          "type": "uint256"
        }
      ],
      "name": "previewWithdraw",
      "outputs": [
        {
          "internalType": "uint256",
          "name": "",
          "type": "uint256"
        }
      ],
      "stateMutability": "view",
      "type": "function"
    },
    {
      "inputs": [
        {
          "internalType": "uint256",
          "name": "shares_",
          "type": "uint256"
        },
        {
          "internalType": "address",
          "name": "receiver_",
          "type": "address"
        },
        {
          "internalType": "address",
          "name": "owner_",
          "type": "address"
        }
      ],
      "name": "redeem",
      "outputs": [
        {
          "internalType": "uint256",
          "name": "",
          "type": "uint256"
        }
      ],
      "stateMutability": "nonpayable",
      "type": "function"
    },
    {
      "inputs": [],
      "name": "renounceOwnership",
      "outputs": [],
      "stateMutability": "nonpayable",
      "type": "function"
    },
    {
      "inputs": [
        {
          "internalType": "uint256",
          "name": "shares_",
          "type": "uint256"
        },
        {
          "internalType": "address",
          "name": "owner_",
          "type": "address"
        }
      ],
      "name": "requestRedeem",
      "outputs": [
        {
          "internalType": "uint256",
          "name": "requestId",
          "type": "uint256"
        },
        {
          "internalType": "uint256",
          "name": "assets",
          "type": "uint256"
        }
      ],
      "stateMutability": "nonpayable",
      "type": "function"
    },
    {
      "inputs": [
        {
          "internalType": "uint256",
          "name": "assets_",
          "type": "uint256"
        },
        {
          "internalType": "address",
          "name": "owner_",
          "type": "address"
        }
      ],
      "name": "requestWithdraw",
      "outputs": [
        {
          "internalType": "uint256",
          "name": "requestId",
          "type": "uint256"
        },
        {
          "internalType": "uint256",
          "name": "shares",
          "type": "uint256"
        }
      ],
      "stateMutability": "nonpayable",
      "type": "function"
    },
    {
      "inputs": [],
      "name": "symbol",
      "outputs": [
        {
          "internalType": "string",
          "name": "",
          "type": "string"
        }
      ],
      "stateMutability": "view",
      "type": "function"
    },
    {
      "inputs": [],
      "name": "totalAssets",
      "outputs": [
        {
          "internalType": "uint256",
          "name": "",
          "type": "uint256"
        }
      ],
      "stateMutability": "view",
      "type": "function"
    },
    {
      "inputs": [],
      "name": "totalAssetsInCooldown",
      "outputs": [
        {
          "internalType": "uint256",
          "name": "",
          "type": "uint256"
        }
      ],
      "stateMutability": "view",
      "type": "function"
    },
    {
      "inputs": [],
      "name": "totalSupply",
      "outputs": [
        {
          "internalType": "uint256",
          "name": "",
          "type": "uint256"
        }
      ],
      "stateMutability": "view",
      "type": "function"
    },
    {
      "inputs": [
        {
          "internalType": "address",
          "name": "to",
          "type": "address"
        },
        {
          "internalType": "uint256",
          "name": "value",
          "type": "uint256"
        }
      ],
      "name": "transfer",
      "outputs": [
        {
          "internalType": "bool",
          "name": "",
          "type": "bool"
        }
      ],
      "stateMutability": "nonpayable",
      "type": "function"
    },
    {
      "inputs": [
        {
          "internalType": "address",
          "name": "from",
          "type": "address"
        },
        {
          "internalType": "address",
          "name": "to",
          "type": "address"
        },
        {
          "internalType": "uint256",
          "name": "value",
          "type": "uint256"
        }
      ],
      "name": "transferFrom",
      "outputs": [
        {
          "internalType": "bool",
          "name": "",
          "type": "bool"
        }
      ],
      "stateMutability": "nonpayable",
      "type": "function"
    },
    {
      "inputs": [
        {
          "internalType": "address",
          "name": "newOwner",
          "type": "address"
        }
      ],
      "name": "transferOwnership",
      "outputs": [],
      "stateMutability": "nonpayable",
      "type": "function"
    },
    {
      "inputs": [
        {
          "internalType": "uint256",
          "name": "duration_",
          "type": "uint256"
        }
      ],
      "name": "updateCooldownDuration",
      "outputs": [],
      "stateMutability": "nonpayable",
      "type": "function"
    },
    {
      "inputs": [
        {
          "internalType": "bool",
          "name": "enabled_",
          "type": "bool"
        }
      ],
      "name": "updateCooldownEnabled",
      "outputs": [],
      "stateMutability": "nonpayable",
      "type": "function"
    },
    {
      "inputs": [
        {
          "internalType": "address",
          "name": "account_",
          "type": "address"
        },
        {
          "internalType": "bool",
          "name": "status_",
          "type": "bool"
        }
      ],
      "name": "updateInstantWithdrawWhitelist",
      "outputs": [],
      "stateMutability": "nonpayable",
      "type": "function"
    },
    {
      "inputs": [
        {
          "internalType": "address",
          "name": "vaultRewards_",
          "type": "address"
        }
      ],
      "name": "updateVaultRewards",
      "outputs": [],
      "stateMutability": "nonpayable",
      "type": "function"
    },
    {
      "inputs": [
        {
          "internalType": "address",
          "name": "distributor_",
          "type": "address"
        }
      ],
      "name": "updateYieldDistributor",
      "outputs": [],
      "stateMutability": "nonpayable",
      "type": "function"
    },
    {
      "inputs": [],
      "name": "vaultRewards",
      "outputs": [
        {
          "internalType": "address",
          "name": "",
          "type": "address"
        }
      ],
      "stateMutability": "view",
      "type": "function"
    },
    {
      "inputs": [
        {
          "internalType": "uint256",
          "name": "assets_",
          "type": "uint256"
        },
        {
          "internalType": "address",
          "name": "receiver_",
          "type": "address"
        },
        {
          "internalType": "address",
          "name": "owner_",
          "type": "address"
        }
      ],
      "name": "withdraw",
      "outputs": [
        {
          "internalType": "uint256",
          "name": "",
          "type": "uint256"
        }
      ],
      "stateMutability": "nonpayable",
      "type": "function"
    },
    {
      "inputs": [],
      "name": "yieldDistributor",
      "outputs": [
        {
          "internalType": "address",
          "name": "",
          "type": "address"
        }
      ],
      "stateMutability": "view",
      "type": "function"
    }
  ],
  "transactionHash": "0xa35f24a487486a451d2ea52b9325af939831da35bf3e989708d7829f29614f58",
  "args": [],
  "numDeployments": 1,
  "solcInputHash": "02d8ea76e2916585716ca3d7d2aad7ad",
  "bytecode": "0x6080604052348015600e575f5ffd5b5060156019565b60c9565b7ff0c57e16840df040f15088dc2f81fe391c3923bec73e23a9662efc9c229c6a00805468010000000000000000900460ff161560685760405163f92ee8a960e01b815260040160405180910390fd5b80546001600160401b039081161460c65780546001600160401b0319166001600160401b0390811782556040519081527fc7f505b2f371ae2175ee4913f4499e1f2633a7b5936321eed1cdaeb6115181d29060200160405180910390a15b50565b613226806100d65f395ff3fe608060405234801561000f575f5ffd5b506004361061034d575f3560e01c80638be34038116101c9578063c6e6f592116100fe578063df2f6bb11161009e578063f05bfa7b11610079578063f05bfa7b146106af578063f05ca034146106d1578063f2fde38b146106e4578063f34d4c63146106f7575f5ffd5b8063df2f6bb114610694578063e30c3978146106a7578063ef8b30f714610601575f5ffd5b8063ce96cb77116100d9578063ce96cb7714610648578063d7b02c4b1461065b578063d905777e1461066e578063dd62ed3e14610681575f5ffd5b8063c6e6f59214610601578063c7786a5014610614578063ccc143b814610635575f5ffd5b8063a9059cbb11610169578063b460af9411610144578063b460af94146105c8578063b708ae50146105db578063ba087652146105ee578063c63d75b6146104ad575f5ffd5b8063a9059cbb1461059a578063a985ceef146105ad578063b3d7f6b9146105b5575f5ffd5b806394bf804d116101a457806394bf804d1461056457806395d89b41146105775780639f01f7ba1461057f578063a38c2c3d14610592575f5ffd5b80638be34038146105365780638da5cb5b146105495780638fa2d22814610551575f5ffd5b8063352693151161029f5780636d1fee011161023f578063715018a61161021a578063715018a61461051657806379ba50971461051e5780638429d51f1461052657806387493f2f1461052e575f5ffd5b80636d1fee01146104e65780636e553f65146104f057806370a0823114610503575f5ffd5b80634cdad5061161027a5780634cdad506146103965780635faab043146104c1578063613d25bb146104cb5780636a84a985146104de575f5ffd5b8063352693151461048557806338d52e0f1461048d578063402d267d146104ad575f5ffd5b8063107703ab1161030a5780631e9049cf116102e55780631e9049cf1461042e578063214e38d61461043857806323b872dd14610458578063313ce5671461046b575f5ffd5b8063107703ab146103df57806318160ddd146104075780631c37830c1461041b575f5ffd5b806301e1d1141461035157806306fdde031461036c57806307a2c6531461038157806307a2d13a14610396578063095ea7b3146103a95780630a28a477146103cc575b5f5ffd5b610359610735565b6040519081526020015b60405180910390f35b6103746107d9565b6040516103639190612a35565b61039461038f366004612a6a565b610899565b005b6103596103a4366004612a6a565b61093c565b6103bc6103b7366004612a97565b61094d565b6040519015158152602001610363565b6103596103da366004612a6a565b610964565b6103f26103ed366004612abf565b610970565b60408051928352602083019190915201610363565b5f5160206131b15f395f51905f5254610359565b610394610429366004612af8565b610998565b61035962278d0081565b61044b610446366004612b20565b610a3c565b6040516103639190612b73565b6103bc610466366004612b85565b610a69565b610473610a8e565b60405160ff9091168152602001610363565b610359610abd565b610495610acf565b6040516001600160a01b039091168152602001610363565b6103596104bb366004612b20565b505f1990565b6103596201518081565b6103946104d9366004612c5c565b610af0565b610359610c81565b61035962093a8081565b6103596104fe366004612abf565b610c93565b610359610511366004612b20565b610cb8565b610394610cde565b610394610cf1565b610495610d39565b610359610d54565b610359610544366004612cdf565b610d66565b610495610dba565b61039461055f366004612b20565b610de2565b610359610572366004612abf565b610e55565b610374610e70565b61035961058d366004612a6a565b610eae565b610495610fff565b6103bc6105a8366004612a97565b611017565b6103bc611024565b6103596105c3366004612a6a565b611039565b6103596105d6366004612d5c565b611045565b6103596105e9366004612abf565b611091565b6103596105fc366004612d5c565b6110a4565b61035961060f366004612a6a565b6110e6565b610627610622366004612b20565b6110f1565b604051610363929190612d8c565b6103f2610643366004612abf565b611276565b610359610656366004612b20565b61128a565b610394610669366004612b20565b61129d565b61035961067c366004612b20565b61130a565b61035961068f366004612db0565b611314565b6103bc6106a2366004612b20565b61135d565b61049561138a565b6106c26106bd366004612b20565b6113b2565b60405161036393929190612dd8565b6103946106df366004612e1a565b6115a7565b6103946106f2366004612b20565b611614565b61070a610705366004612a6a565b611699565b6040805182516001600160a01b03168152602080840151908201529181015190820152606001610363565b5f5f61073f61170d565b90505f61074a610acf565b6040516370a0823160e01b81523060048201526001600160a01b0391909116906370a0823190602401602060405180830381865afa15801561078e573d5f5f3e3d5ffd5b505050506040513d601f19601f820116820180604052508101906107b29190612e33565b60048301549091508082116107c7575f6107d1565b6107d18183612e5e565b935050505090565b7f52c63247e1f47db19d5ce0460030c497f067ca4cebf71ba98eeadabe20bace0380546060915f5160206131915f395f51905f529161081790612e71565b80601f016020809104026020016040519081016040528092919081815260200182805461084390612e71565b801561088e5780601f106108655761010080835404028352916020019161088e565b820191905f5260205f20905b81548152906001019060200180831161087157829003601f168201915b505050505091505090565b6108a161176e565b620151808110806108b4575062278d0081115b156108ec57604051632ed81da160e01b81526004810182905262015180602482015262278d0060448201526064015b60405180910390fd5b5f6108f561170d565b600281015460408051918252602082018590529192507f8f6ceadd6e9845ce194f7cd50e5a1ef4aec5b40c31652db44ea043bbbf27b92b910160405180910390a160020155565b5f610947825f6117a0565b92915050565b5f3361095a8185856117e4565b5060019392505050565b5f6109478260016117f6565b5f5f61097a611831565b610984848461189e565b90925090506109916118c7565b9250929050565b6109a061176e565b6001600160a01b0382166109c75760405163d92e233d60e01b815260040160405180910390fd5b5f6109d061170d565b6001600160a01b0384165f81815260068301602052604090819020805486151560ff1990911617905551919250907fea453964d1ed5c30fcc4e0065c0703205b656d4ed8df6badadd5641c880765a590610a2f90851515815260200190565b60405180910390a2505050565b6060610947610a4961170d565b6001600160a01b0384165f908152600891909101602052604090206118f1565b5f33610a768582856118fd565b610a8185858561194d565b60019150505b9392505050565b5f805f5160206131d15f395f51905f5290505f8154610ab79190600160a01b900460ff16612ea9565b91505090565b5f610ac661170d565b60020154905090565b5f805f5160206131d15f395f51905f525b546001600160a01b031692915050565b7ff0c57e16840df040f15088dc2f81fe391c3923bec73e23a9662efc9c229c6a008054600160401b810460ff1615906001600160401b03165f81158015610b345750825b90505f826001600160401b03166001148015610b4f5750303b155b905081158015610b5d575080155b15610b7b5760405163f92ee8a960e01b815260040160405180910390fd5b845467ffffffffffffffff191660011785558315610ba557845460ff60401b1916600160401b1785555b6001600160a01b038916610bcc5760405163d92e233d60e01b815260040160405180910390fd5b6001600160a01b038616610bf35760405163d92e233d60e01b815260040160405180910390fd5b610bfc896119aa565b610c0688886119bb565b610c0f866119d1565b5f610c1861170d565b62093a806002820155600301805460ff19166001179055508315610c7657845460ff60401b19168555604051600181527fc7f505b2f371ae2175ee4913f4499e1f2633a7b5936321eed1cdaeb6115181d29060200160405180910390a15b505050505050505050565b5f610c8a61170d565b60050154905090565b5f610c9c611831565b610ca46119e2565b610cae8383611a8b565b90506109476118c7565b6001600160a01b03165f9081525f5160206131915f395f51905f52602052604090205490565b610ce661176e565b610cef5f611aae565b565b3380610cfb61138a565b6001600160a01b031614610d2d5760405163118cdaa760e01b81526001600160a01b03821660048201526024016108e3565b610d3681611aae565b50565b5f610d4261170d565b600101546001600160a01b0316919050565b5f610d5d61170d565b60040154905090565b5f610d6f611831565b825f5b81811015610db057610d9c868683818110610d8f57610d8f612ec2565b9050602002013585611ae6565b610da69084612ed6565b9250600101610d72565b5050610a876118c7565b5f807f9016d09d72d40fdae2fd8ceac6b6234c7706214fd39c1cd1e609a0528c199300610ae0565b610dea61176e565b5f610df361170d565b60018101546040519192506001600160a01b03808516929116907fd17fd6c2dd730d188323e59f585fc05d728ef4a029db3cffede6779d2c6fb7be905f90a360010180546001600160a01b0319166001600160a01b0392909216919091179055565b5f610e5e611831565b610e666119e2565b610cae8383611c97565b7f52c63247e1f47db19d5ce0460030c497f067ca4cebf71ba98eeadabe20bace0480546060915f5160206131915f395f51905f529161081790612e71565b5f610eb7611831565b610ebf6119e2565b5f610ec861170d565b5f848152600782016020526040812060018101549293509190819003610f04576040516364b4f07960e11b8152600481018690526024016108e3565b81546001600160a01b0316338114610f2f5760405163517907dd60e01b815260040160405180910390fd5b6001600160a01b0381165f9081526008850160205260409020610f529087611cb2565b50610f5c826110e6565b945081846004015f828254610f719190612e5e565b90915550505f868152600785016020526040812080546001600160a01b03191681556001810182905560020155610fa88186611cbd565b604080518381526020810187905287916001600160a01b038416917f8a6803caa183ccb5fc1996809a7790f6b60d61f2bc403317748b627fd9937dc7910160405180910390a350505050610ffa6118c7565b919050565b5f61100861170d565b546001600160a01b0316919050565b5f3361095a81858561194d565b5f61102d61170d565b6003015460ff16919050565b5f6109478260016117a0565b5f61104e611831565b61105782611cf1565b611074576040516398c35e9f60e01b815260040160405180910390fd5b61107c6119e2565b611087848484611d31565b9050610a876118c7565b5f61109a611831565b610cae8383611ae6565b5f6110ad611831565b6110b682611cf1565b6110d3576040516398c35e9f60e01b815260040160405180910390fd5b6110db6119e2565b611087848484611d87565b5f610947825f6117f6565b6060805f6110fd61170d565b6001600160a01b0385165f908152600882016020526040812091925090611123906118f1565b8051909150806001600160401b0381111561114057611140612bbf565b604051908082528060200260200182016040528015611169578160200160208202803683370190505b509450806001600160401b0381111561118457611184612bbf565b6040519080825280602002602001820160405280156111ad578160200160208202803683370190505b5093505f5f5b82811015611266575f856007015f8684815181106111d3576111d3612ec2565b602002602001015181526020019081526020015f2090508060020154421061125d5784828151811061120757611207612ec2565b602002602001015188848151811061122157611221612ec2565b602002602001018181525050806001015487848151811061124457611244612ec2565b60209081029190910101528261125981612ee9565b9350505b506001016111b3565b5080865280855250505050915091565b5f5f611280611831565b6109848484611dd4565b5f61094761129783610cb8565b5f6117a0565b6112a561176e565b5f6112ae61170d565b80546040519192506001600160a01b03808516929116907feb35f0f0a95d2801f2d360efbbf9ee54c1eb3a1801fa152bc4d4cf9ee10a0890905f90a380546001600160a01b0319166001600160a01b0392909216919091179055565b5f61094782610cb8565b6001600160a01b039182165f9081527f52c63247e1f47db19d5ce0460030c497f067ca4cebf71ba98eeadabe20bace016020908152604080832093909416825291909152205490565b5f61136661170d565b6001600160a01b039092165f90815260069290920160205250604090205460ff1690565b5f807f237e158222e3e6968b72b9db0d8043aacf074ad9f650f0d1606b4d82ee432c00610ae0565b60608060605f6113c061170d565b6001600160a01b0386165f9081526008820160205260408120919250906113e6906118f1565b8051909150806001600160401b0381111561140357611403612bbf565b60405190808252806020026020018201604052801561142c578160200160208202803683370190505b509550806001600160401b0381111561144757611447612bbf565b604051908082528060200260200182016040528015611470578160200160208202803683370190505b509450806001600160401b0381111561148b5761148b612bbf565b6040519080825280602002602001820160405280156114b4578160200160208202803683370190505b5093505f5f5b82811015611592575f856007015f8684815181106114da576114da612ec2565b602002602001015181526020019081526020015f2090505f81600201549050804210156115885785838151811061151357611513612ec2565b60200260200101518a858151811061152d5761152d612ec2565b602002602001018181525050816001015489858151811061155057611550612ec2565b6020026020010181815250508088858151811061156f5761156f612ec2565b60209081029190910101528361158481612ee9565b9450505b50506001016114ba565b50808752808652808552505050509193909250565b6115af61176e565b5f6115b861170d565b60038101546040805160ff9092161515825284151560208301529192507f166d9f924637aaef1818762071526936fd8768f14f982c72772024a986c44b49910160405180910390a1600301805460ff1916911515919091179055565b61161c61176e565b7f237e158222e3e6968b72b9db0d8043aacf074ad9f650f0d1606b4d82ee432c0080546001600160a01b0319166001600160a01b0383169081178255611660610dba565b6001600160a01b03167f38d16b8cac22d99fc7c124b9cd0de2d3fa1faef420bfe791d8c362d765e2270060405160405180910390a35050565b6116c360405180606001604052805f6001600160a01b031681526020015f81526020015f81525090565b6116cb61170d565b5f9283526007016020908152604092839020835160608101855281546001600160a01b0316815260018201549281019290925260020154928101929092525090565b5f8060ff1961173d60017f239aec11b67bfa6336c434851354a7930afca2ab823c567d401ac0e82bfda3de612e5e565b60405160200161174f91815260200190565b60408051601f1981840301815291905280516020909101201692915050565b33611777610dba565b6001600160a01b031614610cef5760405163118cdaa760e01b81523360048201526024016108e3565b5f610a876117ac610735565b6117b7906001612ed6565b6117c25f600a612fe4565b5f5160206131b15f395f51905f52546117db9190612ed6565b85919085611df4565b6117f18383836001611e36565b505050565b5f610a8761180582600a612fe4565b5f5160206131b15f395f51905f525461181e9190612ed6565b611826610735565b6117db906001612ed6565b7f9b779b17422d0df92223018b32b4d1fa46e071723d6817e2486d003becc55f005c1561187157604051633ee5aeb560e01b815260040160405180910390fd5b610cef60017f9b779b17422d0df92223018b32b4d1fa46e071723d6817e2486d003becc55f005b90611f1a565b5f5f6118a86119e2565b6118b18461093c565b90506118be818585611f21565b91509250929050565b610cef5f7f9b779b17422d0df92223018b32b4d1fa46e071723d6817e2486d003becc55f00611898565b60605f610a87836120ab565b5f6119088484611314565b90505f198114611947578181101561193957828183604051637dc7a0d960e11b81526004016108e393929190612ff2565b61194784848484035f611e36565b50505050565b6001600160a01b03831661197657604051634b637e8f60e11b81525f60048201526024016108e3565b6001600160a01b03821661199f5760405163ec442f0560e01b81525f60048201526024016108e3565b6117f1838383612104565b6119b26121f9565b610d3681612242565b6119c36121f9565b6119cd82826122b2565b5050565b6119d96121f9565b610d3681612302565b5f6119eb61170d565b80549091506001600160a01b031615801590611a1a57505f611a185f5160206131b15f395f51905f525490565b115b15610d36578054604080516313bba42960e11b815290516001600160a01b039092169163277748529160048082019260209290919082900301815f875af1158015611a67573d5f5f3e3d5ffd5b505050506040513d601f19601f820116820180604052508101906119cd9190612e33565b5f5f195f611a98856110e6565b9050611aa633858784612333565b949350505050565b7f237e158222e3e6968b72b9db0d8043aacf074ad9f650f0d1606b4d82ee432c0080546001600160a01b03191681556119cd826123b0565b5f6001600160a01b038216611b0e5760405163d92e233d60e01b815260040160405180910390fd5b611b166119e2565b5f611b1f61170d565b5f858152600782016020526040812060018101549450919250839003611b5b576040516364b4f07960e11b8152600481018690526024016108e3565b8060020154421015611b905760028101546040516345b3cca760e01b81526108e3918791600401918252602082015260400190565b80546001600160a01b0316338114611bbb5760405163517907dd60e01b815260040160405180910390fd5b6001600160a01b0381165f9081526008840160205260409020611bde9087611cb2565b505f868152600784016020526040812080546001600160a01b031916815560018101829055600201819055600484018054869290611c1d908490612e5e565b90915550611c4090508585611c30610acf565b6001600160a01b03169190612420565b85856001600160a01b0316826001600160a01b03167fb4317ae2386e712514c7723055d29e3f5b96ebd3f972f1ef3bbcdcf4a8ce40c087604051611c8691815260200190565b60405180910390a450505092915050565b5f5f195f611ca485611039565b9050611aa633858388612333565b5f610a87838361247f565b6001600160a01b038216611ce65760405163ec442f0560e01b81525f60048201526024016108e3565b6119cd5f8383612104565b5f5f611cfb61170d565b600381015490915060ff161580610a8757506001600160a01b0383165f90815260068201602052604090205460ff169392505050565b5f5f611d3c8361128a565b905080851115611d6557828582604051633fa733bb60e21b81526004016108e393929190612ff2565b5f611d6f86610964565b9050611d7e3386868985612562565b95945050505050565b5f5f611d928361130a565b905080851115611dbb57828582604051632e52afbb60e21b81526004016108e393929190612ff2565b5f611dc58661093c565b9050611d7e338686848a612562565b5f5f611dde6119e2565b611de784610964565b90506118be848285611f21565b5f611e21611e0183612616565b8015611e1c57505f8480611e1757611e17613013565b868809115b151590565b611e2c868686612642565b611d7e9190612ed6565b5f5160206131915f395f51905f526001600160a01b038516611e6d5760405163e602df0560e01b81525f60048201526024016108e3565b6001600160a01b038416611e9657604051634a1406b160e11b81525f60048201526024016108e3565b6001600160a01b038086165f90815260018301602090815260408083209388168352929052208390558115611f1357836001600160a01b0316856001600160a01b03167f8c5be1e5ebec7d5bd14f71427d1e84f3dd0314c0f7b2291e5b200ac8c7c3b92585604051611f0a91815260200190565b60405180910390a35b5050505050565b80825d5050565b5f831580611f2d575082155b15611f4b57604051631f2a200560e01b815260040160405180910390fd5b5f611f5461170d565b600381015490915060ff16611f7c5760405163a72af7f760e01b815260040160405180910390fd5b336001600160a01b03841614611f9757611f978333866118fd565b84816004015f828254611faa9190612ed6565b90915550611fba905083856126f8565b5f428260020154611fcb9190612ed6565b6005830180549192505f611fde83612ee9565b90915550604080516060810182526001600160a01b0387811680835260208084018c81528486018881525f88815260078b018452878120965187546001600160a01b0319169616959095178655905160018601555160029094019390935581526008860190915220909350612053908461272c565b50604080518681526020810188905290810182905283906001600160a01b038616907f1f0d204a59639d21245dbaa239dfc9a6227aa86cb614bdda19843c52d155fcfa9060600160405180910390a350509392505050565b6060815f018054806020026020016040519081016040528092919081815260200182805480156120f857602002820191905f5260205f20905b8154815260200190600101908083116120e4575b50505050509050919050565b5f61210d61170d565b600101546001600160a01b0316905080156121ee576001600160a01b038416156121885760405163632447c960e01b81526001600160a01b03858116600483015282169063632447c9906024015f604051808303815f87803b158015612171575f5ffd5b505af1158015612183573d5f5f3e3d5ffd5b505050505b6001600160a01b038316156121ee5760405163632447c960e01b81526001600160a01b03848116600483015282169063632447c9906024015f604051808303815f87803b1580156121d7575f5ffd5b505af11580156121e9573d5f5f3e3d5ffd5b505050505b611947848484612737565b7ff0c57e16840df040f15088dc2f81fe391c3923bec73e23a9662efc9c229c6a0054600160401b900460ff16610cef57604051631afcd79f60e31b815260040160405180910390fd5b61224a6121f9565b5f5160206131d15f395f51905f525f806122638461285d565b9150915081612273576012612275565b805b83546001600160a81b031916600160a01b60ff92909216919091026001600160a01b031916176001600160a01b0394909416939093179091555050565b6122ba6121f9565b5f5160206131915f395f51905f527f52c63247e1f47db19d5ce0460030c497f067ca4cebf71ba98eeadabe20bace036122f3848261306b565b5060048101611947838261306b565b61230a6121f9565b6001600160a01b038116610d2d57604051631e4fbdf760e01b81525f60048201526024016108e3565b5f5160206131d15f395f51905f528054612358906001600160a01b0316863086612933565b6123628483611cbd565b836001600160a01b0316856001600160a01b03167fdcbc1c05240f31ff3ad067ef1ee35ce4997762752e3a095284754544f4c709d78585604051611f0a929190918252602082015260400190565b7f9016d09d72d40fdae2fd8ceac6b6234c7706214fd39c1cd1e609a0528c19930080546001600160a01b031981166001600160a01b03848116918217845560405192169182907f8be0079c531659141344cd1fd0a4f28419497f9722a3daafe3b4186f6b6457e0905f90a3505050565b6040516001600160a01b038381166024830152604482018390526117f191859182169063a9059cbb906064015b604051602081830303815290604052915060e01b6020820180516001600160e01b03838183161783525050505061296c565b5f8181526001830160205260408120548015612559575f6124a1600183612e5e565b85549091505f906124b490600190612e5e565b9050808214612513575f865f0182815481106124d2576124d2612ec2565b905f5260205f200154905080875f0184815481106124f2576124f2612ec2565b5f918252602080832090910192909255918252600188019052604090208390555b855486908061252457612524613125565b600190038181905f5260205f20015f90559055856001015f8681526020019081526020015f205f905560019350505050610947565b5f915050610947565b5f5160206131d15f395f51905f526001600160a01b038681169085161461258e5761258e8487846118fd565b61259884836126f8565b80546125ae906001600160a01b03168685612420565b836001600160a01b0316856001600160a01b0316876001600160a01b03167ffbde797d201c681b91056529119e0b02407c7bb96a4a2c75c01fc9667232c8db8686604051612606929190918252602082015260400190565b60405180910390a4505050505050565b5f600282600381111561262b5761262b613139565b612635919061314d565b60ff166001149050919050565b5f838302815f1985870982811083820303915050805f036126765783828161266c5761266c613013565b0492505050610a87565b80841161268d5761268d60038515026011186129d8565b5f848688095f868103871696879004966002600389028118808a02820302808a02820302808a02820302808a02820302808a02820302808a02909103029181900381900460010186841190950394909402919094039290920491909117919091029150509392505050565b6001600160a01b03821661272157604051634b637e8f60e11b81525f60048201526024016108e3565b6119cd825f83612104565b5f610a8783836129e9565b5f5160206131915f395f51905f526001600160a01b0384166127715781816002015f8282546127669190612ed6565b909155506127ce9050565b6001600160a01b0384165f90815260208290526040902054828110156127b05784818460405163391434e360e21b81526004016108e393929190612ff2565b6001600160a01b0385165f9081526020839052604090209083900390555b6001600160a01b0383166127ec57600281018054839003905561280a565b6001600160a01b0383165f9081526020829052604090208054830190555b826001600160a01b0316846001600160a01b03167fddf252ad1be2c89b69c2b068fc378daa952ba7f163c4a11628f55a4df523b3ef8460405161284f91815260200190565b60405180910390a350505050565b60408051600481526024810182526020810180516001600160e01b031663313ce56760e01b17905290515f918291829182916001600160a01b038716916128a39161317a565b5f60405180830381855afa9150503d805f81146128db576040519150601f19603f3d011682016040523d82523d5f602084013e6128e0565b606091505b50915091508180156128f457506020815110155b15612927575f8180602001905181019061290e9190612e33565b905060ff8111612925576001969095509350505050565b505b505f9485945092505050565b6040516001600160a01b0384811660248301528381166044830152606482018390526119479186918216906323b872dd9060840161244d565b5f5f60205f8451602086015f885af18061298b576040513d5f823e3d81fd5b50505f513d915081156129a25780600114156129af565b6001600160a01b0384163b155b1561194757604051635274afe760e01b81526001600160a01b03851660048201526024016108e3565b634e487b715f52806020526024601cfd5b5f818152600183016020526040812054612a2e57508154600181810184555f848152602080822090930184905584548482528286019093526040902091909155610947565b505f610947565b602081525f82518060208401528060208501604085015e5f604082850101526040601f19601f83011684010191505092915050565b5f60208284031215612a7a575f5ffd5b5035919050565b80356001600160a01b0381168114610ffa575f5ffd5b5f5f60408385031215612aa8575f5ffd5b612ab183612a81565b946020939093013593505050565b5f5f60408385031215612ad0575f5ffd5b82359150612ae060208401612a81565b90509250929050565b80358015158114610ffa575f5ffd5b5f5f60408385031215612b09575f5ffd5b612b1283612a81565b9150612ae060208401612ae9565b5f60208284031215612b30575f5ffd5b610a8782612a81565b5f8151808452602084019350602083015f5b82811015612b69578151865260209586019590910190600101612b4b565b5093949350505050565b602081525f610a876020830184612b39565b5f5f5f60608486031215612b97575f5ffd5b612ba084612a81565b9250612bae60208501612a81565b929592945050506040919091013590565b634e487b7160e01b5f52604160045260245ffd5b5f82601f830112612be2575f5ffd5b81356001600160401b03811115612bfb57612bfb612bbf565b604051601f8201601f19908116603f011681016001600160401b0381118282101715612c2957612c29612bbf565b604052818152838201602001851015612c40575f5ffd5b816020850160208301375f918101602001919091529392505050565b5f5f5f5f60808587031215612c6f575f5ffd5b612c7885612a81565b935060208501356001600160401b03811115612c92575f5ffd5b612c9e87828801612bd3565b93505060408501356001600160401b03811115612cb9575f5ffd5b612cc587828801612bd3565b925050612cd460608601612a81565b905092959194509250565b5f5f5f60408486031215612cf1575f5ffd5b83356001600160401b03811115612d06575f5ffd5b8401601f81018613612d16575f5ffd5b80356001600160401b03811115612d2b575f5ffd5b8660208260051b8401011115612d3f575f5ffd5b602091820194509250612d53908501612a81565b90509250925092565b5f5f5f60608486031215612d6e575f5ffd5b83359250612d7e60208501612a81565b9150612d5360408501612a81565b604081525f612d9e6040830185612b39565b8281036020840152611d7e8185612b39565b5f5f60408385031215612dc1575f5ffd5b612dca83612a81565b9150612ae060208401612a81565b606081525f612dea6060830186612b39565b8281036020840152612dfc8186612b39565b90508281036040840152612e108185612b39565b9695505050505050565b5f60208284031215612e2a575f5ffd5b610a8782612ae9565b5f60208284031215612e43575f5ffd5b5051919050565b634e487b7160e01b5f52601160045260245ffd5b8181038181111561094757610947612e4a565b600181811c90821680612e8557607f821691505b602082108103612ea357634e487b7160e01b5f52602260045260245ffd5b50919050565b60ff818116838216019081111561094757610947612e4a565b634e487b7160e01b5f52603260045260245ffd5b8082018082111561094757610947612e4a565b5f60018201612efa57612efa612e4a565b5060010190565b6001815b6001841115612f3c57808504811115612f2057612f20612e4a565b6001841615612f2e57908102905b60019390931c928002612f05565b935093915050565b5f82612f5257506001610947565b81612f5e57505f610947565b8160018114612f745760028114612f7e57612f9a565b6001915050610947565b60ff841115612f8f57612f8f612e4a565b50506001821b610947565b5060208310610133831016604e8410600b8410161715612fbd575081810a610947565b612fc95f198484612f01565b805f1904821115612fdc57612fdc612e4a565b029392505050565b5f610a8760ff841683612f44565b6001600160a01b039390931683526020830191909152604082015260600190565b634e487b7160e01b5f52601260045260245ffd5b601f8211156117f157805f5260205f20601f840160051c8101602085101561304c5750805b601f840160051c820191505b81811015611f13575f8155600101613058565b81516001600160401b0381111561308457613084612bbf565b613098816130928454612e71565b84613027565b6020601f8211600181146130ca575f83156130b35750848201515b5f19600385901b1c1916600184901b178455611f13565b5f84815260208120601f198516915b828110156130f957878501518255602094850194600190920191016130d9565b508482101561311657868401515f19600387901b60f8161c191681555b50505050600190811b01905550565b634e487b7160e01b5f52603160045260245ffd5b634e487b7160e01b5f52602160045260245ffd5b5f60ff83168061316b57634e487b7160e01b5f52601260045260245ffd5b8060ff84160691505092915050565b5f82518060208501845e5f92019182525091905056fe52c63247e1f47db19d5ce0460030c497f067ca4cebf71ba98eeadabe20bace0052c63247e1f47db19d5ce0460030c497f067ca4cebf71ba98eeadabe20bace020773e532dfede91f04b12a73d3d2acd361424f41f76b4fb79f090161e36b4e00a26469706673582212206b4729a2a3792728eae2da6737d6919bb7f9504fa842bd5795277f169bbd8c9864736f6c634300081e0033",
  "implementation": "0xFBe09b404E50193237D7c9777585a27eB927fF25",
  "devdoc": {
    "details": "Implements a cooldown period for withdrawals to prevent sandwich attacks.      Whitelisted addresses can withdraw instantly when cooldown is enabled.      Shares in cooldown do not earn yield - they are burned and assets are locked.",
    "errors": {
      "ERC20InsufficientAllowance(address,uint256,uint256)": [
        {
          "details": "Indicates a failure with the `spender`’s `allowance`. Used in transfers.",
          "params": {
            "allowance": "Amount of tokens a `spender` is allowed to operate with.",
            "needed": "Minimum amount required to perform a transfer.",
            "spender": "Address that may be allowed to operate on tokens without being their owner."
          }
        }
      ],
      "ERC20InsufficientBalance(address,uint256,uint256)": [
        {
          "details": "Indicates an error related to the current `balance` of a `sender`. Used in transfers.",
          "params": {
            "balance": "Current balance for the interacting account.",
            "needed": "Minimum amount required to perform a transfer.",
            "sender": "Address whose tokens are being transferred."
          }
        }
      ],
      "ERC20InvalidApprover(address)": [
        {
          "details": "Indicates a failure with the `approver` of a token to be approved. Used in approvals.",
          "params": {
            "approver": "Address initiating an approval operation."
          }
        }
      ],
      "ERC20InvalidReceiver(address)": [
        {
          "details": "Indicates a failure with the token `receiver`. Used in transfers.",
          "params": {
            "receiver": "Address to which tokens are being transferred."
          }
        }
      ],
      "ERC20InvalidSender(address)": [
        {
          "details": "Indicates a failure with the token `sender`. Used in transfers.",
          "params": {
            "sender": "Address whose tokens are being transferred."
          }
        }
      ],
      "ERC20InvalidSpender(address)": [
        {
          "details": "Indicates a failure with the `spender` to be approved. Used in approvals.",
          "params": {
            "spender": "Address that may be allowed to operate on tokens without being their owner."
          }
        }
      ],
      "ERC4626ExceededMaxDeposit(address,uint256,uint256)": [
        {
          "details": "Attempted to deposit more assets than the max amount for `receiver`."
        }
      ],
      "ERC4626ExceededMaxMint(address,uint256,uint256)": [
        {
          "details": "Attempted to mint more shares than the max amount for `receiver`."
        }
      ],
      "ERC4626ExceededMaxRedeem(address,uint256,uint256)": [
        {
          "details": "Attempted to redeem more shares than the max amount for `receiver`."
        }
      ],
      "ERC4626ExceededMaxWithdraw(address,uint256,uint256)": [
        {
          "details": "Attempted to withdraw more assets than the max amount for `receiver`."
        }
      ],
      "InvalidInitialization()": [
        {
          "details": "The contract is already initialized."
        }
      ],
      "NotInitializing()": [
        {
          "details": "The contract is not initializing."
        }
      ],
      "OwnableInvalidOwner(address)": [
        {
          "details": "The owner is not a valid owner account. (eg. `address(0)`)"
        }
      ],
      "OwnableUnauthorizedAccount(address)": [
        {
          "details": "The caller account is not authorized to perform an operation."
        }
      ],
      "ReentrancyGuardReentrantCall()": [
        {
          "details": "Unauthorized reentrant call."
        }
      ],
      "SafeERC20FailedOperation(address)": [
        {
          "details": "An operation with an ERC-20 token failed."
        }
      ]
    },
    "events": {
      "Approval(address,address,uint256)": {
        "details": "Emitted when the allowance of a `spender` for an `owner` is set by a call to {approve}. `value` is the new allowance."
      },
      "Initialized(uint64)": {
        "details": "Triggered when the contract has been initialized or reinitialized."
      },
      "Transfer(address,address,uint256)": {
        "details": "Emitted when `value` tokens are moved from one account (`from`) to another (`to`). Note that `value` may be zero."
      }
    },
    "kind": "dev",
    "methods": {
      "acceptOwnership()": {
        "details": "The new owner accepts the ownership transfer."
      },
      "allowance(address,address)": {
        "details": "See {IERC20-allowance}."
      },
      "approve(address,uint256)": {
        "details": "See {IERC20-approve}. NOTE: If `value` is the maximum `uint256`, the allowance is not updated on `transferFrom`. This is semantically equivalent to an infinite approval. Requirements: - `spender` cannot be the zero address."
      },
      "asset()": {
        "details": "See {IERC4626-asset}. "
      },
      "balanceOf(address)": {
        "details": "See {IERC20-balanceOf}."
      },
      "cancelWithdraw(uint256)": {
        "details": "Only the request owner can cancel",
        "params": {
          "requestId_": "The ID of the request to cancel"
        },
        "returns": {
          "shares_": "The amount of shares returned to owner"
        }
      },
      "claimWithdraw(uint256,address)": {
        "params": {
          "receiver_": "The address to receive the assets",
          "requestId_": "The ID of the request to claim"
        },
        "returns": {
          "assets": "The amount of assets claimed"
        }
      },
      "claimWithdrawBatch(uint256[],address)": {
        "params": {
          "receiver_": "The address to receive the assets",
          "requestIds_": "The IDs of the requests to claim"
        },
        "returns": {
          "totalAssets_": "The total amount of assets claimed"
        }
      },
      "constructor": {
        "custom:oz-upgrades-unsafe-allow": "constructor"
      },
      "convertToAssets(uint256)": {
        "details": "See {IERC4626-convertToAssets}. "
      },
      "convertToShares(uint256)": {
        "details": "See {IERC4626-convertToShares}. "
      },
      "cooldownDuration()": {
        "returns": {
          "_0": "The cooldown duration in seconds"
        }
      },
      "cooldownEnabled()": {
        "returns": {
          "_0": "True if cooldown is enabled"
        }
      },
      "decimals()": {
        "details": "Decimals are computed by adding the decimal offset on top of the underlying asset's decimals. This \"original\" value is cached during construction of the vault contract. If this read operation fails (e.g., the asset has not been created yet), a default of 18 is used to represent the underlying asset's decimals. See {IERC20Metadata-decimals}."
      },
      "deposit(uint256,address)": {
        "details": "Pulls pending yield before deposit to ensure accurate share calculation.      Protected against reentrancy.",
        "params": {
          "assets_": "The amount of assets to deposit",
          "receiver_": "The address to receive the vault shares"
        },
        "returns": {
          "_0": "shares The amount of vault shares minted"
        }
      },
      "getActiveRequestIds(address)": {
        "params": {
          "account_": "The account to query"
        },
        "returns": {
          "_0": "Array of active request IDs"
        }
      },
      "getClaimableRequests(address)": {
        "params": {
          "account_": "The account to query"
        },
        "returns": {
          "assets_": "Array of asset amounts for each request",
          "requestIds_": "Array of claimable request IDs"
        }
      },
      "getPendingRequests(address)": {
        "params": {
          "account_": "The account to query"
        },
        "returns": {
          "assets_": "Array of asset amounts for each request",
          "claimableAt_": "Array of claimable timestamps for each request",
          "requestIds_": "Array of pending request IDs"
        }
      },
      "getRequestDetails(uint256)": {
        "params": {
          "requestId_": "The ID of the request"
        },
        "returns": {
          "_0": "The cooldown request details"
        }
      },
      "initialize(address,string,string,address)": {
        "params": {
          "asset_": "The underlying asset",
          "name_": "The name of the vault token",
          "owner_": "The owner of the vault",
          "symbol_": "The symbol of the vault token"
        }
      },
      "instantWithdrawWhitelist(address)": {
        "params": {
          "account_": "The address to check"
        },
        "returns": {
          "_0": "True if whitelisted"
        }
      },
      "maxDeposit(address)": {
        "details": "See {IERC4626-maxDeposit}. "
      },
      "maxMint(address)": {
        "details": "See {IERC4626-maxMint}. "
      },
      "maxRedeem(address)": {
        "details": "See {IERC4626-maxRedeem}. "
      },
      "maxWithdraw(address)": {
        "details": "See {IERC4626-maxWithdraw}. "
      },
      "mint(uint256,address)": {
        "details": "Pulls pending yield before mint to ensure accurate asset calculation.      Protected against reentrancy.",
        "params": {
          "receiver_": "The address to receive the vault shares",
          "shares_": "The exact amount of vault shares to mint"
        },
        "returns": {
          "_0": "assets The amount of assets deposited"
        }
      },
      "name()": {
        "details": "Returns the name of the token."
      },
      "nextRequestId()": {
        "returns": {
          "_0": "The next request ID that will be assigned"
        }
      },
      "owner()": {
        "details": "Returns the address of the current owner."
      },
      "pendingOwner()": {
        "details": "Returns the address of the pending owner."
      },
      "previewDeposit(uint256)": {
        "details": "See {IERC4626-previewDeposit}. "
      },
      "previewMint(uint256)": {
        "details": "See {IERC4626-previewMint}. "
      },
      "previewRedeem(uint256)": {
        "details": "See {IERC4626-previewRedeem}. "
      },
      "previewWithdraw(uint256)": {
        "details": "See {IERC4626-previewWithdraw}. "
      },
      "redeem(uint256,address,address)": {
        "details": "Only available when cooldown is disabled or owner is whitelisted.      Pulls pending yield before redeem. Protected against reentrancy.",
        "params": {
          "owner_": "The owner of the shares (requires allowance if not msg.sender)",
          "receiver_": "The address to receive the assets",
          "shares_": "The amount of vault shares to redeem"
        },
        "returns": {
          "_0": "assets The amount of assets withdrawn"
        }
      },
      "renounceOwnership()": {
        "details": "Leaves the contract without owner. It will not be possible to call `onlyOwner` functions. Can only be called by the current owner. NOTE: Renouncing ownership will leave the contract without an owner, thereby disabling any functionality that is only available to the owner."
      },
      "requestRedeem(uint256,address)": {
        "params": {
          "owner_": "The owner of the shares (requires allowance if not msg.sender)",
          "shares_": "The amount of shares to redeem"
        },
        "returns": {
          "assets": "The amount of assets that will be claimable",
          "requestId": "The globally unique ID of the cooldown request"
        }
      },
      "requestWithdraw(uint256,address)": {
        "params": {
          "assets_": "The amount of assets to withdraw",
          "owner_": "The owner of the shares (requires allowance if not msg.sender)"
        },
        "returns": {
          "requestId": "The globally unique ID of the cooldown request",
          "shares": "The amount of shares that were burned"
        }
      },
      "symbol()": {
        "details": "Returns the symbol of the token, usually a shorter version of the name."
      },
      "totalAssets()": {
        "details": "Assets in cooldown are locked and do not earn yield, so they are excluded      from the total used for share price calculation.",
        "returns": {
          "_0": "Total assets earning yield in the vault"
        }
      },
      "totalAssetsInCooldown()": {
        "returns": {
          "_0": "The total assets in cooldown"
        }
      },
      "totalSupply()": {
        "details": "See {IERC20-totalSupply}."
      },
      "transfer(address,uint256)": {
        "details": "See {IERC20-transfer}. Requirements: - `to` cannot be the zero address. - the caller must have a balance of at least `value`."
      },
      "transferFrom(address,address,uint256)": {
        "details": "See {IERC20-transferFrom}. Skips emitting an {Approval} event indicating an allowance update. This is not required by the ERC. See {xref-ERC20-_approve-address-address-uint256-bool-}[_approve]. NOTE: Does not update the allowance if the current allowance is the maximum `uint256`. Requirements: - `from` and `to` cannot be the zero address. - `from` must have a balance of at least `value`. - the caller must have allowance for ``from``'s tokens of at least `value`."
      },
      "transferOwnership(address)": {
        "details": "Starts the ownership transfer of the contract to a new account. Replaces the pending transfer if there is one. Can only be called by the current owner. Setting `newOwner` to the zero address is allowed; this can be used to cancel an initiated ownership transfer."
      },
      "updateCooldownDuration(uint256)": {
        "details": "Affects new requests only, not existing ones.      Must be between MIN_COOLDOWN_DURATION and MAX_COOLDOWN_DURATION.",
        "params": {
          "duration_": "The new cooldown duration"
        }
      },
      "updateCooldownEnabled(bool)": {
        "details": "When disabled, all users can use instant withdraw/redeem",
        "params": {
          "enabled_": "The new cooldown enabled status"
        }
      },
      "updateInstantWithdrawWhitelist(address,bool)": {
        "details": "Whitelisted addresses can bypass cooldown even when enabled",
        "params": {
          "account_": "The account to update",
          "status_": "The new whitelist status"
        }
      },
      "updateVaultRewards(address)": {
        "details": "Can be set to address(0) to disable rewards tracking",
        "params": {
          "vaultRewards_": "The new vault rewards address"
        }
      },
      "updateYieldDistributor(address)": {
        "details": "Can be set to address(0) to disable yield distribution",
        "params": {
          "distributor_": "The new yield distributor address"
        }
      },
      "vaultRewards()": {
        "returns": {
          "_0": "The vault rewards address"
        }
      },
      "withdraw(uint256,address,address)": {
        "details": "Only available when cooldown is disabled or owner is whitelisted.      Pulls pending yield before withdraw. Protected against reentrancy.",
        "params": {
          "assets_": "The exact amount of assets to withdraw",
          "owner_": "The owner of the shares (requires allowance if not msg.sender)",
          "receiver_": "The address to receive the assets"
        },
        "returns": {
          "_0": "shares The amount of vault shares burned"
        }
      },
      "yieldDistributor()": {
        "returns": {
          "_0": "The yield distributor address"
        }
      }
    },
    "title": "StakingVault",
    "version": 1
  },
  "userdoc": {
    "kind": "user",
    "methods": {
      "cancelWithdraw(uint256)": {
        "notice": "Cancel a pending withdrawal request"
      },
      "claimWithdraw(uint256,address)": {
        "notice": "Claim a matured withdrawal request"
      },
      "claimWithdrawBatch(uint256[],address)": {
        "notice": "Claim multiple matured withdrawal requests"
      },
      "cooldownDuration()": {
        "notice": "Get the cooldown duration"
      },
      "cooldownEnabled()": {
        "notice": "Check if cooldown is enabled"
      },
      "deposit(uint256,address)": {
        "notice": "Deposit assets and receive vault shares"
      },
      "getActiveRequestIds(address)": {
        "notice": "Get all active request IDs for an account"
      },
      "getClaimableRequests(address)": {
        "notice": "Get all claimable requests for an account"
      },
      "getPendingRequests(address)": {
        "notice": "Get all pending (not yet matured) requests for an account"
      },
      "getRequestDetails(uint256)": {
        "notice": "Get details of a specific cooldown request"
      },
      "initialize(address,string,string,address)": {
        "notice": "Initialize the staking vault"
      },
      "instantWithdrawWhitelist(address)": {
        "notice": "Check if an address is whitelisted for instant withdraw"
      },
      "mint(uint256,address)": {
        "notice": "Mint exact amount of vault shares by depositing assets"
      },
      "nextRequestId()": {
        "notice": "Get the next global request ID"
      },
      "redeem(uint256,address,address)": {
        "notice": "Redeem vault shares for assets (instant withdrawal)"
      },
      "requestRedeem(uint256,address)": {
        "notice": "Request a redemption with cooldown (specify shares to burn)"
      },
      "requestWithdraw(uint256,address)": {
        "notice": "Request a withdrawal with cooldown (specify assets to receive)"
      },
      "totalAssets()": {
        "notice": "Get total assets available for yield (excludes assets in cooldown)"
      },
      "totalAssetsInCooldown()": {
        "notice": "Get total assets currently in cooldown"
      },
      "updateCooldownDuration(uint256)": {
        "notice": "Update the cooldown duration for withdrawals"
      },
      "updateCooldownEnabled(bool)": {
        "notice": "Enable or disable cooldown for non-whitelisted users"
      },
      "updateInstantWithdrawWhitelist(address,bool)": {
        "notice": "Add or remove an address from the instant withdraw whitelist"
      },
      "updateVaultRewards(address)": {
        "notice": "Update the vault rewards contract address"
      },
      "updateYieldDistributor(address)": {
        "notice": "Update the yield distributor address"
      },
      "vaultRewards()": {
        "notice": "Get the vault rewards contract address"
      },
      "withdraw(uint256,address,address)": {
        "notice": "Withdraw exact amount of assets (instant withdrawal)"
      },
      "yieldDistributor()": {
        "notice": "Get the yield distributor address"
      }
    },
    "notice": "ERC4626 yield-bearing vault with cooldown withdrawal mechanism",
    "version": 1
  },
  "storageLayout": {
    "storage": [],
    "types": null
  }
}