{
  "address": "0x0cB9D84d4bcEc8d3D5B2d99a6F07f4605325987e",
  "abi": [
    {
      "inputs": [],
      "stateMutability": "nonpayable",
      "type": "constructor"
    },
    {
      "inputs": [],
      "name": "CooldownEnabled",
      "type": "error"
    },
    {
      "inputs": [],
      "name": "CooldownNotEnabled",
      "type": "error"
    },
    {
      "inputs": [
        {
          "internalType": "uint256",
          "name": "requestId",
          "type": "uint256"
        },
        {
          "internalType": "uint256",
          "name": "claimableAt",
          "type": "uint256"
        }
      ],
      "name": "CooldownNotMatured",
      "type": "error"
    },
    {
      "inputs": [
        {
          "internalType": "address",
          "name": "spender",
          "type": "address"
        },
        {
          "internalType": "uint256",
          "name": "allowance",
          "type": "uint256"
        },
        {
          "internalType": "uint256",
          "name": "needed",
          "type": "uint256"
        }
      ],
      "name": "ERC20InsufficientAllowance",
      "type": "error"
    },
    {
      "inputs": [
        {
          "internalType": "address",
          "name": "sender",
          "type": "address"
        },
        {
          "internalType": "uint256",
          "name": "balance",
          "type": "uint256"
        },
        {
          "internalType": "uint256",
          "name": "needed",
          "type": "uint256"
        }
      ],
      "name": "ERC20InsufficientBalance",
      "type": "error"
    },
    {
      "inputs": [
        {
          "internalType": "address",
          "name": "approver",
          "type": "address"
        }
      ],
      "name": "ERC20InvalidApprover",
      "type": "error"
    },
    {
      "inputs": [
        {
          "internalType": "address",
          "name": "receiver",
          "type": "address"
        }
      ],
      "name": "ERC20InvalidReceiver",
      "type": "error"
    },
    {
      "inputs": [
        {
          "internalType": "address",
          "name": "sender",
          "type": "address"
        }
      ],
      "name": "ERC20InvalidSender",
      "type": "error"
    },
    {
      "inputs": [
        {
          "internalType": "address",
          "name": "spender",
          "type": "address"
        }
      ],
      "name": "ERC20InvalidSpender",
      "type": "error"
    },
    {
      "inputs": [
        {
          "internalType": "address",
          "name": "receiver",
          "type": "address"
        },
        {
          "internalType": "uint256",
          "name": "assets",
          "type": "uint256"
        },
        {
          "internalType": "uint256",
          "name": "max",
          "type": "uint256"
        }
      ],
      "name": "ERC4626ExceededMaxDeposit",
      "type": "error"
    },
    {
      "inputs": [
        {
          "internalType": "address",
          "name": "receiver",
          "type": "address"
        },
        {
          "internalType": "uint256",
          "name": "shares",
          "type": "uint256"
        },
        {
          "internalType": "uint256",
          "name": "max",
          "type": "uint256"
        }
      ],
      "name": "ERC4626ExceededMaxMint",
      "type": "error"
    },
    {
      "inputs": [
        {
          "internalType": "address",
          "name": "owner",
          "type": "address"
        },
        {
          "internalType": "uint256",
          "name": "shares",
          "type": "uint256"
        },
        {
          "internalType": "uint256",
          "name": "max",
          "type": "uint256"
        }
      ],
      "name": "ERC4626ExceededMaxRedeem",
      "type": "error"
    },
    {
      "inputs": [
        {
          "internalType": "address",
          "name": "owner",
          "type": "address"
        },
        {
          "internalType": "uint256",
          "name": "assets",
          "type": "uint256"
        },
        {
          "internalType": "uint256",
          "name": "max",
          "type": "uint256"
        }
      ],
      "name": "ERC4626ExceededMaxWithdraw",
      "type": "error"
    },
    {
      "inputs": [
        {
          "internalType": "uint256",
          "name": "duration",
          "type": "uint256"
        },
        {
          "internalType": "uint256",
          "name": "minDuration",
          "type": "uint256"
        },
        {
          "internalType": "uint256",
          "name": "maxDuration",
          "type": "uint256"
        }
      ],
      "name": "InvalidCooldownDuration",
      "type": "error"
    },
    {
      "inputs": [],
      "name": "InvalidInitialization",
      "type": "error"
    },
    {
      "inputs": [
        {
          "internalType": "uint256",
          "name": "requestId",
          "type": "uint256"
        }
      ],
      "name": "InvalidRequestId",
      "type": "error"
    },
    {
      "inputs": [],
      "name": "NotInitializing",
      "type": "error"
    },
    {
      "inputs": [],
      "name": "NotRequestOwner",
      "type": "error"
    },
    {
      "inputs": [
        {
          "internalType": "address",
          "name": "owner",
          "type": "address"
        }
      ],
      "name": "OwnableInvalidOwner",
      "type": "error"
    },
    {
      "inputs": [
        {
          "internalType": "address",
          "name": "account",
          "type": "address"
        }
      ],
      "name": "OwnableUnauthorizedAccount",
      "type": "error"
    },
    {
      "inputs": [],
      "name": "ReentrancyGuardReentrantCall",
      "type": "error"
    },
    {
      "inputs": [
        {
          "internalType": "address",
          "name": "token",
          "type": "address"
        }
      ],
      "name": "SafeERC20FailedOperation",
      "type": "error"
    },
    {
      "inputs": [],
      "name": "ZeroAddress",
      "type": "error"
    },
    {
      "inputs": [],
      "name": "ZeroAmount",
      "type": "error"
    },
    {
      "anonymous": false,
      "inputs": [
        {
          "indexed": true,
          "internalType": "address",
          "name": "owner",
          "type": "address"
        },
        {
          "indexed": true,
          "internalType": "address",
          "name": "spender",
          "type": "address"
        },
        {
          "indexed": false,
          "internalType": "uint256",
          "name": "value",
          "type": "uint256"
        }
      ],
      "name": "Approval",
      "type": "event"
    },
    {
      "anonymous": false,
      "inputs": [
        {
          "indexed": false,
          "internalType": "uint256",
          "name": "previousDuration",
          "type": "uint256"
        },
        {
          "indexed": false,
          "internalType": "uint256",
          "name": "newDuration",
          "type": "uint256"
        }
      ],
      "name": "CooldownDurationUpdated",
      "type": "event"
    },
    {
      "anonymous": false,
      "inputs": [
        {
          "indexed": false,
          "internalType": "bool",
          "name": "previousStatus",
          "type": "bool"
        },
        {
          "indexed": false,
          "internalType": "bool",
          "name": "newStatus",
          "type": "bool"
        }
      ],
      "name": "CooldownEnabledUpdated",
      "type": "event"
    },
    {
      "anonymous": false,
      "inputs": [
        {
          "indexed": true,
          "internalType": "address",
          "name": "sender",
          "type": "address"
        },
        {
          "indexed": true,
          "internalType": "address",
          "name": "owner",
          "type": "address"
        },
        {
          "indexed": false,
          "internalType": "uint256",
          "name": "assets",
          "type": "uint256"
        },
        {
          "indexed": false,
          "internalType": "uint256",
          "name": "shares",
          "type": "uint256"
        }
      ],
      "name": "Deposit",
      "type": "event"
    },
    {
      "anonymous": false,
      "inputs": [
        {
          "indexed": false,
          "internalType": "uint64",
          "name": "version",
          "type": "uint64"
        }
      ],
      "name": "Initialized",
      "type": "event"
    },
    {
      "anonymous": false,
      "inputs": [
        {
          "indexed": true,
          "internalType": "address",
          "name": "account",
          "type": "address"
        },
        {
          "indexed": false,
          "internalType": "bool",
          "name": "status",
          "type": "bool"
        }
      ],
      "name": "InstantWithdrawWhitelistUpdated",
      "type": "event"
    },
    {
      "anonymous": false,
      "inputs": [
        {
          "indexed": true,
          "internalType": "address",
          "name": "previousOwner",
          "type": "address"
        },
        {
          "indexed": true,
          "internalType": "address",
          "name": "newOwner",
          "type": "address"
        }
      ],
      "name": "OwnershipTransferStarted",
      "type": "event"
    },
    {
      "anonymous": false,
      "inputs": [
        {
          "indexed": true,
          "internalType": "address",
          "name": "previousOwner",
          "type": "address"
        },
        {
          "indexed": true,
          "internalType": "address",
          "name": "newOwner",
          "type": "address"
        }
      ],
      "name": "OwnershipTransferred",
      "type": "event"
    },
    {
      "anonymous": false,
      "inputs": [
        {
          "indexed": true,
          "internalType": "address",
          "name": "from",
          "type": "address"
        },
        {
          "indexed": true,
          "internalType": "address",
          "name": "to",
          "type": "address"
        },
        {
          "indexed": false,
          "internalType": "uint256",
          "name": "value",
          "type": "uint256"
        }
      ],
      "name": "Transfer",
      "type": "event"
    },
    {
      "anonymous": false,
      "inputs": [
        {
          "indexed": true,
          "internalType": "address",
          "name": "previousVaultRewards",
          "type": "address"
        },
        {
          "indexed": true,
          "internalType": "address",
          "name": "newVaultRewards",
          "type": "address"
        }
      ],
      "name": "VaultRewardsUpdated",
      "type": "event"
    },
    {
      "anonymous": false,
      "inputs": [
        {
          "indexed": true,
          "internalType": "address",
          "name": "sender",
          "type": "address"
        },
        {
          "indexed": true,
          "internalType": "address",
          "name": "receiver",
          "type": "address"
        },
        {
          "indexed": true,
          "internalType": "address",
          "name": "owner",
          "type": "address"
        },
        {
          "indexed": false,
          "internalType": "uint256",
          "name": "assets",
          "type": "uint256"
        },
        {
          "indexed": false,
          "internalType": "uint256",
          "name": "shares",
          "type": "uint256"
        }
      ],
      "name": "Withdraw",
      "type": "event"
    },
    {
      "anonymous": false,
      "inputs": [
        {
          "indexed": true,
          "internalType": "address",
          "name": "owner",
          "type": "address"
        },
        {
          "indexed": true,
          "internalType": "uint256",
          "name": "requestId",
          "type": "uint256"
        },
        {
          "indexed": false,
          "internalType": "uint256",
          "name": "assets",
          "type": "uint256"
        },
        {
          "indexed": false,
          "internalType": "uint256",
          "name": "shares",
          "type": "uint256"
        }
      ],
      "name": "WithdrawCancelled",
      "type": "event"
    },
    {
      "anonymous": false,
      "inputs": [
        {
          "indexed": true,
          "internalType": "address",
          "name": "owner",
          "type": "address"
        },
        {
          "indexed": true,
          "internalType": "address",
          "name": "receiver",
          "type": "address"
        },
        {
          "indexed": true,
          "internalType": "uint256",
          "name": "requestId",
          "type": "uint256"
        },
        {
          "indexed": false,
          "internalType": "uint256",
          "name": "assets",
          "type": "uint256"
        }
      ],
      "name": "WithdrawClaimed",
      "type": "event"
    },
    {
      "anonymous": false,
      "inputs": [
        {
          "indexed": true,
          "internalType": "address",
          "name": "owner",
          "type": "address"
        },
        {
          "indexed": true,
          "internalType": "uint256",
          "name": "requestId",
          "type": "uint256"
        },
        {
          "indexed": false,
          "internalType": "uint256",
          "name": "shares",
          "type": "uint256"
        },
        {
          "indexed": false,
          "internalType": "uint256",
          "name": "assets",
          "type": "uint256"
        },
        {
          "indexed": false,
          "internalType": "uint256",
          "name": "claimableAt",
          "type": "uint256"
        }
      ],
      "name": "WithdrawRequested",
      "type": "event"
    },
    {
      "anonymous": false,
      "inputs": [
        {
          "indexed": true,
          "internalType": "address",
          "name": "previousDistributor",
          "type": "address"
        },
        {
          "indexed": true,
          "internalType": "address",
          "name": "newDistributor",
          "type": "address"
        }
      ],
      "name": "YieldDistributorUpdated",
      "type": "event"
    },
    {
      "inputs": [],
      "name": "DEFAULT_COOLDOWN_DURATION",
      "outputs": [
        {
          "internalType": "uint256",
          "name": "",
          "type": "uint256"
        }
      ],
      "stateMutability": "view",
      "type": "function"
    },
    {
      "inputs": [],
      "name": "MAX_COOLDOWN_DURATION",
      "outputs": [
        {
          "internalType": "uint256",
          "name": "",
          "type": "uint256"
        }
      ],
      "stateMutability": "view",
      "type": "function"
    },
    {
      "inputs": [],
      "name": "MIN_COOLDOWN_DURATION",
      "outputs": [
        {
          "internalType": "uint256",
          "name": "",
          "type": "uint256"
        }
      ],
      "stateMutability": "view",
      "type": "function"
    },
    {
      "inputs": [],
      "name": "acceptOwnership",
      "outputs": [],
      "stateMutability": "nonpayable",
      "type": "function"
    },
    {
      "inputs": [
        {
          "internalType": "address",
          "name": "owner",
          "type": "address"
        },
        {
          "internalType": "address",
          "name": "spender",
          "type": "address"
        }
      ],
      "name": "allowance",
      "outputs": [
        {
          "internalType": "uint256",
          "name": "",
          "type": "uint256"
        }
      ],
      "stateMutability": "view",
      "type": "function"
    },
    {
      "inputs": [
        {
          "internalType": "address",
          "name": "spender",
          "type": "address"
        },
        {
          "internalType": "uint256",
          "name": "value",
          "type": "uint256"
        }
      ],
      "name": "approve",
      "outputs": [
        {
          "internalType": "bool",
          "name": "",
          "type": "bool"
        }
      ],
      "stateMutability": "nonpayable",
      "type": "function"
    },
    {
      "inputs": [],
      "name": "asset",
      "outputs": [
        {
          "internalType": "address",
          "name": "",
          "type": "address"
        }
      ],
      "stateMutability": "view",
      "type": "function"
    },
    {
      "inputs": [
        {
          "internalType": "address",
          "name": "account",
          "type": "address"
        }
      ],
      "name": "balanceOf",
      "outputs": [
        {
          "internalType": "uint256",
          "name": "",
          "type": "uint256"
        }
      ],
      "stateMutability": "view",
      "type": "function"
    },
    {
      "inputs": [
        {
          "internalType": "uint256",
          "name": "requestId_",
          "type": "uint256"
        }
      ],
      "name": "cancelWithdraw",
      "outputs": [
        {
          "internalType": "uint256",
          "name": "shares_",
          "type": "uint256"
        }
      ],
      "stateMutability": "nonpayable",
      "type": "function"
    },
    {
      "inputs": [
        {
          "internalType": "uint256",
          "name": "requestId_",
          "type": "uint256"
        },
        {
          "internalType": "address",
          "name": "receiver_",
          "type": "address"
        }
      ],
      "name": "claimWithdraw",
      "outputs": [
        {
          "internalType": "uint256",
          "name": "assets",
          "type": "uint256"
        }
      ],
      "stateMutability": "nonpayable",
      "type": "function"
    },
    {
      "inputs": [
        {
          "internalType": "uint256[]",
          "name": "requestIds_",
          "type": "uint256[]"
        },
        {
          "internalType": "address",
          "name": "receiver_",
          "type": "address"
        }
      ],
      "name": "claimWithdrawBatch",
      "outputs": [
        {
          "internalType": "uint256",
          "name": "totalAssets_",
          "type": "uint256"
        }
      ],
      "stateMutability": "nonpayable",
      "type": "function"
    },
    {
      "inputs": [
        {
          "internalType": "uint256",
          "name": "shares",
          "type": "uint256"
        }
      ],
      "name": "convertToAssets",
      "outputs": [
        {
          "internalType": "uint256",
          "name": "",
          "type": "uint256"
        }
      ],
      "stateMutability": "view",
      "type": "function"
    },
    {
      "inputs": [
        {
          "internalType": "uint256",
          "name": "assets",
          "type": "uint256"
        }
      ],
      "name": "convertToShares",
      "outputs": [
        {
          "internalType": "uint256",
          "name": "",
          "type": "uint256"
        }
      ],
      "stateMutability": "view",
      "type": "function"
    },
    {
      "inputs": [],
      "name": "cooldownDuration",
      "outputs": [
        {
          "internalType": "uint256",
          "name": "",
          "type": "uint256"
        }
      ],
      "stateMutability": "view",
      "type": "function"
    },
    {
      "inputs": [],
      "name": "cooldownEnabled",
      "outputs": [
        {
          "internalType": "bool",
          "name": "",
          "type": "bool"
        }
      ],
      "stateMutability": "view",
      "type": "function"
    },
    {
      "inputs": [],
      "name": "decimals",
      "outputs": [
        {
          "internalType": "uint8",
          "name": "",
          "type": "uint8"
        }
      ],
      "stateMutability": "view",
      "type": "function"
    },
    {
      "inputs": [
        {
          "internalType": "uint256",
          "name": "assets_",
          "type": "uint256"
        },
        {
          "internalType": "address",
          "name": "receiver_",
          "type": "address"
        }
      ],
      "name": "deposit",
      "outputs": [
        {
          "internalType": "uint256",
          "name": "",
          "type": "uint256"
        }
      ],
      "stateMutability": "nonpayable",
      "type": "function"
    },
    {
      "inputs": [
        {
          "internalType": "address",
          "name": "account_",
          "type": "address"
        }
      ],
      "name": "getActiveRequestIds",
      "outputs": [
        {
          "internalType": "uint256[]",
          "name": "",
          "type": "uint256[]"
        }
      ],
      "stateMutability": "view",
      "type": "function"
    },
    {
      "inputs": [
        {
          "internalType": "address",
          "name": "account_",
          "type": "address"
        }
      ],
      "name": "getClaimableRequests",
      "outputs": [
        {
          "internalType": "uint256[]",
          "name": "requestIds_",
          "type": "uint256[]"
        },
        {
          "internalType": "uint256[]",
          "name": "assets_",
          "type": "uint256[]"
        }
      ],
      "stateMutability": "view",
      "type": "function"
    },
    {
      "inputs": [
        {
          "internalType": "address",
          "name": "account_",
          "type": "address"
        }
      ],
      "name": "getPendingRequests",
      "outputs": [
        {
          "internalType": "uint256[]",
          "name": "requestIds_",
          "type": "uint256[]"
        },
        {
          "internalType": "uint256[]",
          "name": "assets_",
          "type": "uint256[]"
        },
        {
          "internalType": "uint256[]",
          "name": "claimableAt_",
          "type": "uint256[]"
        }
      ],
      "stateMutability": "view",
      "type": "function"
    },
    {
      "inputs": [
        {
          "internalType": "uint256",
          "name": "requestId_",
          "type": "uint256"
        }
      ],
      "name": "getRequestDetails",
      "outputs": [
        {
          "components": [
            {
              "internalType": "address",
              "name": "owner",
              "type": "address"
            },
            {
              "internalType": "uint256",
              "name": "assets",
              "type": "uint256"
            },
            {
              "internalType": "uint256",
              "name": "claimableAt",
              "type": "uint256"
            }
          ],
          "internalType": "struct IStakingVault.CooldownRequest",
          "name": "",
          "type": "tuple"
        }
      ],
      "stateMutability": "view",
      "type": "function"
    },
    {
      "inputs": [
        {
          "internalType": "address",
          "name": "asset_",
          "type": "address"
        },
        {
          "internalType": "string",
          "name": "name_",
          "type": "string"
        },
        {
          "internalType": "string",
          "name": "symbol_",
          "type": "string"
        },
        {
          "internalType": "address",
          "name": "owner_",
          "type": "address"
        }
      ],
      "name": "initialize",
      "outputs": [],
      "stateMutability": "nonpayable",
      "type": "function"
    },
    {
      "inputs": [
        {
          "internalType": "address",
          "name": "account_",
          "type": "address"
        }
      ],
      "name": "instantWithdrawWhitelist",
      "outputs": [
        {
          "internalType": "bool",
          "name": "",
          "type": "bool"
        }
      ],
      "stateMutability": "view",
      "type": "function"
    },
    {
      "inputs": [
        {
          "internalType": "address",
          "name": "",
          "type": "address"
        }
      ],
      "name": "maxDeposit",
      "outputs": [
        {
          "internalType": "uint256",
          "name": "",
          "type": "uint256"
        }
      ],
      "stateMutability": "view",
      "type": "function"
    },
    {
      "inputs": [
        {
          "internalType": "address",
          "name": "",
          "type": "address"
        }
      ],
      "name": "maxMint",
      "outputs": [
        {
          "internalType": "uint256",
          "name": "",
          "type": "uint256"
        }
      ],
      "stateMutability": "view",
      "type": "function"
    },
    {
      "inputs": [
        {
          "internalType": "address",
          "name": "owner",
          "type": "address"
        }
      ],
      "name": "maxRedeem",
      "outputs": [
        {
          "internalType": "uint256",
          "name": "",
          "type": "uint256"
        }
      ],
      "stateMutability": "view",
      "type": "function"
    },
    {
      "inputs": [
        {
          "internalType": "address",
          "name": "owner",
          "type": "address"
        }
      ],
      "name": "maxWithdraw",
      "outputs": [
        {
          "internalType": "uint256",
          "name": "",
          "type": "uint256"
        }
      ],
      "stateMutability": "view",
      "type": "function"
    },
    {
      "inputs": [
        {
          "internalType": "uint256",
          "name": "shares_",
          "type": "uint256"
        },
        {
          "internalType": "address",
          "name": "receiver_",
          "type": "address"
        }
      ],
      "name": "mint",
      "outputs": [
        {
          "internalType": "uint256",
          "name": "",
          "type": "uint256"
        }
      ],
      "stateMutability": "nonpayable",
      "type": "function"
    },
    {
      "inputs": [],
      "name": "name",
      "outputs": [
        {
          "internalType": "string",
          "name": "",
          "type": "string"
        }
      ],
      "stateMutability": "view",
      "type": "function"
    },
    {
      "inputs": [],
      "name": "nextRequestId",
      "outputs": [
        {
          "internalType": "uint256",
          "name": "",
          "type": "uint256"
        }
      ],
      "stateMutability": "view",
      "type": "function"
    },
    {
      "inputs": [],
      "name": "owner",
      "outputs": [
        {
          "internalType": "address",
          "name": "",
          "type": "address"
        }
      ],
      "stateMutability": "view",
      "type": "function"
    },
    {
      "inputs": [],
      "name": "pendingOwner",
      "outputs": [
        {
          "internalType": "address",
          "name": "",
          "type": "address"
        }
      ],
      "stateMutability": "view",
      "type": "function"
    },
    {
      "inputs": [
        {
          "internalType": "uint256",
          "name": "assets",
          "type": "uint256"
        }
      ],
      "name": "previewDeposit",
      "outputs": [
        {
          "internalType": "uint256",
          "name": "",
          "type": "uint256"
        }
      ],
      "stateMutability": "view",
      "type": "function"
    },
    {
      "inputs": [
        {
          "internalType": "uint256",
          "name": "shares",
          "type": "uint256"
        }
      ],
      "name": "previewMint",
      "outputs": [
        {
          "internalType": "uint256",
          "name": "",
          "type": "uint256"
        }
      ],
      "stateMutability": "view",
      "type": "function"
    },
    {
      "inputs": [
        {
          "internalType": "uint256",
          "name": "shares",
          "type": "uint256"
        }
      ],
      "name": "previewRedeem",
      "outputs": [
        {
          "internalType": "uint256",
          "name": "",
          "type": "uint256"
        }
      ],
      "stateMutability": "view",
      "type": "function"
    },
    {
      "inputs": [
        {
          "internalType": "uint256",
          "name": "assets",
          "type": "uint256"
        }
      ],
      "name": "previewWithdraw",
      "outputs": [
        {
          "internalType": "uint256",
          "name": "",
          "type": "uint256"
        }
      ],
      "stateMutability": "view",
      "type": "function"
    },
    {
      "inputs": [
        {
          "internalType": "uint256",
          "name": "shares_",
          "type": "uint256"
        },
        {
          "internalType": "address",
          "name": "receiver_",
          "type": "address"
        },
        {
          "internalType": "address",
          "name": "owner_",
          "type": "address"
        }
      ],
      "name": "redeem",
      "outputs": [
        {
          "internalType": "uint256",
          "name": "",
          "type": "uint256"
        }
      ],
      "stateMutability": "nonpayable",
      "type": "function"
    },
    {
      "inputs": [],
      "name": "renounceOwnership",
      "outputs": [],
      "stateMutability": "nonpayable",
      "type": "function"
    },
    {
      "inputs": [
        {
          "internalType": "uint256",
          "name": "shares_",
          "type": "uint256"
        },
        {
          "internalType": "address",
          "name": "owner_",
          "type": "address"
        }
      ],
      "name": "requestRedeem",
      "outputs": [
        {
          "internalType": "uint256",
          "name": "requestId",
          "type": "uint256"
        },
        {
          "internalType": "uint256",
          "name": "assets",
          "type": "uint256"
        }
      ],
      "stateMutability": "nonpayable",
      "type": "function"
    },
    {
      "inputs": [
        {
          "internalType": "uint256",
          "name": "assets_",
          "type": "uint256"
        },
        {
          "internalType": "address",
          "name": "owner_",
          "type": "address"
        }
      ],
      "name": "requestWithdraw",
      "outputs": [
        {
          "internalType": "uint256",
          "name": "requestId",
          "type": "uint256"
        },
        {
          "internalType": "uint256",
          "name": "shares",
          "type": "uint256"
        }
      ],
      "stateMutability": "nonpayable",
      "type": "function"
    },
    {
      "inputs": [],
      "name": "symbol",
      "outputs": [
        {
          "internalType": "string",
          "name": "",
          "type": "string"
        }
      ],
      "stateMutability": "view",
      "type": "function"
    },
    {
      "inputs": [],
      "name": "totalAssets",
      "outputs": [
        {
          "internalType": "uint256",
          "name": "",
          "type": "uint256"
        }
      ],
      "stateMutability": "view",
      "type": "function"
    },
    {
      "inputs": [],
      "name": "totalAssetsInCooldown",
      "outputs": [
        {
          "internalType": "uint256",
          "name": "",
          "type": "uint256"
        }
      ],
      "stateMutability": "view",
      "type": "function"
    },
    {
      "inputs": [],
      "name": "totalSupply",
      "outputs": [
        {
          "internalType": "uint256",
          "name": "",
          "type": "uint256"
        }
      ],
      "stateMutability": "view",
      "type": "function"
    },
    {
      "inputs": [
        {
          "internalType": "address",
          "name": "to",
          "type": "address"
        },
        {
          "internalType": "uint256",
          "name": "value",
          "type": "uint256"
        }
      ],
      "name": "transfer",
      "outputs": [
        {
          "internalType": "bool",
          "name": "",
          "type": "bool"
        }
      ],
      "stateMutability": "nonpayable",
      "type": "function"
    },
    {
      "inputs": [
        {
          "internalType": "address",
          "name": "from",
          "type": "address"
        },
        {
          "internalType": "address",
          "name": "to",
          "type": "address"
        },
        {
          "internalType": "uint256",
          "name": "value",
          "type": "uint256"
        }
      ],
      "name": "transferFrom",
      "outputs": [
        {
          "internalType": "bool",
          "name": "",
          "type": "bool"
        }
      ],
      "stateMutability": "nonpayable",
      "type": "function"
    },
    {
      "inputs": [
        {
          "internalType": "address",
          "name": "newOwner",
          "type": "address"
        }
      ],
      "name": "transferOwnership",
      "outputs": [],
      "stateMutability": "nonpayable",
      "type": "function"
    },
    {
      "inputs": [
        {
          "internalType": "uint256",
          "name": "duration_",
          "type": "uint256"
        }
      ],
      "name": "updateCooldownDuration",
      "outputs": [],
      "stateMutability": "nonpayable",
      "type": "function"
    },
    {
      "inputs": [
        {
          "internalType": "bool",
          "name": "enabled_",
          "type": "bool"
        }
      ],
      "name": "updateCooldownEnabled",
      "outputs": [],
      "stateMutability": "nonpayable",
      "type": "function"
    },
    {
      "inputs": [
        {
          "internalType": "address",
          "name": "account_",
          "type": "address"
        },
        {
          "internalType": "bool",
          "name": "status_",
          "type": "bool"
        }
      ],
      "name": "updateInstantWithdrawWhitelist",
      "outputs": [],
      "stateMutability": "nonpayable",
      "type": "function"
    },
    {
      "inputs": [
        {
          "internalType": "address",
          "name": "vaultRewards_",
          "type": "address"
        }
      ],
      "name": "updateVaultRewards",
      "outputs": [],
      "stateMutability": "nonpayable",
      "type": "function"
    },
    {
      "inputs": [
        {
          "internalType": "address",
          "name": "distributor_",
          "type": "address"
        }
      ],
      "name": "updateYieldDistributor",
      "outputs": [],
      "stateMutability": "nonpayable",
      "type": "function"
    },
    {
      "inputs": [],
      "name": "vaultRewards",
      "outputs": [
        {
          "internalType": "address",
          "name": "",
          "type": "address"
        }
      ],
      "stateMutability": "view",
      "type": "function"
    },
    {
      "inputs": [
        {
          "internalType": "uint256",
          "name": "assets_",
          "type": "uint256"
        },
        {
          "internalType": "address",
          "name": "receiver_",
          "type": "address"
        },
        {
          "internalType": "address",
          "name": "owner_",
          "type": "address"
        }
      ],
      "name": "withdraw",
      "outputs": [
        {
          "internalType": "uint256",
          "name": "",
          "type": "uint256"
        }
      ],
      "stateMutability": "nonpayable",
      "type": "function"
    },
    {
      "inputs": [],
      "name": "yieldDistributor",
      "outputs": [
        {
          "internalType": "address",
          "name": "",
          "type": "address"
        }
      ],
      "stateMutability": "view",
      "type": "function"
    }
  ],
  "transactionHash": "0xb8c4a4d6a1b38d71c7bdba32c0e76cb9289a4fcb0042dc4eb6c27acecc0c9e30",
  "args": [],
  "numDeployments": 1,
  "solcInputHash": "0506567e0c2fedf45fd3ce2a56eefd6b",
  "bytecode": "0x6080604052348015600e575f5ffd5b5060156019565b60c9565b7ff0c57e16840df040f15088dc2f81fe391c3923bec73e23a9662efc9c229c6a00805468010000000000000000900460ff161560685760405163f92ee8a960e01b815260040160405180910390fd5b80546001600160401b039081161460c65780546001600160401b0319166001600160401b0390811782556040519081527fc7f505b2f371ae2175ee4913f4499e1f2633a7b5936321eed1cdaeb6115181d29060200160405180910390a15b50565b613237806100d65f395ff3fe608060405234801561000f575f5ffd5b506004361061034d575f3560e01c80638be34038116101c9578063c6e6f592116100fe578063df2f6bb11161009e578063f05bfa7b11610079578063f05bfa7b146106af578063f05ca034146106d1578063f2fde38b146106e4578063f34d4c63146106f7575f5ffd5b8063df2f6bb114610694578063e30c3978146106a7578063ef8b30f714610601575f5ffd5b8063ce96cb77116100d9578063ce96cb7714610648578063d7b02c4b1461065b578063d905777e1461066e578063dd62ed3e14610681575f5ffd5b8063c6e6f59214610601578063c7786a5014610614578063ccc143b814610635575f5ffd5b8063a9059cbb11610169578063b460af9411610144578063b460af94146105c8578063b708ae50146105db578063ba087652146105ee578063c63d75b6146104ad575f5ffd5b8063a9059cbb1461059a578063a985ceef146105ad578063b3d7f6b9146105b5575f5ffd5b806394bf804d116101a457806394bf804d1461056457806395d89b41146105775780639f01f7ba1461057f578063a38c2c3d14610592575f5ffd5b80638be34038146105365780638da5cb5b146105495780638fa2d22814610551575f5ffd5b8063352693151161029f5780636d1fee011161023f578063715018a61161021a578063715018a61461051657806379ba50971461051e5780638429d51f1461052657806387493f2f1461052e575f5ffd5b80636d1fee01146104e65780636e553f65146104f057806370a0823114610503575f5ffd5b80634cdad5061161027a5780634cdad506146103965780635faab043146104c1578063613d25bb146104cb5780636a84a985146104de575f5ffd5b8063352693151461048557806338d52e0f1461048d578063402d267d146104ad575f5ffd5b8063107703ab1161030a5780631e9049cf116102e55780631e9049cf1461042e578063214e38d61461043857806323b872dd14610458578063313ce5671461046b575f5ffd5b8063107703ab146103df57806318160ddd146104075780631c37830c1461041b575f5ffd5b806301e1d1141461035157806306fdde031461036c57806307a2c6531461038157806307a2d13a14610396578063095ea7b3146103a95780630a28a477146103cc575b5f5ffd5b610359610735565b6040519081526020015b60405180910390f35b6103746107d9565b6040516103639190612a7c565b61039461038f366004612ab1565b610899565b005b6103596103a4366004612ab1565b61093c565b6103bc6103b7366004612ade565b61094d565b6040519015158152602001610363565b6103596103da366004612ab1565b610964565b6103f26103ed366004612b06565b610970565b60408051928352602083019190915201610363565b5f5160206131e25f395f51905f5254610359565b610394610429366004612b3f565b610998565b61035962278d0081565b61044b610446366004612b67565b610a3c565b6040516103639190612bba565b6103bc610466366004612bcc565b610a69565b610473610a8e565b60405160ff9091168152602001610363565b610359610ad0565b610495610ae2565b6040516001600160a01b039091168152602001610363565b6103596104bb366004612b67565b505f1990565b6103596201518081565b6103946104d9366004612ca3565b610b16565b610359610c92565b61035962093a8081565b6103596104fe366004612b06565b610ca4565b610359610511366004612b67565b610cc9565b610394610cef565b610394610d02565b610495610d4a565b610359610d65565b610359610544366004612d26565b610d77565b610495610dcb565b61039461055f366004612b67565b610df3565b610359610572366004612b06565b610e66565b610374610e81565b61035961058d366004612ab1565b610ebf565b610495611010565b6103bc6105a8366004612ade565b611028565b6103bc611035565b6103596105c3366004612ab1565b61104a565b6103596105d6366004612da3565b611056565b6103596105e9366004612b06565b6110a2565b6103596105fc366004612da3565b6110b5565b61035961060f366004612ab1565b6110f7565b610627610622366004612b67565b611102565b604051610363929190612dd3565b6103f2610643366004612b06565b611287565b610359610656366004612b67565b61129b565b610394610669366004612b67565b6112a8565b61035961067c366004612b67565b611315565b61035961068f366004612df7565b61131f565b6103bc6106a2366004612b67565b611368565b610495611395565b6106c26106bd366004612b67565b6113bd565b60405161036393929190612e1f565b6103946106df366004612e61565b6115b2565b6103946106f2366004612b67565b61161f565b61070a610705366004612ab1565b6116a4565b6040805182516001600160a01b03168152602080840151908201529181015190820152606001610363565b5f5f61073f611718565b90505f61074a610ae2565b6040516370a0823160e01b81523060048201526001600160a01b0391909116906370a0823190602401602060405180830381865afa15801561078e573d5f5f3e3d5ffd5b505050506040513d601f19601f820116820180604052508101906107b29190612e7a565b60048301549091508082116107c7575f6107d1565b6107d18183612ea5565b935050505090565b7f52c63247e1f47db19d5ce0460030c497f067ca4cebf71ba98eeadabe20bace0380546060915f5160206131c25f395f51905f529161081790612eb8565b80601f016020809104026020016040519081016040528092919081815260200182805461084390612eb8565b801561088e5780601f106108655761010080835404028352916020019161088e565b820191905f5260205f20905b81548152906001019060200180831161087157829003601f168201915b505050505091505090565b6108a1611779565b620151808110806108b4575062278d0081115b156108ec57604051632ed81da160e01b81526004810182905262015180602482015262278d0060448201526064015b60405180910390fd5b5f6108f5611718565b600281015460408051918252602082018590529192507f8f6ceadd6e9845ce194f7cd50e5a1ef4aec5b40c31652db44ea043bbbf27b92b910160405180910390a160020155565b5f610947825f6117ab565b92915050565b5f3361095a8185856117ef565b5060019392505050565b5f610947826001611801565b5f5f61097a61183c565b6109848484611871565b909250905061099161189a565b9250929050565b6109a0611779565b6001600160a01b0382166109c75760405163d92e233d60e01b815260040160405180910390fd5b5f6109d0611718565b6001600160a01b0384165f81815260068301602052604090819020805486151560ff1990911617905551919250907fea453964d1ed5c30fcc4e0065c0703205b656d4ed8df6badadd5641c880765a590610a2f90851515815260200190565b60405180910390a2505050565b6060610947610a49611718565b6001600160a01b0384165f908152600891909101602052604090206118c4565b5f33610a768582856118d0565b610a81858585611921565b60019150505b9392505050565b5f807f0773e532dfede91f04b12a73d3d2acd361424f41f76b4fb79f090161e36b4e0090505f8154610aca9190600160a01b900460ff16612ef0565b91505090565b5f610ad9611718565b60020154905090565b5f807f0773e532dfede91f04b12a73d3d2acd361424f41f76b4fb79f090161e36b4e005b546001600160a01b031692915050565b5f610b1f61197e565b805490915060ff600160401b82041615906001600160401b03165f81158015610b455750825b90505f826001600160401b03166001148015610b605750303b155b905081158015610b6e575080155b15610b8c5760405163f92ee8a960e01b815260040160405180910390fd5b845467ffffffffffffffff191660011785558315610bb657845460ff60401b1916600160401b1785555b6001600160a01b038916610bdd5760405163d92e233d60e01b815260040160405180910390fd5b6001600160a01b038616610c045760405163d92e233d60e01b815260040160405180910390fd5b610c0d896119a6565b610c1788886119b7565b610c20866119cd565b5f610c29611718565b62093a806002820155600301805460ff19166001179055508315610c8757845460ff60401b19168555604051600181527fc7f505b2f371ae2175ee4913f4499e1f2633a7b5936321eed1cdaeb6115181d29060200160405180910390a15b505050505050505050565b5f610c9b611718565b60050154905090565b5f610cad61183c565b610cb56119de565b610cbf8383611a87565b905061094761189a565b6001600160a01b03165f9081525f5160206131c25f395f51905f52602052604090205490565b610cf7611779565b610d005f611aaa565b565b3380610d0c611395565b6001600160a01b031614610d3e5760405163118cdaa760e01b81526001600160a01b03821660048201526024016108e3565b610d4781611aaa565b50565b5f610d53611718565b600101546001600160a01b0316919050565b5f610d6e611718565b60040154905090565b5f610d8061183c565b825f5b81811015610dc157610dad868683818110610da057610da0612f09565b9050602002013585611ae2565b610db79084612f1d565b9250600101610d83565b5050610a8761189a565b5f807f9016d09d72d40fdae2fd8ceac6b6234c7706214fd39c1cd1e609a0528c199300610b06565b610dfb611779565b5f610e04611718565b60018101546040519192506001600160a01b03808516929116907fd17fd6c2dd730d188323e59f585fc05d728ef4a029db3cffede6779d2c6fb7be905f90a360010180546001600160a01b0319166001600160a01b0392909216919091179055565b5f610e6f61183c565b610e776119de565b610cbf8383611c93565b7f52c63247e1f47db19d5ce0460030c497f067ca4cebf71ba98eeadabe20bace0480546060915f5160206131c25f395f51905f529161081790612eb8565b5f610ec861183c565b610ed06119de565b5f610ed9611718565b5f848152600782016020526040812060018101549293509190819003610f15576040516364b4f07960e11b8152600481018690526024016108e3565b81546001600160a01b0316338114610f405760405163517907dd60e01b815260040160405180910390fd5b6001600160a01b0381165f9081526008850160205260409020610f639087611cae565b50610f6d826110f7565b945081846004015f828254610f829190612ea5565b90915550505f868152600785016020526040812080546001600160a01b03191681556001810182905560020155610fb98186611cb9565b604080518381526020810187905287916001600160a01b038416917f8a6803caa183ccb5fc1996809a7790f6b60d61f2bc403317748b627fd9937dc7910160405180910390a35050505061100b61189a565b919050565b5f611019611718565b546001600160a01b0316919050565b5f3361095a818585611921565b5f61103e611718565b6003015460ff16919050565b5f6109478260016117ab565b5f61105f61183c565b61106882611ced565b611085576040516398c35e9f60e01b815260040160405180910390fd5b61108d6119de565b611098848484611d2d565b9050610a8761189a565b5f6110ab61183c565b610cbf8383611ae2565b5f6110be61183c565b6110c782611ced565b6110e4576040516398c35e9f60e01b815260040160405180910390fd5b6110ec6119de565b611098848484611d83565b5f610947825f611801565b6060805f61110e611718565b6001600160a01b0385165f908152600882016020526040812091925090611134906118c4565b8051909150806001600160401b0381111561115157611151612c06565b60405190808252806020026020018201604052801561117a578160200160208202803683370190505b509450806001600160401b0381111561119557611195612c06565b6040519080825280602002602001820160405280156111be578160200160208202803683370190505b5093505f5f5b82811015611277575f856007015f8684815181106111e4576111e4612f09565b602002602001015181526020019081526020015f2090508060020154421061126e5784828151811061121857611218612f09565b602002602001015188848151811061123257611232612f09565b602002602001018181525050806001015487848151811061125557611255612f09565b60209081029190910101528261126a81612f30565b9350505b506001016111c4565b5080865280855250505050915091565b5f5f61129161183c565b6109848484611dd0565b5f6109476103a483611315565b6112b0611779565b5f6112b9611718565b80546040519192506001600160a01b03808516929116907feb35f0f0a95d2801f2d360efbbf9ee54c1eb3a1801fa152bc4d4cf9ee10a0890905f90a380546001600160a01b0319166001600160a01b0392909216919091179055565b5f61094782610cc9565b6001600160a01b039182165f9081527f52c63247e1f47db19d5ce0460030c497f067ca4cebf71ba98eeadabe20bace016020908152604080832093909416825291909152205490565b5f611371611718565b6001600160a01b039092165f90815260069290920160205250604090205460ff1690565b5f807f237e158222e3e6968b72b9db0d8043aacf074ad9f650f0d1606b4d82ee432c00610b06565b60608060605f6113cb611718565b6001600160a01b0386165f9081526008820160205260408120919250906113f1906118c4565b8051909150806001600160401b0381111561140e5761140e612c06565b604051908082528060200260200182016040528015611437578160200160208202803683370190505b509550806001600160401b0381111561145257611452612c06565b60405190808252806020026020018201604052801561147b578160200160208202803683370190505b509450806001600160401b0381111561149657611496612c06565b6040519080825280602002602001820160405280156114bf578160200160208202803683370190505b5093505f5f5b8281101561159d575f856007015f8684815181106114e5576114e5612f09565b602002602001015181526020019081526020015f2090505f81600201549050804210156115935785838151811061151e5761151e612f09565b60200260200101518a858151811061153857611538612f09565b602002602001018181525050816001015489858151811061155b5761155b612f09565b6020026020010181815250508088858151811061157a5761157a612f09565b60209081029190910101528361158f81612f30565b9450505b50506001016114c5565b50808752808652808552505050509193909250565b6115ba611779565b5f6115c3611718565b60038101546040805160ff9092161515825284151560208301529192507f166d9f924637aaef1818762071526936fd8768f14f982c72772024a986c44b49910160405180910390a1600301805460ff1916911515919091179055565b611627611779565b7f237e158222e3e6968b72b9db0d8043aacf074ad9f650f0d1606b4d82ee432c0080546001600160a01b0319166001600160a01b038316908117825561166b610dcb565b6001600160a01b03167f38d16b8cac22d99fc7c124b9cd0de2d3fa1faef420bfe791d8c362d765e2270060405160405180910390a35050565b6116ce60405180606001604052805f6001600160a01b031681526020015f81526020015f81525090565b6116d6611718565b5f9283526007016020908152604092839020835160608101855281546001600160a01b0316815260018201549281019290925260020154928101929092525090565b5f8060ff1961174860017f239aec11b67bfa6336c434851354a7930afca2ab823c567d401ac0e82bfda3de612ea5565b60405160200161175a91815260200190565b60408051601f1981840301815291905280516020909101201692915050565b33611782610dcb565b6001600160a01b031614610d005760405163118cdaa760e01b81523360048201526024016108e3565b5f610a876117b7610735565b6117c2906001612f1d565b6117cd5f600a61302b565b5f5160206131e25f395f51905f52546117e69190612f1d565b85919085611df0565b6117fc8383836001611e32565b505050565b5f610a8761181082600a61302b565b5f5160206131e25f395f51905f52546118299190612f1d565b611831610735565b6117e6906001612f1d565b611844611f16565b610d0060017f9b779b17422d0df92223018b32b4d1fa46e071723d6817e2486d003becc55f005b90611f56565b5f5f61187b6119de565b6118848461093c565b9050611891818585611f5d565b91509250929050565b610d005f7f9b779b17422d0df92223018b32b4d1fa46e071723d6817e2486d003becc55f0061186b565b60605f610a87836120e7565b5f6118db848461131f565b90505f1981101561191b578181101561190d57828183604051637dc7a0d960e11b81526004016108e393929190613039565b61191b84848484035f611e32565b50505050565b6001600160a01b03831661194a57604051634b637e8f60e11b81525f60048201526024016108e3565b6001600160a01b0382166119735760405163ec442f0560e01b81525f60048201526024016108e3565b6117fc838383612140565b5f807ff0c57e16840df040f15088dc2f81fe391c3923bec73e23a9662efc9c229c6a00610947565b6119ae612235565b610d478161225a565b6119bf612235565b6119c982826122dd565b5050565b6119d5612235565b610d478161232d565b5f6119e7611718565b80549091506001600160a01b031615801590611a1657505f611a145f5160206131e25f395f51905f525490565b115b15610d47578054604080516313bba42960e11b815290516001600160a01b039092169163277748529160048082019260209290919082900301815f875af1158015611a63573d5f5f3e3d5ffd5b505050506040513d601f19601f820116820180604052508101906119c99190612e7a565b5f5f195f611a94856110f7565b9050611aa23385878461235e565b949350505050565b7f237e158222e3e6968b72b9db0d8043aacf074ad9f650f0d1606b4d82ee432c0080546001600160a01b03191681556119c9826123d7565b5f6001600160a01b038216611b0a5760405163d92e233d60e01b815260040160405180910390fd5b611b126119de565b5f611b1b611718565b5f858152600782016020526040812060018101549450919250839003611b57576040516364b4f07960e11b8152600481018690526024016108e3565b8060020154421015611b8c5760028101546040516345b3cca760e01b81526108e3918791600401918252602082015260400190565b80546001600160a01b0316338114611bb75760405163517907dd60e01b815260040160405180910390fd5b6001600160a01b0381165f9081526008840160205260409020611bda9087611cae565b505f868152600784016020526040812080546001600160a01b031916815560018101829055600201819055600484018054869290611c19908490612ea5565b90915550611c3c90508585611c2c610ae2565b6001600160a01b03169190612447565b85856001600160a01b0316826001600160a01b03167fb4317ae2386e712514c7723055d29e3f5b96ebd3f972f1ef3bbcdcf4a8ce40c087604051611c8291815260200190565b60405180910390a450505092915050565b5f5f195f611ca08561104a565b9050611aa23385838861235e565b5f610a87838361247c565b6001600160a01b038216611ce25760405163ec442f0560e01b81525f60048201526024016108e3565b6119c95f8383612140565b5f5f611cf7611718565b600381015490915060ff161580610a8757506001600160a01b0383165f90815260068201602052604090205460ff169392505050565b5f5f611d388361129b565b905080851115611d6157828582604051633fa733bb60e21b81526004016108e393929190613039565b5f611d6b86610964565b9050611d7a338686898561255f565b95945050505050565b5f5f611d8e83611315565b905080851115611db757828582604051632e52afbb60e21b81526004016108e393929190613039565b5f611dc18661093c565b9050611d7a338686848a61255f565b5f5f611dda6119de565b611de384610964565b9050611891848285611f5d565b5f611e1d611dfd83612606565b8015611e1857505f8480611e1357611e1361305a565b868809115b151590565b611e28868686612632565b611d7a9190612f1d565b5f5160206131c25f395f51905f526001600160a01b038516611e695760405163e602df0560e01b81525f60048201526024016108e3565b6001600160a01b038416611e9257604051634a1406b160e11b81525f60048201526024016108e3565b6001600160a01b038086165f90815260018301602090815260408083209388168352929052208390558115611f0f57836001600160a01b0316856001600160a01b03167f8c5be1e5ebec7d5bd14f71427d1e84f3dd0314c0f7b2291e5b200ac8c7c3b92585604051611f0691815260200190565b60405180910390a35b5050505050565b7f9b779b17422d0df92223018b32b4d1fa46e071723d6817e2486d003becc55f005c15610d0057604051633ee5aeb560e01b815260040160405180910390fd5b80825d5050565b5f831580611f69575082155b15611f8757604051631f2a200560e01b815260040160405180910390fd5b5f611f90611718565b600381015490915060ff16611fb85760405163a72af7f760e01b815260040160405180910390fd5b336001600160a01b03841614611fd357611fd38333866118d0565b84816004015f828254611fe69190612f1d565b90915550611ff6905083856126e2565b5f4282600201546120079190612f1d565b6005830180549192505f61201a83612f30565b90915550604080516060810182526001600160a01b0387811680835260208084018c81528486018881525f88815260078b018452878120965187546001600160a01b031916961695909517865590516001860155516002909401939093558152600886019091522090935061208f9084612716565b50604080518681526020810188905290810182905283906001600160a01b038616907f1f0d204a59639d21245dbaa239dfc9a6227aa86cb614bdda19843c52d155fcfa9060600160405180910390a350509392505050565b6060815f0180548060200260200160405190810160405280929190818152602001828054801561213457602002820191905f5260205f20905b815481526020019060010190808311612120575b50505050509050919050565b5f612149611718565b600101546001600160a01b03169050801561222a576001600160a01b038416156121c45760405163632447c960e01b81526001600160a01b03858116600483015282169063632447c9906024015f604051808303815f87803b1580156121ad575f5ffd5b505af11580156121bf573d5f5f3e3d5ffd5b505050505b6001600160a01b0383161561222a5760405163632447c960e01b81526001600160a01b03848116600483015282169063632447c9906024015f604051808303815f87803b158015612213575f5ffd5b505af1158015612225573d5f5f3e3d5ffd5b505050505b61191b848484612721565b61223d612839565b610d0057604051631afcd79f60e31b815260040160405180910390fd5b612262612235565b7f0773e532dfede91f04b12a73d3d2acd361424f41f76b4fb79f090161e36b4e005f8061228e84612852565b915091508161229e5760126122a0565b805b83546001600160a81b031916600160a01b60ff92909216919091026001600160a01b031916176001600160a01b0394909416939093179091555050565b6122e5612235565b5f5160206131c25f395f51905f527f52c63247e1f47db19d5ce0460030c497f067ca4cebf71ba98eeadabe20bace0361231e84826130b2565b506004810161191b83826130b2565b612335612235565b6001600160a01b038116610d3e57604051631e4fbdf760e01b81525f60048201526024016108e3565b612371612369610ae2565b8530856128dd565b61237b8382611cb9565b826001600160a01b0316846001600160a01b03167fdcbc1c05240f31ff3ad067ef1ee35ce4997762752e3a095284754544f4c709d784846040516123c9929190918252602082015260400190565b60405180910390a350505050565b7f9016d09d72d40fdae2fd8ceac6b6234c7706214fd39c1cd1e609a0528c19930080546001600160a01b031981166001600160a01b03848116918217845560405192169182907f8be0079c531659141344cd1fd0a4f28419497f9722a3daafe3b4186f6b6457e0905f90a3505050565b6124548383836001612913565b6117fc57604051635274afe760e01b81526001600160a01b03841660048201526024016108e3565b5f8181526001830160205260408120548015612556575f61249e600183612ea5565b85549091505f906124b190600190612ea5565b9050808214612510575f865f0182815481106124cf576124cf612f09565b905f5260205f200154905080875f0184815481106124ef576124ef612f09565b5f918252602080832090910192909255918252600188019052604090208390555b85548690806125215761252161316c565b600190038181905f5260205f20015f90559055856001015f8681526020019081526020015f205f905560019350505050610947565b5f915050610947565b826001600160a01b0316856001600160a01b031614612583576125838386836118d0565b61258d83826126e2565b61259f612598610ae2565b8584612447565b826001600160a01b0316846001600160a01b0316866001600160a01b03167ffbde797d201c681b91056529119e0b02407c7bb96a4a2c75c01fc9667232c8db85856040516125f7929190918252602082015260400190565b60405180910390a45050505050565b5f600282600381111561261b5761261b613180565b6126259190613194565b60ff166001149050919050565b5f5f5f61263f8686612975565b91509150815f03612663578381816126595761265961305a565b0492505050610a87565b81841161267a5761267a6003851502601118612991565b5f848688095f868103871696879004966002600389028118808a02820302808a02820302808a02820302808a02820302808a02820302808a02909103029181900381900460010185841190960395909502919093039390930492909217029150509392505050565b6001600160a01b03821661270b57604051634b637e8f60e11b81525f60048201526024016108e3565b6119c9825f83612140565b5f610a8783836129a2565b5f5160206131c25f395f51905f526001600160a01b03841661275b5781816002015f8282546127509190612f1d565b909155506127b89050565b6001600160a01b0384165f908152602082905260409020548281101561279a5784818460405163391434e360e21b81526004016108e393929190613039565b6001600160a01b0385165f9081526020839052604090209083900390555b6001600160a01b0383166127d65760028101805483900390556127f4565b6001600160a01b0383165f9081526020829052604090208054830190555b826001600160a01b0316846001600160a01b03167fddf252ad1be2c89b69c2b068fc378daa952ba7f163c4a11628f55a4df523b3ef846040516123c991815260200190565b5f61284261197e565b54600160401b900460ff16919050565b5f5f5f61285e60405190565b6040805160048152602481019091526020810180516001600160e01b031663313ce56760e01b1790529091505f9081906128999087906129ee565b50915091506128a783604052565b8180156128b5575060203d10155b80156128c2575060ff8111155b6128cd575f5f6128d1565b6001815b94509450505050915091565b6128eb848484846001612a0f565b61191b57604051635274afe760e01b81526001600160a01b03851660048201526024016108e3565b60405163a9059cbb60e01b5f8181526001600160a01b038616600452602485905291602083604481808b5af1925060015f5114831661296957838315161561295d573d5f823e3d81fd5b5f873b113d1516831692505b60405250949350505050565b5f805f1983850993909202808410938190039390930393915050565b634e487b715f52806020526024601cfd5b5f8181526001830160205260408120546129e757508154600181810184555f848152602080822090930184905584548482528286019093526040902091909155610947565b505f610947565b5f5f5f60405f855160208701885afa92505f51915060205190509250925092565b6040516323b872dd60e01b5f8181526001600160a01b038781166004528616602452604485905291602083606481808c5af1925060015f51148316612a6b578383151615612a5f573d5f823e3d81fd5b5f883b113d1516831692505b604052505f60605295945050505050565b602081525f82518060208401528060208501604085015e5f604082850101526040601f19601f83011684010191505092915050565b5f60208284031215612ac1575f5ffd5b5035919050565b80356001600160a01b038116811461100b575f5ffd5b5f5f60408385031215612aef575f5ffd5b612af883612ac8565b946020939093013593505050565b5f5f60408385031215612b17575f5ffd5b82359150612b2760208401612ac8565b90509250929050565b8035801515811461100b575f5ffd5b5f5f60408385031215612b50575f5ffd5b612b5983612ac8565b9150612b2760208401612b30565b5f60208284031215612b77575f5ffd5b610a8782612ac8565b5f8151808452602084019350602083015f5b82811015612bb0578151865260209586019590910190600101612b92565b5093949350505050565b602081525f610a876020830184612b80565b5f5f5f60608486031215612bde575f5ffd5b612be784612ac8565b9250612bf560208501612ac8565b929592945050506040919091013590565b634e487b7160e01b5f52604160045260245ffd5b5f82601f830112612c29575f5ffd5b81356001600160401b03811115612c4257612c42612c06565b604051601f8201601f19908116603f011681016001600160401b0381118282101715612c7057612c70612c06565b604052818152838201602001851015612c87575f5ffd5b816020850160208301375f918101602001919091529392505050565b5f5f5f5f60808587031215612cb6575f5ffd5b612cbf85612ac8565b935060208501356001600160401b03811115612cd9575f5ffd5b612ce587828801612c1a565b93505060408501356001600160401b03811115612d00575f5ffd5b612d0c87828801612c1a565b925050612d1b60608601612ac8565b905092959194509250565b5f5f5f60408486031215612d38575f5ffd5b83356001600160401b03811115612d4d575f5ffd5b8401601f81018613612d5d575f5ffd5b80356001600160401b03811115612d72575f5ffd5b8660208260051b8401011115612d86575f5ffd5b602091820194509250612d9a908501612ac8565b90509250925092565b5f5f5f60608486031215612db5575f5ffd5b83359250612dc560208501612ac8565b9150612d9a60408501612ac8565b604081525f612de56040830185612b80565b8281036020840152611d7a8185612b80565b5f5f60408385031215612e08575f5ffd5b612e1183612ac8565b9150612b2760208401612ac8565b606081525f612e316060830186612b80565b8281036020840152612e438186612b80565b90508281036040840152612e578185612b80565b9695505050505050565b5f60208284031215612e71575f5ffd5b610a8782612b30565b5f60208284031215612e8a575f5ffd5b5051919050565b634e487b7160e01b5f52601160045260245ffd5b8181038181111561094757610947612e91565b600181811c90821680612ecc57607f821691505b602082108103612eea57634e487b7160e01b5f52602260045260245ffd5b50919050565b60ff818116838216019081111561094757610947612e91565b634e487b7160e01b5f52603260045260245ffd5b8082018082111561094757610947612e91565b5f60018201612f4157612f41612e91565b5060010190565b6001815b6001841115612f8357808504811115612f6757612f67612e91565b6001841615612f7557908102905b60019390931c928002612f4c565b935093915050565b5f82612f9957506001610947565b81612fa557505f610947565b8160018114612fbb5760028114612fc557612fe1565b6001915050610947565b60ff841115612fd657612fd6612e91565b50506001821b610947565b5060208310610133831016604e8410600b8410161715613004575081810a610947565b6130105f198484612f48565b805f190482111561302357613023612e91565b029392505050565b5f610a8760ff841683612f8b565b6001600160a01b039390931683526020830191909152604082015260600190565b634e487b7160e01b5f52601260045260245ffd5b601f8211156117fc57805f5260205f20601f840160051c810160208510156130935750805b601f840160051c820191505b81811015611f0f575f815560010161309f565b81516001600160401b038111156130cb576130cb612c06565b6130df816130d98454612eb8565b8461306e565b6020601f821160018114613111575f83156130fa5750848201515b5f19600385901b1c1916600184901b178455611f0f565b5f84815260208120601f198516915b828110156131405787850151825560209485019460019092019101613120565b508482101561315d57868401515f19600387901b60f8161c191681555b50505050600190811b01905550565b634e487b7160e01b5f52603160045260245ffd5b634e487b7160e01b5f52602160045260245ffd5b5f60ff8316806131b257634e487b7160e01b5f52601260045260245ffd5b8060ff8416069150509291505056fe52c63247e1f47db19d5ce0460030c497f067ca4cebf71ba98eeadabe20bace0052c63247e1f47db19d5ce0460030c497f067ca4cebf71ba98eeadabe20bace02a26469706673582212208d38cc5ba47573617a2d763aeba7e0c13ee5b99d681d06cdb865724862172ca264736f6c634300081e0033",
  "implementation": "0x378B5E71083B3D64E26bCb622748a0D3aBD1a9d3",
  "devdoc": {
    "details": "Implements a cooldown period for withdrawals to prevent sandwich attacks.      Whitelisted addresses can withdraw instantly when cooldown is enabled.      Shares in cooldown do not earn yield - they are burned and assets are locked.",
    "errors": {
      "ERC20InsufficientAllowance(address,uint256,uint256)": [
        {
          "details": "Indicates a failure with the `spender`’s `allowance`. Used in transfers.",
          "params": {
            "allowance": "Amount of tokens a `spender` is allowed to operate with.",
            "needed": "Minimum amount required to perform a transfer.",
            "spender": "Address that may be allowed to operate on tokens without being their owner."
          }
        }
      ],
      "ERC20InsufficientBalance(address,uint256,uint256)": [
        {
          "details": "Indicates an error related to the current `balance` of a `sender`. Used in transfers.",
          "params": {
            "balance": "Current balance for the interacting account.",
            "needed": "Minimum amount required to perform a transfer.",
            "sender": "Address whose tokens are being transferred."
          }
        }
      ],
      "ERC20InvalidApprover(address)": [
        {
          "details": "Indicates a failure with the `approver` of a token to be approved. Used in approvals.",
          "params": {
            "approver": "Address initiating an approval operation."
          }
        }
      ],
      "ERC20InvalidReceiver(address)": [
        {
          "details": "Indicates a failure with the token `receiver`. Used in transfers.",
          "params": {
            "receiver": "Address to which tokens are being transferred."
          }
        }
      ],
      "ERC20InvalidSender(address)": [
        {
          "details": "Indicates a failure with the token `sender`. Used in transfers.",
          "params": {
            "sender": "Address whose tokens are being transferred."
          }
        }
      ],
      "ERC20InvalidSpender(address)": [
        {
          "details": "Indicates a failure with the `spender` to be approved. Used in approvals.",
          "params": {
            "spender": "Address that may be allowed to operate on tokens without being their owner."
          }
        }
      ],
      "ERC4626ExceededMaxDeposit(address,uint256,uint256)": [
        {
          "details": "Attempted to deposit more assets than the max amount for `receiver`."
        }
      ],
      "ERC4626ExceededMaxMint(address,uint256,uint256)": [
        {
          "details": "Attempted to mint more shares than the max amount for `receiver`."
        }
      ],
      "ERC4626ExceededMaxRedeem(address,uint256,uint256)": [
        {
          "details": "Attempted to redeem more shares than the max amount for `receiver`."
        }
      ],
      "ERC4626ExceededMaxWithdraw(address,uint256,uint256)": [
        {
          "details": "Attempted to withdraw more assets than the max amount for `receiver`."
        }
      ],
      "InvalidInitialization()": [
        {
          "details": "The contract is already initialized."
        }
      ],
      "NotInitializing()": [
        {
          "details": "The contract is not initializing."
        }
      ],
      "OwnableInvalidOwner(address)": [
        {
          "details": "The owner is not a valid owner account. (eg. `address(0)`)"
        }
      ],
      "OwnableUnauthorizedAccount(address)": [
        {
          "details": "The caller account is not authorized to perform an operation."
        }
      ],
      "ReentrancyGuardReentrantCall()": [
        {
          "details": "Unauthorized reentrant call."
        }
      ],
      "SafeERC20FailedOperation(address)": [
        {
          "details": "An operation with an ERC-20 token failed."
        }
      ]
    },
    "events": {
      "Approval(address,address,uint256)": {
        "details": "Emitted when the allowance of a `spender` for an `owner` is set by a call to {approve}. `value` is the new allowance."
      },
      "Initialized(uint64)": {
        "details": "Triggered when the contract has been initialized or reinitialized."
      },
      "Transfer(address,address,uint256)": {
        "details": "Emitted when `value` tokens are moved from one account (`from`) to another (`to`). Note that `value` may be zero."
      }
    },
    "kind": "dev",
    "methods": {
      "acceptOwnership()": {
        "details": "The new owner accepts the ownership transfer."
      },
      "allowance(address,address)": {
        "details": "Returns the remaining number of tokens that `spender` will be allowed to spend on behalf of `owner` through {transferFrom}. This is zero by default. This value changes when {approve} or {transferFrom} are called."
      },
      "approve(address,uint256)": {
        "details": "See {IERC20-approve}. NOTE: If `value` is the maximum `uint256`, the allowance is not updated on `transferFrom`. This is semantically equivalent to an infinite approval. Requirements: - `spender` cannot be the zero address."
      },
      "asset()": {
        "details": "Returns the address of the underlying token used for the Vault for accounting, depositing, and withdrawing. - MUST be an ERC-20 token contract. - MUST NOT revert."
      },
      "balanceOf(address)": {
        "details": "Returns the value of tokens owned by `account`."
      },
      "cancelWithdraw(uint256)": {
        "details": "Only the request owner can cancel",
        "params": {
          "requestId_": "The ID of the request to cancel"
        },
        "returns": {
          "shares_": "The amount of shares returned to owner"
        }
      },
      "claimWithdraw(uint256,address)": {
        "params": {
          "receiver_": "The address to receive the assets",
          "requestId_": "The ID of the request to claim"
        },
        "returns": {
          "assets": "The amount of assets claimed"
        }
      },
      "claimWithdrawBatch(uint256[],address)": {
        "params": {
          "receiver_": "The address to receive the assets",
          "requestIds_": "The IDs of the requests to claim"
        },
        "returns": {
          "totalAssets_": "The total amount of assets claimed"
        }
      },
      "constructor": {
        "custom:oz-upgrades-unsafe-allow": "constructor"
      },
      "convertToAssets(uint256)": {
        "details": "Returns the amount of assets that the Vault would exchange for the amount of shares provided, in an ideal scenario where all the conditions are met. - MUST NOT be inclusive of any fees that are charged against assets in the Vault. - MUST NOT show any variations depending on the caller. - MUST NOT reflect slippage or other on-chain conditions, when performing the actual exchange. - MUST NOT revert. NOTE: This calculation MAY NOT reflect the “per-user” price-per-share, and instead should reflect the “average-user’s” price-per-share, meaning what the average user should expect to see when exchanging to and from."
      },
      "convertToShares(uint256)": {
        "details": "Returns the amount of shares that the Vault would exchange for the amount of assets provided, in an ideal scenario where all the conditions are met. - MUST NOT be inclusive of any fees that are charged against assets in the Vault. - MUST NOT show any variations depending on the caller. - MUST NOT reflect slippage or other on-chain conditions, when performing the actual exchange. - MUST NOT revert. NOTE: This calculation MAY NOT reflect the “per-user” price-per-share, and instead should reflect the “average-user’s” price-per-share, meaning what the average user should expect to see when exchanging to and from."
      },
      "cooldownDuration()": {
        "returns": {
          "_0": "The cooldown duration in seconds"
        }
      },
      "cooldownEnabled()": {
        "returns": {
          "_0": "True if cooldown is enabled"
        }
      },
      "decimals()": {
        "details": "Decimals are computed by adding the decimal offset on top of the underlying asset's decimals. This \"original\" value is cached during construction of the vault contract. If this read operation fails (e.g., the asset has not been created yet), a default of 18 is used to represent the underlying asset's decimals. See {IERC20Metadata-decimals}."
      },
      "deposit(uint256,address)": {
        "details": "Pulls pending yield before deposit to ensure accurate share calculation.      Protected against reentrancy.",
        "params": {
          "assets_": "The amount of assets to deposit",
          "receiver_": "The address to receive the vault shares"
        },
        "returns": {
          "_0": "shares The amount of vault shares minted"
        }
      },
      "getActiveRequestIds(address)": {
        "params": {
          "account_": "The account to query"
        },
        "returns": {
          "_0": "Array of active request IDs"
        }
      },
      "getClaimableRequests(address)": {
        "params": {
          "account_": "The account to query"
        },
        "returns": {
          "assets_": "Array of asset amounts for each request",
          "requestIds_": "Array of claimable request IDs"
        }
      },
      "getPendingRequests(address)": {
        "params": {
          "account_": "The account to query"
        },
        "returns": {
          "assets_": "Array of asset amounts for each request",
          "claimableAt_": "Array of claimable timestamps for each request",
          "requestIds_": "Array of pending request IDs"
        }
      },
      "getRequestDetails(uint256)": {
        "params": {
          "requestId_": "The ID of the request"
        },
        "returns": {
          "_0": "The cooldown request details"
        }
      },
      "initialize(address,string,string,address)": {
        "params": {
          "asset_": "The underlying asset",
          "name_": "The name of the vault token",
          "owner_": "The owner of the vault",
          "symbol_": "The symbol of the vault token"
        }
      },
      "instantWithdrawWhitelist(address)": {
        "params": {
          "account_": "The address to check"
        },
        "returns": {
          "_0": "True if whitelisted"
        }
      },
      "maxDeposit(address)": {
        "details": "Returns the maximum amount of the underlying asset that can be deposited into the Vault for the receiver, through a deposit call. - MUST return a limited value if receiver is subject to some deposit limit. - MUST return 2 ** 256 - 1 if there is no limit on the maximum amount of assets that may be deposited. - MUST NOT revert."
      },
      "maxMint(address)": {
        "details": "Returns the maximum amount of the Vault shares that can be minted for the receiver, through a mint call. - MUST return a limited value if receiver is subject to some mint limit. - MUST return 2 ** 256 - 1 if there is no limit on the maximum amount of shares that may be minted. - MUST NOT revert."
      },
      "maxRedeem(address)": {
        "details": "Returns the maximum amount of Vault shares that can be redeemed from the owner balance in the Vault, through a redeem call. - MUST return a limited value if owner is subject to some withdrawal limit or timelock. - MUST return balanceOf(owner) if owner is not subject to any withdrawal limit or timelock. - MUST NOT revert."
      },
      "maxWithdraw(address)": {
        "details": "Returns the maximum amount of the underlying asset that can be withdrawn from the owner balance in the Vault, through a withdraw call. - MUST return a limited value if owner is subject to some withdrawal limit or timelock. - MUST NOT revert."
      },
      "mint(uint256,address)": {
        "details": "Pulls pending yield before mint to ensure accurate asset calculation.      Protected against reentrancy.",
        "params": {
          "receiver_": "The address to receive the vault shares",
          "shares_": "The exact amount of vault shares to mint"
        },
        "returns": {
          "_0": "assets The amount of assets deposited"
        }
      },
      "name()": {
        "details": "Returns the name of the token."
      },
      "nextRequestId()": {
        "returns": {
          "_0": "The next request ID that will be assigned"
        }
      },
      "owner()": {
        "details": "Returns the address of the current owner."
      },
      "pendingOwner()": {
        "details": "Returns the address of the pending owner."
      },
      "previewDeposit(uint256)": {
        "details": "Allows an on-chain or off-chain user to simulate the effects of their deposit at the current block, given current on-chain conditions. - MUST return as close to and no more than the exact amount of Vault shares that would be minted in a deposit   call in the same transaction. I.e. deposit should return the same or more shares as previewDeposit if called   in the same transaction. - MUST NOT account for deposit limits like those returned from maxDeposit and should always act as though the   deposit would be accepted, regardless if the user has enough tokens approved, etc. - MUST be inclusive of deposit fees. Integrators should be aware of the existence of deposit fees. - MUST NOT revert. NOTE: any unfavorable discrepancy between convertToShares and previewDeposit SHOULD be considered slippage in share price or some other type of condition, meaning the depositor will lose assets by depositing."
      },
      "previewMint(uint256)": {
        "details": "Allows an on-chain or off-chain user to simulate the effects of their mint at the current block, given current on-chain conditions. - MUST return as close to and no fewer than the exact amount of assets that would be deposited in a mint call   in the same transaction. I.e. mint should return the same or fewer assets as previewMint if called in the   same transaction. - MUST NOT account for mint limits like those returned from maxMint and should always act as though the mint   would be accepted, regardless if the user has enough tokens approved, etc. - MUST be inclusive of deposit fees. Integrators should be aware of the existence of deposit fees. - MUST NOT revert. NOTE: any unfavorable discrepancy between convertToAssets and previewMint SHOULD be considered slippage in share price or some other type of condition, meaning the depositor will lose assets by minting."
      },
      "previewRedeem(uint256)": {
        "details": "Allows an on-chain or off-chain user to simulate the effects of their redemption at the current block, given current on-chain conditions. - MUST return as close to and no more than the exact amount of assets that would be withdrawn in a redeem call   in the same transaction. I.e. redeem should return the same or more assets as previewRedeem if called in the   same transaction. - MUST NOT account for redemption limits like those returned from maxRedeem and should always act as though the   redemption would be accepted, regardless if the user has enough shares, etc. - MUST be inclusive of withdrawal fees. Integrators should be aware of the existence of withdrawal fees. - MUST NOT revert. NOTE: any unfavorable discrepancy between convertToAssets and previewRedeem SHOULD be considered slippage in share price or some other type of condition, meaning the depositor will lose assets by redeeming."
      },
      "previewWithdraw(uint256)": {
        "details": "Allows an on-chain or off-chain user to simulate the effects of their withdrawal at the current block, given current on-chain conditions. - MUST return as close to and no fewer than the exact amount of Vault shares that would be burned in a withdraw   call in the same transaction. I.e. withdraw should return the same or fewer shares as previewWithdraw if   called   in the same transaction. - MUST NOT account for withdrawal limits like those returned from maxWithdraw and should always act as though   the withdrawal would be accepted, regardless if the user has enough shares, etc. - MUST be inclusive of withdrawal fees. Integrators should be aware of the existence of withdrawal fees. - MUST NOT revert. NOTE: any unfavorable discrepancy between convertToShares and previewWithdraw SHOULD be considered slippage in share price or some other type of condition, meaning the depositor will lose assets by depositing."
      },
      "redeem(uint256,address,address)": {
        "details": "Only available when cooldown is disabled or owner is whitelisted.      Pulls pending yield before redeem. Protected against reentrancy.",
        "params": {
          "owner_": "The owner of the shares (requires allowance if not msg.sender)",
          "receiver_": "The address to receive the assets",
          "shares_": "The amount of vault shares to redeem"
        },
        "returns": {
          "_0": "assets The amount of assets withdrawn"
        }
      },
      "renounceOwnership()": {
        "details": "Leaves the contract without owner. It will not be possible to call `onlyOwner` functions. Can only be called by the current owner. NOTE: Renouncing ownership will leave the contract without an owner, thereby disabling any functionality that is only available to the owner."
      },
      "requestRedeem(uint256,address)": {
        "params": {
          "owner_": "The owner of the shares (requires allowance if not msg.sender)",
          "shares_": "The amount of shares to redeem"
        },
        "returns": {
          "assets": "The amount of assets that will be claimable",
          "requestId": "The globally unique ID of the cooldown request"
        }
      },
      "requestWithdraw(uint256,address)": {
        "params": {
          "assets_": "The amount of assets to withdraw",
          "owner_": "The owner of the shares (requires allowance if not msg.sender)"
        },
        "returns": {
          "requestId": "The globally unique ID of the cooldown request",
          "shares": "The amount of shares that were burned"
        }
      },
      "symbol()": {
        "details": "Returns the symbol of the token, usually a shorter version of the name."
      },
      "totalAssets()": {
        "details": "Assets in cooldown are locked and do not earn yield, so they are excluded      from the total used for share price calculation.",
        "returns": {
          "_0": "Total assets earning yield in the vault"
        }
      },
      "totalAssetsInCooldown()": {
        "returns": {
          "_0": "The total assets in cooldown"
        }
      },
      "totalSupply()": {
        "details": "Returns the value of tokens in existence."
      },
      "transfer(address,uint256)": {
        "details": "See {IERC20-transfer}. Requirements: - `to` cannot be the zero address. - the caller must have a balance of at least `value`."
      },
      "transferFrom(address,address,uint256)": {
        "details": "See {IERC20-transferFrom}. Skips emitting an {Approval} event indicating an allowance update. This is not required by the ERC. See {xref-ERC20-_approve-address-address-uint256-bool-}[_approve]. NOTE: Does not update the allowance if the current allowance is the maximum `uint256`. Requirements: - `from` and `to` cannot be the zero address. - `from` must have a balance of at least `value`. - the caller must have allowance for ``from``'s tokens of at least `value`."
      },
      "transferOwnership(address)": {
        "details": "Starts the ownership transfer of the contract to a new account. Replaces the pending transfer if there is one. Can only be called by the current owner. Setting `newOwner` to the zero address is allowed; this can be used to cancel an initiated ownership transfer."
      },
      "updateCooldownDuration(uint256)": {
        "details": "Affects new requests only, not existing ones.      Must be between MIN_COOLDOWN_DURATION and MAX_COOLDOWN_DURATION.",
        "params": {
          "duration_": "The new cooldown duration"
        }
      },
      "updateCooldownEnabled(bool)": {
        "details": "When disabled, all users can use instant withdraw/redeem",
        "params": {
          "enabled_": "The new cooldown enabled status"
        }
      },
      "updateInstantWithdrawWhitelist(address,bool)": {
        "details": "Whitelisted addresses can bypass cooldown even when enabled",
        "params": {
          "account_": "The account to update",
          "status_": "The new whitelist status"
        }
      },
      "updateVaultRewards(address)": {
        "details": "Can be set to address(0) to disable rewards tracking",
        "params": {
          "vaultRewards_": "The new vault rewards address"
        }
      },
      "updateYieldDistributor(address)": {
        "details": "Can be set to address(0) to disable yield distribution",
        "params": {
          "distributor_": "The new yield distributor address"
        }
      },
      "vaultRewards()": {
        "returns": {
          "_0": "The vault rewards address"
        }
      },
      "withdraw(uint256,address,address)": {
        "details": "Only available when cooldown is disabled or owner is whitelisted.      Pulls pending yield before withdraw. Protected against reentrancy.",
        "params": {
          "assets_": "The exact amount of assets to withdraw",
          "owner_": "The owner of the shares (requires allowance if not msg.sender)",
          "receiver_": "The address to receive the assets"
        },
        "returns": {
          "_0": "shares The amount of vault shares burned"
        }
      },
      "yieldDistributor()": {
        "returns": {
          "_0": "The yield distributor address"
        }
      }
    },
    "title": "StakingVault",
    "version": 1
  },
  "userdoc": {
    "kind": "user",
    "methods": {
      "cancelWithdraw(uint256)": {
        "notice": "Cancel a pending withdrawal request"
      },
      "claimWithdraw(uint256,address)": {
        "notice": "Claim a matured withdrawal request"
      },
      "claimWithdrawBatch(uint256[],address)": {
        "notice": "Claim multiple matured withdrawal requests"
      },
      "cooldownDuration()": {
        "notice": "Get the cooldown duration"
      },
      "cooldownEnabled()": {
        "notice": "Check if cooldown is enabled"
      },
      "deposit(uint256,address)": {
        "notice": "Deposit assets and receive vault shares"
      },
      "getActiveRequestIds(address)": {
        "notice": "Get all active request IDs for an account"
      },
      "getClaimableRequests(address)": {
        "notice": "Get all claimable requests for an account"
      },
      "getPendingRequests(address)": {
        "notice": "Get all pending (not yet matured) requests for an account"
      },
      "getRequestDetails(uint256)": {
        "notice": "Get details of a specific cooldown request"
      },
      "initialize(address,string,string,address)": {
        "notice": "Initialize the staking vault"
      },
      "instantWithdrawWhitelist(address)": {
        "notice": "Check if an address is whitelisted for instant withdraw"
      },
      "mint(uint256,address)": {
        "notice": "Mint exact amount of vault shares by depositing assets"
      },
      "nextRequestId()": {
        "notice": "Get the next global request ID"
      },
      "redeem(uint256,address,address)": {
        "notice": "Redeem vault shares for assets (instant withdrawal)"
      },
      "requestRedeem(uint256,address)": {
        "notice": "Request a redemption with cooldown (specify shares to burn)"
      },
      "requestWithdraw(uint256,address)": {
        "notice": "Request a withdrawal with cooldown (specify assets to receive)"
      },
      "totalAssets()": {
        "notice": "Get total assets available for yield (excludes assets in cooldown)"
      },
      "totalAssetsInCooldown()": {
        "notice": "Get total assets currently in cooldown"
      },
      "updateCooldownDuration(uint256)": {
        "notice": "Update the cooldown duration for withdrawals"
      },
      "updateCooldownEnabled(bool)": {
        "notice": "Enable or disable cooldown for non-whitelisted users"
      },
      "updateInstantWithdrawWhitelist(address,bool)": {
        "notice": "Add or remove an address from the instant withdraw whitelist"
      },
      "updateVaultRewards(address)": {
        "notice": "Update the vault rewards contract address"
      },
      "updateYieldDistributor(address)": {
        "notice": "Update the yield distributor address"
      },
      "vaultRewards()": {
        "notice": "Get the vault rewards contract address"
      },
      "withdraw(uint256,address,address)": {
        "notice": "Withdraw exact amount of assets (instant withdrawal)"
      },
      "yieldDistributor()": {
        "notice": "Get the yield distributor address"
      }
    },
    "notice": "ERC4626 yield-bearing vault with cooldown withdrawal mechanism",
    "version": 1
  },
  "storageLayout": {
    "storage": [],
    "types": null
  }
}