{
  "address": "0x2bC90279d0f776c915A235791F8B1180B1ecBF86",
  "abi": [
    {
      "inputs": [
        {
          "internalType": "address",
          "name": "peggedToken_",
          "type": "address"
        },
        {
          "internalType": "address",
          "name": "admin_",
          "type": "address"
        }
      ],
      "stateMutability": "nonpayable",
      "type": "constructor"
    },
    {
      "inputs": [],
      "name": "AccessControlBadConfirmation",
      "type": "error"
    },
    {
      "inputs": [
        {
          "internalType": "uint48",
          "name": "schedule",
          "type": "uint48"
        }
      ],
      "name": "AccessControlEnforcedDefaultAdminDelay",
      "type": "error"
    },
    {
      "inputs": [],
      "name": "AccessControlEnforcedDefaultAdminRules",
      "type": "error"
    },
    {
      "inputs": [
        {
          "internalType": "address",
          "name": "defaultAdmin",
          "type": "address"
        }
      ],
      "name": "AccessControlInvalidDefaultAdmin",
      "type": "error"
    },
    {
      "inputs": [
        {
          "internalType": "address",
          "name": "account",
          "type": "address"
        },
        {
          "internalType": "bytes32",
          "name": "neededRole",
          "type": "bytes32"
        }
      ],
      "name": "AccessControlUnauthorizedAccount",
      "type": "error"
    },
    {
      "inputs": [],
      "name": "AddToListFailed",
      "type": "error"
    },
    {
      "inputs": [],
      "name": "AddressIsZero",
      "type": "error"
    },
    {
      "inputs": [],
      "name": "AssetMismatch",
      "type": "error"
    },
    {
      "inputs": [],
      "name": "BalanceShouldBeZero",
      "type": "error"
    },
    {
      "inputs": [
        {
          "internalType": "address",
          "name": "caller",
          "type": "address"
        }
      ],
      "name": "CallerIsNotAuthorized",
      "type": "error"
    },
    {
      "inputs": [
        {
          "internalType": "address",
          "name": "",
          "type": "address"
        }
      ],
      "name": "DepositIsPaused",
      "type": "error"
    },
    {
      "inputs": [],
      "name": "InvalidPriceTolerance",
      "type": "error"
    },
    {
      "inputs": [],
      "name": "InvalidStalePeriod",
      "type": "error"
    },
    {
      "inputs": [
        {
          "internalType": "uint8",
          "name": "",
          "type": "uint8"
        }
      ],
      "name": "InvalidTokenDecimals",
      "type": "error"
    },
    {
      "inputs": [],
      "name": "PeggedTokenMismatch",
      "type": "error"
    },
    {
      "inputs": [
        {
          "internalType": "uint256",
          "name": "latestPrice",
          "type": "uint256"
        },
        {
          "internalType": "uint256",
          "name": "priceUpperBound",
          "type": "uint256"
        },
        {
          "internalType": "uint256",
          "name": "priceLowerBound",
          "type": "uint256"
        }
      ],
      "name": "PriceExceedTolerance",
      "type": "error"
    },
    {
      "inputs": [],
      "name": "ReentrancyGuardReentrantCall",
      "type": "error"
    },
    {
      "inputs": [],
      "name": "RemoveFromListFailed",
      "type": "error"
    },
    {
      "inputs": [],
      "name": "ReservedToken",
      "type": "error"
    },
    {
      "inputs": [
        {
          "internalType": "uint8",
          "name": "bits",
          "type": "uint8"
        },
        {
          "internalType": "uint256",
          "name": "value",
          "type": "uint256"
        }
      ],
      "name": "SafeCastOverflowedUintDowncast",
      "type": "error"
    },
    {
      "inputs": [
        {
          "internalType": "address",
          "name": "token",
          "type": "address"
        }
      ],
      "name": "SafeERC20FailedOperation",
      "type": "error"
    },
    {
      "inputs": [],
      "name": "StalePrice",
      "type": "error"
    },
    {
      "inputs": [
        {
          "internalType": "address",
          "name": "",
          "type": "address"
        }
      ],
      "name": "UnsupportedToken",
      "type": "error"
    },
    {
      "inputs": [
        {
          "internalType": "address",
          "name": "",
          "type": "address"
        }
      ],
      "name": "WithdrawIsPaused",
      "type": "error"
    },
    {
      "anonymous": false,
      "inputs": [
        {
          "indexed": true,
          "internalType": "address",
          "name": "token",
          "type": "address"
        },
        {
          "indexed": true,
          "internalType": "address",
          "name": "vault",
          "type": "address"
        },
        {
          "indexed": true,
          "internalType": "address",
          "name": "oracle",
          "type": "address"
        }
      ],
      "name": "AddedToWhitelist",
      "type": "event"
    },
    {
      "anonymous": false,
      "inputs": [],
      "name": "DefaultAdminDelayChangeCanceled",
      "type": "event"
    },
    {
      "anonymous": false,
      "inputs": [
        {
          "indexed": false,
          "internalType": "uint48",
          "name": "newDelay",
          "type": "uint48"
        },
        {
          "indexed": false,
          "internalType": "uint48",
          "name": "effectSchedule",
          "type": "uint48"
        }
      ],
      "name": "DefaultAdminDelayChangeScheduled",
      "type": "event"
    },
    {
      "anonymous": false,
      "inputs": [],
      "name": "DefaultAdminTransferCanceled",
      "type": "event"
    },
    {
      "anonymous": false,
      "inputs": [
        {
          "indexed": true,
          "internalType": "address",
          "name": "newAdmin",
          "type": "address"
        },
        {
          "indexed": false,
          "internalType": "uint48",
          "name": "acceptSchedule",
          "type": "uint48"
        }
      ],
      "name": "DefaultAdminTransferScheduled",
      "type": "event"
    },
    {
      "anonymous": false,
      "inputs": [
        {
          "indexed": true,
          "internalType": "address",
          "name": "token",
          "type": "address"
        },
        {
          "indexed": false,
          "internalType": "uint256",
          "name": "amount",
          "type": "uint256"
        }
      ],
      "name": "ExcessWithdrawn",
      "type": "event"
    },
    {
      "anonymous": false,
      "inputs": [
        {
          "indexed": true,
          "internalType": "address",
          "name": "newTreasury",
          "type": "address"
        }
      ],
      "name": "Migrated",
      "type": "event"
    },
    {
      "anonymous": false,
      "inputs": [
        {
          "indexed": true,
          "internalType": "address",
          "name": "token",
          "type": "address"
        }
      ],
      "name": "RemovedFromWhitelist",
      "type": "event"
    },
    {
      "anonymous": false,
      "inputs": [
        {
          "indexed": true,
          "internalType": "bytes32",
          "name": "role",
          "type": "bytes32"
        },
        {
          "indexed": true,
          "internalType": "bytes32",
          "name": "previousAdminRole",
          "type": "bytes32"
        },
        {
          "indexed": true,
          "internalType": "bytes32",
          "name": "newAdminRole",
          "type": "bytes32"
        }
      ],
      "name": "RoleAdminChanged",
      "type": "event"
    },
    {
      "anonymous": false,
      "inputs": [
        {
          "indexed": true,
          "internalType": "bytes32",
          "name": "role",
          "type": "bytes32"
        },
        {
          "indexed": true,
          "internalType": "address",
          "name": "account",
          "type": "address"
        },
        {
          "indexed": true,
          "internalType": "address",
          "name": "sender",
          "type": "address"
        }
      ],
      "name": "RoleGranted",
      "type": "event"
    },
    {
      "anonymous": false,
      "inputs": [
        {
          "indexed": true,
          "internalType": "bytes32",
          "name": "role",
          "type": "bytes32"
        },
        {
          "indexed": true,
          "internalType": "address",
          "name": "account",
          "type": "address"
        },
        {
          "indexed": true,
          "internalType": "address",
          "name": "sender",
          "type": "address"
        }
      ],
      "name": "RoleRevoked",
      "type": "event"
    },
    {
      "anonymous": false,
      "inputs": [
        {
          "indexed": true,
          "internalType": "address",
          "name": "tokenIn",
          "type": "address"
        },
        {
          "indexed": true,
          "internalType": "address",
          "name": "tokenOut",
          "type": "address"
        },
        {
          "indexed": false,
          "internalType": "uint256",
          "name": "amountIn",
          "type": "uint256"
        }
      ],
      "name": "Swapped",
      "type": "event"
    },
    {
      "anonymous": false,
      "inputs": [
        {
          "indexed": true,
          "internalType": "address",
          "name": "token",
          "type": "address"
        },
        {
          "indexed": false,
          "internalType": "uint256",
          "name": "amount",
          "type": "uint256"
        },
        {
          "indexed": true,
          "internalType": "address",
          "name": "receiver",
          "type": "address"
        }
      ],
      "name": "Swept",
      "type": "event"
    },
    {
      "anonymous": false,
      "inputs": [
        {
          "indexed": true,
          "internalType": "address",
          "name": "token",
          "type": "address"
        },
        {
          "indexed": false,
          "internalType": "bool",
          "name": "newValue",
          "type": "bool"
        }
      ],
      "name": "ToggledDepositActive",
      "type": "event"
    },
    {
      "anonymous": false,
      "inputs": [
        {
          "indexed": true,
          "internalType": "address",
          "name": "token",
          "type": "address"
        },
        {
          "indexed": false,
          "internalType": "bool",
          "name": "newValue",
          "type": "bool"
        }
      ],
      "name": "ToggledWithdrawActive",
      "type": "event"
    },
    {
      "anonymous": false,
      "inputs": [
        {
          "indexed": true,
          "internalType": "address",
          "name": "token",
          "type": "address"
        },
        {
          "indexed": true,
          "internalType": "address",
          "name": "oracle",
          "type": "address"
        },
        {
          "indexed": false,
          "internalType": "uint256",
          "name": "stalePeriod",
          "type": "uint256"
        }
      ],
      "name": "UpdatedOracle",
      "type": "event"
    },
    {
      "anonymous": false,
      "inputs": [
        {
          "indexed": false,
          "internalType": "uint256",
          "name": "previousPriceTolerance",
          "type": "uint256"
        },
        {
          "indexed": false,
          "internalType": "uint256",
          "name": "newPriceTolerance",
          "type": "uint256"
        }
      ],
      "name": "UpdatedPriceTolerance",
      "type": "event"
    },
    {
      "anonymous": false,
      "inputs": [
        {
          "indexed": true,
          "internalType": "address",
          "name": "previousSwapper",
          "type": "address"
        },
        {
          "indexed": true,
          "internalType": "address",
          "name": "newSwapper",
          "type": "address"
        }
      ],
      "name": "UpdatedSwapper",
      "type": "event"
    },
    {
      "anonymous": false,
      "inputs": [
        {
          "indexed": false,
          "internalType": "address[]",
          "name": "tokens",
          "type": "address[]"
        },
        {
          "indexed": true,
          "internalType": "address",
          "name": "receiver",
          "type": "address"
        }
      ],
      "name": "WithdrawnAll",
      "type": "event"
    },
    {
      "inputs": [],
      "name": "DEFAULT_ADMIN_ROLE",
      "outputs": [
        {
          "internalType": "bytes32",
          "name": "",
          "type": "bytes32"
        }
      ],
      "stateMutability": "view",
      "type": "function"
    },
    {
      "inputs": [],
      "name": "KEEPER_ROLE",
      "outputs": [
        {
          "internalType": "bytes32",
          "name": "",
          "type": "bytes32"
        }
      ],
      "stateMutability": "view",
      "type": "function"
    },
    {
      "inputs": [],
      "name": "MAINTAINER_ROLE",
      "outputs": [
        {
          "internalType": "bytes32",
          "name": "",
          "type": "bytes32"
        }
      ],
      "stateMutability": "view",
      "type": "function"
    },
    {
      "inputs": [],
      "name": "MAX_BPS",
      "outputs": [
        {
          "internalType": "uint256",
          "name": "",
          "type": "uint256"
        }
      ],
      "stateMutability": "view",
      "type": "function"
    },
    {
      "inputs": [],
      "name": "NAME",
      "outputs": [
        {
          "internalType": "string",
          "name": "",
          "type": "string"
        }
      ],
      "stateMutability": "view",
      "type": "function"
    },
    {
      "inputs": [],
      "name": "PEGGED_TOKEN",
      "outputs": [
        {
          "internalType": "contract IPeggedToken",
          "name": "",
          "type": "address"
        }
      ],
      "stateMutability": "view",
      "type": "function"
    },
    {
      "inputs": [],
      "name": "UMM_ROLE",
      "outputs": [
        {
          "internalType": "bytes32",
          "name": "",
          "type": "bytes32"
        }
      ],
      "stateMutability": "view",
      "type": "function"
    },
    {
      "inputs": [],
      "name": "VERSION",
      "outputs": [
        {
          "internalType": "string",
          "name": "",
          "type": "string"
        }
      ],
      "stateMutability": "view",
      "type": "function"
    },
    {
      "inputs": [],
      "name": "acceptDefaultAdminTransfer",
      "outputs": [],
      "stateMutability": "nonpayable",
      "type": "function"
    },
    {
      "inputs": [
        {
          "internalType": "address",
          "name": "token_",
          "type": "address"
        },
        {
          "internalType": "address",
          "name": "vault_",
          "type": "address"
        },
        {
          "internalType": "address",
          "name": "oracle_",
          "type": "address"
        },
        {
          "internalType": "uint256",
          "name": "stalePeriod_",
          "type": "uint256"
        }
      ],
      "name": "addToWhitelist",
      "outputs": [],
      "stateMutability": "nonpayable",
      "type": "function"
    },
    {
      "inputs": [
        {
          "internalType": "address",
          "name": "newAdmin",
          "type": "address"
        }
      ],
      "name": "beginDefaultAdminTransfer",
      "outputs": [],
      "stateMutability": "nonpayable",
      "type": "function"
    },
    {
      "inputs": [],
      "name": "cancelDefaultAdminTransfer",
      "outputs": [],
      "stateMutability": "nonpayable",
      "type": "function"
    },
    {
      "inputs": [
        {
          "internalType": "uint48",
          "name": "newDelay",
          "type": "uint48"
        }
      ],
      "name": "changeDefaultAdminDelay",
      "outputs": [],
      "stateMutability": "nonpayable",
      "type": "function"
    },
    {
      "inputs": [],
      "name": "defaultAdmin",
      "outputs": [
        {
          "internalType": "address",
          "name": "",
          "type": "address"
        }
      ],
      "stateMutability": "view",
      "type": "function"
    },
    {
      "inputs": [],
      "name": "defaultAdminDelay",
      "outputs": [
        {
          "internalType": "uint48",
          "name": "",
          "type": "uint48"
        }
      ],
      "stateMutability": "view",
      "type": "function"
    },
    {
      "inputs": [],
      "name": "defaultAdminDelayIncreaseWait",
      "outputs": [
        {
          "internalType": "uint48",
          "name": "",
          "type": "uint48"
        }
      ],
      "stateMutability": "view",
      "type": "function"
    },
    {
      "inputs": [
        {
          "internalType": "address",
          "name": "token_",
          "type": "address"
        },
        {
          "internalType": "uint256",
          "name": "amount_",
          "type": "uint256"
        }
      ],
      "name": "deposit",
      "outputs": [],
      "stateMutability": "nonpayable",
      "type": "function"
    },
    {
      "inputs": [],
      "name": "gateway",
      "outputs": [
        {
          "internalType": "address",
          "name": "",
          "type": "address"
        }
      ],
      "stateMutability": "view",
      "type": "function"
    },
    {
      "inputs": [
        {
          "internalType": "address",
          "name": "token_",
          "type": "address"
        }
      ],
      "name": "getPrice",
      "outputs": [
        {
          "internalType": "uint256",
          "name": "_latestPrice",
          "type": "uint256"
        },
        {
          "internalType": "uint256",
          "name": "_unitPrice",
          "type": "uint256"
        }
      ],
      "stateMutability": "view",
      "type": "function"
    },
    {
      "inputs": [
        {
          "internalType": "bytes32",
          "name": "role",
          "type": "bytes32"
        }
      ],
      "name": "getRoleAdmin",
      "outputs": [
        {
          "internalType": "bytes32",
          "name": "",
          "type": "bytes32"
        }
      ],
      "stateMutability": "view",
      "type": "function"
    },
    {
      "inputs": [
        {
          "internalType": "bytes32",
          "name": "role",
          "type": "bytes32"
        },
        {
          "internalType": "address",
          "name": "account",
          "type": "address"
        }
      ],
      "name": "grantRole",
      "outputs": [],
      "stateMutability": "nonpayable",
      "type": "function"
    },
    {
      "inputs": [
        {
          "internalType": "address",
          "name": "token_",
          "type": "address"
        },
        {
          "internalType": "address",
          "name": "receiver_",
          "type": "address"
        }
      ],
      "name": "harvest",
      "outputs": [
        {
          "internalType": "uint256",
          "name": "",
          "type": "uint256"
        }
      ],
      "stateMutability": "nonpayable",
      "type": "function"
    },
    {
      "inputs": [
        {
          "internalType": "bytes32",
          "name": "role",
          "type": "bytes32"
        },
        {
          "internalType": "address",
          "name": "account",
          "type": "address"
        }
      ],
      "name": "hasRole",
      "outputs": [
        {
          "internalType": "bool",
          "name": "",
          "type": "bool"
        }
      ],
      "stateMutability": "view",
      "type": "function"
    },
    {
      "inputs": [
        {
          "internalType": "address",
          "name": "token_",
          "type": "address"
        }
      ],
      "name": "isWhitelistedToken",
      "outputs": [
        {
          "internalType": "bool",
          "name": "",
          "type": "bool"
        }
      ],
      "stateMutability": "view",
      "type": "function"
    },
    {
      "inputs": [
        {
          "internalType": "address",
          "name": "newTreasury_",
          "type": "address"
        }
      ],
      "name": "migrate",
      "outputs": [],
      "stateMutability": "nonpayable",
      "type": "function"
    },
    {
      "inputs": [],
      "name": "owner",
      "outputs": [
        {
          "internalType": "address",
          "name": "",
          "type": "address"
        }
      ],
      "stateMutability": "view",
      "type": "function"
    },
    {
      "inputs": [],
      "name": "pendingDefaultAdmin",
      "outputs": [
        {
          "internalType": "address",
          "name": "newAdmin",
          "type": "address"
        },
        {
          "internalType": "uint48",
          "name": "schedule",
          "type": "uint48"
        }
      ],
      "stateMutability": "view",
      "type": "function"
    },
    {
      "inputs": [],
      "name": "pendingDefaultAdminDelay",
      "outputs": [
        {
          "internalType": "uint48",
          "name": "newDelay",
          "type": "uint48"
        },
        {
          "internalType": "uint48",
          "name": "schedule",
          "type": "uint48"
        }
      ],
      "stateMutability": "view",
      "type": "function"
    },
    {
      "inputs": [],
      "name": "priceTolerance",
      "outputs": [
        {
          "internalType": "uint256",
          "name": "",
          "type": "uint256"
        }
      ],
      "stateMutability": "view",
      "type": "function"
    },
    {
      "inputs": [
        {
          "internalType": "address",
          "name": "token_",
          "type": "address"
        },
        {
          "internalType": "uint256",
          "name": "amount_",
          "type": "uint256"
        }
      ],
      "name": "pull",
      "outputs": [],
      "stateMutability": "nonpayable",
      "type": "function"
    },
    {
      "inputs": [
        {
          "internalType": "address",
          "name": "token_",
          "type": "address"
        },
        {
          "internalType": "uint256",
          "name": "amount_",
          "type": "uint256"
        }
      ],
      "name": "push",
      "outputs": [],
      "stateMutability": "nonpayable",
      "type": "function"
    },
    {
      "inputs": [
        {
          "internalType": "address",
          "name": "token_",
          "type": "address"
        }
      ],
      "name": "removeFromWhitelist",
      "outputs": [],
      "stateMutability": "nonpayable",
      "type": "function"
    },
    {
      "inputs": [
        {
          "internalType": "bytes32",
          "name": "role",
          "type": "bytes32"
        },
        {
          "internalType": "address",
          "name": "account",
          "type": "address"
        }
      ],
      "name": "renounceRole",
      "outputs": [],
      "stateMutability": "nonpayable",
      "type": "function"
    },
    {
      "inputs": [],
      "name": "reserve",
      "outputs": [
        {
          "internalType": "uint256",
          "name": "_reserve",
          "type": "uint256"
        }
      ],
      "stateMutability": "view",
      "type": "function"
    },
    {
      "inputs": [
        {
          "internalType": "bytes32",
          "name": "role",
          "type": "bytes32"
        },
        {
          "internalType": "address",
          "name": "account",
          "type": "address"
        }
      ],
      "name": "revokeRole",
      "outputs": [],
      "stateMutability": "nonpayable",
      "type": "function"
    },
    {
      "inputs": [],
      "name": "rollbackDefaultAdminDelay",
      "outputs": [],
      "stateMutability": "nonpayable",
      "type": "function"
    },
    {
      "inputs": [
        {
          "internalType": "bytes4",
          "name": "interfaceId",
          "type": "bytes4"
        }
      ],
      "name": "supportsInterface",
      "outputs": [
        {
          "internalType": "bool",
          "name": "",
          "type": "bool"
        }
      ],
      "stateMutability": "view",
      "type": "function"
    },
    {
      "inputs": [
        {
          "internalType": "address",
          "name": "tokenIn_",
          "type": "address"
        },
        {
          "internalType": "address",
          "name": "tokenOut_",
          "type": "address"
        },
        {
          "internalType": "uint256",
          "name": "amountIn_",
          "type": "uint256"
        },
        {
          "internalType": "uint256",
          "name": "minAmountOut_",
          "type": "uint256"
        }
      ],
      "name": "swap",
      "outputs": [
        {
          "internalType": "uint256",
          "name": "",
          "type": "uint256"
        }
      ],
      "stateMutability": "nonpayable",
      "type": "function"
    },
    {
      "inputs": [],
      "name": "swapper",
      "outputs": [
        {
          "internalType": "address",
          "name": "",
          "type": "address"
        }
      ],
      "stateMutability": "view",
      "type": "function"
    },
    {
      "inputs": [
        {
          "internalType": "address",
          "name": "fromToken_",
          "type": "address"
        },
        {
          "internalType": "address",
          "name": "receiver_",
          "type": "address"
        }
      ],
      "name": "sweep",
      "outputs": [],
      "stateMutability": "nonpayable",
      "type": "function"
    },
    {
      "inputs": [
        {
          "internalType": "address",
          "name": "token_",
          "type": "address"
        }
      ],
      "name": "toggleDepositActive",
      "outputs": [],
      "stateMutability": "nonpayable",
      "type": "function"
    },
    {
      "inputs": [
        {
          "internalType": "address",
          "name": "token_",
          "type": "address"
        }
      ],
      "name": "toggleWithdrawActive",
      "outputs": [],
      "stateMutability": "nonpayable",
      "type": "function"
    },
    {
      "inputs": [
        {
          "internalType": "address",
          "name": "token",
          "type": "address"
        }
      ],
      "name": "tokenConfig",
      "outputs": [
        {
          "internalType": "address",
          "name": "vault",
          "type": "address"
        },
        {
          "internalType": "address",
          "name": "oracle",
          "type": "address"
        },
        {
          "internalType": "uint256",
          "name": "stalePeriod",
          "type": "uint256"
        },
        {
          "internalType": "bool",
          "name": "depositActive",
          "type": "bool"
        },
        {
          "internalType": "bool",
          "name": "withdrawActive",
          "type": "bool"
        },
        {
          "internalType": "uint8",
          "name": "decimals",
          "type": "uint8"
        }
      ],
      "stateMutability": "view",
      "type": "function"
    },
    {
      "inputs": [
        {
          "internalType": "address",
          "name": "token_",
          "type": "address"
        },
        {
          "internalType": "address",
          "name": "oracle_",
          "type": "address"
        },
        {
          "internalType": "uint256",
          "name": "newStalePeriod_",
          "type": "uint256"
        }
      ],
      "name": "updateOracle",
      "outputs": [],
      "stateMutability": "nonpayable",
      "type": "function"
    },
    {
      "inputs": [
        {
          "internalType": "uint256",
          "name": "newPriceTolerance_",
          "type": "uint256"
        }
      ],
      "name": "updatePriceTolerance",
      "outputs": [],
      "stateMutability": "nonpayable",
      "type": "function"
    },
    {
      "inputs": [
        {
          "internalType": "address",
          "name": "swapper_",
          "type": "address"
        }
      ],
      "name": "updateSwapper",
      "outputs": [],
      "stateMutability": "nonpayable",
      "type": "function"
    },
    {
      "inputs": [],
      "name": "whitelistedTokens",
      "outputs": [
        {
          "internalType": "address[]",
          "name": "",
          "type": "address[]"
        }
      ],
      "stateMutability": "view",
      "type": "function"
    },
    {
      "inputs": [
        {
          "internalType": "address",
          "name": "token_",
          "type": "address"
        },
        {
          "internalType": "uint256",
          "name": "amount_",
          "type": "uint256"
        },
        {
          "internalType": "address",
          "name": "tokenReceiver_",
          "type": "address"
        }
      ],
      "name": "withdraw",
      "outputs": [],
      "stateMutability": "nonpayable",
      "type": "function"
    },
    {
      "inputs": [
        {
          "internalType": "address",
          "name": "token_",
          "type": "address"
        }
      ],
      "name": "withdrawable",
      "outputs": [
        {
          "internalType": "uint256",
          "name": "",
          "type": "uint256"
        }
      ],
      "stateMutability": "view",
      "type": "function"
    }
  ],
  "transactionHash": "0x58a37113a42525014fdca66dc8cada343afc0296136ca358683adb68d0130d5e",
  "args": [
    "0xB94724aa74A0296447D13a63A35B050b7F137C6d",
    "0xdf826ff6518e609E4cEE86299d40611C148099d5"
  ],
  "numDeployments": 1,
  "solcInputHash": "7cc6ed228f6fbdc65c13c8b508fad749",
  "bytecode": "0x60a06040526064600455348015610014575f5ffd5b50604051614133380380614133833981016040819052610033916102e2565b6203f480816001600160a01b03811661006557604051636116401160e11b81525f600482015260240160405180910390fd5b600180546001600160d01b0316600160d01b65ffffffffffff85160217905561008e5f826101b1565b5050506001600160a01b0382166100b85760405163867915ab60e01b815260040160405180910390fd5b6001600160a01b0382166080819052604080516395d89b4160e01b815290516395d89b41916004808201925f929091908290030181865afa1580156100ff573d5f5f3e3d5ffd5b505050506040513d5f823e601f3d908101601f191682016040526101269190810190610327565b60405160200161013691906103d7565b604051602081830303815290604052600390816101539190610480565b5061017e7ffc8737ab85eb45125971625a9ebdb75cc78e01d5c1fa80c4c6e5203f47bc4fab336101b1565b506101a97f339759585899103d2ace64958e37e18ccb0504652c81d4a1b8aa80fe2126ab95336101b1565b50505061053a565b5f8261020d575f6101ca6002546001600160a01b031690565b6001600160a01b0316146101f157604051631fe1e13d60e11b815260040160405180910390fd5b600280546001600160a01b0319166001600160a01b0384161790555b6102178383610220565b90505b92915050565b5f828152602081815260408083206001600160a01b038516845290915281205460ff166102c0575f838152602081815260408083206001600160a01b03861684529091529020805460ff191660011790556102783390565b6001600160a01b0316826001600160a01b0316847f2f8788117e7eff1d82e926ec794901d17c78024a50270940304540a733656f0d60405160405180910390a450600161021a565b505f61021a565b80516001600160a01b03811681146102dd575f5ffd5b919050565b5f5f604083850312156102f3575f5ffd5b6102fc836102c7565b915061030a602084016102c7565b90509250929050565b634e487b7160e01b5f52604160045260245ffd5b5f60208284031215610337575f5ffd5b81516001600160401b0381111561034c575f5ffd5b8201601f8101841361035c575f5ffd5b80516001600160401b0381111561037557610375610313565b604051601f8201601f19908116603f011681016001600160401b03811182821017156103a3576103a3610313565b6040528181528282016020018610156103ba575f5ffd5b8160208401602083015e5f91810160200191909152949350505050565b5f82518060208501845e682d547265617375727960b81b920191825250600901919050565b600181811c9082168061041057607f821691505b60208210810361042e57634e487b7160e01b5f52602260045260245ffd5b50919050565b601f82111561047b57805f5260205f20601f840160051c810160208510156104595750805b601f840160051c820191505b81811015610478575f8155600101610465565b50505b505050565b81516001600160401b0381111561049957610499610313565b6104ad816104a784546103fc565b84610434565b6020601f8211600181146104df575f83156104c85750848201515b5f19600385901b1c1916600184901b178455610478565b5f84815260208120601f198516915b8281101561050e57878501518255602094850194600190920191016104ee565b508482101561052b57868401515f19600387901b60f8161c191681555b50505050600190811b01905550565b608051613bb761057c5f395f81816103f3015281816107860152818161096701528181610fce0152818161215401528181612aed0152612b700152613bb75ff3fe608060405234801561000f575f5ffd5b50600436106102b1575f3560e01c8063a1eda53c1161017b578063cefc1429116100e4578063f69516bd1161009e578063fd967f4711610079578063fd967f471461066e578063fe02915614610677578063fe136c4e1461068a578063ffa1ad7414610720575f5ffd5b8063f69516bd14610620578063f874225414610647578063fbdae3d21461065b575f5ffd5b8063cefc1429146105a9578063cf6eefb7146105b1578063d3033c39146105df578063d547741f146105f2578063d602b9fd14610605578063f2d5d56b1461060d575f5ffd5b8063c760af5c11610135578063c760af5c1461054d578063cc8463c814610560578063cd110f1114610568578063cd3293de1461057b578063ce513b6f14610583578063ce5494bb14610596575f5ffd5b8063a1eda53c146104d1578063a217fddf146104f8578063a3f4df7e146104ff578063ab37f48614610514578063b753a98c14610527578063b8dc491b1461053a575f5ffd5b80634e485cf71161021d57806369328dec116101d757806369328dec1461046c57806384ef8ffc1461047f5780638ab1d681146104905780638da5cb5b146104a357806391d14854146104ab57806395ad3af4146104be575f5ffd5b80634e485cf7146103ee57806359011cd1146104155780635e1762a01461041e578063634e93da14610433578063649a5ec71461044657806366cc185714610459575f5ffd5b80632f2ff15d1161026e5780632f2ff15d14610366578063364bc15a1461037957806336568abe1461038d57806341976e09146103a057806347e7ef24146103c857806349aafe82146103db575f5ffd5b806301ffc9a7146102b5578063022d63fb146102dd5780630aa6220b146102f9578063116191b614610303578063248a9ca3146103235780632b3297f914610353575b5f5ffd5b6102c86102c33660046135b5565b610744565b60405190151581526020015b60405180910390f35b620697805b60405165ffffffffffff90911681526020016102d4565b61030161076e565b005b61030b610783565b6040516001600160a01b0390911681526020016102d4565b6103456103313660046135dc565b5f9081526020819052604090206001015490565b6040519081526020016102d4565b60055461030b906001600160a01b031681565b610301610374366004613607565b610809565b6103455f516020613b425f395f51905f5281565b61030161039b366004613607565b610835565b6103b36103ae366004613635565b6108e0565b604080519283526020830191909152016102d4565b6103016103d6366004613650565b61095d565b6103016103e936600461367a565b610b1a565b61030b7f000000000000000000000000000000000000000000000000000000000000000081565b61034560045481565b610426610c1b565b6040516102d491906136b8565b610301610441366004613635565b610c27565b610301610454366004613703565b610c3a565b610345610467366004613728565b610c4d565b61030161047a366004613754565b610fc4565b6002546001600160a01b031661030b565b61030161049e366004613635565b611287565b61030b6113e6565b6102c86104b9366004613607565b6113f9565b6103016104cc366004613635565b611421565b6104d96114ef565b6040805165ffffffffffff9384168152929091166020830152016102d4565b6103455f81565b610507611541565b6040516102d49190613793565b6102c8610522366004613635565b6115cd565b610301610535366004613650565b6115d9565b610301610548366004613728565b611721565b61030161055b3660046135dc565b6118bf565b6102e261193b565b6103016105763660046137c8565b611999565b610345611cf5565b610345610591366004613635565b611f39565b6103016105a4366004613635565b6120b8565b6103016122c7565b6105b9612306565b604080516001600160a01b03909316835265ffffffffffff9091166020830152016102d4565b6103016105ed366004613635565b612327565b610301610600366004613607565b6123c1565b6103016123e9565b61030161061b366004613650565b6123fb565b6103457f0409f54a149f7e9c092b20899db5e0090f5fe0d95cec1f328884d998633a8de881565b6103455f516020613b625f395f51905f5281565b610301610669366004613635565b612497565b61034561271081565b610345610685366004613816565b61256f565b6106e1610698366004613635565b60066020525f908152604090208054600182015460028301546003909301546001600160a01b0392831693919092169160ff808216916101008104821691620100009091041686565b604080516001600160a01b03978816815296909516602087015293850192909252151560608401521515608083015260ff1660a082015260c0016102d4565b610507604051806040016040528060058152602001640312e302e360dc1b81525081565b5f6001600160e01b031982166318a4c3c360e11b148061076857506107688261271d565b92915050565b5f61077881612751565b61078061275b565b50565b5f7f00000000000000000000000000000000000000000000000000000000000000006001600160a01b031663116191b66040518163ffffffff1660e01b8152600401602060405180830381865afa1580156107e0573d5f5f3e3d5ffd5b505050506040513d601f19601f820116820180604052508101906108049190613859565b905090565b8161082757604051631fe1e13d60e11b815260040160405180910390fd5b6108318282612767565b5050565b8115801561085057506002546001600160a01b038281169116145b156108d6575f5f61085f612306565b90925090506001600160a01b038216151580610881575065ffffffffffff8116155b8061089457504265ffffffffffff821610155b156108c1576040516319ca5ebb60e01b815265ffffffffffff821660048201526024015b60405180910390fd5b50506001805465ffffffffffff60a01b191690555b610831828261278b565b6001600160a01b038082165f9081526006602052604081206001015490918291168061092a57604051635f8b555b60e11b81526001600160a01b03851660048201526024016108b8565b6001600160a01b0384165f908152600660205260409020600201546004546109539183916127be565b9250925050915091565b610965612941565b7f00000000000000000000000000000000000000000000000000000000000000006001600160a01b031663116191b66040518163ffffffff1660e01b8152600401602060405180830381865afa1580156109c1573d5f5f3e3d5ffd5b505050506040513d601f19601f820116820180604052508101906109e59190613859565b6001600160a01b0316336001600160a01b031614610a185760405163078a905f60e51b81523360048201526024016108b8565b610a236007836129ae565b610a4b57604051635f8b555b60e11b81526001600160a01b03831660048201526024016108b8565b6001600160a01b0382165f9081526006602052604090206003015460ff16610a91576040516349fc997760e11b81526001600160a01b03831660048201526024016108b8565b6001600160a01b038281165f9081526006602052604090819020549051636e553f6560e01b815260048101849052306024820152911690636e553f65906044016020604051808303815f875af1158015610aed573d5f5f3e3d5ffd5b505050506040513d601f19601f82011682018060405250810190610b119190613874565b506108316129d2565b5f516020613b625f395f51905f52610b3181612751565b610b3c6007856129ae565b610b6457604051635f8b555b60e11b81526001600160a01b03851660048201526024016108b8565b6001600160a01b038316610b8b5760405163867915ab60e01b815260040160405180910390fd5b815f03610bab57604051636fd462b560e01b815260040160405180910390fd5b6001600160a01b038481165f818152600660209081526040918290206001810180546001600160a01b031916958916958617905560020186905590518581527f97617a5525c215c6ce8be06021f0cb489578937e2ce04b9d8d1209d0527db7c5910160405180910390a350505050565b606061080460076129fc565b5f610c3181612751565b61083182612a08565b5f610c4481612751565b61083182612a7a565b5f7f0409f54a149f7e9c092b20899db5e0090f5fe0d95cec1f328884d998633a8de8610c7881612751565b610c80612941565b610c8b6007856129ae565b610cb357604051635f8b555b60e11b81526001600160a01b03851660048201526024016108b8565b6001600160a01b038316610cda5760405163867915ab60e01b815260040160405180910390fd5b5f610ce485612ae9565b9050805f03610cf6575f925050610fb5565b6040516370a0823160e01b81523060048201525f9081906001600160a01b038816906370a0823190602401602060405180830381865afa158015610d3c573d5f5f3e3d5ffd5b505050506040513d601f19601f82011682018060405250810190610d609190613874565b90508015610df0575f610d738285612d02565b9050610d896001600160a01b0389168883612d11565b809250838303610de257876001600160a01b03167f9bdedcc968f2c0682145c20289dfbb3081a39684571116ab45eabfef512e947384604051610dce91815260200190565b60405180910390a282955050505050610fb5565b610dec838561389f565b9350505b6001600160a01b038781165f908152600660205260408082205490516370a0823160e01b815230600482015292169182906307a2d13a9082906370a0823190602401602060405180830381865afa158015610e4d573d5f5f3e3d5ffd5b505050506040513d601f19601f82011682018060405250810190610e719190613874565b6040518263ffffffff1660e01b8152600401610e8f91815260200190565b602060405180830381865afa158015610eaa573d5f5f3e3d5ffd5b505050506040513d601f19601f82011682018060405250810190610ece9190613874565b90508015610f6a575f610ee18683612d02565b604051632d182be560e21b8152600481018290526001600160a01b038b811660248301523060448301529192509084169063b460af94906064016020604051808303815f875af1158015610f37573d5f5f3e3d5ffd5b505050506040513d601f19601f82011682018060405250810190610f5b9190613874565b50610f6681866138b2565b9450505b886001600160a01b03167f9bdedcc968f2c0682145c20289dfbb3081a39684571116ab45eabfef512e947385604051610fa591815260200190565b60405180910390a2509194505050505b610fbd6129d2565b5092915050565b610fcc612941565b7f00000000000000000000000000000000000000000000000000000000000000006001600160a01b031663116191b66040518163ffffffff1660e01b8152600401602060405180830381865afa158015611028573d5f5f3e3d5ffd5b505050506040513d601f19601f8201168201806040525081019061104c9190613859565b6001600160a01b0316336001600160a01b03161461107f5760405163078a905f60e51b81523360048201526024016108b8565b61108a6007846129ae565b6110b257604051635f8b555b60e11b81526001600160a01b03841660048201526024016108b8565b6001600160a01b038084165f90815260066020908152604091829020825160c0810184528154851681526001820154909416918401919091526002810154918301919091526003015460ff8082161515606084015261010082048116151560808401819052620100009092041660a083015261114c57604051631fe3ebef60e21b81526001600160a01b03851660048201526024016108b8565b6040516370a0823160e01b81523060048201525f906001600160a01b038616906370a0823190602401602060405180830381865afa158015611190573d5f5f3e3d5ffd5b505050506040513d601f19601f820116820180604052508101906111b49190613874565b90508381106111d6576111d16001600160a01b0386168486612d11565b611278565b80156111fd576111f06001600160a01b0386168483612d11565b6111fa818561389f565b93505b8151604051632d182be560e21b8152600481018690526001600160a01b0385811660248301523060448301529091169063b460af94906064016020604051808303815f875af1158015611252573d5f5f3e3d5ffd5b505050506040513d601f19601f820116820180604052508101906112769190613874565b505b50506112826129d2565b505050565b5f61129181612751565b61129c600783612d70565b6112b95760405163c24bedff60e01b815260040160405180910390fd5b6001600160a01b038281165f908152600660205260408082205490516370a0823160e01b815230600482015292169182906370a0823190602401602060405180830381865afa15801561130e573d5f5f3e3d5ffd5b505050506040513d601f19601f820116820180604052508101906113329190613874565b11156113515760405163780dbb9b60e01b815260040160405180910390fd5b6001600160a01b038084165f81815260066020526040812054611375931690612d84565b6001600160a01b0383165f8181526006602052604080822080546001600160a01b03199081168255600182018054909116905560028101839055600301805462ffffff19169055517fcdd2e9b91a56913d370075169cefa1602ba36be5301664f752192bb1709df7579190a2505050565b5f6108046002546001600160a01b031690565b5f918252602082815260408084206001600160a01b0393909316845291905290205460ff1690565b5f516020613b425f395f51905f5261143881612751565b6114436007836129ae565b61146b57604051635f8b555b60e11b81526001600160a01b03831660048201526024016108b8565b6001600160a01b0382165f8181526006602090815260409182902060030154915160ff9092168015835292917f0e6a3e9b4cda412c4156792ab1e9a3ea6ac17d7bdb39bb0afc63fc84d3a8f728910160405180910390a26001600160a01b039092165f908152600660205260409020600301805460ff191692159290921790915550565b6002545f90600160d01b900465ffffffffffff16801515801561151a57504265ffffffffffff821610155b611525575f5f611539565b600254600160a01b900465ffffffffffff16815b915091509091565b6003805461154e906138c5565b80601f016020809104026020016040519081016040528092919081815260200182805461157a906138c5565b80156115c55780601f1061159c576101008083540402835291602001916115c5565b820191905f5260205f20905b8154815290600101906020018083116115a857829003601f168201915b505050505081565b5f6107686007836129ae565b5f516020613b425f395f51905f526115f081612751565b6115fb6007846129ae565b61162357604051635f8b555b60e11b81526001600160a01b03841660048201526024016108b8565b5f198203611694576040516370a0823160e01b81523060048201526001600160a01b038416906370a0823190602401602060405180830381865afa15801561166d573d5f5f3e3d5ffd5b505050506040513d601f19601f820116820180604052508101906116919190613874565b91505b8115611282576001600160a01b038381165f9081526006602052604090819020549051636e553f6560e01b815260048101859052306024820152911690636e553f65906044015b6020604051808303815f875af11580156116f7573d5f5f3e3d5ffd5b505050506040513d601f19601f8201168201806040525081019061171b9190613874565b50505050565b5f61172b81612751565b6001600160a01b0382166117525760405163867915ab60e01b815260040160405180910390fd5b61175d6007846129ae565b1561177b57604051637af24bf760e01b815260040160405180910390fd5b5f6117866007612e13565b90505f5b818110156117ec576001600160a01b03851660065f6117aa600785612e1c565b6001600160a01b03908116825260208201929092526040015f205416036117e457604051637af24bf760e01b815260040160405180910390fd5b60010161178a565b506040516370a0823160e01b81523060048201525f906001600160a01b038616906370a0823190602401602060405180830381865afa158015611831573d5f5f3e3d5ffd5b505050506040513d601f19601f820116820180604052508101906118559190613874565b905061186b6001600160a01b0386168583612d11565b836001600160a01b0316856001600160a01b03167fbb3f74f3539ea7725781ff6810125a75c183f5c944318fc94873d1324f0482ae836040516118b091815260200190565b60405180910390a35050505050565b5f516020613b625f395f51905f526118d681612751565b6127108211156118f95760405163508f393f60e01b815260040160405180910390fd5b60045460408051918252602082018490527f3cb23ae97dcd603618548f333b96dbb9e41059b6fd0eb7face59058c5ac3b11b910160405180910390a150600455565b6002545f90600160d01b900465ffffffffffff16801515801561196557504265ffffffffffff8216105b61198057600154600160d01b900465ffffffffffff16611993565b600254600160a01b900465ffffffffffff165b91505090565b5f6119a381612751565b6001600160a01b03851615806119c057506001600160a01b038416155b806119d257506001600160a01b038316155b156119f05760405163867915ab60e01b815260040160405180910390fd5b815f03611a1057604051636fd462b560e01b815260040160405180910390fd5b5f856001600160a01b031663313ce5676040518163ffffffff1660e01b8152600401602060405180830381865afa158015611a4d573d5f5f3e3d5ffd5b505050506040513d601f19601f82011682018060405250810190611a7191906138fd565b905060128160ff161115611a9d57604051635d00a5bb60e11b815260ff821660048201526024016108b8565b846001600160a01b03166338d52e0f6040518163ffffffff1660e01b8152600401602060405180830381865afa158015611ad9573d5f5f3e3d5ffd5b505050506040513d601f19601f82011682018060405250810190611afd9190613859565b6001600160a01b0316866001600160a01b031614611b2e576040516341e0808560e11b815260040160405180910390fd5b611b39600787612e27565b611b565760405163c2a660a960e01b815260040160405180910390fd5b6040518060c00160405280866001600160a01b03168152602001856001600160a01b031681526020018481526020016001151581526020016001151581526020018260ff1681525060065f886001600160a01b03166001600160a01b031681526020019081526020015f205f820151815f015f6101000a8154816001600160a01b0302191690836001600160a01b031602179055506020820151816001015f6101000a8154816001600160a01b0302191690836001600160a01b03160217905550604082015181600201556060820151816003015f6101000a81548160ff02191690831515021790555060808201518160030160016101000a81548160ff02191690831515021790555060a08201518160030160026101000a81548160ff021916908360ff160217905550905050611ca3855f19886001600160a01b0316612d849092919063ffffffff16565b836001600160a01b0316856001600160a01b0316876001600160a01b03167f4ef74c648ce2bd2158a6ad1e2a476c0ea9a36a554b8c31b8f2b80e18b658baf560405160405180910390a4505050505050565b5f5f611d016007612e13565b6004549091505f5b82811015611f33575f611d1d600783612e1c565b6001600160a01b038181165f908152600660205260408082205490516370a0823160e01b81523060048201529394509091169182906370a0823190602401602060405180830381865afa158015611d76573d5f5f3e3d5ffd5b505050506040513d601f19601f82011682018060405250810190611d9a9190613874565b6040516370a0823160e01b81523060048201529091505f906001600160a01b038516906370a0823190602401602060405180830381865afa158015611de1573d5f5f3e3d5ffd5b505050506040513d601f19601f82011682018060405250810190611e059190613874565b90508115611e81576040516303d1689d60e11b8152600481018390526001600160a01b038416906307a2d13a90602401602060405180830381865afa158015611e50573d5f5f3e3d5ffd5b505050506040513d601f19601f82011682018060405250810190611e749190613874565b611e7e90826138b2565b90505b8015611f24576001600160a01b038085165f908152600660205260408120600181015460029091015491928392611ebc92909116908a6127be565b90925090505f611ecd848484612e3b565b6001600160a01b0388165f90815260066020526040902060030154909150611eff9062010000900460ff16601261391d565b611f0a90600a613a19565b611f149082613a27565b611f1e908c6138b2565b9a505050505b84600101945050505050611d09565b50505090565b6001600160a01b038082165f9081526006602052604081205490911680611f6257505f92915050565b6040516370a0823160e01b81523060048201525f906001600160a01b038316906370a0823190602401602060405180830381865afa158015611fa6573d5f5f3e3d5ffd5b505050506040513d601f19601f82011682018060405250810190611fca9190613874565b90505f8111611fd9575f612040565b6040516303d1689d60e11b8152600481018290526001600160a01b038316906307a2d13a90602401602060405180830381865afa15801561201c573d5f5f3e3d5ffd5b505050506040513d601f19601f820116820180604052508101906120409190613874565b6040516370a0823160e01b81523060048201526001600160a01b038616906370a0823190602401602060405180830381865afa158015612082573d5f5f3e3d5ffd5b505050506040513d601f19601f820116820180604052508101906120a69190613874565b6120b091906138b2565b949350505050565b5f6120c281612751565b6001600160a01b0382166120e95760405163867915ab60e01b815260040160405180910390fd5b816001600160a01b0316634e485cf76040518163ffffffff1660e01b8152600401602060405180830381865afa158015612125573d5f5f3e3d5ffd5b505050506040513d601f19601f820116820180604052508101906121499190613859565b6001600160a01b03167f00000000000000000000000000000000000000000000000000000000000000006001600160a01b03161461219a576040516322a79a3360e11b815260040160405180910390fd5b5f6121a56007612e13565b90505f5b8181101561228e575f6121bd600783612e1c565b6040516370a0823160e01b815230600482015290915061223e9086906001600160a01b038416906370a08231906024015b602060405180830381865afa158015612209573d5f5f3e3d5ffd5b505050506040513d601f19601f8201168201806040525081019061222d9190613874565b6001600160a01b0384169190612d11565b6001600160a01b038181165f90815260066020526040908190205490516370a0823160e01b815230600482015291169061228490879083906370a08231906024016121ee565b50506001016121a9565b506040516001600160a01b038416907fa2e7361c23d7820040603b83c0cd3f494d377bac69736377d75bb56c651a5098905f90a2505050565b5f6122d0612306565b509050336001600160a01b038216146122fe57604051636116401160e11b81523360048201526024016108b8565b610780612ef1565b6001546001600160a01b03811691600160a01b90910465ffffffffffff1690565b5f516020613b625f395f51905f5261233e81612751565b6001600160a01b0382166123655760405163867915ab60e01b815260040160405180910390fd5b6005546040516001600160a01b038085169216907f6c953b7ec311055c20b96a42cea31e89528e375b1bf953a503db40854b3188fe905f90a350600580546001600160a01b0319166001600160a01b0392909216919091179055565b816123df57604051631fe1e13d60e11b815260040160405180910390fd5b6108318282612f87565b5f6123f381612751565b610780612fab565b5f516020613b425f395f51905f5261241281612751565b61241d6007846129ae565b61244557604051635f8b555b60e11b81526001600160a01b03841660048201526024016108b8565b8115611282576001600160a01b038381165f9081526006602052604090819020549051632d182be560e21b8152600481018590523060248201819052604482015291169063b460af94906064016116db565b5f516020613b425f395f51905f526124ae81612751565b6124b96007836129ae565b6124e157604051635f8b555b60e11b81526001600160a01b03831660048201526024016108b8565b6001600160a01b0382165f8181526006602090815260409182902060030154915161010090920460ff168015835292917f71f121dc522e497204fd6f933f9c7a9e25105d964fe33efbb2c7a7353c68bf58910160405180910390a26001600160a01b03929092165f908152600660205260409020600301805461ff0019169215610100029290921790915550565b5f5f516020613b425f395f51905f5261258781612751565b6125926007876129ae565b156125b057604051637af24bf760e01b815260040160405180910390fd5b5f6125bb6007612e13565b90505f5b81811015612621576001600160a01b03881660065f6125df600785612e1c565b6001600160a01b03908116825260208201929092526040015f2054160361261957604051637af24bf760e01b815260040160405180910390fd5b6001016125bf565b5060055461263c906001600160a01b03898116911687612d84565b856001600160a01b0316876001600160a01b03167f2e7f8a64aa3240292c0adfa332e1e8945dd31589fcb0bce2721fa21c69b1390f8760405161268191815260200190565b60405180910390a3600554604051636ccb2b0160e01b81526001600160a01b0389811660048301528881166024830152604482018890526064820187905230608483015290911690636ccb2b019060a4016020604051808303815f875af11580156126ee573d5f5f3e3d5ffd5b505050506040513d601f19601f820116820180604052508101906127129190613874565b979650505050505050565b5f6001600160e01b03198216637965db0b60e01b148061076857506301ffc9a760e01b6001600160e01b0319831614610768565b6107808133612fb5565b6127655f5f612fee565b565b5f8281526020819052604090206001015461278181612751565b61171b83836130ad565b6001600160a01b03811633146127b45760405163334bd91960e11b815260040160405180910390fd5b6112828282613113565b5f5f5f5f866001600160a01b031663feaf968c6040518163ffffffff1660e01b815260040160a060405180830381865afa1580156127fe573d5f5f3e3d5ffd5b505050506040513d601f19601f820116820180604052508101906128229190613a5c565b50935050925050858142612836919061389f565b1061285457604051630cd5fa0760e11b815260040160405180910390fd5b819350866001600160a01b031663313ce5676040518163ffffffff1660e01b8152600401602060405180830381865afa158015612893573d5f5f3e3d5ffd5b505050506040513d601f19601f820116820180604052508101906128b791906138fd565b6128c290600a613a19565b92505f6127106128d28786613a27565b6128dc9190613abe565b90505f6128e982866138b2565b90505f6128f6838761389f565b90508187118061290557508087105b15612934576040516314093ead60e01b81526004810188905260248101839052604481018290526064016108b8565b5050505050935093915050565b7f9b779b17422d0df92223018b32b4d1fa46e071723d6817e2486d003becc55f005c1561298157604051633ee5aeb560e01b815260040160405180910390fd5b61276560017f9b779b17422d0df92223018b32b4d1fa46e071723d6817e2486d003becc55f005b9061314f565b6001600160a01b0381165f90815260018301602052604081205415155b9392505050565b6127655f7f9b779b17422d0df92223018b32b4d1fa46e071723d6817e2486d003becc55f006129a8565b60605f6129cb83613156565b5f612a1161193b565b612a1a426131af565b612a249190613add565b9050612a3082826131e5565b60405165ffffffffffff821681526001600160a01b038316907f3377dc44241e779dd06afab5b788a35ca5f3b778836e2990bdb26a2a4b2e5ed69060200160405180910390a25050565b5f612a8482613262565b612a8d426131af565b612a979190613add565b9050612aa38282612fee565b6040805165ffffffffffff8085168252831660208201527ff1038c18cf84a56e432fdbfaf746924b7ea511dfe03a6506a0ceba4888788d9b910160405180910390a15050565b5f5f7f00000000000000000000000000000000000000000000000000000000000000006001600160a01b03166318160ddd6040518163ffffffff1660e01b8152600401602060405180830381865afa158015612b47573d5f5f3e3d5ffd5b505050506040513d601f19601f82011682018060405250810190612b6b9190613874565b90505f7f00000000000000000000000000000000000000000000000000000000000000006001600160a01b031663116191b66040518163ffffffff1660e01b8152600401602060405180830381865afa158015612bca573d5f5f3e3d5ffd5b505050506040513d601f19601f82011682018060405250810190612bee9190613859565b6001600160a01b0316631543b9966040518163ffffffff1660e01b8152600401602060405180830381865afa158015612c29573d5f5f3e3d5ffd5b505050506040513d601f19601f82011682018060405250810190612c4d9190613874565b90505f612c5a828461389f565b90505f612c65611cf5565b9050818111612c7957505f95945050505050565b6001600160a01b038087165f90815260066020526040812060018101546002820154600454878703959394938493612cb3939116916127be565b600385015491935091505f90612cd39062010000900460ff16601261391d565b612cde90600a613a19565b612ce9868486612e3b565b612cf39190613abe565b9b9a5050505050505050505050565b5f8282188284100282186129cb565b6040516001600160a01b0383811660248301526044820183905261128291859182169063a9059cbb906064015b604051602081830303815290604052915060e01b6020820180516001600160e01b0383818316178352505050506132a9565b5f6129cb836001600160a01b038416613315565b604080516001600160a01b038416602482015260448082018490528251808303909101815260649091019091526020810180516001600160e01b031663095ea7b360e01b179052612dd584826133f8565b61171b576040516001600160a01b0384811660248301525f6044830152612e0991869182169063095ea7b390606401612d3e565b61171b84826132a9565b5f610768825490565b5f6129cb8383613441565b5f6129cb836001600160a01b038416613467565b5f838302815f1985870982811083820303915050805f03612e6f57838281612e6557612e65613aaa565b04925050506129cb565b808411612e8657612e8660038515026011186134b3565b5f848688095f868103871696879004966002600389028118808a02820302808a02820302808a02820302808a02820302808a02820302808a02909103029181900381900460010186841190950394909402919094039290920491909117919091029150509392505050565b5f5f612efb612306565b91509150612f108165ffffffffffff16151590565b1580612f2457504265ffffffffffff821610155b15612f4c576040516319ca5ebb60e01b815265ffffffffffff821660048201526024016108b8565b612f675f612f626002546001600160a01b031690565b613113565b50612f725f836130ad565b5050600180546001600160d01b031916905550565b5f82815260208190526040902060010154612fa181612751565b61171b8383613113565b6127655f5f6131e5565b612fbf82826113f9565b6108315760405163e2517d3f60e01b81526001600160a01b0382166004820152602481018390526044016108b8565b600254600160d01b900465ffffffffffff168015613070574265ffffffffffff8216101561304757600254600180546001600160d01b0316600160a01b90920465ffffffffffff16600160d01b02919091179055613070565b6040517f2b1fa2edafe6f7b9e97c1a9e0c3660e645beb2dcaa2d45bdbf9beaf5472e1ec5905f90a15b50600280546001600160a01b0316600160a01b65ffffffffffff948516026001600160d01b031617600160d01b9290931691909102919091179055565b5f82613109575f6130c66002546001600160a01b031690565b6001600160a01b0316146130ed57604051631fe1e13d60e11b815260040160405180910390fd5b600280546001600160a01b0319166001600160a01b0384161790555b6129cb83836134c4565b5f8215801561312f57506002546001600160a01b038381169116145b1561314557600280546001600160a01b03191690555b6129cb838361354c565b80825d5050565b6060815f018054806020026020016040519081016040528092919081815260200182805480156131a357602002820191905f5260205f20905b81548152602001906001019080831161318f575b50505050509050919050565b5f65ffffffffffff8211156131e1576040516306dfcc6560e41b815260306004820152602481018390526044016108b8565b5090565b5f6131ee612306565b6001805465ffffffffffff8616600160a01b026001600160d01b03199091166001600160a01b03881617179055915061323090508165ffffffffffff16151590565b15611282576040517f8886ebfc4259abdbc16601dd8fb5678e54878f47b3c34836cfc51154a9605109905f90a1505050565b5f5f61326c61193b565b90508065ffffffffffff168365ffffffffffff16116132945761328f8382613afb565b6129cb565b6129cb65ffffffffffff841662069780612d02565b5f5f60205f8451602086015f885af1806132c8576040513d5f823e3d81fd5b50505f513d915081156132df5780600114156132ec565b6001600160a01b0384163b155b1561171b57604051635274afe760e01b81526001600160a01b03851660048201526024016108b8565b5f81815260018301602052604081205480156133ef575f61333760018361389f565b85549091505f9061334a9060019061389f565b90508082146133a9575f865f01828154811061336857613368613b19565b905f5260205f200154905080875f01848154811061338857613388613b19565b5f918252602080832090910192909255918252600188019052604090208390555b85548690806133ba576133ba613b2d565b600190038181905f5260205f20015f90559055856001015f8681526020019081526020015f205f905560019350505050610768565b5f915050610768565b5f5f5f5f60205f8651602088015f8a5af192503d91505f519050828015613437575081156134295780600114613437565b5f866001600160a01b03163b115b9695505050505050565b5f825f01828154811061345657613456613b19565b905f5260205f200154905092915050565b5f8181526001830160205260408120546134ac57508154600181810184555f848152602080822090930184905584548482528286019093526040902091909155610768565b505f610768565b634e487b715f52806020526024601cfd5b5f6134cf83836113f9565b6134ac575f838152602081815260408083206001600160a01b03861684529091529020805460ff191660011790556135043390565b6001600160a01b0316826001600160a01b0316847f2f8788117e7eff1d82e926ec794901d17c78024a50270940304540a733656f0d60405160405180910390a4506001610768565b5f61355783836113f9565b156134ac575f838152602081815260408083206001600160a01b0386168085529252808320805460ff1916905551339286917ff6391f5c32d9c69d2a47ea670b442974b53935d1edc7fd64eb21e047a839171b9190a4506001610768565b5f602082840312156135c5575f5ffd5b81356001600160e01b0319811681146129cb575f5ffd5b5f602082840312156135ec575f5ffd5b5035919050565b6001600160a01b0381168114610780575f5ffd5b5f5f60408385031215613618575f5ffd5b82359150602083013561362a816135f3565b809150509250929050565b5f60208284031215613645575f5ffd5b81356129cb816135f3565b5f5f60408385031215613661575f5ffd5b823561366c816135f3565b946020939093013593505050565b5f5f5f6060848603121561368c575f5ffd5b8335613697816135f3565b925060208401356136a7816135f3565b929592945050506040919091013590565b602080825282518282018190525f918401906040840190835b818110156136f85783516001600160a01b03168352602093840193909201916001016136d1565b509095945050505050565b5f60208284031215613713575f5ffd5b813565ffffffffffff811681146129cb575f5ffd5b5f5f60408385031215613739575f5ffd5b8235613744816135f3565b9150602083013561362a816135f3565b5f5f5f60608486031215613766575f5ffd5b8335613771816135f3565b9250602084013591506040840135613788816135f3565b809150509250925092565b602081525f82518060208401528060208501604085015e5f604082850101526040601f19601f83011684010191505092915050565b5f5f5f5f608085870312156137db575f5ffd5b84356137e6816135f3565b935060208501356137f6816135f3565b92506040850135613806816135f3565b9396929550929360600135925050565b5f5f5f5f60808587031215613829575f5ffd5b8435613834816135f3565b93506020850135613844816135f3565b93969395505050506040820135916060013590565b5f60208284031215613869575f5ffd5b81516129cb816135f3565b5f60208284031215613884575f5ffd5b5051919050565b634e487b7160e01b5f52601160045260245ffd5b818103818111156107685761076861388b565b808201808211156107685761076861388b565b600181811c908216806138d957607f821691505b6020821081036138f757634e487b7160e01b5f52602260045260245ffd5b50919050565b5f6020828403121561390d575f5ffd5b815160ff811681146129cb575f5ffd5b60ff82811682821603908111156107685761076861388b565b6001815b6001841115613971578085048111156139555761395561388b565b600184161561396357908102905b60019390931c92800261393a565b935093915050565b5f8261398757506001610768565b8161399357505f610768565b81600181146139a957600281146139b3576139cf565b6001915050610768565b60ff8411156139c4576139c461388b565b50506001821b610768565b5060208310610133831016604e8410600b84101617156139f2575081810a610768565b6139fe5f198484613936565b805f1904821115613a1157613a1161388b565b029392505050565b5f6129cb60ff841683613979565b80820281158282048414176107685761076861388b565b805169ffffffffffffffffffff81168114613a57575f5ffd5b919050565b5f5f5f5f5f60a08688031215613a70575f5ffd5b613a7986613a3e565b60208701516040880151606089015192975090955093509150613a9e60808701613a3e565b90509295509295909350565b634e487b7160e01b5f52601260045260245ffd5b5f82613ad857634e487b7160e01b5f52601260045260245ffd5b500490565b65ffffffffffff81811683821601908111156107685761076861388b565b65ffffffffffff82811682821603908111156107685761076861388b565b634e487b7160e01b5f52603260045260245ffd5b634e487b7160e01b5f52603160045260245ffdfefc8737ab85eb45125971625a9ebdb75cc78e01d5c1fa80c4c6e5203f47bc4fab339759585899103d2ace64958e37e18ccb0504652c81d4a1b8aa80fe2126ab95a26469706673582212205951403e55d867411aa32338ba5f3d7944467e62fb18e0e46f820238a926fb1864736f6c634300081e0033",
  "devdoc": {
    "errors": {
      "AccessControlBadConfirmation()": [
        {
          "details": "The caller of a function is not the expected one. NOTE: Don't confuse with {AccessControlUnauthorizedAccount}."
        }
      ],
      "AccessControlEnforcedDefaultAdminDelay(uint48)": [
        {
          "details": "The delay for transferring the default admin delay is enforced and the operation must wait until `schedule`. NOTE: `schedule` can be 0 indicating there's no transfer scheduled."
        }
      ],
      "AccessControlEnforcedDefaultAdminRules()": [
        {
          "details": "At least one of the following rules was violated: - The `DEFAULT_ADMIN_ROLE` must only be managed by itself. - The `DEFAULT_ADMIN_ROLE` must only be held by one account at the time. - Any `DEFAULT_ADMIN_ROLE` transfer must be in two delayed steps."
        }
      ],
      "AccessControlInvalidDefaultAdmin(address)": [
        {
          "details": "The new default admin is not a valid default admin."
        }
      ],
      "AccessControlUnauthorizedAccount(address,bytes32)": [
        {
          "details": "The `account` is missing a role."
        }
      ],
      "ReentrancyGuardReentrantCall()": [
        {
          "details": "Unauthorized reentrant call."
        }
      ],
      "SafeCastOverflowedUintDowncast(uint8,uint256)": [
        {
          "details": "Value doesn't fit in an uint of `bits` size."
        }
      ],
      "SafeERC20FailedOperation(address)": [
        {
          "details": "An operation with an ERC-20 token failed."
        }
      ]
    },
    "events": {
      "DefaultAdminDelayChangeCanceled()": {
        "details": "Emitted when a {pendingDefaultAdminDelay} is reset if its schedule didn't pass."
      },
      "DefaultAdminDelayChangeScheduled(uint48,uint48)": {
        "details": "Emitted when a {defaultAdminDelay} change is started, setting `newDelay` as the next delay to be applied between default admin transfer after `effectSchedule` has passed."
      },
      "DefaultAdminTransferCanceled()": {
        "details": "Emitted when a {pendingDefaultAdmin} is reset if it was never accepted, regardless of its schedule."
      },
      "DefaultAdminTransferScheduled(address,uint48)": {
        "details": "Emitted when a {defaultAdmin} transfer is started, setting `newAdmin` as the next address to become the {defaultAdmin} by calling {acceptDefaultAdminTransfer} only after `acceptSchedule` passes."
      },
      "RoleAdminChanged(bytes32,bytes32,bytes32)": {
        "details": "Emitted when `newAdminRole` is set as ``role``'s admin role, replacing `previousAdminRole` `DEFAULT_ADMIN_ROLE` is the starting admin for all roles, despite {RoleAdminChanged} not being emitted signaling this."
      },
      "RoleGranted(bytes32,address,address)": {
        "details": "Emitted when `account` is granted `role`. `sender` is the account that originated the contract call. This account bears the admin role (for the granted role). Expected in cases where the role was granted using the internal {AccessControl-_grantRole}."
      },
      "RoleRevoked(bytes32,address,address)": {
        "details": "Emitted when `account` is revoked `role`. `sender` is the account that originated the contract call:   - if using `revokeRole`, it is the admin role bearer   - if using `renounceRole`, it is the role bearer (i.e. `account`)"
      }
    },
    "kind": "dev",
    "methods": {
      "acceptDefaultAdminTransfer()": {
        "details": "Completes a {defaultAdmin} transfer previously started with {beginDefaultAdminTransfer}. After calling the function: - `DEFAULT_ADMIN_ROLE` should be granted to the caller. - `DEFAULT_ADMIN_ROLE` should be revoked from the previous holder. - {pendingDefaultAdmin} should be reset to zero values. Requirements: - Only can be called by the {pendingDefaultAdmin}'s `newAdmin`. - The {pendingDefaultAdmin}'s `acceptSchedule` should've passed."
      },
      "addToWhitelist(address,address,address,uint256)": {
        "params": {
          "oracle_": "Chainlink oracle address for token/USD feed",
          "stalePeriod_": "Custom stale period for oracle price",
          "token_": "token address to add in whitelist.",
          "vault_": "ERC4626 yield vault address correspond to _token"
        }
      },
      "beginDefaultAdminTransfer(address)": {
        "details": "Starts a {defaultAdmin} transfer by setting a {pendingDefaultAdmin} scheduled for acceptance after the current timestamp plus a {defaultAdminDelay}. Requirements: - Only can be called by the current {defaultAdmin}. Emits a DefaultAdminRoleChangeStarted event."
      },
      "cancelDefaultAdminTransfer()": {
        "details": "Cancels a {defaultAdmin} transfer previously started with {beginDefaultAdminTransfer}. A {pendingDefaultAdmin} not yet accepted can also be cancelled with this function. Requirements: - Only can be called by the current {defaultAdmin}. May emit a DefaultAdminTransferCanceled event."
      },
      "changeDefaultAdminDelay(uint48)": {
        "details": "Initiates a {defaultAdminDelay} update by setting a {pendingDefaultAdminDelay} scheduled for getting into effect after the current timestamp plus a {defaultAdminDelay}. This function guarantees that any call to {beginDefaultAdminTransfer} done between the timestamp this method is called and the {pendingDefaultAdminDelay} effect schedule will use the current {defaultAdminDelay} set before calling. The {pendingDefaultAdminDelay}'s effect schedule is defined in a way that waiting until the schedule and then calling {beginDefaultAdminTransfer} with the new delay will take at least the same as another {defaultAdmin} complete transfer (including acceptance). The schedule is designed for two scenarios: - When the delay is changed for a larger one the schedule is `block.timestamp + newDelay` capped by {defaultAdminDelayIncreaseWait}. - When the delay is changed for a shorter one, the schedule is `block.timestamp + (current delay - new delay)`. A {pendingDefaultAdminDelay} that never got into effect will be canceled in favor of a new scheduled change. Requirements: - Only can be called by the current {defaultAdmin}. Emits a DefaultAdminDelayChangeScheduled event and may emit a DefaultAdminDelayChangeCanceled event."
      },
      "defaultAdmin()": {
        "details": "Returns the address of the current `DEFAULT_ADMIN_ROLE` holder."
      },
      "defaultAdminDelay()": {
        "details": "Returns the delay required to schedule the acceptance of a {defaultAdmin} transfer started. This delay will be added to the current timestamp when calling {beginDefaultAdminTransfer} to set the acceptance schedule. NOTE: If a delay change has been scheduled, it will take effect as soon as the schedule passes, making this function returns the new delay. See {changeDefaultAdminDelay}."
      },
      "defaultAdminDelayIncreaseWait()": {
        "details": "Maximum time in seconds for an increase to {defaultAdminDelay} (that is scheduled using {changeDefaultAdminDelay}) to take effect. Default to 5 days. When the {defaultAdminDelay} is scheduled to be increased, it goes into effect after the new delay has passed with the purpose of giving enough time for reverting any accidental change (i.e. using milliseconds instead of seconds) that may lock the contract. However, to avoid excessive schedules, the wait is capped by this function and it can be overrode for a custom {defaultAdminDelay} increase scheduling. IMPORTANT: Make sure to add a reasonable amount of time while overriding this value, otherwise, there's a risk of setting a high new delay that goes into effect almost immediately without the possibility of human intervention in the case of an input error (eg. set milliseconds instead of seconds)."
      },
      "deposit(address,uint256)": {
        "details": "`depositActive` must be true to call deposit.",
        "params": {
          "amount_": "token amount",
          "token_": "token to deposit, must be one of the whitelisted tokens."
        }
      },
      "getRoleAdmin(bytes32)": {
        "details": "Returns the admin role that controls `role`. See {grantRole} and {revokeRole}. To change a role's admin, use {_setRoleAdmin}."
      },
      "grantRole(bytes32,address)": {
        "details": "See {AccessControl-grantRole}. Reverts for `DEFAULT_ADMIN_ROLE`."
      },
      "harvest(address,address)": {
        "params": {
          "receiver_": "Address to receive the withdrawn tokens",
          "token_": "Token address to withdraw excess"
        },
        "returns": {
          "_0": "Amount of tokens withdrawn"
        }
      },
      "hasRole(bytes32,address)": {
        "details": "Returns `true` if `account` has been granted `role`."
      },
      "migrate(address)": {
        "params": {
          "newTreasury_": "Address of new treasury of PeggedToken"
        }
      },
      "owner()": {
        "details": "See {IERC5313-owner}."
      },
      "pendingDefaultAdmin()": {
        "details": "Returns a tuple of a `newAdmin` and an accept schedule. After the `schedule` passes, the `newAdmin` will be able to accept the {defaultAdmin} role by calling {acceptDefaultAdminTransfer}, completing the role transfer. A zero value only in `acceptSchedule` indicates no pending admin transfer. NOTE: A zero address `newAdmin` means that {defaultAdmin} is being renounced."
      },
      "pendingDefaultAdminDelay()": {
        "details": "Returns a tuple of `newDelay` and an effect schedule. After the `schedule` passes, the `newDelay` will get into effect immediately for every new {defaultAdmin} transfer started with {beginDefaultAdminTransfer}. A zero value only in `effectSchedule` indicates no pending delay change. NOTE: A zero value only for `newDelay` means that the next {defaultAdminDelay} will be zero after the effect schedule."
      },
      "pull(address,uint256)": {
        "details": "Keeper is allowed to withdraw even if withdrawActive is false.Keeper can withdraw tokens at treasury address only.",
        "params": {
          "amount_": "token amount to withdraw",
          "token_": "token to withdraw from vault"
        }
      },
      "push(address,uint256)": {
        "details": "Keeper is allowed to deposit even if depositActive is false.",
        "params": {
          "amount_": "token amount to deposit",
          "token_": "token to deposit into the vault"
        }
      },
      "removeFromWhitelist(address)": {
        "details": "Removing token even if treasury has some balance of that token is intended behavior.",
        "params": {
          "token_": "token address to remove from whitelist."
        }
      },
      "renounceRole(bytes32,address)": {
        "details": "See {AccessControl-renounceRole}. For the `DEFAULT_ADMIN_ROLE`, it only allows renouncing in two steps by first calling {beginDefaultAdminTransfer} to the `address(0)`, so it's required that the {pendingDefaultAdmin} schedule has also passed when calling this function. After its execution, it will not be possible to call `onlyRole(DEFAULT_ADMIN_ROLE)` functions. NOTE: Renouncing `DEFAULT_ADMIN_ROLE` will leave the contract without a {defaultAdmin}, thereby disabling any functionality that is only available for it, and the possibility of reassigning a non-administrated role."
      },
      "revokeRole(bytes32,address)": {
        "details": "See {AccessControl-revokeRole}. Reverts for `DEFAULT_ADMIN_ROLE`."
      },
      "rollbackDefaultAdminDelay()": {
        "details": "Cancels a scheduled {defaultAdminDelay} change. Requirements: - Only can be called by the current {defaultAdmin}. May emit a DefaultAdminDelayChangeCanceled event."
      },
      "supportsInterface(bytes4)": {
        "details": "See {IERC165-supportsInterface}."
      },
      "sweep(address,address)": {
        "details": "DEFAULT_ADMIN_ROLE can call this and vault shares are not allowed to sweep",
        "params": {
          "fromToken_": "Token address to sweep",
          "receiver_": "recipient of tokens being swept"
        }
      },
      "toggleDepositActive(address)": {
        "params": {
          "token_": "Token to toggle deposit activity"
        }
      },
      "toggleWithdrawActive(address)": {
        "params": {
          "token_": "Token to toggle withdraw activity"
        }
      },
      "updateOracle(address,address,uint256)": {
        "params": {
          "newStalePeriod_": "New stale period threshold in seconds",
          "oracle_": "New Chainlink oracle address",
          "token_": "Token to update oracle configuration for"
        }
      },
      "updateSwapper(address)": {
        "params": {
          "swapper_": "new swapper address"
        }
      },
      "withdraw(address,uint256,address)": {
        "details": "`withdrawActive` must be true to call withdraw.",
        "params": {
          "amount_": "token amount to withdraw",
          "tokenReceiver_": "address of token receiver",
          "token_": "token to withdraw, must be one of the whitelisted tokens."
        }
      },
      "withdrawable(address)": {
        "params": {
          "token_": "token address"
        }
      }
    },
    "title": "PeggedToken Treasury",
    "version": 1
  },
  "userdoc": {
    "kind": "user",
    "methods": {
      "addToWhitelist(address,address,address,uint256)": {
        "notice": "DEFAULT_ADMIN_ROLE: Add token as whitelisted token for PeggedToken"
      },
      "deposit(address,uint256)": {
        "notice": "onlyGateway: Deposit token to yield vault"
      },
      "harvest(address,address)": {
        "notice": "UMM_ROLE: Withdraw excess tokens from reserve. Note: As treasury reserve is in multiple tokens, there is no guarantee that this function will withdraw all of the excess in given token."
      },
      "isWhitelistedToken(address)": {
        "notice": "Returns whether given token is whitelisted"
      },
      "migrate(address)": {
        "notice": "DEFAULT_ADMIN_ROLE: Migrate assets to new treasury"
      },
      "pull(address,uint256)": {
        "notice": "KEEPER_ROLE: Withdraw token from vault."
      },
      "push(address,uint256)": {
        "notice": "KEEPER_ROLE: Deposit token into the vault"
      },
      "removeFromWhitelist(address)": {
        "notice": "DEFAULT_ADMIN_ROLE: Remove token from whitelist"
      },
      "reserve()": {
        "notice": "Returns total reserve value denominated in PeggedToken units"
      },
      "sweep(address,address)": {
        "notice": "DEFAULT_ADMIN_ROLE: Sweep any ERC20 token to owner address"
      },
      "toggleDepositActive(address)": {
        "notice": "KEEPER_ROLE: Toggle deposit activity for a whitelisted token"
      },
      "toggleWithdrawActive(address)": {
        "notice": "KEEPER_ROLE: Toggle withdraw activity for a whitelisted token"
      },
      "updateOracle(address,address,uint256)": {
        "notice": "MAINTAINER_ROLE: Update oracle and stale period"
      },
      "updatePriceTolerance(uint256)": {
        "notice": "MAINTAINER_ROLE: Update oracle price tolerance"
      },
      "updateSwapper(address)": {
        "notice": "MAINTAINER_ROLE: Update swapper address"
      },
      "whitelistedTokens()": {
        "notice": "Return list of whitelisted tokens"
      },
      "withdraw(address,uint256,address)": {
        "notice": "onlyGateway: Withdraw given amount of token."
      },
      "withdrawable(address)": {
        "notice": "Current withdrawable for given token. If token is not supported by treasury it will return 0."
      }
    },
    "version": 1
  },
  "storageLayout": {
    "storage": [
      {
        "astId": 3288,
        "contract": "src/Treasury.sol:Treasury",
        "label": "_roles",
        "offset": 0,
        "slot": "0",
        "type": "t_mapping(t_bytes32,t_struct(RoleData)3283_storage)"
      },
      {
        "astId": 3896,
        "contract": "src/Treasury.sol:Treasury",
        "label": "_pendingDefaultAdmin",
        "offset": 0,
        "slot": "1",
        "type": "t_address"
      },
      {
        "astId": 3898,
        "contract": "src/Treasury.sol:Treasury",
        "label": "_pendingDefaultAdminSchedule",
        "offset": 20,
        "slot": "1",
        "type": "t_uint48"
      },
      {
        "astId": 3900,
        "contract": "src/Treasury.sol:Treasury",
        "label": "_currentDelay",
        "offset": 26,
        "slot": "1",
        "type": "t_uint48"
      },
      {
        "astId": 3902,
        "contract": "src/Treasury.sol:Treasury",
        "label": "_currentDefaultAdmin",
        "offset": 0,
        "slot": "2",
        "type": "t_address"
      },
      {
        "astId": 3904,
        "contract": "src/Treasury.sol:Treasury",
        "label": "_pendingDelay",
        "offset": 20,
        "slot": "2",
        "type": "t_uint48"
      },
      {
        "astId": 3906,
        "contract": "src/Treasury.sol:Treasury",
        "label": "_pendingDelaySchedule",
        "offset": 26,
        "slot": "2",
        "type": "t_uint48"
      },
      {
        "astId": 17572,
        "contract": "src/Treasury.sol:Treasury",
        "label": "NAME",
        "offset": 0,
        "slot": "3",
        "type": "t_string_storage"
      },
      {
        "astId": 17596,
        "contract": "src/Treasury.sol:Treasury",
        "label": "priceTolerance",
        "offset": 0,
        "slot": "4",
        "type": "t_uint256"
      },
      {
        "astId": 17601,
        "contract": "src/Treasury.sol:Treasury",
        "label": "swapper",
        "offset": 0,
        "slot": "5",
        "type": "t_address"
      },
      {
        "astId": 17619,
        "contract": "src/Treasury.sol:Treasury",
        "label": "tokenConfig",
        "offset": 0,
        "slot": "6",
        "type": "t_mapping(t_address,t_struct(TokenConfig)17614_storage)"
      },
      {
        "astId": 17622,
        "contract": "src/Treasury.sol:Treasury",
        "label": "_whitelistedTokens",
        "offset": 0,
        "slot": "7",
        "type": "t_struct(AddressSet)13111_storage"
      }
    ],
    "types": {
      "t_address": {
        "encoding": "inplace",
        "label": "address",
        "numberOfBytes": "20"
      },
      "t_array(t_bytes32)dyn_storage": {
        "base": "t_bytes32",
        "encoding": "dynamic_array",
        "label": "bytes32[]",
        "numberOfBytes": "32"
      },
      "t_bool": {
        "encoding": "inplace",
        "label": "bool",
        "numberOfBytes": "1"
      },
      "t_bytes32": {
        "encoding": "inplace",
        "label": "bytes32",
        "numberOfBytes": "32"
      },
      "t_mapping(t_address,t_bool)": {
        "encoding": "mapping",
        "key": "t_address",
        "label": "mapping(address => bool)",
        "numberOfBytes": "32",
        "value": "t_bool"
      },
      "t_mapping(t_address,t_struct(TokenConfig)17614_storage)": {
        "encoding": "mapping",
        "key": "t_address",
        "label": "mapping(address => struct Treasury.TokenConfig)",
        "numberOfBytes": "32",
        "value": "t_struct(TokenConfig)17614_storage"
      },
      "t_mapping(t_bytes32,t_struct(RoleData)3283_storage)": {
        "encoding": "mapping",
        "key": "t_bytes32",
        "label": "mapping(bytes32 => struct AccessControl.RoleData)",
        "numberOfBytes": "32",
        "value": "t_struct(RoleData)3283_storage"
      },
      "t_mapping(t_bytes32,t_uint256)": {
        "encoding": "mapping",
        "key": "t_bytes32",
        "label": "mapping(bytes32 => uint256)",
        "numberOfBytes": "32",
        "value": "t_uint256"
      },
      "t_string_storage": {
        "encoding": "bytes",
        "label": "string",
        "numberOfBytes": "32"
      },
      "t_struct(AddressSet)13111_storage": {
        "encoding": "inplace",
        "label": "struct EnumerableSet.AddressSet",
        "members": [
          {
            "astId": 13110,
            "contract": "src/Treasury.sol:Treasury",
            "label": "_inner",
            "offset": 0,
            "slot": "0",
            "type": "t_struct(Set)12796_storage"
          }
        ],
        "numberOfBytes": "64"
      },
      "t_struct(RoleData)3283_storage": {
        "encoding": "inplace",
        "label": "struct AccessControl.RoleData",
        "members": [
          {
            "astId": 3280,
            "contract": "src/Treasury.sol:Treasury",
            "label": "hasRole",
            "offset": 0,
            "slot": "0",
            "type": "t_mapping(t_address,t_bool)"
          },
          {
            "astId": 3282,
            "contract": "src/Treasury.sol:Treasury",
            "label": "adminRole",
            "offset": 0,
            "slot": "1",
            "type": "t_bytes32"
          }
        ],
        "numberOfBytes": "64"
      },
      "t_struct(Set)12796_storage": {
        "encoding": "inplace",
        "label": "struct EnumerableSet.Set",
        "members": [
          {
            "astId": 12791,
            "contract": "src/Treasury.sol:Treasury",
            "label": "_values",
            "offset": 0,
            "slot": "0",
            "type": "t_array(t_bytes32)dyn_storage"
          },
          {
            "astId": 12795,
            "contract": "src/Treasury.sol:Treasury",
            "label": "_positions",
            "offset": 0,
            "slot": "1",
            "type": "t_mapping(t_bytes32,t_uint256)"
          }
        ],
        "numberOfBytes": "64"
      },
      "t_struct(TokenConfig)17614_storage": {
        "encoding": "inplace",
        "label": "struct Treasury.TokenConfig",
        "members": [
          {
            "astId": 17603,
            "contract": "src/Treasury.sol:Treasury",
            "label": "vault",
            "offset": 0,
            "slot": "0",
            "type": "t_address"
          },
          {
            "astId": 17605,
            "contract": "src/Treasury.sol:Treasury",
            "label": "oracle",
            "offset": 0,
            "slot": "1",
            "type": "t_address"
          },
          {
            "astId": 17607,
            "contract": "src/Treasury.sol:Treasury",
            "label": "stalePeriod",
            "offset": 0,
            "slot": "2",
            "type": "t_uint256"
          },
          {
            "astId": 17609,
            "contract": "src/Treasury.sol:Treasury",
            "label": "depositActive",
            "offset": 0,
            "slot": "3",
            "type": "t_bool"
          },
          {
            "astId": 17611,
            "contract": "src/Treasury.sol:Treasury",
            "label": "withdrawActive",
            "offset": 1,
            "slot": "3",
            "type": "t_bool"
          },
          {
            "astId": 17613,
            "contract": "src/Treasury.sol:Treasury",
            "label": "decimals",
            "offset": 2,
            "slot": "3",
            "type": "t_uint8"
          }
        ],
        "numberOfBytes": "128"
      },
      "t_uint256": {
        "encoding": "inplace",
        "label": "uint256",
        "numberOfBytes": "32"
      },
      "t_uint48": {
        "encoding": "inplace",
        "label": "uint48",
        "numberOfBytes": "6"
      },
      "t_uint8": {
        "encoding": "inplace",
        "label": "uint8",
        "numberOfBytes": "1"
      }
    }
  }
}