{
  "address": "0xC8317A10385BE07901A4c9ee3d06E1D83AE378c9",
  "abi": [
    {
      "inputs": [
        {
          "internalType": "address",
          "name": "peggedToken_",
          "type": "address"
        },
        {
          "internalType": "address",
          "name": "admin_",
          "type": "address"
        }
      ],
      "stateMutability": "nonpayable",
      "type": "constructor"
    },
    {
      "inputs": [],
      "name": "AccessControlBadConfirmation",
      "type": "error"
    },
    {
      "inputs": [
        {
          "internalType": "uint48",
          "name": "schedule",
          "type": "uint48"
        }
      ],
      "name": "AccessControlEnforcedDefaultAdminDelay",
      "type": "error"
    },
    {
      "inputs": [],
      "name": "AccessControlEnforcedDefaultAdminRules",
      "type": "error"
    },
    {
      "inputs": [
        {
          "internalType": "address",
          "name": "defaultAdmin",
          "type": "address"
        }
      ],
      "name": "AccessControlInvalidDefaultAdmin",
      "type": "error"
    },
    {
      "inputs": [
        {
          "internalType": "address",
          "name": "account",
          "type": "address"
        },
        {
          "internalType": "bytes32",
          "name": "neededRole",
          "type": "bytes32"
        }
      ],
      "name": "AccessControlUnauthorizedAccount",
      "type": "error"
    },
    {
      "inputs": [],
      "name": "AddToListFailed",
      "type": "error"
    },
    {
      "inputs": [],
      "name": "AddressIsZero",
      "type": "error"
    },
    {
      "inputs": [],
      "name": "AssetMismatch",
      "type": "error"
    },
    {
      "inputs": [],
      "name": "BalanceShouldBeZero",
      "type": "error"
    },
    {
      "inputs": [
        {
          "internalType": "address",
          "name": "caller",
          "type": "address"
        }
      ],
      "name": "CallerIsNotAuthorized",
      "type": "error"
    },
    {
      "inputs": [
        {
          "internalType": "address",
          "name": "",
          "type": "address"
        }
      ],
      "name": "DepositIsPaused",
      "type": "error"
    },
    {
      "inputs": [],
      "name": "InvalidOraclePrice",
      "type": "error"
    },
    {
      "inputs": [],
      "name": "InvalidPriceTolerance",
      "type": "error"
    },
    {
      "inputs": [],
      "name": "InvalidStalePeriod",
      "type": "error"
    },
    {
      "inputs": [
        {
          "internalType": "uint8",
          "name": "",
          "type": "uint8"
        }
      ],
      "name": "InvalidTokenDecimals",
      "type": "error"
    },
    {
      "inputs": [],
      "name": "MaxWhitelistedTokensReached",
      "type": "error"
    },
    {
      "inputs": [],
      "name": "PeggedTokenMismatch",
      "type": "error"
    },
    {
      "inputs": [
        {
          "internalType": "uint256",
          "name": "latestPrice",
          "type": "uint256"
        },
        {
          "internalType": "uint256",
          "name": "priceUpperBound",
          "type": "uint256"
        },
        {
          "internalType": "uint256",
          "name": "priceLowerBound",
          "type": "uint256"
        }
      ],
      "name": "PriceExceedTolerance",
      "type": "error"
    },
    {
      "inputs": [],
      "name": "ReentrancyGuardReentrantCall",
      "type": "error"
    },
    {
      "inputs": [],
      "name": "RemoveFromListFailed",
      "type": "error"
    },
    {
      "inputs": [],
      "name": "ReservedToken",
      "type": "error"
    },
    {
      "inputs": [
        {
          "internalType": "uint8",
          "name": "bits",
          "type": "uint8"
        },
        {
          "internalType": "uint256",
          "name": "value",
          "type": "uint256"
        }
      ],
      "name": "SafeCastOverflowedUintDowncast",
      "type": "error"
    },
    {
      "inputs": [
        {
          "internalType": "address",
          "name": "token",
          "type": "address"
        }
      ],
      "name": "SafeERC20FailedOperation",
      "type": "error"
    },
    {
      "inputs": [
        {
          "internalType": "address",
          "name": "oracle",
          "type": "address"
        }
      ],
      "name": "StalePrice",
      "type": "error"
    },
    {
      "inputs": [],
      "name": "SwapperNotSet",
      "type": "error"
    },
    {
      "inputs": [],
      "name": "TreasuryNotMigrated",
      "type": "error"
    },
    {
      "inputs": [
        {
          "internalType": "address",
          "name": "",
          "type": "address"
        }
      ],
      "name": "UnsupportedToken",
      "type": "error"
    },
    {
      "inputs": [
        {
          "internalType": "address",
          "name": "",
          "type": "address"
        }
      ],
      "name": "WithdrawIsPaused",
      "type": "error"
    },
    {
      "anonymous": false,
      "inputs": [
        {
          "indexed": true,
          "internalType": "address",
          "name": "token",
          "type": "address"
        },
        {
          "indexed": true,
          "internalType": "address",
          "name": "vault",
          "type": "address"
        },
        {
          "indexed": true,
          "internalType": "address",
          "name": "oracle",
          "type": "address"
        }
      ],
      "name": "AddedToWhitelist",
      "type": "event"
    },
    {
      "anonymous": false,
      "inputs": [],
      "name": "DefaultAdminDelayChangeCanceled",
      "type": "event"
    },
    {
      "anonymous": false,
      "inputs": [
        {
          "indexed": false,
          "internalType": "uint48",
          "name": "newDelay",
          "type": "uint48"
        },
        {
          "indexed": false,
          "internalType": "uint48",
          "name": "effectSchedule",
          "type": "uint48"
        }
      ],
      "name": "DefaultAdminDelayChangeScheduled",
      "type": "event"
    },
    {
      "anonymous": false,
      "inputs": [],
      "name": "DefaultAdminTransferCanceled",
      "type": "event"
    },
    {
      "anonymous": false,
      "inputs": [
        {
          "indexed": true,
          "internalType": "address",
          "name": "newAdmin",
          "type": "address"
        },
        {
          "indexed": false,
          "internalType": "uint48",
          "name": "acceptSchedule",
          "type": "uint48"
        }
      ],
      "name": "DefaultAdminTransferScheduled",
      "type": "event"
    },
    {
      "anonymous": false,
      "inputs": [
        {
          "indexed": true,
          "internalType": "address",
          "name": "token",
          "type": "address"
        },
        {
          "indexed": false,
          "internalType": "uint256",
          "name": "amount",
          "type": "uint256"
        }
      ],
      "name": "ExcessWithdrawn",
      "type": "event"
    },
    {
      "anonymous": false,
      "inputs": [
        {
          "indexed": true,
          "internalType": "address",
          "name": "newTreasury",
          "type": "address"
        }
      ],
      "name": "Migrated",
      "type": "event"
    },
    {
      "anonymous": false,
      "inputs": [
        {
          "indexed": true,
          "internalType": "address",
          "name": "token",
          "type": "address"
        }
      ],
      "name": "RemovedFromWhitelist",
      "type": "event"
    },
    {
      "anonymous": false,
      "inputs": [
        {
          "indexed": true,
          "internalType": "bytes32",
          "name": "role",
          "type": "bytes32"
        },
        {
          "indexed": true,
          "internalType": "bytes32",
          "name": "previousAdminRole",
          "type": "bytes32"
        },
        {
          "indexed": true,
          "internalType": "bytes32",
          "name": "newAdminRole",
          "type": "bytes32"
        }
      ],
      "name": "RoleAdminChanged",
      "type": "event"
    },
    {
      "anonymous": false,
      "inputs": [
        {
          "indexed": true,
          "internalType": "bytes32",
          "name": "role",
          "type": "bytes32"
        },
        {
          "indexed": true,
          "internalType": "address",
          "name": "account",
          "type": "address"
        },
        {
          "indexed": true,
          "internalType": "address",
          "name": "sender",
          "type": "address"
        }
      ],
      "name": "RoleGranted",
      "type": "event"
    },
    {
      "anonymous": false,
      "inputs": [
        {
          "indexed": true,
          "internalType": "bytes32",
          "name": "role",
          "type": "bytes32"
        },
        {
          "indexed": true,
          "internalType": "address",
          "name": "account",
          "type": "address"
        },
        {
          "indexed": true,
          "internalType": "address",
          "name": "sender",
          "type": "address"
        }
      ],
      "name": "RoleRevoked",
      "type": "event"
    },
    {
      "anonymous": false,
      "inputs": [
        {
          "indexed": true,
          "internalType": "address",
          "name": "token",
          "type": "address"
        },
        {
          "indexed": false,
          "internalType": "bool",
          "name": "newValue",
          "type": "bool"
        }
      ],
      "name": "SetDepositActive",
      "type": "event"
    },
    {
      "anonymous": false,
      "inputs": [
        {
          "indexed": true,
          "internalType": "address",
          "name": "token",
          "type": "address"
        },
        {
          "indexed": false,
          "internalType": "bool",
          "name": "newValue",
          "type": "bool"
        }
      ],
      "name": "SetWithdrawActive",
      "type": "event"
    },
    {
      "anonymous": false,
      "inputs": [
        {
          "indexed": true,
          "internalType": "address",
          "name": "tokenIn",
          "type": "address"
        },
        {
          "indexed": true,
          "internalType": "address",
          "name": "tokenOut",
          "type": "address"
        },
        {
          "indexed": false,
          "internalType": "uint256",
          "name": "amountIn",
          "type": "uint256"
        }
      ],
      "name": "Swapped",
      "type": "event"
    },
    {
      "anonymous": false,
      "inputs": [
        {
          "indexed": true,
          "internalType": "address",
          "name": "token",
          "type": "address"
        },
        {
          "indexed": false,
          "internalType": "uint256",
          "name": "amount",
          "type": "uint256"
        },
        {
          "indexed": true,
          "internalType": "address",
          "name": "receiver",
          "type": "address"
        }
      ],
      "name": "Swept",
      "type": "event"
    },
    {
      "anonymous": false,
      "inputs": [
        {
          "indexed": true,
          "internalType": "address",
          "name": "token",
          "type": "address"
        },
        {
          "indexed": true,
          "internalType": "address",
          "name": "oracle",
          "type": "address"
        },
        {
          "indexed": false,
          "internalType": "uint256",
          "name": "stalePeriod",
          "type": "uint256"
        }
      ],
      "name": "UpdatedOracle",
      "type": "event"
    },
    {
      "anonymous": false,
      "inputs": [
        {
          "indexed": false,
          "internalType": "uint256",
          "name": "previousPriceTolerance",
          "type": "uint256"
        },
        {
          "indexed": false,
          "internalType": "uint256",
          "name": "newPriceTolerance",
          "type": "uint256"
        }
      ],
      "name": "UpdatedPriceTolerance",
      "type": "event"
    },
    {
      "anonymous": false,
      "inputs": [
        {
          "indexed": true,
          "internalType": "address",
          "name": "previousSwapper",
          "type": "address"
        },
        {
          "indexed": true,
          "internalType": "address",
          "name": "newSwapper",
          "type": "address"
        }
      ],
      "name": "UpdatedSwapper",
      "type": "event"
    },
    {
      "inputs": [],
      "name": "DEFAULT_ADMIN_ROLE",
      "outputs": [
        {
          "internalType": "bytes32",
          "name": "",
          "type": "bytes32"
        }
      ],
      "stateMutability": "view",
      "type": "function"
    },
    {
      "inputs": [],
      "name": "KEEPER_ROLE",
      "outputs": [
        {
          "internalType": "bytes32",
          "name": "",
          "type": "bytes32"
        }
      ],
      "stateMutability": "view",
      "type": "function"
    },
    {
      "inputs": [],
      "name": "MAINTAINER_ROLE",
      "outputs": [
        {
          "internalType": "bytes32",
          "name": "",
          "type": "bytes32"
        }
      ],
      "stateMutability": "view",
      "type": "function"
    },
    {
      "inputs": [],
      "name": "MAX_BPS",
      "outputs": [
        {
          "internalType": "uint256",
          "name": "",
          "type": "uint256"
        }
      ],
      "stateMutability": "view",
      "type": "function"
    },
    {
      "inputs": [],
      "name": "MAX_STALE_PERIOD",
      "outputs": [
        {
          "internalType": "uint256",
          "name": "",
          "type": "uint256"
        }
      ],
      "stateMutability": "view",
      "type": "function"
    },
    {
      "inputs": [],
      "name": "MAX_WHITELISTED_TOKENS",
      "outputs": [
        {
          "internalType": "uint256",
          "name": "",
          "type": "uint256"
        }
      ],
      "stateMutability": "view",
      "type": "function"
    },
    {
      "inputs": [],
      "name": "NAME",
      "outputs": [
        {
          "internalType": "string",
          "name": "",
          "type": "string"
        }
      ],
      "stateMutability": "view",
      "type": "function"
    },
    {
      "inputs": [],
      "name": "PEGGED_TOKEN",
      "outputs": [
        {
          "internalType": "contract IPeggedToken",
          "name": "",
          "type": "address"
        }
      ],
      "stateMutability": "view",
      "type": "function"
    },
    {
      "inputs": [],
      "name": "UMM_ROLE",
      "outputs": [
        {
          "internalType": "bytes32",
          "name": "",
          "type": "bytes32"
        }
      ],
      "stateMutability": "view",
      "type": "function"
    },
    {
      "inputs": [],
      "name": "VERSION",
      "outputs": [
        {
          "internalType": "string",
          "name": "",
          "type": "string"
        }
      ],
      "stateMutability": "view",
      "type": "function"
    },
    {
      "inputs": [],
      "name": "acceptDefaultAdminTransfer",
      "outputs": [],
      "stateMutability": "nonpayable",
      "type": "function"
    },
    {
      "inputs": [
        {
          "internalType": "address",
          "name": "token_",
          "type": "address"
        },
        {
          "internalType": "address",
          "name": "vault_",
          "type": "address"
        },
        {
          "internalType": "address",
          "name": "oracle_",
          "type": "address"
        },
        {
          "internalType": "uint256",
          "name": "stalePeriod_",
          "type": "uint256"
        }
      ],
      "name": "addToWhitelist",
      "outputs": [],
      "stateMutability": "nonpayable",
      "type": "function"
    },
    {
      "inputs": [
        {
          "internalType": "address",
          "name": "newAdmin",
          "type": "address"
        }
      ],
      "name": "beginDefaultAdminTransfer",
      "outputs": [],
      "stateMutability": "nonpayable",
      "type": "function"
    },
    {
      "inputs": [],
      "name": "cancelDefaultAdminTransfer",
      "outputs": [],
      "stateMutability": "nonpayable",
      "type": "function"
    },
    {
      "inputs": [
        {
          "internalType": "uint48",
          "name": "newDelay",
          "type": "uint48"
        }
      ],
      "name": "changeDefaultAdminDelay",
      "outputs": [],
      "stateMutability": "nonpayable",
      "type": "function"
    },
    {
      "inputs": [],
      "name": "defaultAdmin",
      "outputs": [
        {
          "internalType": "address",
          "name": "",
          "type": "address"
        }
      ],
      "stateMutability": "view",
      "type": "function"
    },
    {
      "inputs": [],
      "name": "defaultAdminDelay",
      "outputs": [
        {
          "internalType": "uint48",
          "name": "",
          "type": "uint48"
        }
      ],
      "stateMutability": "view",
      "type": "function"
    },
    {
      "inputs": [],
      "name": "defaultAdminDelayIncreaseWait",
      "outputs": [
        {
          "internalType": "uint48",
          "name": "",
          "type": "uint48"
        }
      ],
      "stateMutability": "view",
      "type": "function"
    },
    {
      "inputs": [
        {
          "internalType": "address",
          "name": "token_",
          "type": "address"
        },
        {
          "internalType": "uint256",
          "name": "amount_",
          "type": "uint256"
        }
      ],
      "name": "deposit",
      "outputs": [],
      "stateMutability": "nonpayable",
      "type": "function"
    },
    {
      "inputs": [],
      "name": "gateway",
      "outputs": [
        {
          "internalType": "address",
          "name": "",
          "type": "address"
        }
      ],
      "stateMutability": "view",
      "type": "function"
    },
    {
      "inputs": [
        {
          "internalType": "address",
          "name": "token_",
          "type": "address"
        }
      ],
      "name": "getPrice",
      "outputs": [
        {
          "internalType": "uint256",
          "name": "_latestPrice",
          "type": "uint256"
        },
        {
          "internalType": "uint256",
          "name": "_unitPrice",
          "type": "uint256"
        }
      ],
      "stateMutability": "view",
      "type": "function"
    },
    {
      "inputs": [
        {
          "internalType": "bytes32",
          "name": "role",
          "type": "bytes32"
        }
      ],
      "name": "getRoleAdmin",
      "outputs": [
        {
          "internalType": "bytes32",
          "name": "",
          "type": "bytes32"
        }
      ],
      "stateMutability": "view",
      "type": "function"
    },
    {
      "inputs": [
        {
          "internalType": "bytes32",
          "name": "role",
          "type": "bytes32"
        },
        {
          "internalType": "address",
          "name": "account",
          "type": "address"
        }
      ],
      "name": "grantRole",
      "outputs": [],
      "stateMutability": "nonpayable",
      "type": "function"
    },
    {
      "inputs": [
        {
          "internalType": "address",
          "name": "token_",
          "type": "address"
        },
        {
          "internalType": "address",
          "name": "receiver_",
          "type": "address"
        }
      ],
      "name": "harvest",
      "outputs": [
        {
          "internalType": "uint256",
          "name": "",
          "type": "uint256"
        }
      ],
      "stateMutability": "nonpayable",
      "type": "function"
    },
    {
      "inputs": [
        {
          "internalType": "bytes32",
          "name": "role",
          "type": "bytes32"
        },
        {
          "internalType": "address",
          "name": "account",
          "type": "address"
        }
      ],
      "name": "hasRole",
      "outputs": [
        {
          "internalType": "bool",
          "name": "",
          "type": "bool"
        }
      ],
      "stateMutability": "view",
      "type": "function"
    },
    {
      "inputs": [
        {
          "internalType": "address",
          "name": "token_",
          "type": "address"
        }
      ],
      "name": "isWhitelistedToken",
      "outputs": [
        {
          "internalType": "bool",
          "name": "",
          "type": "bool"
        }
      ],
      "stateMutability": "view",
      "type": "function"
    },
    {
      "inputs": [
        {
          "internalType": "address",
          "name": "newTreasury_",
          "type": "address"
        }
      ],
      "name": "migrate",
      "outputs": [],
      "stateMutability": "nonpayable",
      "type": "function"
    },
    {
      "inputs": [],
      "name": "owner",
      "outputs": [
        {
          "internalType": "address",
          "name": "",
          "type": "address"
        }
      ],
      "stateMutability": "view",
      "type": "function"
    },
    {
      "inputs": [],
      "name": "pendingDefaultAdmin",
      "outputs": [
        {
          "internalType": "address",
          "name": "newAdmin",
          "type": "address"
        },
        {
          "internalType": "uint48",
          "name": "schedule",
          "type": "uint48"
        }
      ],
      "stateMutability": "view",
      "type": "function"
    },
    {
      "inputs": [],
      "name": "pendingDefaultAdminDelay",
      "outputs": [
        {
          "internalType": "uint48",
          "name": "newDelay",
          "type": "uint48"
        },
        {
          "internalType": "uint48",
          "name": "schedule",
          "type": "uint48"
        }
      ],
      "stateMutability": "view",
      "type": "function"
    },
    {
      "inputs": [],
      "name": "priceTolerance",
      "outputs": [
        {
          "internalType": "uint256",
          "name": "",
          "type": "uint256"
        }
      ],
      "stateMutability": "view",
      "type": "function"
    },
    {
      "inputs": [
        {
          "internalType": "address",
          "name": "token_",
          "type": "address"
        },
        {
          "internalType": "uint256",
          "name": "amount_",
          "type": "uint256"
        }
      ],
      "name": "pull",
      "outputs": [],
      "stateMutability": "nonpayable",
      "type": "function"
    },
    {
      "inputs": [
        {
          "internalType": "address",
          "name": "token_",
          "type": "address"
        },
        {
          "internalType": "uint256",
          "name": "amount_",
          "type": "uint256"
        }
      ],
      "name": "push",
      "outputs": [],
      "stateMutability": "nonpayable",
      "type": "function"
    },
    {
      "inputs": [
        {
          "internalType": "address",
          "name": "token_",
          "type": "address"
        }
      ],
      "name": "removeFromWhitelist",
      "outputs": [],
      "stateMutability": "nonpayable",
      "type": "function"
    },
    {
      "inputs": [
        {
          "internalType": "bytes32",
          "name": "role",
          "type": "bytes32"
        },
        {
          "internalType": "address",
          "name": "account",
          "type": "address"
        }
      ],
      "name": "renounceRole",
      "outputs": [],
      "stateMutability": "nonpayable",
      "type": "function"
    },
    {
      "inputs": [],
      "name": "reserve",
      "outputs": [
        {
          "internalType": "uint256",
          "name": "_reserve",
          "type": "uint256"
        }
      ],
      "stateMutability": "view",
      "type": "function"
    },
    {
      "inputs": [
        {
          "internalType": "bytes32",
          "name": "role",
          "type": "bytes32"
        },
        {
          "internalType": "address",
          "name": "account",
          "type": "address"
        }
      ],
      "name": "revokeRole",
      "outputs": [],
      "stateMutability": "nonpayable",
      "type": "function"
    },
    {
      "inputs": [],
      "name": "rollbackDefaultAdminDelay",
      "outputs": [],
      "stateMutability": "nonpayable",
      "type": "function"
    },
    {
      "inputs": [
        {
          "internalType": "address",
          "name": "token_",
          "type": "address"
        },
        {
          "internalType": "bool",
          "name": "active_",
          "type": "bool"
        }
      ],
      "name": "setDepositActive",
      "outputs": [],
      "stateMutability": "nonpayable",
      "type": "function"
    },
    {
      "inputs": [
        {
          "internalType": "address",
          "name": "token_",
          "type": "address"
        },
        {
          "internalType": "bool",
          "name": "active_",
          "type": "bool"
        }
      ],
      "name": "setWithdrawActive",
      "outputs": [],
      "stateMutability": "nonpayable",
      "type": "function"
    },
    {
      "inputs": [
        {
          "internalType": "bytes4",
          "name": "interfaceId",
          "type": "bytes4"
        }
      ],
      "name": "supportsInterface",
      "outputs": [
        {
          "internalType": "bool",
          "name": "",
          "type": "bool"
        }
      ],
      "stateMutability": "view",
      "type": "function"
    },
    {
      "inputs": [
        {
          "internalType": "address",
          "name": "tokenIn_",
          "type": "address"
        },
        {
          "internalType": "address",
          "name": "tokenOut_",
          "type": "address"
        },
        {
          "internalType": "uint256",
          "name": "amountIn_",
          "type": "uint256"
        },
        {
          "internalType": "uint256",
          "name": "minAmountOut_",
          "type": "uint256"
        }
      ],
      "name": "swap",
      "outputs": [
        {
          "internalType": "uint256",
          "name": "",
          "type": "uint256"
        }
      ],
      "stateMutability": "nonpayable",
      "type": "function"
    },
    {
      "inputs": [],
      "name": "swapper",
      "outputs": [
        {
          "internalType": "address",
          "name": "",
          "type": "address"
        }
      ],
      "stateMutability": "view",
      "type": "function"
    },
    {
      "inputs": [
        {
          "internalType": "address",
          "name": "fromToken_",
          "type": "address"
        },
        {
          "internalType": "address",
          "name": "receiver_",
          "type": "address"
        }
      ],
      "name": "sweep",
      "outputs": [],
      "stateMutability": "nonpayable",
      "type": "function"
    },
    {
      "inputs": [
        {
          "internalType": "address",
          "name": "token",
          "type": "address"
        }
      ],
      "name": "tokenConfig",
      "outputs": [
        {
          "internalType": "address",
          "name": "vault",
          "type": "address"
        },
        {
          "internalType": "address",
          "name": "oracle",
          "type": "address"
        },
        {
          "internalType": "uint256",
          "name": "stalePeriod",
          "type": "uint256"
        },
        {
          "internalType": "bool",
          "name": "depositActive",
          "type": "bool"
        },
        {
          "internalType": "bool",
          "name": "withdrawActive",
          "type": "bool"
        },
        {
          "internalType": "uint8",
          "name": "decimals",
          "type": "uint8"
        }
      ],
      "stateMutability": "view",
      "type": "function"
    },
    {
      "inputs": [
        {
          "internalType": "address",
          "name": "token_",
          "type": "address"
        },
        {
          "internalType": "address",
          "name": "oracle_",
          "type": "address"
        },
        {
          "internalType": "uint256",
          "name": "newStalePeriod_",
          "type": "uint256"
        }
      ],
      "name": "updateOracle",
      "outputs": [],
      "stateMutability": "nonpayable",
      "type": "function"
    },
    {
      "inputs": [
        {
          "internalType": "uint256",
          "name": "newPriceTolerance_",
          "type": "uint256"
        }
      ],
      "name": "updatePriceTolerance",
      "outputs": [],
      "stateMutability": "nonpayable",
      "type": "function"
    },
    {
      "inputs": [
        {
          "internalType": "address",
          "name": "swapper_",
          "type": "address"
        }
      ],
      "name": "updateSwapper",
      "outputs": [],
      "stateMutability": "nonpayable",
      "type": "function"
    },
    {
      "inputs": [],
      "name": "whitelistedTokens",
      "outputs": [
        {
          "internalType": "address[]",
          "name": "",
          "type": "address[]"
        }
      ],
      "stateMutability": "view",
      "type": "function"
    },
    {
      "inputs": [
        {
          "internalType": "address",
          "name": "token_",
          "type": "address"
        },
        {
          "internalType": "uint256",
          "name": "amount_",
          "type": "uint256"
        },
        {
          "internalType": "address",
          "name": "tokenReceiver_",
          "type": "address"
        }
      ],
      "name": "withdraw",
      "outputs": [],
      "stateMutability": "nonpayable",
      "type": "function"
    },
    {
      "inputs": [
        {
          "internalType": "address",
          "name": "token_",
          "type": "address"
        }
      ],
      "name": "withdrawable",
      "outputs": [
        {
          "internalType": "uint256",
          "name": "",
          "type": "uint256"
        }
      ],
      "stateMutability": "view",
      "type": "function"
    }
  ],
  "transactionHash": "0xd153fc9c0aabd39fee3e891c1c1bf00177b4e3732eb8ec0606d267328f262eb7",
  "args": [
    "0xCa83DDE9c22254f58e771bE5E157773212AcBAc3",
    "0xE173b056eF552c7322040703dDfC1e0638A575d3"
  ],
  "numDeployments": 1,
  "solcInputHash": "02d8ea76e2916585716ca3d7d2aad7ad",
  "bytecode": "0x60a06040526064600455348015610014575f5ffd5b506040516142a13803806142a1833981016040819052610033916102e2565b6203f480816001600160a01b03811661006557604051636116401160e11b81525f600482015260240160405180910390fd5b600180546001600160d01b0316600160d01b65ffffffffffff85160217905561008e5f826101b1565b5050506001600160a01b0382166100b85760405163867915ab60e01b815260040160405180910390fd5b6001600160a01b0382166080819052604080516395d89b4160e01b815290516395d89b41916004808201925f929091908290030181865afa1580156100ff573d5f5f3e3d5ffd5b505050506040513d5f823e601f3d908101601f191682016040526101269190810190610327565b60405160200161013691906103d7565b604051602081830303815290604052600390816101539190610480565b5061017e7ffc8737ab85eb45125971625a9ebdb75cc78e01d5c1fa80c4c6e5203f47bc4fab336101b1565b506101a97f339759585899103d2ace64958e37e18ccb0504652c81d4a1b8aa80fe2126ab95336101b1565b50505061053a565b5f8261020d575f6101ca6002546001600160a01b031690565b6001600160a01b0316146101f157604051631fe1e13d60e11b815260040160405180910390fd5b600280546001600160a01b0319166001600160a01b0384161790555b6102178383610220565b90505b92915050565b5f828152602081815260408083206001600160a01b038516845290915281205460ff166102c0575f838152602081815260408083206001600160a01b03861684529091529020805460ff191660011790556102783390565b6001600160a01b0316826001600160a01b0316847f2f8788117e7eff1d82e926ec794901d17c78024a50270940304540a733656f0d60405160405180910390a450600161021a565b505f61021a565b80516001600160a01b03811681146102dd575f5ffd5b919050565b5f5f604083850312156102f3575f5ffd5b6102fc836102c7565b915061030a602084016102c7565b90509250929050565b634e487b7160e01b5f52604160045260245ffd5b5f60208284031215610337575f5ffd5b81516001600160401b0381111561034c575f5ffd5b8201601f8101841361035c575f5ffd5b80516001600160401b0381111561037557610375610313565b604051601f8201601f19908116603f011681016001600160401b03811182821017156103a3576103a3610313565b6040528181528282016020018610156103ba575f5ffd5b8160208401602083015e5f91810160200191909152949350505050565b5f82518060208501845e682d547265617375727960b81b920191825250600901919050565b600181811c9082168061041057607f821691505b60208210810361042e57634e487b7160e01b5f52602260045260245ffd5b50919050565b601f82111561047b57805f5260205f20601f840160051c810160208510156104595750805b601f840160051c820191505b81811015610478575f8155600101610465565b50505b505050565b81516001600160401b0381111561049957610499610313565b6104ad816104a784546103fc565b84610434565b6020601f8211600181146104df575f83156104c85750848201515b5f19600385901b1c1916600184901b178455610478565b5f84815260208120601f198516915b8281101561050e57878501518255602094850194600190920191016104ee565b508482101561052b57868401515f19600387901b60f8161c191681555b50505050600190811b01905550565b608051613d1e6105835f395f8181610431015281816107cc015281816109ad015281816110d90152818161225f015281816122b101528181612c240152612ca70152613d1e5ff3fe608060405234801561000f575f5ffd5b50600436106102e5575f3560e01c806391d1485411610195578063ce5494bb116100e4578063f2d5d56b1161009e578063fd967f4711610079578063fd967f47146106b4578063fe029156146106bd578063fe136c4e146106d0578063ffa1ad7414610766575f5ffd5b8063f2d5d56b14610666578063f69516bd14610679578063f8742254146106a0575f5ffd5b8063ce5494bb146105ef578063cefc142914610602578063cf6eefb71461060a578063d3033c3914610638578063d547741f1461064b578063d602b9fd1461065e575f5ffd5b8063b753a98c1161014f578063cc8463c81161012a578063cc8463c8146105b9578063cd110f11146105c1578063cd3293de146105d4578063ce513b6f146105dc575f5ffd5b8063b753a98c14610580578063b8dc491b14610593578063c760af5c146105a6575f5ffd5b806391d1485414610504578063a1eda53c14610517578063a217fddf1461053e578063a3f4df7e14610545578063ab37f4861461055a578063b5034eb21461056d575f5ffd5b806349aafe8211610251578063649a5ec71161020b5780637c08fe02116101e65780637c08fe02146104d057806384ef8ffc146104d85780638ab1d681146104e95780638da5cb5b146104fc575f5ffd5b8063649a5ec71461049757806366cc1857146104aa57806369328dec146104bd575f5ffd5b806349aafe82146104195780634e485cf71461042c57806359011cd1146104535780635bd346071461045c5780635e1762a01461046f578063634e93da14610484575f5ffd5b80632b3297f9116102a25780632b3297f9146103915780632f2ff15d146103a4578063364bc15a146103b757806336568abe146103cb57806341976e09146103de57806347e7ef2414610406575f5ffd5b806301ffc9a7146102e9578063022d63fb14610311578063064b914f1461032d5780630aa6220b14610345578063116191b61461034f578063248a9ca31461036f575b5f5ffd5b6102fc6102f73660046136ec565b61078a565b60405190151581526020015b60405180910390f35b620697805b60405165ffffffffffff9091168152602001610308565b6103376203f48081565b604051908152602001610308565b61034d6107b4565b005b6103576107c9565b6040516001600160a01b039091168152602001610308565b61033761037d366004613713565b5f9081526020819052604090206001015490565b600554610357906001600160a01b031681565b61034d6103b236600461373e565b61084f565b6103375f516020613ca95f395f51905f5281565b61034d6103d936600461373e565b61087b565b6103f16103ec36600461376c565b610926565b60408051928352602083019190915201610308565b61034d610414366004613787565b6109a3565b61034d6104273660046137b1565b610b60565b6103577f000000000000000000000000000000000000000000000000000000000000000081565b61033760045481565b61034d61046a3660046137ef565b610c6e565b610477610d26565b604051610308919061381f565b61034d61049236600461376c565b610d32565b61034d6104a536600461386a565b610d45565b6103376104b836600461388f565b610d58565b61034d6104cb3660046138bb565b6110cf565b610337600a81565b6002546001600160a01b0316610357565b61034d6104f736600461376c565b611392565b6103576114f1565b6102fc61051236600461373e565b611504565b61051f61152c565b6040805165ffffffffffff938416815292909116602083015201610308565b6103375f81565b61054d61157e565b60405161030891906138fa565b6102fc61056836600461376c565b61160a565b61034d61057b3660046137ef565b611616565b61034d61058e366004613787565b6116ba565b61034d6105a136600461388f565b611802565b61034d6105b4366004613713565b6119a0565b610316611a1c565b61034d6105cf36600461392f565b611a7a565b610337611e00565b6103376105ea36600461376c565b612044565b61034d6105fd36600461376c565b6121c3565b61034d612483565b6106126124c2565b604080516001600160a01b03909316835265ffffffffffff909116602083015201610308565b61034d61064636600461376c565b6124e3565b61034d61065936600461373e565b61257d565b61034d6125a5565b61034d610674366004613787565b6125b7565b6103377f0409f54a149f7e9c092b20899db5e0090f5fe0d95cec1f328884d998633a8de881565b6103375f516020613cc95f395f51905f5281565b61033761271081565b6103376106cb36600461397d565b612653565b6107276106de36600461376c565b60066020525f908152604090208054600182015460028301546003909301546001600160a01b0392831693919092169160ff808216916101008104821691620100009091041686565b604080516001600160a01b03978816815296909516602087015293850192909252151560608401521515608083015260ff1660a082015260c001610308565b61054d604051806040016040528060058152602001640312e302e360dc1b81525081565b5f6001600160e01b031982166318a4c3c360e11b14806107ae57506107ae8261282a565b92915050565b5f6107be8161285e565b6107c6612868565b50565b5f7f00000000000000000000000000000000000000000000000000000000000000006001600160a01b031663116191b66040518163ffffffff1660e01b8152600401602060405180830381865afa158015610826573d5f5f3e3d5ffd5b505050506040513d601f19601f8201168201806040525081019061084a91906139c0565b905090565b8161086d57604051631fe1e13d60e11b815260040160405180910390fd5b6108778282612874565b5050565b8115801561089657506002546001600160a01b038281169116145b1561091c575f5f6108a56124c2565b90925090506001600160a01b0382161515806108c7575065ffffffffffff8116155b806108da57504265ffffffffffff821610155b15610907576040516319ca5ebb60e01b815265ffffffffffff821660048201526024015b60405180910390fd5b50506001805465ffffffffffff60a01b191690555b6108778282612898565b6001600160a01b038082165f9081526006602052604081206001015490918291168061097057604051635f8b555b60e11b81526001600160a01b03851660048201526024016108fe565b6001600160a01b0384165f908152600660205260409020600201546004546109999183916128cb565b9250925050915091565b6109ab612a78565b7f00000000000000000000000000000000000000000000000000000000000000006001600160a01b031663116191b66040518163ffffffff1660e01b8152600401602060405180830381865afa158015610a07573d5f5f3e3d5ffd5b505050506040513d601f19601f82011682018060405250810190610a2b91906139c0565b6001600160a01b0316336001600160a01b031614610a5e5760405163078a905f60e51b81523360048201526024016108fe565b610a69600783612ae5565b610a9157604051635f8b555b60e11b81526001600160a01b03831660048201526024016108fe565b6001600160a01b0382165f9081526006602052604090206003015460ff16610ad7576040516349fc997760e11b81526001600160a01b03831660048201526024016108fe565b6001600160a01b038281165f9081526006602052604090819020549051636e553f6560e01b815260048101849052306024820152911690636e553f65906044016020604051808303815f875af1158015610b33573d5f5f3e3d5ffd5b505050506040513d601f19601f82011682018060405250810190610b5791906139db565b50610877612b09565b5f516020613cc95f395f51905f52610b778161285e565b610b82600785612ae5565b610baa57604051635f8b555b60e11b81526001600160a01b03851660048201526024016108fe565b6001600160a01b038316610bd15760405163867915ab60e01b815260040160405180910390fd5b811580610be057506203f48082115b15610bfe57604051636fd462b560e01b815260040160405180910390fd5b6001600160a01b038481165f818152600660209081526040918290206001810180546001600160a01b031916958916958617905560020186905590518581527f97617a5525c215c6ce8be06021f0cb489578937e2ce04b9d8d1209d0527db7c5910160405180910390a350505050565b5f516020613ca95f395f51905f52610c858161285e565b610c90600784612ae5565b610cb857604051635f8b555b60e11b81526001600160a01b03841660048201526024016108fe565b6001600160a01b0383165f818152600660205260409081902060030180548515156101000261ff0019909116179055517fe42f32c8178bf44f474966892eb868bc036112f750b5aba609e616be843948bc90610d1990851515815260200190565b60405180910390a2505050565b606061084a6007612b33565b5f610d3c8161285e565b61087782612b3f565b5f610d4f8161285e565b61087782612bb1565b5f7f0409f54a149f7e9c092b20899db5e0090f5fe0d95cec1f328884d998633a8de8610d838161285e565b610d8b612a78565b610d96600785612ae5565b610dbe57604051635f8b555b60e11b81526001600160a01b03851660048201526024016108fe565b6001600160a01b038316610de55760405163867915ab60e01b815260040160405180910390fd5b5f610def85612c20565b9050805f03610e01575f9250506110c0565b6040516370a0823160e01b81523060048201525f9081906001600160a01b038816906370a0823190602401602060405180830381865afa158015610e47573d5f5f3e3d5ffd5b505050506040513d601f19601f82011682018060405250810190610e6b91906139db565b90508015610efb575f610e7e8285612e39565b9050610e946001600160a01b0389168883612e48565b809250838303610eed57876001600160a01b03167f9bdedcc968f2c0682145c20289dfbb3081a39684571116ab45eabfef512e947384604051610ed991815260200190565b60405180910390a2829550505050506110c0565b610ef78385613a06565b9350505b6001600160a01b038781165f908152600660205260408082205490516370a0823160e01b815230600482015292169182906307a2d13a9082906370a0823190602401602060405180830381865afa158015610f58573d5f5f3e3d5ffd5b505050506040513d601f19601f82011682018060405250810190610f7c91906139db565b6040518263ffffffff1660e01b8152600401610f9a91815260200190565b602060405180830381865afa158015610fb5573d5f5f3e3d5ffd5b505050506040513d601f19601f82011682018060405250810190610fd991906139db565b90508015611075575f610fec8683612e39565b604051632d182be560e21b8152600481018290526001600160a01b038b811660248301523060448301529192509084169063b460af94906064016020604051808303815f875af1158015611042573d5f5f3e3d5ffd5b505050506040513d601f19601f8201168201806040525081019061106691906139db565b506110718186613a19565b9450505b886001600160a01b03167f9bdedcc968f2c0682145c20289dfbb3081a39684571116ab45eabfef512e9473856040516110b091815260200190565b60405180910390a2509194505050505b6110c8612b09565b5092915050565b6110d7612a78565b7f00000000000000000000000000000000000000000000000000000000000000006001600160a01b031663116191b66040518163ffffffff1660e01b8152600401602060405180830381865afa158015611133573d5f5f3e3d5ffd5b505050506040513d601f19601f8201168201806040525081019061115791906139c0565b6001600160a01b0316336001600160a01b03161461118a5760405163078a905f60e51b81523360048201526024016108fe565b611195600784612ae5565b6111bd57604051635f8b555b60e11b81526001600160a01b03841660048201526024016108fe565b6001600160a01b038084165f90815260066020908152604091829020825160c0810184528154851681526001820154909416918401919091526002810154918301919091526003015460ff8082161515606084015261010082048116151560808401819052620100009092041660a083015261125757604051631fe3ebef60e21b81526001600160a01b03851660048201526024016108fe565b6040516370a0823160e01b81523060048201525f906001600160a01b038616906370a0823190602401602060405180830381865afa15801561129b573d5f5f3e3d5ffd5b505050506040513d601f19601f820116820180604052508101906112bf91906139db565b90508381106112e1576112dc6001600160a01b0386168486612e48565b611383565b8015611308576112fb6001600160a01b0386168483612e48565b6113058185613a06565b93505b8151604051632d182be560e21b8152600481018690526001600160a01b0385811660248301523060448301529091169063b460af94906064016020604051808303815f875af115801561135d573d5f5f3e3d5ffd5b505050506040513d601f19601f8201168201806040525081019061138191906139db565b505b505061138d612b09565b505050565b5f61139c8161285e565b6113a7600783612ea7565b6113c45760405163c24bedff60e01b815260040160405180910390fd5b6001600160a01b038281165f908152600660205260408082205490516370a0823160e01b815230600482015292169182906370a0823190602401602060405180830381865afa158015611419573d5f5f3e3d5ffd5b505050506040513d601f19601f8201168201806040525081019061143d91906139db565b111561145c5760405163780dbb9b60e01b815260040160405180910390fd5b6001600160a01b038084165f81815260066020526040812054611480931690612ebb565b6001600160a01b0383165f8181526006602052604080822080546001600160a01b03199081168255600182018054909116905560028101839055600301805462ffffff19169055517fcdd2e9b91a56913d370075169cefa1602ba36be5301664f752192bb1709df7579190a2505050565b5f61084a6002546001600160a01b031690565b5f918252602082815260408084206001600160a01b0393909316845291905290205460ff1690565b6002545f90600160d01b900465ffffffffffff16801515801561155757504265ffffffffffff821610155b611562575f5f611576565b600254600160a01b900465ffffffffffff16815b915091509091565b6003805461158b90613a2c565b80601f01602080910402602001604051908101604052809291908181526020018280546115b790613a2c565b80156116025780601f106115d957610100808354040283529160200191611602565b820191905f5260205f20905b8154815290600101906020018083116115e557829003601f168201915b505050505081565b5f6107ae600783612ae5565b5f516020613ca95f395f51905f5261162d8161285e565b611638600784612ae5565b61166057604051635f8b555b60e11b81526001600160a01b03841660048201526024016108fe565b6001600160a01b0383165f81815260066020908152604091829020600301805460ff191686151590811790915591519182527fec8e92846f090e284fe3af69214673b93034178308baf850014c7b178521c63d9101610d19565b5f516020613ca95f395f51905f526116d18161285e565b6116dc600784612ae5565b61170457604051635f8b555b60e11b81526001600160a01b03841660048201526024016108fe565b5f198203611775576040516370a0823160e01b81523060048201526001600160a01b038416906370a0823190602401602060405180830381865afa15801561174e573d5f5f3e3d5ffd5b505050506040513d601f19601f8201168201806040525081019061177291906139db565b91505b811561138d576001600160a01b038381165f9081526006602052604090819020549051636e553f6560e01b815260048101859052306024820152911690636e553f65906044015b6020604051808303815f875af11580156117d8573d5f5f3e3d5ffd5b505050506040513d601f19601f820116820180604052508101906117fc91906139db565b50505050565b5f61180c8161285e565b6001600160a01b0382166118335760405163867915ab60e01b815260040160405180910390fd5b61183e600784612ae5565b1561185c57604051637af24bf760e01b815260040160405180910390fd5b5f6118676007612f4a565b90505f5b818110156118cd576001600160a01b03851660065f61188b600785612f53565b6001600160a01b03908116825260208201929092526040015f205416036118c557604051637af24bf760e01b815260040160405180910390fd5b60010161186b565b506040516370a0823160e01b81523060048201525f906001600160a01b038616906370a0823190602401602060405180830381865afa158015611912573d5f5f3e3d5ffd5b505050506040513d601f19601f8201168201806040525081019061193691906139db565b905061194c6001600160a01b0386168583612e48565b836001600160a01b0316856001600160a01b03167fbb3f74f3539ea7725781ff6810125a75c183f5c944318fc94873d1324f0482ae8360405161199191815260200190565b60405180910390a35050505050565b5f516020613cc95f395f51905f526119b78161285e565b6127108211156119da5760405163508f393f60e01b815260040160405180910390fd5b60045460408051918252602082018490527f3cb23ae97dcd603618548f333b96dbb9e41059b6fd0eb7face59058c5ac3b11b910160405180910390a150600455565b6002545f90600160d01b900465ffffffffffff168015158015611a4657504265ffffffffffff8216105b611a6157600154600160d01b900465ffffffffffff16611a74565b600254600160a01b900465ffffffffffff165b91505090565b5f611a848161285e565b6001600160a01b0385161580611aa157506001600160a01b038416155b80611ab357506001600160a01b038316155b15611ad15760405163867915ab60e01b815260040160405180910390fd5b815f03611af157604051636fd462b560e01b815260040160405180910390fd5b600a611afd6007612f4a565b10611b1b57604051637fe0979b60e01b815260040160405180910390fd5b5f856001600160a01b031663313ce5676040518163ffffffff1660e01b8152600401602060405180830381865afa158015611b58573d5f5f3e3d5ffd5b505050506040513d601f19601f82011682018060405250810190611b7c9190613a64565b905060128160ff161115611ba857604051635d00a5bb60e11b815260ff821660048201526024016108fe565b846001600160a01b03166338d52e0f6040518163ffffffff1660e01b8152600401602060405180830381865afa158015611be4573d5f5f3e3d5ffd5b505050506040513d601f19601f82011682018060405250810190611c0891906139c0565b6001600160a01b0316866001600160a01b031614611c39576040516341e0808560e11b815260040160405180910390fd5b611c44600787612f5e565b611c615760405163c2a660a960e01b815260040160405180910390fd5b6040518060c00160405280866001600160a01b03168152602001856001600160a01b031681526020018481526020016001151581526020016001151581526020018260ff1681525060065f886001600160a01b03166001600160a01b031681526020019081526020015f205f820151815f015f6101000a8154816001600160a01b0302191690836001600160a01b031602179055506020820151816001015f6101000a8154816001600160a01b0302191690836001600160a01b03160217905550604082015181600201556060820151816003015f6101000a81548160ff02191690831515021790555060808201518160030160016101000a81548160ff02191690831515021790555060a08201518160030160026101000a81548160ff021916908360ff160217905550905050611dae855f19886001600160a01b0316612ebb9092919063ffffffff16565b836001600160a01b0316856001600160a01b0316876001600160a01b03167f4ef74c648ce2bd2158a6ad1e2a476c0ea9a36a554b8c31b8f2b80e18b658baf560405160405180910390a4505050505050565b5f5f611e0c6007612f4a565b6004549091505f5b8281101561203e575f611e28600783612f53565b6001600160a01b038181165f908152600660205260408082205490516370a0823160e01b81523060048201529394509091169182906370a0823190602401602060405180830381865afa158015611e81573d5f5f3e3d5ffd5b505050506040513d601f19601f82011682018060405250810190611ea591906139db565b6040516370a0823160e01b81523060048201529091505f906001600160a01b038516906370a0823190602401602060405180830381865afa158015611eec573d5f5f3e3d5ffd5b505050506040513d601f19601f82011682018060405250810190611f1091906139db565b90508115611f8c576040516303d1689d60e11b8152600481018390526001600160a01b038416906307a2d13a90602401602060405180830381865afa158015611f5b573d5f5f3e3d5ffd5b505050506040513d601f19601f82011682018060405250810190611f7f91906139db565b611f899082613a19565b90505b801561202f576001600160a01b038085165f908152600660205260408120600181015460029091015491928392611fc792909116908a6128cb565b90925090505f611fd8848484612f72565b6001600160a01b0388165f9081526006602052604090206003015490915061200a9062010000900460ff166012613a84565b61201590600a613b80565b61201f9082613b8e565b612029908c613a19565b9a505050505b50505050806001019050611e14565b50505090565b6001600160a01b038082165f908152600660205260408120549091168061206d57505f92915050565b6040516370a0823160e01b81523060048201525f906001600160a01b038316906370a0823190602401602060405180830381865afa1580156120b1573d5f5f3e3d5ffd5b505050506040513d601f19601f820116820180604052508101906120d591906139db565b90505f81116120e4575f61214b565b6040516303d1689d60e11b8152600481018290526001600160a01b038316906307a2d13a90602401602060405180830381865afa158015612127573d5f5f3e3d5ffd5b505050506040513d601f19601f8201168201806040525081019061214b91906139db565b6040516370a0823160e01b81523060048201526001600160a01b038616906370a0823190602401602060405180830381865afa15801561218d573d5f5f3e3d5ffd5b505050506040513d601f19601f820116820180604052508101906121b191906139db565b6121bb9190613a19565b949350505050565b5f6121cd8161285e565b6001600160a01b0382166121f45760405163867915ab60e01b815260040160405180910390fd5b816001600160a01b0316634e485cf76040518163ffffffff1660e01b8152600401602060405180830381865afa158015612230573d5f5f3e3d5ffd5b505050506040513d601f19601f8201168201806040525081019061225491906139c0565b6001600160a01b03167f00000000000000000000000000000000000000000000000000000000000000006001600160a01b0316146122a5576040516322a79a3360e11b815260040160405180910390fd5b816001600160a01b03167f00000000000000000000000000000000000000000000000000000000000000006001600160a01b03166361d027b36040518163ffffffff1660e01b8152600401602060405180830381865afa15801561230b573d5f5f3e3d5ffd5b505050506040513d601f19601f8201168201806040525081019061232f91906139c0565b6001600160a01b0316146123565760405163e09ec50760e01b815260040160405180910390fd5b5f6123616007612f4a565b90505f5b8181101561244a575f612379600783612f53565b6040516370a0823160e01b81523060048201529091506123fa9086906001600160a01b038416906370a08231906024015b602060405180830381865afa1580156123c5573d5f5f3e3d5ffd5b505050506040513d601f19601f820116820180604052508101906123e991906139db565b6001600160a01b0384169190612e48565b6001600160a01b038181165f90815260066020526040908190205490516370a0823160e01b815230600482015291169061244090879083906370a08231906024016123aa565b5050600101612365565b506040516001600160a01b038416907fa2e7361c23d7820040603b83c0cd3f494d377bac69736377d75bb56c651a5098905f90a2505050565b5f61248c6124c2565b509050336001600160a01b038216146124ba57604051636116401160e11b81523360048201526024016108fe565b6107c6613028565b6001546001600160a01b03811691600160a01b90910465ffffffffffff1690565b5f516020613cc95f395f51905f526124fa8161285e565b6001600160a01b0382166125215760405163867915ab60e01b815260040160405180910390fd5b6005546040516001600160a01b038085169216907f6c953b7ec311055c20b96a42cea31e89528e375b1bf953a503db40854b3188fe905f90a350600580546001600160a01b0319166001600160a01b0392909216919091179055565b8161259b57604051631fe1e13d60e11b815260040160405180910390fd5b61087782826130be565b5f6125af8161285e565b6107c66130e2565b5f516020613ca95f395f51905f526125ce8161285e565b6125d9600784612ae5565b61260157604051635f8b555b60e11b81526001600160a01b03841660048201526024016108fe565b811561138d576001600160a01b038381165f9081526006602052604090819020549051632d182be560e21b8152600481018590523060248201819052604482015291169063b460af94906064016117bc565b5f5f516020613ca95f395f51905f5261266b8161285e565b6005546001600160a01b0316612694576040516311ecc39f60e21b815260040160405180910390fd5b61269f600787612ae5565b156126bd57604051637af24bf760e01b815260040160405180910390fd5b5f6126c86007612f4a565b90505f5b8181101561272e576001600160a01b03881660065f6126ec600785612f53565b6001600160a01b03908116825260208201929092526040015f2054160361272657604051637af24bf760e01b815260040160405180910390fd5b6001016126cc565b50600554612749906001600160a01b03898116911687612ebb565b856001600160a01b0316876001600160a01b03167f2e7f8a64aa3240292c0adfa332e1e8945dd31589fcb0bce2721fa21c69b1390f8760405161278e91815260200190565b60405180910390a3600554604051636ccb2b0160e01b81526001600160a01b0389811660048301528881166024830152604482018890526064820187905230608483015290911690636ccb2b019060a4016020604051808303815f875af11580156127fb573d5f5f3e3d5ffd5b505050506040513d601f19601f8201168201806040525081019061281f91906139db565b979650505050505050565b5f6001600160e01b03198216637965db0b60e01b14806107ae57506301ffc9a760e01b6001600160e01b03198316146107ae565b6107c681336130ec565b6128725f5f613125565b565b5f8281526020819052604090206001015461288e8161285e565b6117fc83836131e4565b6001600160a01b03811633146128c15760405163334bd91960e11b815260040160405180910390fd5b61138d828261324a565b5f5f5f5f866001600160a01b031663feaf968c6040518163ffffffff1660e01b815260040160a060405180830381865afa15801561290b573d5f5f3e3d5ffd5b505050506040513d601f19601f8201168201806040525081019061292f9190613bc3565b509350509250508581426129439190613a06565b1061296c57604051638192792960e01b81526001600160a01b03881660048201526024016108fe565b5f821361298b5760405162fc7cad60e51b815260040160405180910390fd5b819350866001600160a01b031663313ce5676040518163ffffffff1660e01b8152600401602060405180830381865afa1580156129ca573d5f5f3e3d5ffd5b505050506040513d601f19601f820116820180604052508101906129ee9190613a64565b6129f990600a613b80565b92505f612710612a098786613b8e565b612a139190613c25565b90505f612a208286613a19565b90505f612a2d8387613a06565b905081871180612a3c57508087105b15612a6b576040516314093ead60e01b81526004810188905260248101839052604481018290526064016108fe565b5050505050935093915050565b7f9b779b17422d0df92223018b32b4d1fa46e071723d6817e2486d003becc55f005c15612ab857604051633ee5aeb560e01b815260040160405180910390fd5b61287260017f9b779b17422d0df92223018b32b4d1fa46e071723d6817e2486d003becc55f005b90613286565b6001600160a01b0381165f90815260018301602052604081205415155b9392505050565b6128725f7f9b779b17422d0df92223018b32b4d1fa46e071723d6817e2486d003becc55f00612adf565b60605f612b028361328d565b5f612b48611a1c565b612b51426132e6565b612b5b9190613c44565b9050612b67828261331c565b60405165ffffffffffff821681526001600160a01b038316907f3377dc44241e779dd06afab5b788a35ca5f3b778836e2990bdb26a2a4b2e5ed69060200160405180910390a25050565b5f612bbb82613399565b612bc4426132e6565b612bce9190613c44565b9050612bda8282613125565b6040805165ffffffffffff8085168252831660208201527ff1038c18cf84a56e432fdbfaf746924b7ea511dfe03a6506a0ceba4888788d9b910160405180910390a15050565b5f5f7f00000000000000000000000000000000000000000000000000000000000000006001600160a01b03166318160ddd6040518163ffffffff1660e01b8152600401602060405180830381865afa158015612c7e573d5f5f3e3d5ffd5b505050506040513d601f19601f82011682018060405250810190612ca291906139db565b90505f7f00000000000000000000000000000000000000000000000000000000000000006001600160a01b031663116191b66040518163ffffffff1660e01b8152600401602060405180830381865afa158015612d01573d5f5f3e3d5ffd5b505050506040513d601f19601f82011682018060405250810190612d2591906139c0565b6001600160a01b0316631543b9966040518163ffffffff1660e01b8152600401602060405180830381865afa158015612d60573d5f5f3e3d5ffd5b505050506040513d601f19601f82011682018060405250810190612d8491906139db565b90505f612d918284613a06565b90505f612d9c611e00565b9050818111612db057505f95945050505050565b6001600160a01b038087165f90815260066020526040812060018101546002820154600454878703959394938493612dea939116916128cb565b600385015491935091505f90612e0a9062010000900460ff166012613a84565b612e1590600a613b80565b612e20868486612f72565b612e2a9190613c25565b9b9a5050505050505050505050565b5f828218828410028218612b02565b6040516001600160a01b0383811660248301526044820183905261138d91859182169063a9059cbb906064015b604051602081830303815290604052915060e01b6020820180516001600160e01b0383818316178352505050506133e0565b5f612b02836001600160a01b03841661344c565b604080516001600160a01b038416602482015260448082018490528251808303909101815260649091019091526020810180516001600160e01b031663095ea7b360e01b179052612f0c848261352f565b6117fc576040516001600160a01b0384811660248301525f6044830152612f4091869182169063095ea7b390606401612e75565b6117fc84826133e0565b5f6107ae825490565b5f612b028383613578565b5f612b02836001600160a01b03841661359e565b5f838302815f1985870982811083820303915050805f03612fa657838281612f9c57612f9c613c11565b0492505050612b02565b808411612fbd57612fbd60038515026011186135ea565b5f848688095f868103871696879004966002600389028118808a02820302808a02820302808a02820302808a02820302808a02820302808a02909103029181900381900460010186841190950394909402919094039290920491909117919091029150509392505050565b5f5f6130326124c2565b915091506130478165ffffffffffff16151590565b158061305b57504265ffffffffffff821610155b15613083576040516319ca5ebb60e01b815265ffffffffffff821660048201526024016108fe565b61309e5f6130996002546001600160a01b031690565b61324a565b506130a95f836131e4565b5050600180546001600160d01b031916905550565b5f828152602081905260409020600101546130d88161285e565b6117fc838361324a565b6128725f5f61331c565b6130f68282611504565b6108775760405163e2517d3f60e01b81526001600160a01b0382166004820152602481018390526044016108fe565b600254600160d01b900465ffffffffffff1680156131a7574265ffffffffffff8216101561317e57600254600180546001600160d01b0316600160a01b90920465ffffffffffff16600160d01b029190911790556131a7565b6040517f2b1fa2edafe6f7b9e97c1a9e0c3660e645beb2dcaa2d45bdbf9beaf5472e1ec5905f90a15b50600280546001600160a01b0316600160a01b65ffffffffffff948516026001600160d01b031617600160d01b9290931691909102919091179055565b5f82613240575f6131fd6002546001600160a01b031690565b6001600160a01b03161461322457604051631fe1e13d60e11b815260040160405180910390fd5b600280546001600160a01b0319166001600160a01b0384161790555b612b0283836135fb565b5f8215801561326657506002546001600160a01b038381169116145b1561327c57600280546001600160a01b03191690555b612b028383613683565b80825d5050565b6060815f018054806020026020016040519081016040528092919081815260200182805480156132da57602002820191905f5260205f20905b8154815260200190600101908083116132c6575b50505050509050919050565b5f65ffffffffffff821115613318576040516306dfcc6560e41b815260306004820152602481018390526044016108fe565b5090565b5f6133256124c2565b6001805465ffffffffffff8616600160a01b026001600160d01b03199091166001600160a01b03881617179055915061336790508165ffffffffffff16151590565b1561138d576040517f8886ebfc4259abdbc16601dd8fb5678e54878f47b3c34836cfc51154a9605109905f90a1505050565b5f5f6133a3611a1c565b90508065ffffffffffff168365ffffffffffff16116133cb576133c68382613c62565b612b02565b612b0265ffffffffffff841662069780612e39565b5f5f60205f8451602086015f885af1806133ff576040513d5f823e3d81fd5b50505f513d91508115613416578060011415613423565b6001600160a01b0384163b155b156117fc57604051635274afe760e01b81526001600160a01b03851660048201526024016108fe565b5f8181526001830160205260408120548015613526575f61346e600183613a06565b85549091505f9061348190600190613a06565b90508082146134e0575f865f01828154811061349f5761349f613c80565b905f5260205f200154905080875f0184815481106134bf576134bf613c80565b5f918252602080832090910192909255918252600188019052604090208390555b85548690806134f1576134f1613c94565b600190038181905f5260205f20015f90559055856001015f8681526020019081526020015f205f9055600193505050506107ae565b5f9150506107ae565b5f5f5f5f60205f8651602088015f8a5af192503d91505f51905082801561356e57508115613560578060011461356e565b5f866001600160a01b03163b115b9695505050505050565b5f825f01828154811061358d5761358d613c80565b905f5260205f200154905092915050565b5f8181526001830160205260408120546135e357508154600181810184555f8481526020808220909301849055845484825282860190935260409020919091556107ae565b505f6107ae565b634e487b715f52806020526024601cfd5b5f6136068383611504565b6135e3575f838152602081815260408083206001600160a01b03861684529091529020805460ff1916600117905561363b3390565b6001600160a01b0316826001600160a01b0316847f2f8788117e7eff1d82e926ec794901d17c78024a50270940304540a733656f0d60405160405180910390a45060016107ae565b5f61368e8383611504565b156135e3575f838152602081815260408083206001600160a01b0386168085529252808320805460ff1916905551339286917ff6391f5c32d9c69d2a47ea670b442974b53935d1edc7fd64eb21e047a839171b9190a45060016107ae565b5f602082840312156136fc575f5ffd5b81356001600160e01b031981168114612b02575f5ffd5b5f60208284031215613723575f5ffd5b5035919050565b6001600160a01b03811681146107c6575f5ffd5b5f5f6040838503121561374f575f5ffd5b8235915060208301356137618161372a565b809150509250929050565b5f6020828403121561377c575f5ffd5b8135612b028161372a565b5f5f60408385031215613798575f5ffd5b82356137a38161372a565b946020939093013593505050565b5f5f5f606084860312156137c3575f5ffd5b83356137ce8161372a565b925060208401356137de8161372a565b929592945050506040919091013590565b5f5f60408385031215613800575f5ffd5b823561380b8161372a565b915060208301358015158114613761575f5ffd5b602080825282518282018190525f918401906040840190835b8181101561385f5783516001600160a01b0316835260209384019390920191600101613838565b509095945050505050565b5f6020828403121561387a575f5ffd5b813565ffffffffffff81168114612b02575f5ffd5b5f5f604083850312156138a0575f5ffd5b82356138ab8161372a565b915060208301356137618161372a565b5f5f5f606084860312156138cd575f5ffd5b83356138d88161372a565b92506020840135915060408401356138ef8161372a565b809150509250925092565b602081525f82518060208401528060208501604085015e5f604082850101526040601f19601f83011684010191505092915050565b5f5f5f5f60808587031215613942575f5ffd5b843561394d8161372a565b9350602085013561395d8161372a565b9250604085013561396d8161372a565b9396929550929360600135925050565b5f5f5f5f60808587031215613990575f5ffd5b843561399b8161372a565b935060208501356139ab8161372a565b93969395505050506040820135916060013590565b5f602082840312156139d0575f5ffd5b8151612b028161372a565b5f602082840312156139eb575f5ffd5b5051919050565b634e487b7160e01b5f52601160045260245ffd5b818103818111156107ae576107ae6139f2565b808201808211156107ae576107ae6139f2565b600181811c90821680613a4057607f821691505b602082108103613a5e57634e487b7160e01b5f52602260045260245ffd5b50919050565b5f60208284031215613a74575f5ffd5b815160ff81168114612b02575f5ffd5b60ff82811682821603908111156107ae576107ae6139f2565b6001815b6001841115613ad857808504811115613abc57613abc6139f2565b6001841615613aca57908102905b60019390931c928002613aa1565b935093915050565b5f82613aee575060016107ae565b81613afa57505f6107ae565b8160018114613b105760028114613b1a57613b36565b60019150506107ae565b60ff841115613b2b57613b2b6139f2565b50506001821b6107ae565b5060208310610133831016604e8410600b8410161715613b59575081810a6107ae565b613b655f198484613a9d565b805f1904821115613b7857613b786139f2565b029392505050565b5f612b0260ff841683613ae0565b80820281158282048414176107ae576107ae6139f2565b805169ffffffffffffffffffff81168114613bbe575f5ffd5b919050565b5f5f5f5f5f60a08688031215613bd7575f5ffd5b613be086613ba5565b60208701516040880151606089015192975090955093509150613c0560808701613ba5565b90509295509295909350565b634e487b7160e01b5f52601260045260245ffd5b5f82613c3f57634e487b7160e01b5f52601260045260245ffd5b500490565b65ffffffffffff81811683821601908111156107ae576107ae6139f2565b65ffffffffffff82811682821603908111156107ae576107ae6139f2565b634e487b7160e01b5f52603260045260245ffd5b634e487b7160e01b5f52603160045260245ffdfefc8737ab85eb45125971625a9ebdb75cc78e01d5c1fa80c4c6e5203f47bc4fab339759585899103d2ace64958e37e18ccb0504652c81d4a1b8aa80fe2126ab95a2646970667358221220a2fb52bcee09b88af6f01c3a820d6a4b064f3cadd59ad57973adbb152e4f950664736f6c634300081e0033",
  "devdoc": {
    "errors": {
      "AccessControlBadConfirmation()": [
        {
          "details": "The caller of a function is not the expected one. NOTE: Don't confuse with {AccessControlUnauthorizedAccount}."
        }
      ],
      "AccessControlEnforcedDefaultAdminDelay(uint48)": [
        {
          "details": "The delay for transferring the default admin delay is enforced and the operation must wait until `schedule`. NOTE: `schedule` can be 0 indicating there's no transfer scheduled."
        }
      ],
      "AccessControlEnforcedDefaultAdminRules()": [
        {
          "details": "At least one of the following rules was violated: - The `DEFAULT_ADMIN_ROLE` must only be managed by itself. - The `DEFAULT_ADMIN_ROLE` must only be held by one account at the time. - Any `DEFAULT_ADMIN_ROLE` transfer must be in two delayed steps."
        }
      ],
      "AccessControlInvalidDefaultAdmin(address)": [
        {
          "details": "The new default admin is not a valid default admin."
        }
      ],
      "AccessControlUnauthorizedAccount(address,bytes32)": [
        {
          "details": "The `account` is missing a role."
        }
      ],
      "ReentrancyGuardReentrantCall()": [
        {
          "details": "Unauthorized reentrant call."
        }
      ],
      "SafeCastOverflowedUintDowncast(uint8,uint256)": [
        {
          "details": "Value doesn't fit in an uint of `bits` size."
        }
      ],
      "SafeERC20FailedOperation(address)": [
        {
          "details": "An operation with an ERC-20 token failed."
        }
      ]
    },
    "events": {
      "DefaultAdminDelayChangeCanceled()": {
        "details": "Emitted when a {pendingDefaultAdminDelay} is reset if its schedule didn't pass."
      },
      "DefaultAdminDelayChangeScheduled(uint48,uint48)": {
        "details": "Emitted when a {defaultAdminDelay} change is started, setting `newDelay` as the next delay to be applied between default admin transfer after `effectSchedule` has passed."
      },
      "DefaultAdminTransferCanceled()": {
        "details": "Emitted when a {pendingDefaultAdmin} is reset if it was never accepted, regardless of its schedule."
      },
      "DefaultAdminTransferScheduled(address,uint48)": {
        "details": "Emitted when a {defaultAdmin} transfer is started, setting `newAdmin` as the next address to become the {defaultAdmin} by calling {acceptDefaultAdminTransfer} only after `acceptSchedule` passes."
      },
      "RoleAdminChanged(bytes32,bytes32,bytes32)": {
        "details": "Emitted when `newAdminRole` is set as ``role``'s admin role, replacing `previousAdminRole` `DEFAULT_ADMIN_ROLE` is the starting admin for all roles, despite {RoleAdminChanged} not being emitted signaling this."
      },
      "RoleGranted(bytes32,address,address)": {
        "details": "Emitted when `account` is granted `role`. `sender` is the account that originated the contract call. This account bears the admin role (for the granted role). Expected in cases where the role was granted using the internal {AccessControl-_grantRole}."
      },
      "RoleRevoked(bytes32,address,address)": {
        "details": "Emitted when `account` is revoked `role`. `sender` is the account that originated the contract call:   - if using `revokeRole`, it is the admin role bearer   - if using `renounceRole`, it is the role bearer (i.e. `account`)"
      }
    },
    "kind": "dev",
    "methods": {
      "acceptDefaultAdminTransfer()": {
        "details": "Completes a {defaultAdmin} transfer previously started with {beginDefaultAdminTransfer}. After calling the function: - `DEFAULT_ADMIN_ROLE` should be granted to the caller. - `DEFAULT_ADMIN_ROLE` should be revoked from the previous holder. - {pendingDefaultAdmin} should be reset to zero values. Requirements: - Only can be called by the {pendingDefaultAdmin}'s `newAdmin`. - The {pendingDefaultAdmin}'s `acceptSchedule` should've passed."
      },
      "addToWhitelist(address,address,address,uint256)": {
        "params": {
          "oracle_": "Chainlink oracle address for token/USD feed",
          "stalePeriod_": "Custom stale period for oracle price",
          "token_": "token address to add in whitelist.",
          "vault_": "ERC4626 yield vault address correspond to _token"
        }
      },
      "beginDefaultAdminTransfer(address)": {
        "details": "Starts a {defaultAdmin} transfer by setting a {pendingDefaultAdmin} scheduled for acceptance after the current timestamp plus a {defaultAdminDelay}. Requirements: - Only can be called by the current {defaultAdmin}. Emits a DefaultAdminRoleChangeStarted event."
      },
      "cancelDefaultAdminTransfer()": {
        "details": "Cancels a {defaultAdmin} transfer previously started with {beginDefaultAdminTransfer}. A {pendingDefaultAdmin} not yet accepted can also be cancelled with this function. Requirements: - Only can be called by the current {defaultAdmin}. May emit a DefaultAdminTransferCanceled event."
      },
      "changeDefaultAdminDelay(uint48)": {
        "details": "Initiates a {defaultAdminDelay} update by setting a {pendingDefaultAdminDelay} scheduled for getting into effect after the current timestamp plus a {defaultAdminDelay}. This function guarantees that any call to {beginDefaultAdminTransfer} done between the timestamp this method is called and the {pendingDefaultAdminDelay} effect schedule will use the current {defaultAdminDelay} set before calling. The {pendingDefaultAdminDelay}'s effect schedule is defined in a way that waiting until the schedule and then calling {beginDefaultAdminTransfer} with the new delay will take at least the same as another {defaultAdmin} complete transfer (including acceptance). The schedule is designed for two scenarios: - When the delay is changed for a larger one the schedule is `block.timestamp + newDelay` capped by {defaultAdminDelayIncreaseWait}. - When the delay is changed for a shorter one, the schedule is `block.timestamp + (current delay - new delay)`. A {pendingDefaultAdminDelay} that never got into effect will be canceled in favor of a new scheduled change. Requirements: - Only can be called by the current {defaultAdmin}. Emits a DefaultAdminDelayChangeScheduled event and may emit a DefaultAdminDelayChangeCanceled event."
      },
      "defaultAdmin()": {
        "details": "Returns the address of the current `DEFAULT_ADMIN_ROLE` holder."
      },
      "defaultAdminDelay()": {
        "details": "Returns the delay required to schedule the acceptance of a {defaultAdmin} transfer started. This delay will be added to the current timestamp when calling {beginDefaultAdminTransfer} to set the acceptance schedule. NOTE: If a delay change has been scheduled, it will take effect as soon as the schedule passes, making this function returns the new delay. See {changeDefaultAdminDelay}."
      },
      "defaultAdminDelayIncreaseWait()": {
        "details": "Maximum time in seconds for an increase to {defaultAdminDelay} (that is scheduled using {changeDefaultAdminDelay}) to take effect. Default to 5 days. When the {defaultAdminDelay} is scheduled to be increased, it goes into effect after the new delay has passed with the purpose of giving enough time for reverting any accidental change (i.e. using milliseconds instead of seconds) that may lock the contract. However, to avoid excessive schedules, the wait is capped by this function and it can be overrode for a custom {defaultAdminDelay} increase scheduling. IMPORTANT: Make sure to add a reasonable amount of time while overriding this value, otherwise, there's a risk of setting a high new delay that goes into effect almost immediately without the possibility of human intervention in the case of an input error (eg. set milliseconds instead of seconds)."
      },
      "deposit(address,uint256)": {
        "details": "`depositActive` must be true to call deposit.",
        "params": {
          "amount_": "token amount",
          "token_": "token to deposit, must be one of the whitelisted tokens."
        }
      },
      "getRoleAdmin(bytes32)": {
        "details": "Returns the admin role that controls `role`. See {grantRole} and {revokeRole}. To change a role's admin, use {_setRoleAdmin}."
      },
      "grantRole(bytes32,address)": {
        "details": "See {AccessControl-grantRole}. Reverts for `DEFAULT_ADMIN_ROLE`."
      },
      "harvest(address,address)": {
        "params": {
          "receiver_": "Address to receive the withdrawn tokens",
          "token_": "Token address to withdraw excess"
        },
        "returns": {
          "_0": "Amount of tokens withdrawn"
        }
      },
      "hasRole(bytes32,address)": {
        "details": "Returns `true` if `account` has been granted `role`."
      },
      "migrate(address)": {
        "params": {
          "newTreasury_": "Address of new treasury of PeggedToken"
        }
      },
      "owner()": {
        "details": "See {IERC5313-owner}."
      },
      "pendingDefaultAdmin()": {
        "details": "Returns a tuple of a `newAdmin` and an accept schedule. After the `schedule` passes, the `newAdmin` will be able to accept the {defaultAdmin} role by calling {acceptDefaultAdminTransfer}, completing the role transfer. A zero value only in `acceptSchedule` indicates no pending admin transfer. NOTE: A zero address `newAdmin` means that {defaultAdmin} is being renounced."
      },
      "pendingDefaultAdminDelay()": {
        "details": "Returns a tuple of `newDelay` and an effect schedule. After the `schedule` passes, the `newDelay` will get into effect immediately for every new {defaultAdmin} transfer started with {beginDefaultAdminTransfer}. A zero value only in `effectSchedule` indicates no pending delay change. NOTE: A zero value only for `newDelay` means that the next {defaultAdminDelay} will be zero after the effect schedule."
      },
      "pull(address,uint256)": {
        "details": "Keeper is allowed to withdraw even if withdrawActive is false.Keeper can withdraw tokens at treasury address only.",
        "params": {
          "amount_": "token amount to withdraw",
          "token_": "token to withdraw from vault"
        }
      },
      "push(address,uint256)": {
        "details": "Keeper is allowed to deposit even if depositActive is false.",
        "params": {
          "amount_": "token amount to deposit",
          "token_": "token to deposit into the vault"
        }
      },
      "removeFromWhitelist(address)": {
        "details": "Removing token even if treasury has some balance of that token is intended behavior.",
        "params": {
          "token_": "token address to remove from whitelist."
        }
      },
      "renounceRole(bytes32,address)": {
        "details": "See {AccessControl-renounceRole}. For the `DEFAULT_ADMIN_ROLE`, it only allows renouncing in two steps by first calling {beginDefaultAdminTransfer} to the `address(0)`, so it's required that the {pendingDefaultAdmin} schedule has also passed when calling this function. After its execution, it will not be possible to call `onlyRole(DEFAULT_ADMIN_ROLE)` functions. NOTE: Renouncing `DEFAULT_ADMIN_ROLE` will leave the contract without a {defaultAdmin}, thereby disabling any functionality that is only available for it, and the possibility of reassigning a non-administrated role."
      },
      "revokeRole(bytes32,address)": {
        "details": "See {AccessControl-revokeRole}. Reverts for `DEFAULT_ADMIN_ROLE`."
      },
      "rollbackDefaultAdminDelay()": {
        "details": "Cancels a scheduled {defaultAdminDelay} change. Requirements: - Only can be called by the current {defaultAdmin}. May emit a DefaultAdminDelayChangeCanceled event."
      },
      "setDepositActive(address,bool)": {
        "params": {
          "active_": "The intended deposit active state",
          "token_": "Token to set deposit activity for"
        }
      },
      "setWithdrawActive(address,bool)": {
        "params": {
          "active_": "The intended withdraw active state",
          "token_": "Token to set withdraw activity for"
        }
      },
      "supportsInterface(bytes4)": {
        "details": "See {IERC165-supportsInterface}."
      },
      "sweep(address,address)": {
        "details": "DEFAULT_ADMIN_ROLE can call this and vault shares are not allowed to sweep",
        "params": {
          "fromToken_": "Token address to sweep",
          "receiver_": "recipient of tokens being swept"
        }
      },
      "updateOracle(address,address,uint256)": {
        "params": {
          "newStalePeriod_": "New stale period threshold in seconds",
          "oracle_": "New Chainlink oracle address",
          "token_": "Token to update oracle configuration for"
        }
      },
      "updateSwapper(address)": {
        "params": {
          "swapper_": "new swapper address"
        }
      },
      "withdraw(address,uint256,address)": {
        "details": "`withdrawActive` must be true to call withdraw.",
        "params": {
          "amount_": "token amount to withdraw",
          "tokenReceiver_": "address of token receiver",
          "token_": "token to withdraw, must be one of the whitelisted tokens."
        }
      },
      "withdrawable(address)": {
        "params": {
          "token_": "token address"
        }
      }
    },
    "title": "PeggedToken Treasury",
    "version": 1
  },
  "userdoc": {
    "kind": "user",
    "methods": {
      "addToWhitelist(address,address,address,uint256)": {
        "notice": "DEFAULT_ADMIN_ROLE: Add token as whitelisted token for PeggedToken"
      },
      "deposit(address,uint256)": {
        "notice": "onlyGateway: Deposit token to yield vault"
      },
      "harvest(address,address)": {
        "notice": "UMM_ROLE: Withdraw excess tokens from reserve. Note: As treasury reserve is in multiple tokens, there is no guarantee that this function will withdraw all of the excess in given token."
      },
      "isWhitelistedToken(address)": {
        "notice": "Returns whether given token is whitelisted"
      },
      "migrate(address)": {
        "notice": "DEFAULT_ADMIN_ROLE: Migrate assets to new treasury"
      },
      "pull(address,uint256)": {
        "notice": "KEEPER_ROLE: Withdraw token from vault."
      },
      "push(address,uint256)": {
        "notice": "KEEPER_ROLE: Deposit token into the vault"
      },
      "removeFromWhitelist(address)": {
        "notice": "DEFAULT_ADMIN_ROLE: Remove token from whitelist"
      },
      "reserve()": {
        "notice": "Returns total reserve value denominated in PeggedToken units"
      },
      "setDepositActive(address,bool)": {
        "notice": "KEEPER_ROLE: Set deposit activity for a whitelisted token"
      },
      "setWithdrawActive(address,bool)": {
        "notice": "KEEPER_ROLE: Set withdraw activity for a whitelisted token"
      },
      "sweep(address,address)": {
        "notice": "DEFAULT_ADMIN_ROLE: Sweep any ERC20 token to owner address"
      },
      "updateOracle(address,address,uint256)": {
        "notice": "MAINTAINER_ROLE: Update oracle and stale period"
      },
      "updatePriceTolerance(uint256)": {
        "notice": "MAINTAINER_ROLE: Update oracle price tolerance"
      },
      "updateSwapper(address)": {
        "notice": "MAINTAINER_ROLE: Update swapper address"
      },
      "whitelistedTokens()": {
        "notice": "Return list of whitelisted tokens"
      },
      "withdraw(address,uint256,address)": {
        "notice": "onlyGateway: Withdraw given amount of token."
      },
      "withdrawable(address)": {
        "notice": "Current withdrawable for given token. If token is not supported by treasury it will return 0."
      }
    },
    "version": 1
  },
  "storageLayout": {
    "storage": [
      {
        "astId": 3288,
        "contract": "src/Treasury.sol:Treasury",
        "label": "_roles",
        "offset": 0,
        "slot": "0",
        "type": "t_mapping(t_bytes32,t_struct(RoleData)3283_storage)"
      },
      {
        "astId": 3896,
        "contract": "src/Treasury.sol:Treasury",
        "label": "_pendingDefaultAdmin",
        "offset": 0,
        "slot": "1",
        "type": "t_address"
      },
      {
        "astId": 3898,
        "contract": "src/Treasury.sol:Treasury",
        "label": "_pendingDefaultAdminSchedule",
        "offset": 20,
        "slot": "1",
        "type": "t_uint48"
      },
      {
        "astId": 3900,
        "contract": "src/Treasury.sol:Treasury",
        "label": "_currentDelay",
        "offset": 26,
        "slot": "1",
        "type": "t_uint48"
      },
      {
        "astId": 3902,
        "contract": "src/Treasury.sol:Treasury",
        "label": "_currentDefaultAdmin",
        "offset": 0,
        "slot": "2",
        "type": "t_address"
      },
      {
        "astId": 3904,
        "contract": "src/Treasury.sol:Treasury",
        "label": "_pendingDelay",
        "offset": 20,
        "slot": "2",
        "type": "t_uint48"
      },
      {
        "astId": 3906,
        "contract": "src/Treasury.sol:Treasury",
        "label": "_pendingDelaySchedule",
        "offset": 26,
        "slot": "2",
        "type": "t_uint48"
      },
      {
        "astId": 17718,
        "contract": "src/Treasury.sol:Treasury",
        "label": "NAME",
        "offset": 0,
        "slot": "3",
        "type": "t_string_storage"
      },
      {
        "astId": 17748,
        "contract": "src/Treasury.sol:Treasury",
        "label": "priceTolerance",
        "offset": 0,
        "slot": "4",
        "type": "t_uint256"
      },
      {
        "astId": 17753,
        "contract": "src/Treasury.sol:Treasury",
        "label": "swapper",
        "offset": 0,
        "slot": "5",
        "type": "t_address"
      },
      {
        "astId": 17771,
        "contract": "src/Treasury.sol:Treasury",
        "label": "tokenConfig",
        "offset": 0,
        "slot": "6",
        "type": "t_mapping(t_address,t_struct(TokenConfig)17766_storage)"
      },
      {
        "astId": 17774,
        "contract": "src/Treasury.sol:Treasury",
        "label": "_whitelistedTokens",
        "offset": 0,
        "slot": "7",
        "type": "t_struct(AddressSet)13065_storage"
      }
    ],
    "types": {
      "t_address": {
        "encoding": "inplace",
        "label": "address",
        "numberOfBytes": "20"
      },
      "t_array(t_bytes32)dyn_storage": {
        "base": "t_bytes32",
        "encoding": "dynamic_array",
        "label": "bytes32[]",
        "numberOfBytes": "32"
      },
      "t_bool": {
        "encoding": "inplace",
        "label": "bool",
        "numberOfBytes": "1"
      },
      "t_bytes32": {
        "encoding": "inplace",
        "label": "bytes32",
        "numberOfBytes": "32"
      },
      "t_mapping(t_address,t_bool)": {
        "encoding": "mapping",
        "key": "t_address",
        "label": "mapping(address => bool)",
        "numberOfBytes": "32",
        "value": "t_bool"
      },
      "t_mapping(t_address,t_struct(TokenConfig)17766_storage)": {
        "encoding": "mapping",
        "key": "t_address",
        "label": "mapping(address => struct Treasury.TokenConfig)",
        "numberOfBytes": "32",
        "value": "t_struct(TokenConfig)17766_storage"
      },
      "t_mapping(t_bytes32,t_struct(RoleData)3283_storage)": {
        "encoding": "mapping",
        "key": "t_bytes32",
        "label": "mapping(bytes32 => struct AccessControl.RoleData)",
        "numberOfBytes": "32",
        "value": "t_struct(RoleData)3283_storage"
      },
      "t_mapping(t_bytes32,t_uint256)": {
        "encoding": "mapping",
        "key": "t_bytes32",
        "label": "mapping(bytes32 => uint256)",
        "numberOfBytes": "32",
        "value": "t_uint256"
      },
      "t_string_storage": {
        "encoding": "bytes",
        "label": "string",
        "numberOfBytes": "32"
      },
      "t_struct(AddressSet)13065_storage": {
        "encoding": "inplace",
        "label": "struct EnumerableSet.AddressSet",
        "members": [
          {
            "astId": 13064,
            "contract": "src/Treasury.sol:Treasury",
            "label": "_inner",
            "offset": 0,
            "slot": "0",
            "type": "t_struct(Set)12750_storage"
          }
        ],
        "numberOfBytes": "64"
      },
      "t_struct(RoleData)3283_storage": {
        "encoding": "inplace",
        "label": "struct AccessControl.RoleData",
        "members": [
          {
            "astId": 3280,
            "contract": "src/Treasury.sol:Treasury",
            "label": "hasRole",
            "offset": 0,
            "slot": "0",
            "type": "t_mapping(t_address,t_bool)"
          },
          {
            "astId": 3282,
            "contract": "src/Treasury.sol:Treasury",
            "label": "adminRole",
            "offset": 0,
            "slot": "1",
            "type": "t_bytes32"
          }
        ],
        "numberOfBytes": "64"
      },
      "t_struct(Set)12750_storage": {
        "encoding": "inplace",
        "label": "struct EnumerableSet.Set",
        "members": [
          {
            "astId": 12745,
            "contract": "src/Treasury.sol:Treasury",
            "label": "_values",
            "offset": 0,
            "slot": "0",
            "type": "t_array(t_bytes32)dyn_storage"
          },
          {
            "astId": 12749,
            "contract": "src/Treasury.sol:Treasury",
            "label": "_positions",
            "offset": 0,
            "slot": "1",
            "type": "t_mapping(t_bytes32,t_uint256)"
          }
        ],
        "numberOfBytes": "64"
      },
      "t_struct(TokenConfig)17766_storage": {
        "encoding": "inplace",
        "label": "struct Treasury.TokenConfig",
        "members": [
          {
            "astId": 17755,
            "contract": "src/Treasury.sol:Treasury",
            "label": "vault",
            "offset": 0,
            "slot": "0",
            "type": "t_address"
          },
          {
            "astId": 17757,
            "contract": "src/Treasury.sol:Treasury",
            "label": "oracle",
            "offset": 0,
            "slot": "1",
            "type": "t_address"
          },
          {
            "astId": 17759,
            "contract": "src/Treasury.sol:Treasury",
            "label": "stalePeriod",
            "offset": 0,
            "slot": "2",
            "type": "t_uint256"
          },
          {
            "astId": 17761,
            "contract": "src/Treasury.sol:Treasury",
            "label": "depositActive",
            "offset": 0,
            "slot": "3",
            "type": "t_bool"
          },
          {
            "astId": 17763,
            "contract": "src/Treasury.sol:Treasury",
            "label": "withdrawActive",
            "offset": 1,
            "slot": "3",
            "type": "t_bool"
          },
          {
            "astId": 17765,
            "contract": "src/Treasury.sol:Treasury",
            "label": "decimals",
            "offset": 2,
            "slot": "3",
            "type": "t_uint8"
          }
        ],
        "numberOfBytes": "128"
      },
      "t_uint256": {
        "encoding": "inplace",
        "label": "uint256",
        "numberOfBytes": "32"
      },
      "t_uint48": {
        "encoding": "inplace",
        "label": "uint48",
        "numberOfBytes": "6"
      },
      "t_uint8": {
        "encoding": "inplace",
        "label": "uint8",
        "numberOfBytes": "1"
      }
    }
  }
}