{
  "address": "0xCBA2Ffa0AC52d7871a4221a871793Eb788013faB",
  "abi": [
    {
      "inputs": [],
      "stateMutability": "nonpayable",
      "type": "constructor"
    },
    {
      "inputs": [
        {
          "internalType": "address",
          "name": "account",
          "type": "address"
        },
        {
          "internalType": "bytes32",
          "name": "role",
          "type": "bytes32"
        }
      ],
      "name": "AccessControlUnauthorizedAccount",
      "type": "error"
    },
    {
      "inputs": [
        {
          "internalType": "address",
          "name": "account",
          "type": "address"
        }
      ],
      "name": "AccountAlreadyWhitelisted",
      "type": "error"
    },
    {
      "inputs": [
        {
          "internalType": "address",
          "name": "account",
          "type": "address"
        }
      ],
      "name": "AccountNotWhitelisted",
      "type": "error"
    },
    {
      "inputs": [],
      "name": "AddressIsZero",
      "type": "error"
    },
    {
      "inputs": [
        {
          "internalType": "uint256",
          "name": "requested",
          "type": "uint256"
        },
        {
          "internalType": "uint256",
          "name": "available",
          "type": "uint256"
        }
      ],
      "name": "AmoBurnExceedsSupply",
      "type": "error"
    },
    {
      "inputs": [],
      "name": "AmountIsZero",
      "type": "error"
    },
    {
      "inputs": [
        {
          "internalType": "address",
          "name": "caller",
          "type": "address"
        }
      ],
      "name": "CallerNotWhitelisted",
      "type": "error"
    },
    {
      "inputs": [
        {
          "internalType": "uint256",
          "name": "requested",
          "type": "uint256"
        },
        {
          "internalType": "uint256",
          "name": "available",
          "type": "uint256"
        }
      ],
      "name": "ExceededMaxMint",
      "type": "error"
    },
    {
      "inputs": [
        {
          "internalType": "uint256",
          "name": "requested",
          "type": "uint256"
        },
        {
          "internalType": "uint256",
          "name": "available",
          "type": "uint256"
        }
      ],
      "name": "ExceededMaxWithdraw",
      "type": "error"
    },
    {
      "inputs": [
        {
          "internalType": "address",
          "name": "token",
          "type": "address"
        }
      ],
      "name": "FeeOnTransferToken",
      "type": "error"
    },
    {
      "inputs": [
        {
          "internalType": "uint256",
          "name": "limit",
          "type": "uint256"
        },
        {
          "internalType": "uint256",
          "name": "constraint",
          "type": "uint256"
        }
      ],
      "name": "InvalidAmoMintLimit",
      "type": "error"
    },
    {
      "inputs": [],
      "name": "InvalidInitialization",
      "type": "error"
    },
    {
      "inputs": [
        {
          "internalType": "uint256",
          "name": "fee",
          "type": "uint256"
        }
      ],
      "name": "InvalidMintFee",
      "type": "error"
    },
    {
      "inputs": [
        {
          "internalType": "uint256",
          "name": "pegBand",
          "type": "uint256"
        },
        {
          "internalType": "uint256",
          "name": "maxPegBandBps",
          "type": "uint256"
        }
      ],
      "name": "InvalidPegBand",
      "type": "error"
    },
    {
      "inputs": [
        {
          "internalType": "uint256",
          "name": "fee",
          "type": "uint256"
        }
      ],
      "name": "InvalidRedeemFee",
      "type": "error"
    },
    {
      "inputs": [],
      "name": "InvalidWithdrawalDelay",
      "type": "error"
    },
    {
      "inputs": [
        {
          "internalType": "uint256",
          "name": "peggedTokenOut",
          "type": "uint256"
        },
        {
          "internalType": "uint256",
          "name": "minPeggedTokenOut",
          "type": "uint256"
        }
      ],
      "name": "MintableIsLessThanMinimum",
      "type": "error"
    },
    {
      "inputs": [],
      "name": "NoActiveWithdrawalRequest",
      "type": "error"
    },
    {
      "inputs": [],
      "name": "NotInitializing",
      "type": "error"
    },
    {
      "inputs": [
        {
          "internalType": "uint256",
          "name": "peggedTokenIn",
          "type": "uint256"
        },
        {
          "internalType": "uint256",
          "name": "maxPeggedTokenIn",
          "type": "uint256"
        }
      ],
      "name": "PeggedTokenToBurnIsHigherThanMax",
      "type": "error"
    },
    {
      "inputs": [
        {
          "internalType": "uint256",
          "name": "tokenOut",
          "type": "uint256"
        },
        {
          "internalType": "uint256",
          "name": "minTokenOut",
          "type": "uint256"
        }
      ],
      "name": "RedeemableIsLessThanMinimum",
      "type": "error"
    },
    {
      "inputs": [],
      "name": "ReentrancyGuardReentrantCall",
      "type": "error"
    },
    {
      "inputs": [
        {
          "internalType": "address",
          "name": "token",
          "type": "address"
        }
      ],
      "name": "SafeERC20FailedOperation",
      "type": "error"
    },
    {
      "inputs": [
        {
          "internalType": "uint256",
          "name": "tokenIn",
          "type": "uint256"
        },
        {
          "internalType": "uint256",
          "name": "maxTokenIn",
          "type": "uint256"
        }
      ],
      "name": "TokenAmountIsHigherThanMax",
      "type": "error"
    },
    {
      "inputs": [
        {
          "internalType": "address",
          "name": "token",
          "type": "address"
        }
      ],
      "name": "TokenNotWhitelisted",
      "type": "error"
    },
    {
      "inputs": [],
      "name": "WithdrawalDelayFeatureNotEnabled",
      "type": "error"
    },
    {
      "anonymous": false,
      "inputs": [
        {
          "indexed": true,
          "internalType": "address",
          "name": "account",
          "type": "address"
        }
      ],
      "name": "AddedToInstantRedeemWhitelist",
      "type": "event"
    },
    {
      "anonymous": false,
      "inputs": [
        {
          "indexed": false,
          "internalType": "uint256",
          "name": "amountBurned",
          "type": "uint256"
        },
        {
          "indexed": false,
          "internalType": "uint256",
          "name": "newAmoSupply",
          "type": "uint256"
        }
      ],
      "name": "BurnedFromAMO",
      "type": "event"
    },
    {
      "anonymous": false,
      "inputs": [
        {
          "indexed": true,
          "internalType": "address",
          "name": "token",
          "type": "address"
        },
        {
          "indexed": false,
          "internalType": "uint256",
          "name": "tokenAmount",
          "type": "uint256"
        },
        {
          "indexed": false,
          "internalType": "uint256",
          "name": "peggedTokenAmount",
          "type": "uint256"
        },
        {
          "indexed": true,
          "internalType": "address",
          "name": "receiver",
          "type": "address"
        }
      ],
      "name": "Deposit",
      "type": "event"
    },
    {
      "anonymous": false,
      "inputs": [
        {
          "indexed": false,
          "internalType": "uint64",
          "name": "version",
          "type": "uint64"
        }
      ],
      "name": "Initialized",
      "type": "event"
    },
    {
      "anonymous": false,
      "inputs": [
        {
          "indexed": true,
          "internalType": "address",
          "name": "token",
          "type": "address"
        },
        {
          "indexed": false,
          "internalType": "uint256",
          "name": "previousMintFee",
          "type": "uint256"
        },
        {
          "indexed": false,
          "internalType": "uint256",
          "name": "newMintFee",
          "type": "uint256"
        }
      ],
      "name": "MintFeeUpdated",
      "type": "event"
    },
    {
      "anonymous": false,
      "inputs": [
        {
          "indexed": false,
          "internalType": "uint256",
          "name": "previousMintLimit",
          "type": "uint256"
        },
        {
          "indexed": false,
          "internalType": "uint256",
          "name": "newMintLimit",
          "type": "uint256"
        }
      ],
      "name": "MintLimitUpdated",
      "type": "event"
    },
    {
      "anonymous": false,
      "inputs": [
        {
          "indexed": true,
          "internalType": "address",
          "name": "receiver",
          "type": "address"
        },
        {
          "indexed": false,
          "internalType": "uint256",
          "name": "amountMinted",
          "type": "uint256"
        },
        {
          "indexed": false,
          "internalType": "uint256",
          "name": "newAmoSupply",
          "type": "uint256"
        }
      ],
      "name": "MintedToAMO",
      "type": "event"
    },
    {
      "anonymous": false,
      "inputs": [
        {
          "indexed": true,
          "internalType": "address",
          "name": "token",
          "type": "address"
        },
        {
          "indexed": false,
          "internalType": "uint256",
          "name": "previousPegBandBps",
          "type": "uint256"
        },
        {
          "indexed": false,
          "internalType": "uint256",
          "name": "newPegBandBps",
          "type": "uint256"
        }
      ],
      "name": "PegBandUpdated",
      "type": "event"
    },
    {
      "anonymous": false,
      "inputs": [
        {
          "indexed": true,
          "internalType": "address",
          "name": "token",
          "type": "address"
        },
        {
          "indexed": false,
          "internalType": "uint256",
          "name": "previousRedeemFee",
          "type": "uint256"
        },
        {
          "indexed": false,
          "internalType": "uint256",
          "name": "newRedeemFee",
          "type": "uint256"
        }
      ],
      "name": "RedeemFeeUpdated",
      "type": "event"
    },
    {
      "anonymous": false,
      "inputs": [
        {
          "indexed": true,
          "internalType": "address",
          "name": "user",
          "type": "address"
        },
        {
          "indexed": false,
          "internalType": "uint256",
          "name": "amount",
          "type": "uint256"
        }
      ],
      "name": "RedeemRequestCancelled",
      "type": "event"
    },
    {
      "anonymous": false,
      "inputs": [
        {
          "indexed": true,
          "internalType": "address",
          "name": "user",
          "type": "address"
        },
        {
          "indexed": false,
          "internalType": "uint256",
          "name": "amount",
          "type": "uint256"
        },
        {
          "indexed": false,
          "internalType": "uint256",
          "name": "claimableAt",
          "type": "uint256"
        }
      ],
      "name": "RedeemRequested",
      "type": "event"
    },
    {
      "anonymous": false,
      "inputs": [
        {
          "indexed": true,
          "internalType": "address",
          "name": "account",
          "type": "address"
        }
      ],
      "name": "RemovedFromInstantRedeemWhitelist",
      "type": "event"
    },
    {
      "anonymous": false,
      "inputs": [
        {
          "indexed": false,
          "internalType": "uint256",
          "name": "previousLimit",
          "type": "uint256"
        },
        {
          "indexed": false,
          "internalType": "uint256",
          "name": "newLimit",
          "type": "uint256"
        }
      ],
      "name": "UpdatedAmoMintLimit",
      "type": "event"
    },
    {
      "anonymous": false,
      "inputs": [
        {
          "indexed": true,
          "internalType": "address",
          "name": "token",
          "type": "address"
        },
        {
          "indexed": false,
          "internalType": "uint256",
          "name": "tokenAmount",
          "type": "uint256"
        },
        {
          "indexed": false,
          "internalType": "uint256",
          "name": "peggedTokenAmount",
          "type": "uint256"
        },
        {
          "indexed": true,
          "internalType": "address",
          "name": "receiver",
          "type": "address"
        }
      ],
      "name": "Withdraw",
      "type": "event"
    },
    {
      "anonymous": false,
      "inputs": [
        {
          "indexed": false,
          "internalType": "bool",
          "name": "enabled",
          "type": "bool"
        }
      ],
      "name": "WithdrawalDelayEnabled",
      "type": "event"
    },
    {
      "anonymous": false,
      "inputs": [
        {
          "indexed": false,
          "internalType": "uint256",
          "name": "previousDelay",
          "type": "uint256"
        },
        {
          "indexed": false,
          "internalType": "uint256",
          "name": "newDelay",
          "type": "uint256"
        }
      ],
      "name": "WithdrawalDelayUpdated",
      "type": "event"
    },
    {
      "inputs": [],
      "name": "DEFAULT_ADMIN_ROLE",
      "outputs": [
        {
          "internalType": "bytes32",
          "name": "",
          "type": "bytes32"
        }
      ],
      "stateMutability": "view",
      "type": "function"
    },
    {
      "inputs": [],
      "name": "MAINTAINER_ROLE",
      "outputs": [
        {
          "internalType": "bytes32",
          "name": "",
          "type": "bytes32"
        }
      ],
      "stateMutability": "view",
      "type": "function"
    },
    {
      "inputs": [],
      "name": "MAX_BPS",
      "outputs": [
        {
          "internalType": "uint256",
          "name": "",
          "type": "uint256"
        }
      ],
      "stateMutability": "view",
      "type": "function"
    },
    {
      "inputs": [],
      "name": "MAX_FEE_BPS",
      "outputs": [
        {
          "internalType": "uint256",
          "name": "",
          "type": "uint256"
        }
      ],
      "stateMutability": "view",
      "type": "function"
    },
    {
      "inputs": [],
      "name": "MAX_WITHDRAWAL_DELAY",
      "outputs": [
        {
          "internalType": "uint256",
          "name": "",
          "type": "uint256"
        }
      ],
      "stateMutability": "view",
      "type": "function"
    },
    {
      "inputs": [],
      "name": "NAME",
      "outputs": [
        {
          "internalType": "string",
          "name": "",
          "type": "string"
        }
      ],
      "stateMutability": "view",
      "type": "function"
    },
    {
      "inputs": [],
      "name": "PEGGED_TOKEN",
      "outputs": [
        {
          "internalType": "contract IPeggedToken",
          "name": "",
          "type": "address"
        }
      ],
      "stateMutability": "view",
      "type": "function"
    },
    {
      "inputs": [],
      "name": "UMM_ROLE",
      "outputs": [
        {
          "internalType": "bytes32",
          "name": "",
          "type": "bytes32"
        }
      ],
      "stateMutability": "view",
      "type": "function"
    },
    {
      "inputs": [],
      "name": "VERSION",
      "outputs": [
        {
          "internalType": "string",
          "name": "",
          "type": "string"
        }
      ],
      "stateMutability": "view",
      "type": "function"
    },
    {
      "inputs": [
        {
          "internalType": "address",
          "name": "account_",
          "type": "address"
        }
      ],
      "name": "addToInstantRedeemWhitelist",
      "outputs": [],
      "stateMutability": "nonpayable",
      "type": "function"
    },
    {
      "inputs": [],
      "name": "amoMintLimit",
      "outputs": [
        {
          "internalType": "uint256",
          "name": "",
          "type": "uint256"
        }
      ],
      "stateMutability": "view",
      "type": "function"
    },
    {
      "inputs": [],
      "name": "amoSupply",
      "outputs": [
        {
          "internalType": "uint256",
          "name": "",
          "type": "uint256"
        }
      ],
      "stateMutability": "view",
      "type": "function"
    },
    {
      "inputs": [
        {
          "internalType": "uint256",
          "name": "amount_",
          "type": "uint256"
        }
      ],
      "name": "burnFromAMO",
      "outputs": [],
      "stateMutability": "nonpayable",
      "type": "function"
    },
    {
      "inputs": [],
      "name": "cancelRedeemRequest",
      "outputs": [],
      "stateMutability": "nonpayable",
      "type": "function"
    },
    {
      "inputs": [
        {
          "internalType": "address",
          "name": "tokenIn_",
          "type": "address"
        },
        {
          "internalType": "uint256",
          "name": "amountIn_",
          "type": "uint256"
        },
        {
          "internalType": "uint256",
          "name": "minPeggedTokenOut_",
          "type": "uint256"
        },
        {
          "internalType": "address",
          "name": "receiver_",
          "type": "address"
        }
      ],
      "name": "deposit",
      "outputs": [
        {
          "internalType": "uint256",
          "name": "",
          "type": "uint256"
        }
      ],
      "stateMutability": "nonpayable",
      "type": "function"
    },
    {
      "inputs": [],
      "name": "getInstantRedeemWhitelist",
      "outputs": [
        {
          "internalType": "address[]",
          "name": "",
          "type": "address[]"
        }
      ],
      "stateMutability": "view",
      "type": "function"
    },
    {
      "inputs": [
        {
          "internalType": "address",
          "name": "user_",
          "type": "address"
        }
      ],
      "name": "getRedeemRequest",
      "outputs": [
        {
          "internalType": "uint256",
          "name": "_amountLocked",
          "type": "uint256"
        },
        {
          "internalType": "uint256",
          "name": "_claimableAt",
          "type": "uint256"
        }
      ],
      "stateMutability": "view",
      "type": "function"
    },
    {
      "inputs": [
        {
          "internalType": "address",
          "name": "peggedToken_",
          "type": "address"
        },
        {
          "internalType": "uint256",
          "name": "mintLimit_",
          "type": "uint256"
        },
        {
          "internalType": "uint256",
          "name": "initialWithdrawalDelay_",
          "type": "uint256"
        }
      ],
      "name": "initialize",
      "outputs": [],
      "stateMutability": "nonpayable",
      "type": "function"
    },
    {
      "inputs": [
        {
          "internalType": "address",
          "name": "account_",
          "type": "address"
        }
      ],
      "name": "isInstantRedeemWhitelisted",
      "outputs": [
        {
          "internalType": "bool",
          "name": "",
          "type": "bool"
        }
      ],
      "stateMutability": "view",
      "type": "function"
    },
    {
      "inputs": [],
      "name": "maxAmoMint",
      "outputs": [
        {
          "internalType": "uint256",
          "name": "",
          "type": "uint256"
        }
      ],
      "stateMutability": "view",
      "type": "function"
    },
    {
      "inputs": [],
      "name": "maxDeposit",
      "outputs": [
        {
          "internalType": "uint256",
          "name": "",
          "type": "uint256"
        }
      ],
      "stateMutability": "pure",
      "type": "function"
    },
    {
      "inputs": [],
      "name": "maxMint",
      "outputs": [
        {
          "internalType": "uint256",
          "name": "",
          "type": "uint256"
        }
      ],
      "stateMutability": "view",
      "type": "function"
    },
    {
      "inputs": [
        {
          "internalType": "address",
          "name": "owner_",
          "type": "address"
        }
      ],
      "name": "maxRedeem",
      "outputs": [
        {
          "internalType": "uint256",
          "name": "",
          "type": "uint256"
        }
      ],
      "stateMutability": "view",
      "type": "function"
    },
    {
      "inputs": [
        {
          "internalType": "address",
          "name": "tokenOut_",
          "type": "address"
        }
      ],
      "name": "maxWithdraw",
      "outputs": [
        {
          "internalType": "uint256",
          "name": "",
          "type": "uint256"
        }
      ],
      "stateMutability": "view",
      "type": "function"
    },
    {
      "inputs": [
        {
          "internalType": "address",
          "name": "tokenIn_",
          "type": "address"
        },
        {
          "internalType": "uint256",
          "name": "peggedTokenOut_",
          "type": "uint256"
        },
        {
          "internalType": "uint256",
          "name": "maxAmountIn_",
          "type": "uint256"
        },
        {
          "internalType": "address",
          "name": "receiver_",
          "type": "address"
        }
      ],
      "name": "mint",
      "outputs": [
        {
          "internalType": "uint256",
          "name": "",
          "type": "uint256"
        }
      ],
      "stateMutability": "nonpayable",
      "type": "function"
    },
    {
      "inputs": [
        {
          "internalType": "address",
          "name": "token_",
          "type": "address"
        }
      ],
      "name": "mintFee",
      "outputs": [
        {
          "internalType": "uint256",
          "name": "",
          "type": "uint256"
        }
      ],
      "stateMutability": "view",
      "type": "function"
    },
    {
      "inputs": [],
      "name": "mintLimit",
      "outputs": [
        {
          "internalType": "uint256",
          "name": "",
          "type": "uint256"
        }
      ],
      "stateMutability": "view",
      "type": "function"
    },
    {
      "inputs": [
        {
          "internalType": "uint256",
          "name": "amount_",
          "type": "uint256"
        },
        {
          "internalType": "address",
          "name": "receiver_",
          "type": "address"
        }
      ],
      "name": "mintToAMO",
      "outputs": [],
      "stateMutability": "nonpayable",
      "type": "function"
    },
    {
      "inputs": [],
      "name": "owner",
      "outputs": [
        {
          "internalType": "address",
          "name": "",
          "type": "address"
        }
      ],
      "stateMutability": "view",
      "type": "function"
    },
    {
      "inputs": [
        {
          "internalType": "address",
          "name": "token_",
          "type": "address"
        }
      ],
      "name": "pegBand",
      "outputs": [
        {
          "internalType": "uint256",
          "name": "",
          "type": "uint256"
        }
      ],
      "stateMutability": "view",
      "type": "function"
    },
    {
      "inputs": [
        {
          "internalType": "address",
          "name": "tokenIn_",
          "type": "address"
        },
        {
          "internalType": "uint256",
          "name": "amountIn_",
          "type": "uint256"
        }
      ],
      "name": "previewDeposit",
      "outputs": [
        {
          "internalType": "uint256",
          "name": "",
          "type": "uint256"
        }
      ],
      "stateMutability": "view",
      "type": "function"
    },
    {
      "inputs": [
        {
          "internalType": "address",
          "name": "tokenIn_",
          "type": "address"
        },
        {
          "internalType": "uint256",
          "name": "peggedTokenOut_",
          "type": "uint256"
        }
      ],
      "name": "previewMint",
      "outputs": [
        {
          "internalType": "uint256",
          "name": "",
          "type": "uint256"
        }
      ],
      "stateMutability": "view",
      "type": "function"
    },
    {
      "inputs": [
        {
          "internalType": "address",
          "name": "tokenOut_",
          "type": "address"
        },
        {
          "internalType": "uint256",
          "name": "peggedTokenIn_",
          "type": "uint256"
        }
      ],
      "name": "previewRedeem",
      "outputs": [
        {
          "internalType": "uint256",
          "name": "",
          "type": "uint256"
        }
      ],
      "stateMutability": "view",
      "type": "function"
    },
    {
      "inputs": [
        {
          "internalType": "address",
          "name": "tokenOut_",
          "type": "address"
        },
        {
          "internalType": "uint256",
          "name": "amountOut_",
          "type": "uint256"
        }
      ],
      "name": "previewWithdraw",
      "outputs": [
        {
          "internalType": "uint256",
          "name": "",
          "type": "uint256"
        }
      ],
      "stateMutability": "view",
      "type": "function"
    },
    {
      "inputs": [
        {
          "internalType": "address",
          "name": "tokenOut_",
          "type": "address"
        },
        {
          "internalType": "uint256",
          "name": "peggedTokenIn_",
          "type": "uint256"
        },
        {
          "internalType": "uint256",
          "name": "minAmountOut_",
          "type": "uint256"
        },
        {
          "internalType": "address",
          "name": "receiver_",
          "type": "address"
        }
      ],
      "name": "redeem",
      "outputs": [
        {
          "internalType": "uint256",
          "name": "",
          "type": "uint256"
        }
      ],
      "stateMutability": "nonpayable",
      "type": "function"
    },
    {
      "inputs": [
        {
          "internalType": "address",
          "name": "token_",
          "type": "address"
        }
      ],
      "name": "redeemFee",
      "outputs": [
        {
          "internalType": "uint256",
          "name": "",
          "type": "uint256"
        }
      ],
      "stateMutability": "view",
      "type": "function"
    },
    {
      "inputs": [
        {
          "internalType": "address",
          "name": "account_",
          "type": "address"
        }
      ],
      "name": "removeFromInstantRedeemWhitelist",
      "outputs": [],
      "stateMutability": "nonpayable",
      "type": "function"
    },
    {
      "inputs": [
        {
          "internalType": "uint256",
          "name": "peggedTokenAmount_",
          "type": "uint256"
        }
      ],
      "name": "requestRedeem",
      "outputs": [],
      "stateMutability": "nonpayable",
      "type": "function"
    },
    {
      "inputs": [
        {
          "internalType": "bool",
          "name": "enabled_",
          "type": "bool"
        }
      ],
      "name": "setWithdrawalDelayEnabled",
      "outputs": [],
      "stateMutability": "nonpayable",
      "type": "function"
    },
    {
      "inputs": [],
      "name": "treasury",
      "outputs": [
        {
          "internalType": "address",
          "name": "",
          "type": "address"
        }
      ],
      "stateMutability": "view",
      "type": "function"
    },
    {
      "inputs": [
        {
          "internalType": "uint256",
          "name": "newAmoMintLimit_",
          "type": "uint256"
        }
      ],
      "name": "updateAmoMintLimit",
      "outputs": [],
      "stateMutability": "nonpayable",
      "type": "function"
    },
    {
      "inputs": [
        {
          "internalType": "address",
          "name": "token_",
          "type": "address"
        },
        {
          "internalType": "uint256",
          "name": "newMintFee_",
          "type": "uint256"
        }
      ],
      "name": "updateMintFee",
      "outputs": [],
      "stateMutability": "nonpayable",
      "type": "function"
    },
    {
      "inputs": [
        {
          "internalType": "uint256",
          "name": "newMintLimit_",
          "type": "uint256"
        }
      ],
      "name": "updateMintLimit",
      "outputs": [],
      "stateMutability": "nonpayable",
      "type": "function"
    },
    {
      "inputs": [
        {
          "internalType": "address",
          "name": "token_",
          "type": "address"
        },
        {
          "internalType": "uint256",
          "name": "newPegBandBps_",
          "type": "uint256"
        }
      ],
      "name": "updatePegBand",
      "outputs": [],
      "stateMutability": "nonpayable",
      "type": "function"
    },
    {
      "inputs": [
        {
          "internalType": "address",
          "name": "token_",
          "type": "address"
        },
        {
          "internalType": "uint256",
          "name": "newRedeemFee_",
          "type": "uint256"
        }
      ],
      "name": "updateRedeemFee",
      "outputs": [],
      "stateMutability": "nonpayable",
      "type": "function"
    },
    {
      "inputs": [
        {
          "internalType": "uint256",
          "name": "newDelay_",
          "type": "uint256"
        }
      ],
      "name": "updateWithdrawalDelay",
      "outputs": [],
      "stateMutability": "nonpayable",
      "type": "function"
    },
    {
      "inputs": [
        {
          "internalType": "address",
          "name": "tokenOut_",
          "type": "address"
        },
        {
          "internalType": "uint256",
          "name": "amountOut_",
          "type": "uint256"
        },
        {
          "internalType": "uint256",
          "name": "maxPeggedTokenIn_",
          "type": "uint256"
        },
        {
          "internalType": "address",
          "name": "receiver_",
          "type": "address"
        }
      ],
      "name": "withdraw",
      "outputs": [
        {
          "internalType": "uint256",
          "name": "",
          "type": "uint256"
        }
      ],
      "stateMutability": "nonpayable",
      "type": "function"
    },
    {
      "inputs": [],
      "name": "withdrawalDelay",
      "outputs": [
        {
          "internalType": "uint256",
          "name": "",
          "type": "uint256"
        }
      ],
      "stateMutability": "view",
      "type": "function"
    },
    {
      "inputs": [],
      "name": "withdrawalDelayEnabled",
      "outputs": [
        {
          "internalType": "bool",
          "name": "",
          "type": "bool"
        }
      ],
      "stateMutability": "view",
      "type": "function"
    }
  ],
  "transactionHash": "0x44a0da22c5c65c46b2f923121ed4f27d3f60aa934a73e99e7528e23587a1f374",
  "args": [],
  "numDeployments": 1,
  "solcInputHash": "0506567e0c2fedf45fd3ce2a56eefd6b",
  "bytecode": "0x6080604052348015600e575f5ffd5b5060156019565b60c9565b7ff0c57e16840df040f15088dc2f81fe391c3923bec73e23a9662efc9c229c6a00805468010000000000000000900460ff161560685760405163f92ee8a960e01b815260040160405180910390fd5b80546001600160401b039081161460c65780546001600160401b0319166001600160401b0390811782556040519081527fc7f505b2f371ae2175ee4913f4499e1f2633a7b5936321eed1cdaeb6115181d29060200160405180910390a15b50565b6132a8806100d65f395ff3fe608060405234801561000f575f5ffd5b50600436106102b1575f3560e01c8063a3f4df7e1161017b578063d905777e116100e4578063f4a8bfce1161009e578063f874225411610079578063f8742254146105d6578063f8b49e72146105ea578063fd967f47146105fd578063ffa1ad7414610606575f5ffd5b8063f4a8bfce14610589578063f69516bd1461059c578063f74bfe8e146105c3575f5ffd5b8063d905777e14610522578063dc4aca0b14610535578063de7a8d1114610548578063e01d55c51461055b578063e2ad44301461056e578063ef34e1d314610576575f5ffd5b8063cbe52ae311610135578063cbe52ae3146104c5578063ce96cb77146104d8578063d1f810a5146104eb578063d392ff84146104fe578063d55be8c614610506578063d7811ca81461050f575f5ffd5b8063a3f4df7e1461045c578063a7ab696114610471578063aa2f892d14610479578063b8f82b261461048c578063bba6b6d91461049f578063bbc6f1dc146104b2575f5ffd5b80636083e59a1161021d57806385a8715c116101d757806385a8715c146104155780638b6099db146104285780638da5cb5b1461043b578063996517cf14610443578063a217fddf1461044b578063a238f9df14610452575f5ffd5b80636083e59a146103c557806361d027b3146103cc5780636dd86aa9146103d4578063726c19b6146103e75780637501f741146103fa5780637a1ac61e14610402575f5ffd5b80633c05e18f1161026e5780633c05e18f1461032c57806343bcfab6146103545780634b5f70e9146103675780634e485cf71461037f57806352cd67e91461039f578063569e7665146103b2575f5ffd5b80630ca4bea6146102b557806311dbcb6a146102ca5780631543b996146102e857806316762eed146102fe5780631d0f92541461031157806337c1c97314610319575b5f5ffd5b6102c86102c3366004612c09565b61062a565b005b6102d2610698565b6040516102df9190612c24565b60405180910390f35b6102f06106b2565b6040519081526020016102df565b6102f061030c366004612c83565b6106c4565b6102f0610728565b6102c8610327366004612cca565b61073a565b61033f61033a366004612cf4565b610893565b604080519283526020830191909152016102df565b6102f0610362366004612c83565b6108df565b61036f61092c565b60405190151581526020016102df565b610387610941565b6040516001600160a01b0390911681526020016102df565b6102c86103ad366004612d0f565b61095c565b61036f6103c0366004612cf4565b6109f4565b5f196102f0565b610387610a10565b6102c86103e2366004612cca565b610a78565b6102f06103f5366004612cf4565b610bd1565b6102f0610bfb565b6102c8610410366004612d26565b610cb4565b6102c8610423366004612d0f565b610f4c565b6102f0610436366004612c83565b611086565b6103876110d3565b6102f0611117565b6102f05f81565b6102f062278d0081565b610464611129565b6040516102df9190612d58565b6102f06111bf565b6102c8610487366004612d0f565b6111d1565b6102f061049a366004612cca565b6112ce565b6102c86104ad366004612d8d565b6112e0565b6102f06104c0366004612cca565b611452565b6102f06104d3366004612cca565b61148c565b6102f06104e6366004612cf4565b611497565b6102f06104f9366004612cca565b61150b565b6102c8611585565b6102f06101f481565b6102c861051d366004612cf4565b61165a565b6102f0610530366004612cf4565b611710565b6102c8610543366004612d0f565b611749565b6102f0610556366004612cf4565b6117d8565b6102c8610569366004612d0f565b611802565b6102f0611860565b6102c8610584366004612cca565b61188f565b6102c8610597366004612cf4565b6119b0565b6102f07f0409f54a149f7e9c092b20899db5e0090f5fe0d95cec1f328884d998633a8de881565b6102f06105d1366004612c83565b611a3f565b6102f05f5160206132535f395f51905f5281565b6102f06105f8366004612cf4565b611a8c565b6102f061271081565b610464604051806040016040528060058152602001640312e302e360dc1b81525081565b5f5160206132535f395f51905f5261064181611ab6565b5f61064a611b53565b60058101805460ff19168515159081179091556040519081529091507f1ab3cf66155e779afea5e22ccc9d9309ab0b8ac9f8bb280be843272f54202ead9060200160405180910390a1505050565b60606106ad6106a5611b53565b600701611bb4565b905090565b5f6106bb611b53565b60040154905090565b5f6106cd611bc0565b5f6106d88686611452565b90508381111561070a57604051637a41461360e01b815260048101829052602481018590526044015b60405180910390fd5b61071686828786611bf5565b9050610720611c5e565b949350505050565b5f610731611b53565b60030154905090565b5f5160206132535f395f51905f5261075181611ab6565b610759610a10565b60405163559bfa4360e11b81526001600160a01b038581166004830152919091169063ab37f48690602401602060405180830381865afa15801561079f573d5f5f3e3d5ffd5b505050506040513d601f19601f820116820180604052508101906107c39190612dbb565b6107eb5760405163751dff9760e11b81526001600160a01b0384166004820152602401610701565b6101f48211156108115760405163cdbb209f60e01b815260048101839052602401610701565b5f61081a611b53565b6001600160a01b0385165f818152600b8301602090815260409182902054825190815290810187905292935090917f1a15b544093bd3556343e4087772291340e180214a1c35469a6dd8aa1a4d3c68910160405180910390a26001600160a01b039093165f908152600b90930160205250604090912055565b5f5f5f61089e611b53565b6001600160a01b039094165f908152600994909401602090815260409485902085518087019096528054808752600190910154959091018590529492505050565b5f6108e8611bc0565b5f6108f3868661148c565b9050838110156109205760405163c419416760e01b81526004810182905260248101859052604401610701565b61071686868386611bf5565b5f610935611b53565b6005015460ff16919050565b5f61094a611b53565b600101546001600160a01b0316919050565b5f5160206132535f395f51905f5261097381611ab6565b811580610982575062278d0082115b156109a057604051633cb2b8d760e11b815260040160405180910390fd5b5f6109a9611b53565b600681015460408051918252602082018690529192507f9c3f1b54b1487e018f1d0593ff5cf7fb625b2df6332c974a6cc56bb358879841910160405180910390a16006019190915550565b5f610a0a82610a01611b53565b60070190611c88565b92915050565b5f610a19610941565b6001600160a01b03166361d027b36040518163ffffffff1660e01b8152600401602060405180830381865afa158015610a54573d5f5f3e3d5ffd5b505050506040513d601f19601f820116820180604052508101906106ad9190612dd6565b5f5160206132535f395f51905f52610a8f81611ab6565b610a97610a10565b60405163559bfa4360e11b81526001600160a01b038581166004830152919091169063ab37f48690602401602060405180830381865afa158015610add573d5f5f3e3d5ffd5b505050506040513d601f19601f82011682018060405250810190610b019190612dbb565b610b295760405163751dff9760e11b81526001600160a01b0384166004820152602401610701565b6101f4821115610b4f576040516319fd0bd760e21b815260048101839052602401610701565b5f610b58611b53565b6001600160a01b0385165f818152600c8301602090815260409182902054825190815290810187905292935090917f08cf3e85f82bb8308a1225e82694466368f02a7803dbfac0b5b7a5db38d52ca2910160405180910390a26001600160a01b039093165f908152600c90930160205250604090912055565b5f610bda611b53565b6001600160a01b039092165f908152600a9290920160205250604090205490565b5f5f610c05611b53565b90505f816001015f9054906101000a90046001600160a01b03166001600160a01b03166318160ddd6040518163ffffffff1660e01b8152600401602060405180830381865afa158015610c5a573d5f5f3e3d5ffd5b505050506040513d601f19601f82011682018060405250810190610c7e9190612df1565b60048301549091505f610c918284612e1c565b6002850154909150818111610cab575f9550505050505090565b03949350505050565b5f610cbd611ca9565b805490915060ff600160401b820416159067ffffffffffffffff165f81158015610ce45750825b90505f8267ffffffffffffffff166001148015610d005750303b155b905081158015610d0e575080155b15610d2c5760405163f92ee8a960e01b815260040160405180910390fd5b845467ffffffffffffffff191660011785558315610d5657845460ff60401b1916600160401b1785555b6001600160a01b038816610d7d5760405163867915ab60e01b815260040160405180910390fd5b5f610d86611b53565b6001810180546001600160a01b0319166001600160a01b038c16908117909155600282018a90556040805163313ce56760e01b81529051929350909163313ce567916004808201926020929091908290030181865afa158015610deb573d5f5f3e3d5ffd5b505050506040513d601f19601f82011682018060405250810190610e0f9190612e2f565b8160010160146101000a81548160ff021916908360ff160217905550886001600160a01b03166395d89b416040518163ffffffff1660e01b81526004015f60405180830381865afa158015610e66573d5f5f3e3d5ffd5b505050506040513d5f823e601f3d908101601f19168201604052610e8d9190810190612e63565b604051602001610e9d9190612f16565b60408051601f198184030181529190528190610eb99082612fbd565b5060058101805460ff19166001179055861580610ed8575062278d0087115b15610ef657604051633cb2b8d760e11b815260040160405180910390fd5b6006018690558315610f4257845460ff60401b19168555604051600181527fc7f505b2f371ae2175ee4913f4499e1f2633a7b5936321eed1cdaeb6115181d29060200160405180910390a15b5050505050505050565b7f0409f54a149f7e9c092b20899db5e0090f5fe0d95cec1f328884d998633a8de8610f7681611ab6565b815f03610f96576040516310eb483f60e21b815260040160405180910390fd5b5f610f9f611b53565b600181015460405163079cc67960e41b8152336004820152602481018690529192506001600160a01b0316906379cc6790906044015f604051808303815f87803b158015610feb575f5ffd5b505af1158015610ffd573d5f5f3e3d5ffd5b50505050600481015480841115611031576040516312d5d0b560e11b81526004810185905260248101829052604401610701565b5f61103c8583612e1c565b6004840181905560408051878152602081018390529192507fa840d857be4fa627a8b83209753d23db02a27dc32782579e9332a69d5fc881dd910160405180910390a15050505050565b5f61108f611bc0565b5f61109a86866112ce565b9050838110156110c7576040516302a33a4160e21b81526004810182905260248101859052604401610701565b61071686868386611cd1565b5f6110dc610a10565b6001600160a01b0316638da5cb5b6040518163ffffffff1660e01b8152600401602060405180830381865afa158015610a54573d5f5f3e3d5ffd5b5f611120611b53565b60020154905090565b6060611133611b53565b805461113e90612f3a565b80601f016020809104026020016040519081016040528092919081815260200182805461116a90612f3a565b80156111b55780601f1061118c576101008083540402835291602001916111b5565b820191905f5260205f20905b81548152906001019060200180831161119857829003601f168201915b5050505050905090565b5f6111c8611b53565b60060154905090565b6111d9611bc0565b805f036111f9576040516310eb483f60e21b815260040160405180910390fd5b5f611202611b53565b600581015490915060ff1661122a5760405163dda8b6db60e01b815260040160405180910390fd5b6001810154611244906001600160a01b0316333085611f50565b335f90815260098201602052604081208054909190611264908590613078565b90505f8360060154426112779190613078565b82845560018401819055604080518481526020810183905291925033917f58fe322fc5911ed072ec92f570e517b9793e350eb1ff7be0019fd9f3fade87bc910160405180910390a2505050506112cb611c5e565b50565b5f6112d98383611f86565b9392505050565b7f0409f54a149f7e9c092b20899db5e0090f5fe0d95cec1f328884d998633a8de861130a81611ab6565b6001600160a01b0382166113315760405163867915ab60e01b815260040160405180910390fd5b5f61133a611b53565b60048101546003820154919250905f828211611356575f611360565b6113608383612e1c565b90508087111561138d57604051634a768b1360e01b81526004810188905260248101829052604401610701565b6113978784613078565b600485810182905560018601546040516340c10f1960e01b81526001600160a01b038a811693820193909352602481018b905292955016906340c10f19906044015f604051808303815f87803b1580156113ef575f5ffd5b505af1158015611401573d5f5f3e3d5ffd5b5050604080518a8152602081018790526001600160a01b038a1693507f5b12134695cb4f1d04e9c6f5747e4f28d084940f9ac912162a12ea4c50790c7b92500160405180910390a250505050505050565b5f5f61145c6121b9565b61146790600a61316e565b90505f61147485836121d5565b90506114838483836001612381565b95945050505050565b5f6112d983836121d5565b5f6114a0610a10565b60405163ce513b6f60e01b81526001600160a01b038481166004830152919091169063ce513b6f906024015b602060405180830381865afa1580156114e7573d5f5f3e3d5ffd5b505050506040513d601f19601f82011682018060405250810190610a0a9190612df1565b5f5f836001600160a01b031663313ce5676040518163ffffffff1660e01b8152600401602060405180830381865afa158015611549573d5f5f3e3d5ffd5b505050506040513d601f19601f8201168201806040525081019061156d9190612e2f565b61157890600a61316e565b90505f6114748583611f86565b61158d611bc0565b5f611596611b53565b335f90815260098201602090815260408083208151808301909252805482526001015491810182905292935090036115e157604051636a9cf0e160e11b815260040160405180910390fd5b8051335f8181526009850160205260408120818155600190810191909155840154611618916001600160a01b0390911690836123c3565b60405181815233907f046d3e17087d323298991516e3fdec36fe1204d6bff7fb6e2b8eca77b80a22ad9060200160405180910390a2505050611658611c5e565b565b5f5160206132535f395f51905f5261167181611ab6565b6001600160a01b0382166116985760405163867915ab60e01b815260040160405180910390fd5b5f6116a1611b53565b90506116b060078201846123fd565b6116d857604051631da8dae560e21b81526001600160a01b0384166004820152602401610701565b6040516001600160a01b038416907f797517369e23ffd3af45a8a42a13b6db0a4826ad2ef98121c434e14f150e6240905f90a2505050565b5f611719610941565b6040516370a0823160e01b81526001600160a01b03848116600483015291909116906370a08231906024016114cc565b5f61175381611ab6565b5f61175c611b53565b60048101549091508084101561178f5760405163c502fa4b60e01b81526004810185905260248101829052604401610701565b600382015460408051918252602082018690527fa15e75b23c4dcef1647713af3c7fdf585008390108be4b7936c438297047726d910160405180910390a1506003019190915550565b5f6117e1611b53565b6001600160a01b039092165f908152600c9290920160205250604090205490565b5f61180c81611ab6565b5f611815611b53565b600281015460408051918252602082018690529192507f864790bdf9878a0378c6fc2b0ce53bf74ca13b901bc97a1cb94aa88f1600e482910160405180910390a16002019190915550565b5f5f61186a611b53565b6004810154600382015491925090818111611888575f935050505090565b0392915050565b5f61189981611ab6565b5f6118a2610a10565b6001600160a01b03166359011cd16040518163ffffffff1660e01b8152600401602060405180830381865afa1580156118dd573d5f5f3e3d5ffd5b505050506040513d601f19601f820116820180604052508101906119019190612df1565b905080831061192d5760405163d249c39b60e01b81526004810184905260248101829052604401610701565b5f611936611b53565b6001600160a01b0386165f818152600a8301602090815260409182902054825190815290810188905292935090917f91b5c669b95c944e391cafcd29858c0b8d0f840d1efececa05babf51b3d4684a910160405180910390a26001600160a01b039094165f908152600a9094016020525050604090912055565b5f5160206132535f395f51905f526119c781611ab6565b5f6119d0611b53565b90506119df6007820184612411565b611a0757604051636a95c69760e11b81526001600160a01b0384166004820152602401610701565b6040516001600160a01b038416907f33ab47afb8a85cbb067a9be15fcd6a7d60556a446b47f204e65a37cf7ad19c38905f90a2505050565b5f611a48611bc0565b5f611a53868661150b565b905083811115611a80576040516366bd3b3160e01b81526004810182905260248101859052604401610701565b61071686828786611cd1565b5f611a95611b53565b6001600160a01b039092165f908152600b9290920160205250604090205490565b611abe610a10565b604051632474521560e21b8152600481018390523360248201526001600160a01b0391909116906391d1485490604401602060405180830381865afa158015611b09573d5f5f3e3d5ffd5b505050506040513d601f19601f82011682018060405250810190611b2d9190612dbb565b6112cb5760405163e2517d3f60e01b815233600482015260248101829052604401610701565b5f8060ff19611b8360017fa3a4435365f490e843046070479899515f8f1c66eb53917e96404c72b5dbe54f612e1c565b604051602001611b9591815260200190565b60408051601f1981840301815291905280516020909101201692915050565b60605f6112d983612425565b611bc861247e565b61165860017f9b779b17422d0df92223018b32b4d1fa46e071723d6817e2486d003becc55f005b906124be565b5f611bfe611b53565b335f908152600982016020526040902060018101549192509015801590611c29575080600101544210155b15611c4157611c3a868686866124c5565b5050611c58565b611c4961274e565b611c5586858786612798565b50505b50505050565b6116585f7f9b779b17422d0df92223018b32b4d1fa46e071723d6817e2486d003becc55f00611bef565b6001600160a01b0381165f90815260018301602052604081205415156112d9565b5f807ff0c57e16840df040f15088dc2f81fe391c3923bec73e23a9662efc9c229c6a00610a0a565b5f611cda610bfb565b905080831115611d0757604051634a768b1360e01b81526004810184905260248101829052604401610701565b5f611d10610a10565b6040516370a0823160e01b81526001600160a01b0380831660048301529192505f918816906370a0823190602401602060405180830381865afa158015611d59573d5f5f3e3d5ffd5b505050506040513d601f19601f82011682018060405250810190611d7d9190612df1565b9050611d946001600160a01b038816338489611f50565b6040516370a0823160e01b81526001600160a01b0383811660048301525f91908916906370a0823190602401602060405180830381865afa158015611ddb573d5f5f3e3d5ffd5b505050506040513d601f19601f82011682018060405250810190611dff9190612df1565b905086611e0c8383612e1c565b14611e35576040516335822d6b60e11b81526001600160a01b0389166004820152602401610701565b6040516311f9fbc960e21b81526001600160a01b038981166004830152602482018990528416906347e7ef24906044015f604051808303815f87803b158015611e7c575f5ffd5b505af1158015611e8e573d5f5f3e3d5ffd5b505050505f611e9b610941565b6040516340c10f1960e01b81526001600160a01b038881166004830152602482018a9052919250908216906340c10f19906044015f604051808303815f87803b158015611ee6575f5ffd5b505af1158015611ef8573d5f5f3e3d5ffd5b5050604080518b8152602081018b90526001600160a01b03808b1694508d1692507f02d7e648dd130fc184d383e55bb126ac4c9c60e8f94bf05acdf557ba2d540b4791015b60405180910390a3505050505050505050565b611f5e8484848460016128f5565b611c5857604051635274afe760e01b81526001600160a01b0385166004820152602401610701565b5f5f611f90611b53565b90505f5f826001015f9054906101000a90046001600160a01b03166001600160a01b03166361d027b36040518163ffffffff1660e01b8152600401602060405180830381865afa158015611fe6573d5f5f3e3d5ffd5b505050506040513d601f19601f8201168201806040525081019061200a9190612dd6565b6040516341976e0960e01b81526001600160a01b03888116600483015291909116906341976e09906024016040805180830381865afa15801561204f573d5f5f3e3d5ffd5b505050506040513d601f19601f82011682018060405250810190612073919061317c565b6001600160a01b0388165f908152600b860160205260408120549294509092508161209e57866120b7565b6120b76120ad83612710612e1c565b8890612710612962565b6001600160a01b0389165f908152600a8701602052604081205491925090612710906120e3908661319e565b6120ed91906131c9565b6120f79085612e1c565b90505f818610156121125761210d838787612962565b612114565b825b90505f8760010160149054906101000a900460ff1690508a6001600160a01b031663313ce5676040518163ffffffff1660e01b8152600401602060405180830381865afa158015612167573d5f5f3e3d5ffd5b505050506040513d601f19601f8201168201806040525081019061218b9190612e2f565b61219590826131dc565b6121a090600a61316e565b6121aa908361319e565b9b9a5050505050505050505050565b5f6121c2611b53565b60010154600160a01b900460ff16919050565b5f5f6121df611b53565b90505f5f6121eb610a10565b6040516341976e0960e01b81526001600160a01b03888116600483015291909116906341976e09906024016040805180830381865afa158015612230573d5f5f3e3d5ffd5b505050506040513d601f19601f82011682018060405250810190612254919061317c565b6001600160a01b0388165f908152600c860160205260408120549294509092508161227f578661228e565b61228e6120ad83612710612e1c565b6001600160a01b0389165f908152600a8701602052604081205491925090612710906122ba908661319e565b6122c491906131c9565b6122ce9085613078565b90505f818611156122e9576122e4838688612962565b6122eb565b825b90505f8760010160149054906101000a900460ff1690508a6001600160a01b031663313ce5676040518163ffffffff1660e01b8152600401602060405180830381865afa15801561233e573d5f5f3e3d5ffd5b505050506040513d601f19601f820116820180604052508101906123629190612e2f565b61236c90826131dc565b61237790600a61316e565b6121aa90836131c9565b5f6123ae61238e83612a12565b80156123a957505f84806123a4576123a46131b5565b868809115b151590565b6123b9868686612962565b6114839190613078565b6123d08383836001612a3e565b6123f857604051635274afe760e01b81526001600160a01b0384166004820152602401610701565b505050565b5f6112d9836001600160a01b038416612aa0565b5f6112d9836001600160a01b038416612aec565b6060815f0180548060200260200160405190810160405280929190818152602001828054801561247257602002820191905f5260205f20905b81548152602001906001019080831161245e575b50505050509050919050565b7f9b779b17422d0df92223018b32b4d1fa46e071723d6817e2486d003becc55f005c1561165857604051633ee5aeb560e01b815260040160405180910390fd5b80825d5050565b5f6124cf85611497565b9050808311156124fc5760405163264f877960e21b81526004810184905260248101829052604401610701565b5f612505611b53565b335f90815260098201602052604090208054600183015492935090916001600160a01b03168188116125bd578782039150815f0361255957335f90815260098501602052604081208181556001015561255d565b8183555b60405163079cc67960e41b8152306004820152602481018990526001600160a01b038216906379cc6790906044015f604051808303815f87803b1580156125a2575f5ffd5b505af11580156125b4573d5f5f3e3d5ffd5b5050505061269a565b6125c561274e565b335f908152600985016020526040808220828155600101919091555163079cc67960e41b815230600482015260248101839052828903906001600160a01b038316906379cc6790906044015f604051808303815f87803b158015612627575f5ffd5b505af1158015612639573d5f5f3e3d5ffd5b505060405163079cc67960e41b8152336004820152602481018490526001600160a01b03851692506379cc679091506044015f604051808303815f87803b158015612682575f5ffd5b505af1158015612694573d5f5f3e3d5ffd5b50505050505b6126a2610a10565b604051631a4ca37b60e21b81526001600160a01b038b81166004830152602482018a9052888116604483015291909116906369328dec906064015f604051808303815f87803b1580156126f3575f5ffd5b505af1158015612705573d5f5f3e3d5ffd5b5050604080518a8152602081018c90526001600160a01b03808b1694508d1692507f8166bf25f8a2b7ed3c85049207da4358d16edbed977d23fa2ee6f0dde3ec21329101611f3d565b5f612757611b53565b600581015490915060ff16801561277857506127766007820133611c88565b155b156112cb5760405163252c827360e01b8152336004820152602401610701565b5f6127a285611497565b9050808411156127cf5760405163264f877960e21b81526004810185905260248101829052604401610701565b5f6127d8610941565b60405163079cc67960e41b8152336004820152602481018690529091506001600160a01b038216906379cc6790906044015f604051808303815f87803b158015612820575f5ffd5b505af1158015612832573d5f5f3e3d5ffd5b5050505061283e610a10565b604051631a4ca37b60e21b81526001600160a01b03888116600483015260248201889052858116604483015291909116906369328dec906064015f604051808303815f87803b15801561288f575f5ffd5b505af11580156128a1573d5f5f3e3d5ffd5b505060408051888152602081018890526001600160a01b0380881694508a1692507f8166bf25f8a2b7ed3c85049207da4358d16edbed977d23fa2ee6f0dde3ec2132910160405180910390a3505050505050565b6040516323b872dd60e01b5f8181526001600160a01b038781166004528616602452604485905291602083606481808c5af1925060015f51148316612951578383151615612945573d5f823e3d81fd5b5f883b113d1516831692505b604052505f60605295945050505050565b5f5f5f61296f8686612bcf565b91509150815f0361299357838181612989576129896131b5565b04925050506112d9565b8184116129aa576129aa6003851502601118612beb565b5f848688095f868103871696879004966002600389028118808a02820302808a02820302808a02820302808a02820302808a02820302808a02909103029181900381900460010185841190960395909502919093039390930492909217029150509392505050565b5f6002826003811115612a2757612a276131f5565b612a319190613209565b60ff166001149050919050565b60405163a9059cbb60e01b5f8181526001600160a01b038616600452602485905291602083604481808b5af1925060015f51148316612a94578383151615612a88573d5f823e3d81fd5b5f873b113d1516831692505b60405250949350505050565b5f818152600183016020526040812054612ae557508154600181810184555f848152602080822090930184905584548482528286019093526040902091909155610a0a565b505f610a0a565b5f8181526001830160205260408120548015612bc6575f612b0e600183612e1c565b85549091505f90612b2190600190612e1c565b9050808214612b80575f865f018281548110612b3f57612b3f61322a565b905f5260205f200154905080875f018481548110612b5f57612b5f61322a565b5f918252602080832090910192909255918252600188019052604090208390555b8554869080612b9157612b9161323e565b600190038181905f5260205f20015f90559055856001015f8681526020019081526020015f205f905560019350505050610a0a565b5f915050610a0a565b5f805f1983850993909202808410938190039390930393915050565b634e487b715f52806020526024601cfd5b80151581146112cb575f5ffd5b5f60208284031215612c19575f5ffd5b81356112d981612bfc565b602080825282518282018190525f918401906040840190835b81811015612c645783516001600160a01b0316835260209384019390920191600101612c3d565b509095945050505050565b6001600160a01b03811681146112cb575f5ffd5b5f5f5f5f60808587031215612c96575f5ffd5b8435612ca181612c6f565b935060208501359250604085013591506060850135612cbf81612c6f565b939692955090935050565b5f5f60408385031215612cdb575f5ffd5b8235612ce681612c6f565b946020939093013593505050565b5f60208284031215612d04575f5ffd5b81356112d981612c6f565b5f60208284031215612d1f575f5ffd5b5035919050565b5f5f5f60608486031215612d38575f5ffd5b8335612d4381612c6f565b95602085013595506040909401359392505050565b602081525f82518060208401528060208501604085015e5f604082850101526040601f19601f83011684010191505092915050565b5f5f60408385031215612d9e575f5ffd5b823591506020830135612db081612c6f565b809150509250929050565b5f60208284031215612dcb575f5ffd5b81516112d981612bfc565b5f60208284031215612de6575f5ffd5b81516112d981612c6f565b5f60208284031215612e01575f5ffd5b5051919050565b634e487b7160e01b5f52601160045260245ffd5b81810381811115610a0a57610a0a612e08565b5f60208284031215612e3f575f5ffd5b815160ff811681146112d9575f5ffd5b634e487b7160e01b5f52604160045260245ffd5b5f60208284031215612e73575f5ffd5b815167ffffffffffffffff811115612e89575f5ffd5b8201601f81018413612e99575f5ffd5b805167ffffffffffffffff811115612eb357612eb3612e4f565b604051601f8201601f19908116603f0116810167ffffffffffffffff81118282101715612ee257612ee2612e4f565b604052818152828201602001861015612ef9575f5ffd5b8160208401602083015e5f91810160200191909152949350505050565b5f82518060208501845e672d4761746577617960c01b920191825250600801919050565b600181811c90821680612f4e57607f821691505b602082108103612f6c57634e487b7160e01b5f52602260045260245ffd5b50919050565b601f8211156123f857805f5260205f20601f840160051c81016020851015612f975750805b601f840160051c820191505b81811015612fb6575f8155600101612fa3565b5050505050565b815167ffffffffffffffff811115612fd757612fd7612e4f565b612feb81612fe58454612f3a565b84612f72565b6020601f82116001811461301d575f83156130065750848201515b5f19600385901b1c1916600184901b178455612fb6565b5f84815260208120601f198516915b8281101561304c578785015182556020948501946001909201910161302c565b508482101561306957868401515f19600387901b60f8161c191681555b50505050600190811b01905550565b80820180821115610a0a57610a0a612e08565b6001815b60018411156130c6578085048111156130aa576130aa612e08565b60018416156130b857908102905b60019390931c92800261308f565b935093915050565b5f826130dc57506001610a0a565b816130e857505f610a0a565b81600181146130fe576002811461310857613124565b6001915050610a0a565b60ff84111561311957613119612e08565b50506001821b610a0a565b5060208310610133831016604e8410600b8410161715613147575081810a610a0a565b6131535f19848461308b565b805f190482111561316657613166612e08565b029392505050565b5f6112d960ff8416836130ce565b5f5f6040838503121561318d575f5ffd5b505080516020909101519092909150565b8082028115828204841417610a0a57610a0a612e08565b634e487b7160e01b5f52601260045260245ffd5b5f826131d7576131d76131b5565b500490565b60ff8281168282160390811115610a0a57610a0a612e08565b634e487b7160e01b5f52602160045260245ffd5b5f60ff83168061321b5761321b6131b5565b8060ff84160691505092915050565b634e487b7160e01b5f52603260045260245ffd5b634e487b7160e01b5f52603160045260245ffdfe339759585899103d2ace64958e37e18ccb0504652c81d4a1b8aa80fe2126ab95a2646970667358221220594eb096a0ca6ee0f66ac782dc0bb2c1c431e1f2b85cc5b421170d1c35e74c0a64736f6c634300081e0033",
  "implementation": "0xd1C374C6FDCdDF77923118dC15D66aB13289A5Cf",
  "devdoc": {
    "custom:storage-location": "erc7201:vetro.storage.gateway",
    "errors": {
      "InvalidInitialization()": [
        {
          "details": "The contract is already initialized."
        }
      ],
      "NotInitializing()": [
        {
          "details": "The contract is not initializing."
        }
      ],
      "ReentrancyGuardReentrantCall()": [
        {
          "details": "Unauthorized reentrant call."
        }
      ],
      "SafeERC20FailedOperation(address)": [
        {
          "details": "An operation with an ERC-20 token failed."
        }
      ]
    },
    "events": {
      "Initialized(uint64)": {
        "details": "Triggered when the contract has been initialized or reinitialized."
      }
    },
    "kind": "dev",
    "methods": {
      "addToInstantRedeemWhitelist(address)": {
        "params": {
          "account_": "Address to whitelist"
        }
      },
      "burnFromAMO(uint256)": {
        "params": {
          "amount_": "Amount of PeggedToken to burn"
        }
      },
      "constructor": {
        "custom:oz-upgrades-unsafe-allow": "constructor"
      },
      "deposit(address,uint256,uint256,address)": {
        "params": {
          "amountIn_": "Amount of tokens to deposit",
          "minPeggedTokenOut_": "Minimum PeggedToken to receive",
          "receiver_": "Address to receive the PeggedToken",
          "tokenIn_": "Token to deposit"
        },
        "returns": {
          "_0": "Amount of PeggedToken minted"
        }
      },
      "getInstantRedeemWhitelist()": {
        "returns": {
          "_0": "Array of whitelisted addresses"
        }
      },
      "getRedeemRequest(address)": {
        "params": {
          "user_": "User address"
        },
        "returns": {
          "_amountLocked": "Amount of peggedToken locked in Gateway contract",
          "_claimableAt": "Timestamp when request can be claimed"
        }
      },
      "initialize(address,uint256,uint256)": {
        "params": {
          "initialWithdrawalDelay_": "Initial withdrawal delay period in seconds",
          "mintLimit_": "Maximum mint limit for PeggedToken",
          "peggedToken_": "Address of the PeggedToken contract"
        }
      },
      "isInstantRedeemWhitelisted(address)": {
        "params": {
          "account_": "Address to check"
        },
        "returns": {
          "_0": "True if whitelisted"
        }
      },
      "maxAmoMint()": {
        "details": "Returns remaining AMO mint capacity"
      },
      "maxMint()": {
        "details": "Returns remaining mint capacity (excludes AMO supply from calculation)Invariant: amoSupply <= totalSupply always holds, so subtraction is safe"
      },
      "maxRedeem(address)": {
        "params": {
          "owner_": "Address to check redeem limit for"
        }
      },
      "maxWithdraw(address)": {
        "params": {
          "tokenOut_": "Token to withdraw"
        }
      },
      "mint(address,uint256,uint256,address)": {
        "params": {
          "maxAmountIn_": "Maximum tokens to deposit",
          "peggedTokenOut_": "Exact PeggedToken amount to mint",
          "receiver_": "Address to receive the PeggedToken",
          "tokenIn_": "Token to deposit"
        },
        "returns": {
          "_0": "Amount of tokens deposited"
        }
      },
      "mintFee(address)": {
        "params": {
          "token_": "Token address"
        },
        "returns": {
          "_0": "The mint fee in BPS"
        }
      },
      "mintToAMO(uint256,address)": {
        "params": {
          "amount_": "Amount of PeggedToken to mint",
          "receiver_": "Address to receive the minted PeggedToken"
        }
      },
      "pegBand(address)": {
        "params": {
          "token_": "The token address"
        },
        "returns": {
          "_0": "The peg tolerance in BPS"
        }
      },
      "previewDeposit(address,uint256)": {
        "params": {
          "amountIn_": "Amount of tokens to deposit",
          "tokenIn_": "Token to deposit"
        },
        "returns": {
          "_0": "Expected PeggedToken output"
        }
      },
      "previewMint(address,uint256)": {
        "params": {
          "peggedTokenOut_": "PeggedToken amount to mint",
          "tokenIn_": "Token to deposit"
        },
        "returns": {
          "_0": "Required token input"
        }
      },
      "previewRedeem(address,uint256)": {
        "params": {
          "peggedTokenIn_": "PeggedToken amount to redeem",
          "tokenOut_": "Token to receive"
        },
        "returns": {
          "_0": "Expected token output"
        }
      },
      "previewWithdraw(address,uint256)": {
        "params": {
          "amountOut_": "Token amount to withdraw",
          "tokenOut_": "Token to withdraw"
        },
        "returns": {
          "_0": "Required PeggedToken input"
        }
      },
      "redeem(address,uint256,uint256,address)": {
        "params": {
          "minAmountOut_": "Minimum tokens to receive",
          "peggedTokenIn_": "PeggedToken amount to burn",
          "receiver_": "Address to receive the tokens",
          "tokenOut_": "Token to receive"
        },
        "returns": {
          "_0": "Amount of tokens received"
        }
      },
      "redeemFee(address)": {
        "params": {
          "token_": "Token address"
        },
        "returns": {
          "_0": "The redeem fee in BPS"
        }
      },
      "removeFromInstantRedeemWhitelist(address)": {
        "params": {
          "account_": "Address to remove from whitelist"
        }
      },
      "requestRedeem(uint256)": {
        "params": {
          "peggedTokenAmount_": "Amount of peggedToken to lock in request"
        }
      },
      "setWithdrawalDelayEnabled(bool)": {
        "details": "When disabled, all users can instant redeem/withdraw",
        "params": {
          "enabled_": "The intended state for withdrawal delay"
        }
      },
      "updateAmoMintLimit(uint256)": {
        "params": {
          "newAmoMintLimit_": "New limit value"
        }
      },
      "updateMintFee(address,uint256)": {
        "params": {
          "newMintFee_": "New fee in basis points (1 = 0.01%)",
          "token_": "Token address"
        }
      },
      "updateMintLimit(uint256)": {
        "params": {
          "newMintLimit_": "New maximum mint limit in PeggedToken"
        }
      },
      "updatePegBand(address,uint256)": {
        "details": "Only callable by DEFAULT_ADMIN_ROLE. Tolerance must be less than Treasury's priceTolerance.",
        "params": {
          "newPegBandBps_": "The new peg band in BPS",
          "token_": "The token address"
        }
      },
      "updateRedeemFee(address,uint256)": {
        "params": {
          "newRedeemFee_": "New fee in basis points (1 = 0.01%)",
          "token_": "Token address"
        }
      },
      "updateWithdrawalDelay(uint256)": {
        "params": {
          "newDelay_": "New delay period in seconds"
        }
      },
      "withdraw(address,uint256,uint256,address)": {
        "params": {
          "amountOut_": "Exact token amount to receive",
          "maxPeggedTokenIn_": "Maximum PeggedToken to burn",
          "receiver_": "Address to receive the tokens",
          "tokenOut_": "Token to receive"
        },
        "returns": {
          "_0": "Amount of PeggedToken burnt"
        }
      }
    },
    "title": "Gateway - Handles both minting and redeeming of PeggedToken",
    "version": 1
  },
  "userdoc": {
    "kind": "user",
    "methods": {
      "NAME()": {
        "notice": "Returns the name of the Gateway"
      },
      "PEGGED_TOKEN()": {
        "notice": "Returns PeggedToken token contract"
      },
      "addToInstantRedeemWhitelist(address)": {
        "notice": "Add address to instant redeem whitelist"
      },
      "amoMintLimit()": {
        "notice": "Returns current AMO mint limit above reserve"
      },
      "amoSupply()": {
        "notice": "Returns current AMO-minted supply tracked by treasury"
      },
      "burnFromAMO(uint256)": {
        "notice": "Burns AMO-minted PeggedToken to reduce AMO supply"
      },
      "cancelRedeemRequest()": {
        "notice": "Cancel redeem request and return locked peggedToken to user"
      },
      "deposit(address,uint256,uint256,address)": {
        "notice": "Deposits tokens to receive PeggedToken"
      },
      "getInstantRedeemWhitelist()": {
        "notice": "Get all whitelisted addresses"
      },
      "getRedeemRequest(address)": {
        "notice": "Get redeem request details for a user"
      },
      "initialize(address,uint256,uint256)": {
        "notice": "Initializes the Gateway contract"
      },
      "isInstantRedeemWhitelisted(address)": {
        "notice": "Check if address is whitelisted for instant redeem/withdraw"
      },
      "maxAmoMint()": {
        "notice": "Returns remaining AMO mint capacity"
      },
      "maxDeposit()": {
        "notice": "Returns maximum deposit amount possible"
      },
      "maxMint()": {
        "notice": "Returns remaining mint capacity"
      },
      "maxRedeem(address)": {
        "notice": "Returns maximum PeggedToken amount owner can redeem"
      },
      "maxWithdraw(address)": {
        "notice": "Returns maximum token amount that can be withdrawn"
      },
      "mint(address,uint256,uint256,address)": {
        "notice": "Mints exact PeggedToken amount by depositing tokens"
      },
      "mintFee(address)": {
        "notice": "Gets the mint fee for a specific token"
      },
      "mintLimit()": {
        "notice": "Returns current mint limit in PeggedToken"
      },
      "mintToAMO(uint256,address)": {
        "notice": "Mints PeggedToken to AMO operations (UMM role)"
      },
      "owner()": {
        "notice": "Returns contract owner address"
      },
      "pegBand(address)": {
        "notice": "Get the peg tolerance for a specific token"
      },
      "previewDeposit(address,uint256)": {
        "notice": "Simulates deposit of tokens for PeggedToken"
      },
      "previewMint(address,uint256)": {
        "notice": "Simulates minting exact PeggedToken amount"
      },
      "previewRedeem(address,uint256)": {
        "notice": "Simulates redeeming PeggedToken for tokens"
      },
      "previewWithdraw(address,uint256)": {
        "notice": "Simulates withdrawing exact token amount"
      },
      "redeem(address,uint256,uint256,address)": {
        "notice": "Redeems PeggedToken for exact token amount"
      },
      "redeemFee(address)": {
        "notice": "Gets the redeem fee for a specific token"
      },
      "removeFromInstantRedeemWhitelist(address)": {
        "notice": "Remove address from instant redeem whitelist"
      },
      "requestRedeem(uint256)": {
        "notice": "Request a redeem with delay period (locks peggedToken in contract)"
      },
      "setWithdrawalDelayEnabled(bool)": {
        "notice": "Set withdrawal delay feature enabled or disabled"
      },
      "treasury()": {
        "notice": "Returns treasury contract address"
      },
      "updateAmoMintLimit(uint256)": {
        "notice": "Updates the AMO mint limit"
      },
      "updateMintFee(address,uint256)": {
        "notice": "Updates the mint fee for a specific token"
      },
      "updateMintLimit(uint256)": {
        "notice": "Updates the maximum mint limit"
      },
      "updatePegBand(address,uint256)": {
        "notice": "Update the peg tolerance for a specific token"
      },
      "updateRedeemFee(address,uint256)": {
        "notice": "Updates the redeem fee for a specific token"
      },
      "updateWithdrawalDelay(uint256)": {
        "notice": "Update the withdrawal delay period"
      },
      "withdraw(address,uint256,uint256,address)": {
        "notice": "Withdraws exact token amount by burning PeggedToken"
      },
      "withdrawalDelay()": {
        "notice": "Returns withdrawal delay period in seconds"
      },
      "withdrawalDelayEnabled()": {
        "notice": "Returns withdrawal delay enabled status"
      }
    },
    "version": 1
  },
  "storageLayout": {
    "storage": [],
    "types": null
  }
}