{
  "address": "0xf196C68233464A16CFDa319a47c21f4cECa62001",
  "abi": [
    {
      "inputs": [
        {
          "internalType": "string",
          "name": "name_",
          "type": "string"
        },
        {
          "internalType": "string",
          "name": "symbol_",
          "type": "string"
        },
        {
          "internalType": "address",
          "name": "owner_",
          "type": "address"
        }
      ],
      "stateMutability": "nonpayable",
      "type": "constructor"
    },
    {
      "inputs": [],
      "name": "AddressIsZero",
      "type": "error"
    },
    {
      "inputs": [
        {
          "internalType": "address",
          "name": "",
          "type": "address"
        }
      ],
      "name": "AlreadyBlacklisted",
      "type": "error"
    },
    {
      "inputs": [
        {
          "internalType": "address",
          "name": "",
          "type": "address"
        }
      ],
      "name": "Blacklisted",
      "type": "error"
    },
    {
      "inputs": [
        {
          "internalType": "address",
          "name": "",
          "type": "address"
        }
      ],
      "name": "CallerIsNotGateway",
      "type": "error"
    },
    {
      "inputs": [],
      "name": "ECDSAInvalidSignature",
      "type": "error"
    },
    {
      "inputs": [
        {
          "internalType": "uint256",
          "name": "length",
          "type": "uint256"
        }
      ],
      "name": "ECDSAInvalidSignatureLength",
      "type": "error"
    },
    {
      "inputs": [
        {
          "internalType": "bytes32",
          "name": "s",
          "type": "bytes32"
        }
      ],
      "name": "ECDSAInvalidSignatureS",
      "type": "error"
    },
    {
      "inputs": [
        {
          "internalType": "address",
          "name": "spender",
          "type": "address"
        },
        {
          "internalType": "uint256",
          "name": "allowance",
          "type": "uint256"
        },
        {
          "internalType": "uint256",
          "name": "needed",
          "type": "uint256"
        }
      ],
      "name": "ERC20InsufficientAllowance",
      "type": "error"
    },
    {
      "inputs": [
        {
          "internalType": "address",
          "name": "sender",
          "type": "address"
        },
        {
          "internalType": "uint256",
          "name": "balance",
          "type": "uint256"
        },
        {
          "internalType": "uint256",
          "name": "needed",
          "type": "uint256"
        }
      ],
      "name": "ERC20InsufficientBalance",
      "type": "error"
    },
    {
      "inputs": [
        {
          "internalType": "address",
          "name": "approver",
          "type": "address"
        }
      ],
      "name": "ERC20InvalidApprover",
      "type": "error"
    },
    {
      "inputs": [
        {
          "internalType": "address",
          "name": "receiver",
          "type": "address"
        }
      ],
      "name": "ERC20InvalidReceiver",
      "type": "error"
    },
    {
      "inputs": [
        {
          "internalType": "address",
          "name": "sender",
          "type": "address"
        }
      ],
      "name": "ERC20InvalidSender",
      "type": "error"
    },
    {
      "inputs": [
        {
          "internalType": "address",
          "name": "spender",
          "type": "address"
        }
      ],
      "name": "ERC20InvalidSpender",
      "type": "error"
    },
    {
      "inputs": [
        {
          "internalType": "uint256",
          "name": "deadline",
          "type": "uint256"
        }
      ],
      "name": "ERC2612ExpiredSignature",
      "type": "error"
    },
    {
      "inputs": [
        {
          "internalType": "address",
          "name": "signer",
          "type": "address"
        },
        {
          "internalType": "address",
          "name": "owner",
          "type": "address"
        }
      ],
      "name": "ERC2612InvalidSigner",
      "type": "error"
    },
    {
      "inputs": [
        {
          "internalType": "address",
          "name": "account",
          "type": "address"
        },
        {
          "internalType": "uint256",
          "name": "currentNonce",
          "type": "uint256"
        }
      ],
      "name": "InvalidAccountNonce",
      "type": "error"
    },
    {
      "inputs": [],
      "name": "InvalidShortString",
      "type": "error"
    },
    {
      "inputs": [
        {
          "internalType": "address",
          "name": "",
          "type": "address"
        }
      ],
      "name": "NotBlacklisted",
      "type": "error"
    },
    {
      "inputs": [
        {
          "internalType": "address",
          "name": "owner",
          "type": "address"
        }
      ],
      "name": "OwnableInvalidOwner",
      "type": "error"
    },
    {
      "inputs": [
        {
          "internalType": "address",
          "name": "account",
          "type": "address"
        }
      ],
      "name": "OwnableUnauthorizedAccount",
      "type": "error"
    },
    {
      "inputs": [
        {
          "internalType": "string",
          "name": "str",
          "type": "string"
        }
      ],
      "name": "StringTooLong",
      "type": "error"
    },
    {
      "inputs": [],
      "name": "TreasuryCanNotBeZero",
      "type": "error"
    },
    {
      "anonymous": false,
      "inputs": [
        {
          "indexed": true,
          "internalType": "address",
          "name": "account",
          "type": "address"
        }
      ],
      "name": "AddedToBlacklist",
      "type": "event"
    },
    {
      "anonymous": false,
      "inputs": [
        {
          "indexed": true,
          "internalType": "address",
          "name": "owner",
          "type": "address"
        },
        {
          "indexed": true,
          "internalType": "address",
          "name": "spender",
          "type": "address"
        },
        {
          "indexed": false,
          "internalType": "uint256",
          "name": "value",
          "type": "uint256"
        }
      ],
      "name": "Approval",
      "type": "event"
    },
    {
      "anonymous": false,
      "inputs": [],
      "name": "EIP712DomainChanged",
      "type": "event"
    },
    {
      "anonymous": false,
      "inputs": [
        {
          "indexed": true,
          "internalType": "address",
          "name": "previousOwner",
          "type": "address"
        },
        {
          "indexed": true,
          "internalType": "address",
          "name": "newOwner",
          "type": "address"
        }
      ],
      "name": "OwnershipTransferStarted",
      "type": "event"
    },
    {
      "anonymous": false,
      "inputs": [
        {
          "indexed": true,
          "internalType": "address",
          "name": "previousOwner",
          "type": "address"
        },
        {
          "indexed": true,
          "internalType": "address",
          "name": "newOwner",
          "type": "address"
        }
      ],
      "name": "OwnershipTransferred",
      "type": "event"
    },
    {
      "anonymous": false,
      "inputs": [
        {
          "indexed": true,
          "internalType": "address",
          "name": "account",
          "type": "address"
        }
      ],
      "name": "RemovedFromBlacklist",
      "type": "event"
    },
    {
      "anonymous": false,
      "inputs": [
        {
          "indexed": true,
          "internalType": "address",
          "name": "from",
          "type": "address"
        },
        {
          "indexed": true,
          "internalType": "address",
          "name": "to",
          "type": "address"
        },
        {
          "indexed": false,
          "internalType": "uint256",
          "name": "value",
          "type": "uint256"
        }
      ],
      "name": "Transfer",
      "type": "event"
    },
    {
      "anonymous": false,
      "inputs": [
        {
          "indexed": true,
          "internalType": "address",
          "name": "previousGateway",
          "type": "address"
        },
        {
          "indexed": true,
          "internalType": "address",
          "name": "newGateway",
          "type": "address"
        }
      ],
      "name": "UpdatedGateway",
      "type": "event"
    },
    {
      "anonymous": false,
      "inputs": [
        {
          "indexed": true,
          "internalType": "address",
          "name": "previousTreasury",
          "type": "address"
        },
        {
          "indexed": true,
          "internalType": "address",
          "name": "newTreasury",
          "type": "address"
        }
      ],
      "name": "UpdatedTreasury",
      "type": "event"
    },
    {
      "inputs": [],
      "name": "DOMAIN_SEPARATOR",
      "outputs": [
        {
          "internalType": "bytes32",
          "name": "",
          "type": "bytes32"
        }
      ],
      "stateMutability": "view",
      "type": "function"
    },
    {
      "inputs": [],
      "name": "acceptOwnership",
      "outputs": [],
      "stateMutability": "nonpayable",
      "type": "function"
    },
    {
      "inputs": [
        {
          "internalType": "address",
          "name": "account_",
          "type": "address"
        }
      ],
      "name": "addToBlacklist",
      "outputs": [],
      "stateMutability": "nonpayable",
      "type": "function"
    },
    {
      "inputs": [
        {
          "internalType": "address",
          "name": "owner",
          "type": "address"
        },
        {
          "internalType": "address",
          "name": "spender",
          "type": "address"
        }
      ],
      "name": "allowance",
      "outputs": [
        {
          "internalType": "uint256",
          "name": "",
          "type": "uint256"
        }
      ],
      "stateMutability": "view",
      "type": "function"
    },
    {
      "inputs": [
        {
          "internalType": "address",
          "name": "spender",
          "type": "address"
        },
        {
          "internalType": "uint256",
          "name": "value",
          "type": "uint256"
        }
      ],
      "name": "approve",
      "outputs": [
        {
          "internalType": "bool",
          "name": "",
          "type": "bool"
        }
      ],
      "stateMutability": "nonpayable",
      "type": "function"
    },
    {
      "inputs": [
        {
          "internalType": "address",
          "name": "account",
          "type": "address"
        }
      ],
      "name": "balanceOf",
      "outputs": [
        {
          "internalType": "uint256",
          "name": "",
          "type": "uint256"
        }
      ],
      "stateMutability": "view",
      "type": "function"
    },
    {
      "inputs": [
        {
          "internalType": "address",
          "name": "account_",
          "type": "address"
        },
        {
          "internalType": "uint256",
          "name": "amount_",
          "type": "uint256"
        }
      ],
      "name": "burnFrom",
      "outputs": [],
      "stateMutability": "nonpayable",
      "type": "function"
    },
    {
      "inputs": [],
      "name": "decimals",
      "outputs": [
        {
          "internalType": "uint8",
          "name": "",
          "type": "uint8"
        }
      ],
      "stateMutability": "view",
      "type": "function"
    },
    {
      "inputs": [],
      "name": "eip712Domain",
      "outputs": [
        {
          "internalType": "bytes1",
          "name": "fields",
          "type": "bytes1"
        },
        {
          "internalType": "string",
          "name": "name",
          "type": "string"
        },
        {
          "internalType": "string",
          "name": "version",
          "type": "string"
        },
        {
          "internalType": "uint256",
          "name": "chainId",
          "type": "uint256"
        },
        {
          "internalType": "address",
          "name": "verifyingContract",
          "type": "address"
        },
        {
          "internalType": "bytes32",
          "name": "salt",
          "type": "bytes32"
        },
        {
          "internalType": "uint256[]",
          "name": "extensions",
          "type": "uint256[]"
        }
      ],
      "stateMutability": "view",
      "type": "function"
    },
    {
      "inputs": [],
      "name": "gateway",
      "outputs": [
        {
          "internalType": "address",
          "name": "",
          "type": "address"
        }
      ],
      "stateMutability": "view",
      "type": "function"
    },
    {
      "inputs": [],
      "name": "getBlacklistedAddresses",
      "outputs": [
        {
          "internalType": "address[]",
          "name": "",
          "type": "address[]"
        }
      ],
      "stateMutability": "view",
      "type": "function"
    },
    {
      "inputs": [
        {
          "internalType": "address",
          "name": "account_",
          "type": "address"
        }
      ],
      "name": "isBlacklisted",
      "outputs": [
        {
          "internalType": "bool",
          "name": "",
          "type": "bool"
        }
      ],
      "stateMutability": "view",
      "type": "function"
    },
    {
      "inputs": [
        {
          "internalType": "address",
          "name": "account_",
          "type": "address"
        },
        {
          "internalType": "uint256",
          "name": "amount_",
          "type": "uint256"
        }
      ],
      "name": "mint",
      "outputs": [],
      "stateMutability": "nonpayable",
      "type": "function"
    },
    {
      "inputs": [],
      "name": "name",
      "outputs": [
        {
          "internalType": "string",
          "name": "",
          "type": "string"
        }
      ],
      "stateMutability": "view",
      "type": "function"
    },
    {
      "inputs": [
        {
          "internalType": "address",
          "name": "owner",
          "type": "address"
        }
      ],
      "name": "nonces",
      "outputs": [
        {
          "internalType": "uint256",
          "name": "",
          "type": "uint256"
        }
      ],
      "stateMutability": "view",
      "type": "function"
    },
    {
      "inputs": [],
      "name": "owner",
      "outputs": [
        {
          "internalType": "address",
          "name": "",
          "type": "address"
        }
      ],
      "stateMutability": "view",
      "type": "function"
    },
    {
      "inputs": [],
      "name": "pendingOwner",
      "outputs": [
        {
          "internalType": "address",
          "name": "",
          "type": "address"
        }
      ],
      "stateMutability": "view",
      "type": "function"
    },
    {
      "inputs": [
        {
          "internalType": "address",
          "name": "owner",
          "type": "address"
        },
        {
          "internalType": "address",
          "name": "spender",
          "type": "address"
        },
        {
          "internalType": "uint256",
          "name": "value",
          "type": "uint256"
        },
        {
          "internalType": "uint256",
          "name": "deadline",
          "type": "uint256"
        },
        {
          "internalType": "uint8",
          "name": "v",
          "type": "uint8"
        },
        {
          "internalType": "bytes32",
          "name": "r",
          "type": "bytes32"
        },
        {
          "internalType": "bytes32",
          "name": "s",
          "type": "bytes32"
        }
      ],
      "name": "permit",
      "outputs": [],
      "stateMutability": "nonpayable",
      "type": "function"
    },
    {
      "inputs": [
        {
          "internalType": "address",
          "name": "account_",
          "type": "address"
        }
      ],
      "name": "removeFromBlacklist",
      "outputs": [],
      "stateMutability": "nonpayable",
      "type": "function"
    },
    {
      "inputs": [],
      "name": "renounceOwnership",
      "outputs": [],
      "stateMutability": "nonpayable",
      "type": "function"
    },
    {
      "inputs": [],
      "name": "symbol",
      "outputs": [
        {
          "internalType": "string",
          "name": "",
          "type": "string"
        }
      ],
      "stateMutability": "view",
      "type": "function"
    },
    {
      "inputs": [],
      "name": "totalSupply",
      "outputs": [
        {
          "internalType": "uint256",
          "name": "",
          "type": "uint256"
        }
      ],
      "stateMutability": "view",
      "type": "function"
    },
    {
      "inputs": [
        {
          "internalType": "address",
          "name": "to",
          "type": "address"
        },
        {
          "internalType": "uint256",
          "name": "value",
          "type": "uint256"
        }
      ],
      "name": "transfer",
      "outputs": [
        {
          "internalType": "bool",
          "name": "",
          "type": "bool"
        }
      ],
      "stateMutability": "nonpayable",
      "type": "function"
    },
    {
      "inputs": [
        {
          "internalType": "address",
          "name": "from",
          "type": "address"
        },
        {
          "internalType": "address",
          "name": "to",
          "type": "address"
        },
        {
          "internalType": "uint256",
          "name": "value",
          "type": "uint256"
        }
      ],
      "name": "transferFrom",
      "outputs": [
        {
          "internalType": "bool",
          "name": "",
          "type": "bool"
        }
      ],
      "stateMutability": "nonpayable",
      "type": "function"
    },
    {
      "inputs": [
        {
          "internalType": "address",
          "name": "newOwner",
          "type": "address"
        }
      ],
      "name": "transferOwnership",
      "outputs": [],
      "stateMutability": "nonpayable",
      "type": "function"
    },
    {
      "inputs": [],
      "name": "treasury",
      "outputs": [
        {
          "internalType": "address",
          "name": "",
          "type": "address"
        }
      ],
      "stateMutability": "view",
      "type": "function"
    },
    {
      "inputs": [
        {
          "internalType": "address",
          "name": "newGateway_",
          "type": "address"
        }
      ],
      "name": "updateGateway",
      "outputs": [],
      "stateMutability": "nonpayable",
      "type": "function"
    },
    {
      "inputs": [
        {
          "internalType": "address",
          "name": "newTreasury_",
          "type": "address"
        }
      ],
      "name": "updateTreasury",
      "outputs": [],
      "stateMutability": "nonpayable",
      "type": "function"
    }
  ],
  "transactionHash": "0x5af13b4ead024093841d641372596e88b0e5feaeb03e9dd4f3601d1312d3feb3",
  "args": [
    "Vetro BTC",
    "vetBTC",
    "0x26D4333E2E5572A5609ddEDd65748F8F237042D9"
  ],
  "numDeployments": 1,
  "solcInputHash": "0506567e0c2fedf45fd3ce2a56eefd6b",
  "bytecode": "0x610160604052348015610010575f5ffd5b50604051611d89380380611d8983398101604081905261002f916102d8565b808380604051806040016040528060018152602001603160f81b8152508686816003908161005d91906103e1565b50600461006a82826103e1565b5061007a9150839050600561015f565b6101205261008981600661015f565b61014052815160208084019190912060e052815190820120610100524660a05261011560e05161010051604080517f8b73c3c69bb8fe3d512ecc4cf759cc79239f7b179b0ffacaa9a75d522b39400f60208201529081019290925260608201524660808201523060a08201525f9060c00160405160208183030381529060405280519060200120905090565b60805250503060c052506001600160a01b03811661014d57604051631e4fbdf760e01b81525f60048201526024015b60405180910390fd5b61015681610191565b505050506104f3565b5f60208351101561017a57610173836101ad565b905061018b565b8161018584826103e1565b5060ff90505b92915050565b600980546001600160a01b03191690556101aa816101ea565b50565b5f5f829050601f815111156101d7578260405163305a27a960e01b8152600401610144919061049b565b80516101e2826104d0565b179392505050565b600880546001600160a01b038381166001600160a01b0319831681179093556040519116919082907f8be0079c531659141344cd1fd0a4f28419497f9722a3daafe3b4186f6b6457e0905f90a35050565b634e487b7160e01b5f52604160045260245ffd5b5f82601f83011261025e575f5ffd5b81516001600160401b038111156102775761027761023b565b604051601f8201601f19908116603f011681016001600160401b03811182821017156102a5576102a561023b565b6040528181528382016020018510156102bc575f5ffd5b8160208501602083015e5f918101602001919091529392505050565b5f5f5f606084860312156102ea575f5ffd5b83516001600160401b038111156102ff575f5ffd5b61030b8682870161024f565b602086015190945090506001600160401b03811115610328575f5ffd5b6103348682870161024f565b604086015190935090506001600160a01b0381168114610352575f5ffd5b809150509250925092565b600181811c9082168061037157607f821691505b60208210810361038f57634e487b7160e01b5f52602260045260245ffd5b50919050565b601f8211156103dc57805f5260205f20601f840160051c810160208510156103ba5750805b601f840160051c820191505b818110156103d9575f81556001016103c6565b50505b505050565b81516001600160401b038111156103fa576103fa61023b565b61040e81610408845461035d565b84610395565b6020601f821160018114610440575f83156104295750848201515b5f19600385901b1c1916600184901b1784556103d9565b5f84815260208120601f198516915b8281101561046f578785015182556020948501946001909201910161044f565b508482101561048c57868401515f19600387901b60f8161c191681555b50505050600190811b01905550565b602081525f82518060208401528060208501604085015e5f604082850101526040601f19601f83011684010191505092915050565b8051602080830151919081101561038f575f1960209190910360031b1b16919050565b60805160a05160c05160e0516101005161012051610140516118456105445f395f610d7001525f610d4301525f610c0301525f610bdb01525f610b3601525f610b6001525f610b8a01526118455ff3fe608060405234801561000f575f5ffd5b50600436106101bb575f3560e01c806379ba5097116100f3578063a9059cbb11610093578063dd62ed3e1161006e578063dd62ed3e146103a8578063e30c3978146103e0578063f2fde38b146103f1578063fe575a8714610404575f5ffd5b8063a9059cbb1461036f578063c0346b2014610382578063d505accf14610395575f5ffd5b80637f51bb1f116100ce5780637f51bb1f1461032857806384b0196e1461033b5780638da5cb5b1461035657806395d89b4114610367575f5ffd5b806379ba5097146102fa57806379cc6790146103025780637ecebe0014610315575f5ffd5b80633bbab1791161015e578063537df3b611610139578063537df3b6146102a457806361d027b3146102b757806370a08231146102ca578063715018a6146102f2575f5ffd5b80633bbab1791461026757806340c10f191461027c57806344337ea114610291575f5ffd5b806318160ddd1161019957806318160ddd1461022b57806323b872dd1461023d578063313ce567146102505780633644e5151461025f575f5ffd5b806306fdde03146101bf578063095ea7b3146101dd578063116191b614610200575b5f5ffd5b6101c7610417565b6040516101d4919061153a565b60405180910390f35b6101f06101eb366004611567565b6104a7565b60405190151581526020016101d4565b600a54610213906001600160a01b031681565b6040516001600160a01b0390911681526020016101d4565b6002545b6040519081526020016101d4565b6101f061024b36600461158f565b6104c0565b604051601281526020016101d4565b61022f6104e3565b61026f6104f1565b6040516101d491906115c9565b61028f61028a366004611567565b6104fd565b005b61028f61029f366004611614565b61053d565b61028f6102b2366004611614565b6105d5565b600b54610213906001600160a01b031681565b61022f6102d8366004611614565b6001600160a01b03165f9081526020819052604090205490565b61028f610646565b61028f610659565b61028f610310366004611567565b61069d565b61022f610323366004611614565b6106d4565b61028f610336366004611614565b6106f1565b61034361077b565b6040516101d4979695949392919061162d565b6008546001600160a01b0316610213565b6101c76107bd565b6101f061037d366004611567565b6107cc565b61028f610390366004611614565b6107d9565b61028f6103a33660046116c3565b61088c565b61022f6103b6366004611730565b6001600160a01b039182165f90815260016020908152604080832093909416825291909152205490565b6009546001600160a01b0316610213565b61028f6103ff366004611614565b6109c2565b6101f0610412366004611614565b610a33565b60606003805461042690611761565b80601f016020809104026020016040519081016040528092919081815260200182805461045290611761565b801561049d5780601f106104745761010080835404028352916020019161049d565b820191905f5260205f20905b81548152906001019060200180831161048057829003601f168201915b5050505050905090565b5f336104b4818585610a3f565b60019150505b92915050565b5f336104cd858285610a51565b6104d8858585610acd565b506001949350505050565b5f6104ec610b2a565b905090565b60606104ec600c610c53565b600a546001600160a01b0316331461052f576040516330ec376960e11b81523360048201526024015b60405180910390fd5b6105398282610c66565b5050565b610545610c9a565b6001600160a01b03811661056c5760405163867915ab60e01b815260040160405180910390fd5b610577600c82610cc7565b61059f5760405163163581b360e31b81526001600160a01b0382166004820152602401610526565b6040516001600160a01b038216907ff9b68063b051b82957fa193585681240904fed808db8b30fc5a2d2202c6ed627905f90a250565b6105dd610c9a565b6105e8600c82610cdb565b61061057604051637be8837960e01b81526001600160a01b0382166004820152602401610526565b6040516001600160a01b038216907f2b6bf71b58b3583add364b3d9060ebf8019650f65f5be35f5464b9cb3e4ba2d4905f90a250565b61064e610c9a565b6106575f610cef565b565b60095433906001600160a01b031681146106915760405163118cdaa760e01b81526001600160a01b0382166004820152602401610526565b61069a81610cef565b50565b600a546001600160a01b031633146106ca576040516330ec376960e11b8152336004820152602401610526565b6105398282610d08565b6001600160a01b0381165f908152600760205260408120546104ba565b6106f9610c9a565b6001600160a01b0381166107205760405163867915ab60e01b815260040160405180910390fd5b600b546040516001600160a01b038084169216907f2ac12ebf7dfd56173c73b2e43941f0faed1c3f7fb6f959191a4ab4bdd3d32e21905f90a3600b80546001600160a01b0319166001600160a01b0392909216919091179055565b5f6060805f5f5f606061078c610d3c565b610794610d69565b604080515f80825260208201909252600f60f81b9b939a50919850469750309650945092509050565b60606004805461042690611761565b5f336104b4818585610acd565b6107e1610c9a565b600b546001600160a01b031661080a5760405163d0b40fbd60e01b815260040160405180910390fd5b6001600160a01b0381166108315760405163867915ab60e01b815260040160405180910390fd5b600a546040516001600160a01b038084169216907f0ea56b1e4958faa6f901209ff9db06ea39af0e4e508a1184698fc2465f963e0e905f90a3600a80546001600160a01b0319166001600160a01b0392909216919091179055565b834211156108b05760405163313c898160e11b815260048101859052602401610526565b5f7f6e71edae12b1b97f4d1f60370fef10105fa2faae0126114a169c64845d6126c98888886108fb8c6001600160a01b03165f90815260076020526040902080546001810190915590565b6040805160208101969096526001600160a01b0394851690860152929091166060840152608083015260a082015260c0810186905260e0016040516020818303038152906040528051906020012090505f61095582610d96565b90505f61096482878787610dc2565b9050896001600160a01b0316816001600160a01b0316146109ab576040516325c0072360e11b81526001600160a01b0380831660048301528b166024820152604401610526565b6109b68a8a8a610a3f565b50505050505050505050565b6109ca610c9a565b600980546001600160a01b0383166001600160a01b031990911681179091556109fb6008546001600160a01b031690565b6001600160a01b03167f38d16b8cac22d99fc7c124b9cd0de2d3fa1faef420bfe791d8c362d765e2270060405160405180910390a350565b5f6104ba600c83610dee565b610a4c8383836001610e0f565b505050565b6001600160a01b038381165f908152600160209081526040808320938616835292905220545f19811015610ac75781811015610ab957604051637dc7a0d960e11b81526001600160a01b03841660048201526024810182905260448101839052606401610526565b610ac784848484035f610e0f565b50505050565b6001600160a01b038316610af657604051634b637e8f60e11b81525f6004820152602401610526565b6001600160a01b038216610b1f5760405163ec442f0560e01b81525f6004820152602401610526565b610a4c838383610ee1565b5f306001600160a01b037f000000000000000000000000000000000000000000000000000000000000000016148015610b8257507f000000000000000000000000000000000000000000000000000000000000000046145b15610bac57507f000000000000000000000000000000000000000000000000000000000000000090565b6104ec604080517f8b73c3c69bb8fe3d512ecc4cf759cc79239f7b179b0ffacaa9a75d522b39400f60208201527f0000000000000000000000000000000000000000000000000000000000000000918101919091527f000000000000000000000000000000000000000000000000000000000000000060608201524660808201523060a08201525f9060c00160405160208183030381529060405280519060200120905090565b60605f610c5f83610f80565b9392505050565b6001600160a01b038216610c8f5760405163ec442f0560e01b81525f6004820152602401610526565b6105395f8383610ee1565b6008546001600160a01b031633146106575760405163118cdaa760e01b8152336004820152602401610526565b5f610c5f836001600160a01b038416610fd9565b5f610c5f836001600160a01b038416611025565b600980546001600160a01b031916905561069a81611108565b6001600160a01b038216610d3157604051634b637e8f60e11b81525f6004820152602401610526565b610539825f83610ee1565b60606104ec7f00000000000000000000000000000000000000000000000000000000000000006005611159565b60606104ec7f00000000000000000000000000000000000000000000000000000000000000006006611159565b5f6104ba610da2610b2a565b8360405161190160f01b8152600281019290925260228201526042902090565b5f5f5f5f610dd288888888611202565b925092509250610de282826112ca565b50909695505050505050565b6001600160a01b0381165f9081526001830160205260408120541515610c5f565b6001600160a01b038416610e385760405163e602df0560e01b81525f6004820152602401610526565b6001600160a01b038316610e6157604051634a1406b160e11b81525f6004820152602401610526565b6001600160a01b038085165f9081526001602090815260408083209387168352929052208290558015610ac757826001600160a01b0316846001600160a01b03167f8c5be1e5ebec7d5bd14f71427d1e84f3dd0314c0f7b2291e5b200ac8c7c3b92584604051610ed391815260200190565b60405180910390a350505050565b6001600160a01b03831615801590610eff5750610eff600c84610dee565b15610f2b576040516001620b633d60e31b031981526001600160a01b0384166004820152602401610526565b6001600160a01b03821615801590610f495750610f49600c83610dee565b15610f75576040516001620b633d60e31b031981526001600160a01b0383166004820152602401610526565b610a4c838383611382565b6060815f01805480602002602001604051908101604052809291908181526020018280548015610fcd57602002820191905f5260205f20905b815481526020019060010190808311610fb9575b50505050509050919050565b5f81815260018301602052604081205461101e57508154600181810184555f8481526020808220909301849055845484825282860190935260409020919091556104ba565b505f6104ba565b5f81815260018301602052604081205480156110ff575f6110476001836117ad565b85549091505f9061105a906001906117ad565b90508082146110b9575f865f018281548110611078576110786117c0565b905f5260205f200154905080875f018481548110611098576110986117c0565b5f918252602080832090910192909255918252600188019052604090208390555b85548690806110ca576110ca6117d4565b600190038181905f5260205f20015f90559055856001015f8681526020019081526020015f205f9055600193505050506104ba565b5f9150506104ba565b600880546001600160a01b038381166001600160a01b0319831681179093556040519116919082907f8be0079c531659141344cd1fd0a4f28419497f9722a3daafe3b4186f6b6457e0905f90a35050565b606060ff83146111735761116c836114a8565b90506104ba565b81805461117f90611761565b80601f01602080910402602001604051908101604052809291908181526020018280546111ab90611761565b80156111f65780601f106111cd576101008083540402835291602001916111f6565b820191905f5260205f20905b8154815290600101906020018083116111d957829003601f168201915b505050505090506104ba565b5f80807f7fffffffffffffffffffffffffffffff5d576e7357a4501ddfe92f46681b20a084111561123b57505f915060039050826112c0565b604080515f808252602082018084528a905260ff891692820192909252606081018790526080810186905260019060a0016020604051602081039080840390855afa15801561128c573d5f5f3e3d5ffd5b5050604051601f1901519150506001600160a01b0381166112b757505f9250600191508290506112c0565b92505f91508190505b9450945094915050565b5f8260038111156112dd576112dd6117e8565b036112e6575050565b60018260038111156112fa576112fa6117e8565b036113185760405163f645eedf60e01b815260040160405180910390fd5b600282600381111561132c5761132c6117e8565b0361134d5760405163fce698f760e01b815260048101829052602401610526565b6003826003811115611361576113616117e8565b03610539576040516335e2f38360e21b815260048101829052602401610526565b6001600160a01b0383166113ac578060025f8282546113a191906117fc565b9091555061141c9050565b6001600160a01b0383165f90815260208190526040902054818110156113fe5760405163391434e360e21b81526001600160a01b03851660048201526024810182905260448101839052606401610526565b6001600160a01b0384165f9081526020819052604090209082900390555b6001600160a01b03821661143857600280548290039055611456565b6001600160a01b0382165f9081526020819052604090208054820190555b816001600160a01b0316836001600160a01b03167fddf252ad1be2c89b69c2b068fc378daa952ba7f163c4a11628f55a4df523b3ef8360405161149b91815260200190565b60405180910390a3505050565b60605f6114b4836114e5565b6040805160208082528183019092529192505f91906020820181803683375050509182525060208101929092525090565b5f60ff8216601f8111156104ba57604051632cd44ac360e21b815260040160405180910390fd5b5f81518084528060208401602086015e5f602082860101526020601f19601f83011685010191505092915050565b602081525f610c5f602083018461150c565b80356001600160a01b0381168114611562575f5ffd5b919050565b5f5f60408385031215611578575f5ffd5b6115818361154c565b946020939093013593505050565b5f5f5f606084860312156115a1575f5ffd5b6115aa8461154c565b92506115b86020850161154c565b929592945050506040919091013590565b602080825282518282018190525f918401906040840190835b818110156116095783516001600160a01b03168352602093840193909201916001016115e2565b509095945050505050565b5f60208284031215611624575f5ffd5b610c5f8261154c565b60ff60f81b8816815260e060208201525f61164b60e083018961150c565b828103604084015261165d818961150c565b606084018890526001600160a01b038716608085015260a0840186905283810360c0850152845180825260208087019350909101905f5b818110156116b2578351835260209384019390920191600101611694565b50909b9a5050505050505050505050565b5f5f5f5f5f5f5f60e0888a0312156116d9575f5ffd5b6116e28861154c565b96506116f06020890161154c565b95506040880135945060608801359350608088013560ff81168114611713575f5ffd5b9699959850939692959460a0840135945060c09093013592915050565b5f5f60408385031215611741575f5ffd5b61174a8361154c565b91506117586020840161154c565b90509250929050565b600181811c9082168061177557607f821691505b60208210810361179357634e487b7160e01b5f52602260045260245ffd5b50919050565b634e487b7160e01b5f52601160045260245ffd5b818103818111156104ba576104ba611799565b634e487b7160e01b5f52603260045260245ffd5b634e487b7160e01b5f52603160045260245ffd5b634e487b7160e01b5f52602160045260245ffd5b808201808211156104ba576104ba61179956fea2646970667358221220c6267d056176d1ae8da5edb642f6987d11c3128e7e53a624aa5cefeb571cbeb264736f6c634300081e0033",
  "devdoc": {
    "errors": {
      "ECDSAInvalidSignature()": [
        {
          "details": "The signature derives the `address(0)`."
        }
      ],
      "ECDSAInvalidSignatureLength(uint256)": [
        {
          "details": "The signature has an invalid length."
        }
      ],
      "ECDSAInvalidSignatureS(bytes32)": [
        {
          "details": "The signature has an S value that is in the upper half order."
        }
      ],
      "ERC20InsufficientAllowance(address,uint256,uint256)": [
        {
          "details": "Indicates a failure with the `spender`’s `allowance`. Used in transfers.",
          "params": {
            "allowance": "Amount of tokens a `spender` is allowed to operate with.",
            "needed": "Minimum amount required to perform a transfer.",
            "spender": "Address that may be allowed to operate on tokens without being their owner."
          }
        }
      ],
      "ERC20InsufficientBalance(address,uint256,uint256)": [
        {
          "details": "Indicates an error related to the current `balance` of a `sender`. Used in transfers.",
          "params": {
            "balance": "Current balance for the interacting account.",
            "needed": "Minimum amount required to perform a transfer.",
            "sender": "Address whose tokens are being transferred."
          }
        }
      ],
      "ERC20InvalidApprover(address)": [
        {
          "details": "Indicates a failure with the `approver` of a token to be approved. Used in approvals.",
          "params": {
            "approver": "Address initiating an approval operation."
          }
        }
      ],
      "ERC20InvalidReceiver(address)": [
        {
          "details": "Indicates a failure with the token `receiver`. Used in transfers.",
          "params": {
            "receiver": "Address to which tokens are being transferred."
          }
        }
      ],
      "ERC20InvalidSender(address)": [
        {
          "details": "Indicates a failure with the token `sender`. Used in transfers.",
          "params": {
            "sender": "Address whose tokens are being transferred."
          }
        }
      ],
      "ERC20InvalidSpender(address)": [
        {
          "details": "Indicates a failure with the `spender` to be approved. Used in approvals.",
          "params": {
            "spender": "Address that may be allowed to operate on tokens without being their owner."
          }
        }
      ],
      "ERC2612ExpiredSignature(uint256)": [
        {
          "details": "Permit deadline has expired."
        }
      ],
      "ERC2612InvalidSigner(address,address)": [
        {
          "details": "Mismatched signature."
        }
      ],
      "InvalidAccountNonce(address,uint256)": [
        {
          "details": "The nonce used for an `account` is not the expected current nonce."
        }
      ],
      "OwnableInvalidOwner(address)": [
        {
          "details": "The owner is not a valid owner account. (eg. `address(0)`)"
        }
      ],
      "OwnableUnauthorizedAccount(address)": [
        {
          "details": "The caller account is not authorized to perform an operation."
        }
      ]
    },
    "events": {
      "Approval(address,address,uint256)": {
        "details": "Emitted when the allowance of a `spender` for an `owner` is set by a call to {approve}. `value` is the new allowance."
      },
      "EIP712DomainChanged()": {
        "details": "MAY be emitted to signal that the domain could have changed."
      },
      "Transfer(address,address,uint256)": {
        "details": "Emitted when `value` tokens are moved from one account (`from`) to another (`to`). Note that `value` may be zero."
      }
    },
    "kind": "dev",
    "methods": {
      "DOMAIN_SEPARATOR()": {
        "details": "Returns the domain separator used in the encoding of the signature for {permit}, as defined by {EIP712}."
      },
      "acceptOwnership()": {
        "details": "The new owner accepts the ownership transfer."
      },
      "addToBlacklist(address)": {
        "params": {
          "account_": "address to blacklist"
        }
      },
      "allowance(address,address)": {
        "details": "Returns the remaining number of tokens that `spender` will be allowed to spend on behalf of `owner` through {transferFrom}. This is zero by default. This value changes when {approve} or {transferFrom} are called."
      },
      "approve(address,uint256)": {
        "details": "See {IERC20-approve}. NOTE: If `value` is the maximum `uint256`, the allowance is not updated on `transferFrom`. This is semantically equivalent to an infinite approval. Requirements: - `spender` cannot be the zero address."
      },
      "balanceOf(address)": {
        "details": "Returns the value of tokens owned by `account`."
      },
      "burnFrom(address,uint256)": {
        "params": {
          "account_": "PeggedToken will be burnt from this address",
          "amount_": "PeggedToken amount to burn"
        }
      },
      "decimals()": {
        "details": "Returns the number of decimals used to get its user representation. For example, if `decimals` equals `2`, a balance of `505` tokens should be displayed to a user as `5.05` (`505 / 10 ** 2`). Tokens usually opt for a value of 18, imitating the relationship between Ether and Wei. This is the default value returned by this function, unless it's overridden. NOTE: This information is only used for _display_ purposes: it in no way affects any of the arithmetic of the contract, including {IERC20-balanceOf} and {IERC20-transfer}."
      },
      "eip712Domain()": {
        "details": "returns the fields and values that describe the domain separator used by this contract for EIP-712 signature."
      },
      "getBlacklistedAddresses()": {
        "returns": {
          "_0": "array of blacklisted addresses"
        }
      },
      "isBlacklisted(address)": {
        "params": {
          "account_": "address to check"
        },
        "returns": {
          "_0": "true if address is blacklisted"
        }
      },
      "mint(address,uint256)": {
        "params": {
          "account_": "Address where PeggedToken will be minted",
          "amount_": "PeggedToken amount to mint"
        }
      },
      "name()": {
        "details": "Returns the name of the token."
      },
      "nonces(address)": {
        "details": "Returns the current nonce for `owner`. This value must be included whenever a signature is generated for {permit}. Every successful call to {permit} increases ``owner``'s nonce by one. This prevents a signature from being used multiple times."
      },
      "owner()": {
        "details": "Returns the address of the current owner."
      },
      "pendingOwner()": {
        "details": "Returns the address of the pending owner."
      },
      "permit(address,address,uint256,uint256,uint8,bytes32,bytes32)": {
        "details": "Sets `value` as the allowance of `spender` over ``owner``'s tokens, given ``owner``'s signed approval. IMPORTANT: The same issues {IERC20-approve} has related to transaction ordering also applies here. Emits an {Approval} event. Requirements: - `spender` cannot be the zero address. - `deadline` must be a timestamp in the future. - `v`, `r` and `s` must be a valid `secp256k1` signature from `owner` over the EIP712-formatted function arguments. - the signature must use ``owner``'s current nonce (see {nonces}). For more information on the signature format, see the https://eips.ethereum.org/EIPS/eip-2612#specification[relevant EIP section]. CAUTION: See Security Considerations above."
      },
      "removeFromBlacklist(address)": {
        "params": {
          "account_": "address to remove from blacklist"
        }
      },
      "renounceOwnership()": {
        "details": "Leaves the contract without owner. It will not be possible to call `onlyOwner` functions. Can only be called by the current owner. NOTE: Renouncing ownership will leave the contract without an owner, thereby disabling any functionality that is only available to the owner."
      },
      "symbol()": {
        "details": "Returns the symbol of the token, usually a shorter version of the name."
      },
      "totalSupply()": {
        "details": "Returns the value of tokens in existence."
      },
      "transfer(address,uint256)": {
        "details": "See {IERC20-transfer}. Requirements: - `to` cannot be the zero address. - the caller must have a balance of at least `value`."
      },
      "transferFrom(address,address,uint256)": {
        "details": "See {IERC20-transferFrom}. Skips emitting an {Approval} event indicating an allowance update. This is not required by the ERC. See {xref-ERC20-_approve-address-address-uint256-bool-}[_approve]. NOTE: Does not update the allowance if the current allowance is the maximum `uint256`. Requirements: - `from` and `to` cannot be the zero address. - `from` must have a balance of at least `value`. - the caller must have allowance for ``from``'s tokens of at least `value`."
      },
      "transferOwnership(address)": {
        "details": "Starts the ownership transfer of the contract to a new account. Replaces the pending transfer if there is one. Can only be called by the current owner. Setting `newOwner` to the zero address is allowed; this can be used to cancel an initiated ownership transfer."
      },
      "updateGateway(address)": {
        "params": {
          "newGateway_": "new gateway address"
        }
      },
      "updateTreasury(address)": {
        "params": {
          "newTreasury_": "new treasury address"
        }
      }
    },
    "title": "PeggedToken, A token pegged to the USD/ETH/BTC, backed by yield-generating collateral.",
    "version": 1
  },
  "userdoc": {
    "kind": "user",
    "methods": {
      "addToBlacklist(address)": {
        "notice": "Add address to blacklist"
      },
      "burnFrom(address,uint256)": {
        "notice": "Burn PeggedToken e.g. VUSD from account. If Gateway is the caller then approval is not required. Only Gateway can burn PeggedToken."
      },
      "getBlacklistedAddresses()": {
        "notice": "Get all blacklisted addresses"
      },
      "isBlacklisted(address)": {
        "notice": "Check if address is blacklisted"
      },
      "mint(address,uint256)": {
        "notice": "onlyGateway:: Mint PeggedToken e.g. VUSD"
      },
      "removeFromBlacklist(address)": {
        "notice": "Remove address from blacklist"
      },
      "updateGateway(address)": {
        "notice": "Update PeggedToken gateway address"
      },
      "updateTreasury(address)": {
        "notice": "Update PeggedToken treasury address"
      }
    },
    "version": 1
  },
  "storageLayout": {
    "storage": [
      {
        "astId": 5852,
        "contract": "src/PeggedToken.sol:PeggedToken",
        "label": "_balances",
        "offset": 0,
        "slot": "0",
        "type": "t_mapping(t_address,t_uint256)"
      },
      {
        "astId": 5858,
        "contract": "src/PeggedToken.sol:PeggedToken",
        "label": "_allowances",
        "offset": 0,
        "slot": "1",
        "type": "t_mapping(t_address,t_mapping(t_address,t_uint256))"
      },
      {
        "astId": 5860,
        "contract": "src/PeggedToken.sol:PeggedToken",
        "label": "_totalSupply",
        "offset": 0,
        "slot": "2",
        "type": "t_uint256"
      },
      {
        "astId": 5862,
        "contract": "src/PeggedToken.sol:PeggedToken",
        "label": "_name",
        "offset": 0,
        "slot": "3",
        "type": "t_string_storage"
      },
      {
        "astId": 5864,
        "contract": "src/PeggedToken.sol:PeggedToken",
        "label": "_symbol",
        "offset": 0,
        "slot": "4",
        "type": "t_string_storage"
      },
      {
        "astId": 12947,
        "contract": "src/PeggedToken.sol:PeggedToken",
        "label": "_nameFallback",
        "offset": 0,
        "slot": "5",
        "type": "t_string_storage"
      },
      {
        "astId": 12949,
        "contract": "src/PeggedToken.sol:PeggedToken",
        "label": "_versionFallback",
        "offset": 0,
        "slot": "6",
        "type": "t_string_storage"
      },
      {
        "astId": 10102,
        "contract": "src/PeggedToken.sol:PeggedToken",
        "label": "_nonces",
        "offset": 0,
        "slot": "7",
        "type": "t_mapping(t_address,t_uint256)"
      },
      {
        "astId": 3503,
        "contract": "src/PeggedToken.sol:PeggedToken",
        "label": "_owner",
        "offset": 0,
        "slot": "8",
        "type": "t_address"
      },
      {
        "astId": 3651,
        "contract": "src/PeggedToken.sol:PeggedToken",
        "label": "_pendingOwner",
        "offset": 0,
        "slot": "9",
        "type": "t_address"
      },
      {
        "astId": 21638,
        "contract": "src/PeggedToken.sol:PeggedToken",
        "label": "gateway",
        "offset": 0,
        "slot": "10",
        "type": "t_address"
      },
      {
        "astId": 21640,
        "contract": "src/PeggedToken.sol:PeggedToken",
        "label": "treasury",
        "offset": 0,
        "slot": "11",
        "type": "t_address"
      },
      {
        "astId": 21643,
        "contract": "src/PeggedToken.sol:PeggedToken",
        "label": "_blacklistedAddresses",
        "offset": 0,
        "slot": "12",
        "type": "t_struct(AddressSet)17311_storage"
      }
    ],
    "types": {
      "t_address": {
        "encoding": "inplace",
        "label": "address",
        "numberOfBytes": "20"
      },
      "t_array(t_bytes32)dyn_storage": {
        "base": "t_bytes32",
        "encoding": "dynamic_array",
        "label": "bytes32[]",
        "numberOfBytes": "32"
      },
      "t_bytes32": {
        "encoding": "inplace",
        "label": "bytes32",
        "numberOfBytes": "32"
      },
      "t_mapping(t_address,t_mapping(t_address,t_uint256))": {
        "encoding": "mapping",
        "key": "t_address",
        "label": "mapping(address => mapping(address => uint256))",
        "numberOfBytes": "32",
        "value": "t_mapping(t_address,t_uint256)"
      },
      "t_mapping(t_address,t_uint256)": {
        "encoding": "mapping",
        "key": "t_address",
        "label": "mapping(address => uint256)",
        "numberOfBytes": "32",
        "value": "t_uint256"
      },
      "t_mapping(t_bytes32,t_uint256)": {
        "encoding": "mapping",
        "key": "t_bytes32",
        "label": "mapping(bytes32 => uint256)",
        "numberOfBytes": "32",
        "value": "t_uint256"
      },
      "t_string_storage": {
        "encoding": "bytes",
        "label": "string",
        "numberOfBytes": "32"
      },
      "t_struct(AddressSet)17311_storage": {
        "encoding": "inplace",
        "label": "struct EnumerableSet.AddressSet",
        "members": [
          {
            "astId": 17310,
            "contract": "src/PeggedToken.sol:PeggedToken",
            "label": "_inner",
            "offset": 0,
            "slot": "0",
            "type": "t_struct(Set)16825_storage"
          }
        ],
        "numberOfBytes": "64"
      },
      "t_struct(Set)16825_storage": {
        "encoding": "inplace",
        "label": "struct EnumerableSet.Set",
        "members": [
          {
            "astId": 16820,
            "contract": "src/PeggedToken.sol:PeggedToken",
            "label": "_values",
            "offset": 0,
            "slot": "0",
            "type": "t_array(t_bytes32)dyn_storage"
          },
          {
            "astId": 16824,
            "contract": "src/PeggedToken.sol:PeggedToken",
            "label": "_positions",
            "offset": 0,
            "slot": "1",
            "type": "t_mapping(t_bytes32,t_uint256)"
          }
        ],
        "numberOfBytes": "64"
      },
      "t_uint256": {
        "encoding": "inplace",
        "label": "uint256",
        "numberOfBytes": "32"
      }
    }
  }
}