{
  "address": "0xFA89a16bc021f02A4463F707e2138be4688cE696",
  "abi": [
    {
      "inputs": [],
      "stateMutability": "nonpayable",
      "type": "constructor"
    },
    {
      "inputs": [],
      "name": "AccessControlBadConfirmation",
      "type": "error"
    },
    {
      "inputs": [
        {
          "internalType": "uint48",
          "name": "schedule",
          "type": "uint48"
        }
      ],
      "name": "AccessControlEnforcedDefaultAdminDelay",
      "type": "error"
    },
    {
      "inputs": [],
      "name": "AccessControlEnforcedDefaultAdminRules",
      "type": "error"
    },
    {
      "inputs": [
        {
          "internalType": "address",
          "name": "defaultAdmin",
          "type": "address"
        }
      ],
      "name": "AccessControlInvalidDefaultAdmin",
      "type": "error"
    },
    {
      "inputs": [
        {
          "internalType": "address",
          "name": "account",
          "type": "address"
        },
        {
          "internalType": "bytes32",
          "name": "neededRole",
          "type": "bytes32"
        }
      ],
      "name": "AccessControlUnauthorizedAccount",
      "type": "error"
    },
    {
      "inputs": [],
      "name": "CannotRescueAsset",
      "type": "error"
    },
    {
      "inputs": [
        {
          "internalType": "uint256",
          "name": "duration",
          "type": "uint256"
        },
        {
          "internalType": "uint256",
          "name": "minDuration",
          "type": "uint256"
        }
      ],
      "name": "InvalidDuration",
      "type": "error"
    },
    {
      "inputs": [],
      "name": "InvalidInitialization",
      "type": "error"
    },
    {
      "inputs": [],
      "name": "NotInitializing",
      "type": "error"
    },
    {
      "inputs": [],
      "name": "OnlyVault",
      "type": "error"
    },
    {
      "inputs": [
        {
          "internalType": "uint8",
          "name": "bits",
          "type": "uint8"
        },
        {
          "internalType": "uint256",
          "name": "value",
          "type": "uint256"
        }
      ],
      "name": "SafeCastOverflowedUintDowncast",
      "type": "error"
    },
    {
      "inputs": [
        {
          "internalType": "address",
          "name": "token",
          "type": "address"
        }
      ],
      "name": "SafeERC20FailedOperation",
      "type": "error"
    },
    {
      "inputs": [],
      "name": "ZeroAddress",
      "type": "error"
    },
    {
      "inputs": [],
      "name": "ZeroAmount",
      "type": "error"
    },
    {
      "anonymous": false,
      "inputs": [],
      "name": "DefaultAdminDelayChangeCanceled",
      "type": "event"
    },
    {
      "anonymous": false,
      "inputs": [
        {
          "indexed": false,
          "internalType": "uint48",
          "name": "newDelay",
          "type": "uint48"
        },
        {
          "indexed": false,
          "internalType": "uint48",
          "name": "effectSchedule",
          "type": "uint48"
        }
      ],
      "name": "DefaultAdminDelayChangeScheduled",
      "type": "event"
    },
    {
      "anonymous": false,
      "inputs": [],
      "name": "DefaultAdminTransferCanceled",
      "type": "event"
    },
    {
      "anonymous": false,
      "inputs": [
        {
          "indexed": true,
          "internalType": "address",
          "name": "newAdmin",
          "type": "address"
        },
        {
          "indexed": false,
          "internalType": "uint48",
          "name": "acceptSchedule",
          "type": "uint48"
        }
      ],
      "name": "DefaultAdminTransferScheduled",
      "type": "event"
    },
    {
      "anonymous": false,
      "inputs": [
        {
          "indexed": false,
          "internalType": "uint64",
          "name": "version",
          "type": "uint64"
        }
      ],
      "name": "Initialized",
      "type": "event"
    },
    {
      "anonymous": false,
      "inputs": [
        {
          "indexed": true,
          "internalType": "bytes32",
          "name": "role",
          "type": "bytes32"
        },
        {
          "indexed": true,
          "internalType": "bytes32",
          "name": "previousAdminRole",
          "type": "bytes32"
        },
        {
          "indexed": true,
          "internalType": "bytes32",
          "name": "newAdminRole",
          "type": "bytes32"
        }
      ],
      "name": "RoleAdminChanged",
      "type": "event"
    },
    {
      "anonymous": false,
      "inputs": [
        {
          "indexed": true,
          "internalType": "bytes32",
          "name": "role",
          "type": "bytes32"
        },
        {
          "indexed": true,
          "internalType": "address",
          "name": "account",
          "type": "address"
        },
        {
          "indexed": true,
          "internalType": "address",
          "name": "sender",
          "type": "address"
        }
      ],
      "name": "RoleGranted",
      "type": "event"
    },
    {
      "anonymous": false,
      "inputs": [
        {
          "indexed": true,
          "internalType": "bytes32",
          "name": "role",
          "type": "bytes32"
        },
        {
          "indexed": true,
          "internalType": "address",
          "name": "account",
          "type": "address"
        },
        {
          "indexed": true,
          "internalType": "address",
          "name": "sender",
          "type": "address"
        }
      ],
      "name": "RoleRevoked",
      "type": "event"
    },
    {
      "anonymous": false,
      "inputs": [
        {
          "indexed": true,
          "internalType": "address",
          "name": "distributor",
          "type": "address"
        },
        {
          "indexed": false,
          "internalType": "uint256",
          "name": "amount",
          "type": "uint256"
        },
        {
          "indexed": false,
          "internalType": "uint256",
          "name": "newRewardRate",
          "type": "uint256"
        },
        {
          "indexed": false,
          "internalType": "uint256",
          "name": "periodFinish",
          "type": "uint256"
        }
      ],
      "name": "YieldDistributed",
      "type": "event"
    },
    {
      "anonymous": false,
      "inputs": [
        {
          "indexed": false,
          "internalType": "uint256",
          "name": "previousDuration",
          "type": "uint256"
        },
        {
          "indexed": false,
          "internalType": "uint256",
          "name": "newDuration",
          "type": "uint256"
        }
      ],
      "name": "YieldDurationUpdated",
      "type": "event"
    },
    {
      "anonymous": false,
      "inputs": [
        {
          "indexed": false,
          "internalType": "uint256",
          "name": "amount",
          "type": "uint256"
        }
      ],
      "name": "YieldPulled",
      "type": "event"
    },
    {
      "inputs": [],
      "name": "DEFAULT_ADMIN_DELAY",
      "outputs": [
        {
          "internalType": "uint48",
          "name": "",
          "type": "uint48"
        }
      ],
      "stateMutability": "view",
      "type": "function"
    },
    {
      "inputs": [],
      "name": "DEFAULT_ADMIN_ROLE",
      "outputs": [
        {
          "internalType": "bytes32",
          "name": "",
          "type": "bytes32"
        }
      ],
      "stateMutability": "view",
      "type": "function"
    },
    {
      "inputs": [],
      "name": "DEFAULT_YIELD_DURATION",
      "outputs": [
        {
          "internalType": "uint256",
          "name": "",
          "type": "uint256"
        }
      ],
      "stateMutability": "view",
      "type": "function"
    },
    {
      "inputs": [],
      "name": "DISTRIBUTOR_ROLE",
      "outputs": [
        {
          "internalType": "bytes32",
          "name": "",
          "type": "bytes32"
        }
      ],
      "stateMutability": "view",
      "type": "function"
    },
    {
      "inputs": [],
      "name": "MIN_YIELD_DURATION",
      "outputs": [
        {
          "internalType": "uint256",
          "name": "",
          "type": "uint256"
        }
      ],
      "stateMutability": "view",
      "type": "function"
    },
    {
      "inputs": [],
      "name": "acceptDefaultAdminTransfer",
      "outputs": [],
      "stateMutability": "nonpayable",
      "type": "function"
    },
    {
      "inputs": [],
      "name": "asset",
      "outputs": [
        {
          "internalType": "contract IERC20",
          "name": "",
          "type": "address"
        }
      ],
      "stateMutability": "view",
      "type": "function"
    },
    {
      "inputs": [
        {
          "internalType": "address",
          "name": "newAdmin",
          "type": "address"
        }
      ],
      "name": "beginDefaultAdminTransfer",
      "outputs": [],
      "stateMutability": "nonpayable",
      "type": "function"
    },
    {
      "inputs": [],
      "name": "cancelDefaultAdminTransfer",
      "outputs": [],
      "stateMutability": "nonpayable",
      "type": "function"
    },
    {
      "inputs": [
        {
          "internalType": "uint48",
          "name": "newDelay",
          "type": "uint48"
        }
      ],
      "name": "changeDefaultAdminDelay",
      "outputs": [],
      "stateMutability": "nonpayable",
      "type": "function"
    },
    {
      "inputs": [],
      "name": "defaultAdmin",
      "outputs": [
        {
          "internalType": "address",
          "name": "",
          "type": "address"
        }
      ],
      "stateMutability": "view",
      "type": "function"
    },
    {
      "inputs": [],
      "name": "defaultAdminDelay",
      "outputs": [
        {
          "internalType": "uint48",
          "name": "",
          "type": "uint48"
        }
      ],
      "stateMutability": "view",
      "type": "function"
    },
    {
      "inputs": [],
      "name": "defaultAdminDelayIncreaseWait",
      "outputs": [
        {
          "internalType": "uint48",
          "name": "",
          "type": "uint48"
        }
      ],
      "stateMutability": "view",
      "type": "function"
    },
    {
      "inputs": [
        {
          "internalType": "uint256",
          "name": "amount_",
          "type": "uint256"
        }
      ],
      "name": "distribute",
      "outputs": [],
      "stateMutability": "nonpayable",
      "type": "function"
    },
    {
      "inputs": [
        {
          "internalType": "bytes32",
          "name": "role",
          "type": "bytes32"
        }
      ],
      "name": "getRoleAdmin",
      "outputs": [
        {
          "internalType": "bytes32",
          "name": "",
          "type": "bytes32"
        }
      ],
      "stateMutability": "view",
      "type": "function"
    },
    {
      "inputs": [
        {
          "internalType": "bytes32",
          "name": "role",
          "type": "bytes32"
        },
        {
          "internalType": "address",
          "name": "account",
          "type": "address"
        }
      ],
      "name": "grantRole",
      "outputs": [],
      "stateMutability": "nonpayable",
      "type": "function"
    },
    {
      "inputs": [
        {
          "internalType": "bytes32",
          "name": "role",
          "type": "bytes32"
        },
        {
          "internalType": "address",
          "name": "account",
          "type": "address"
        }
      ],
      "name": "hasRole",
      "outputs": [
        {
          "internalType": "bool",
          "name": "",
          "type": "bool"
        }
      ],
      "stateMutability": "view",
      "type": "function"
    },
    {
      "inputs": [
        {
          "internalType": "address",
          "name": "asset_",
          "type": "address"
        },
        {
          "internalType": "address",
          "name": "vault_",
          "type": "address"
        },
        {
          "internalType": "address",
          "name": "admin_",
          "type": "address"
        }
      ],
      "name": "initialize",
      "outputs": [],
      "stateMutability": "nonpayable",
      "type": "function"
    },
    {
      "inputs": [],
      "name": "lastUpdateTime",
      "outputs": [
        {
          "internalType": "uint256",
          "name": "",
          "type": "uint256"
        }
      ],
      "stateMutability": "view",
      "type": "function"
    },
    {
      "inputs": [],
      "name": "owner",
      "outputs": [
        {
          "internalType": "address",
          "name": "",
          "type": "address"
        }
      ],
      "stateMutability": "view",
      "type": "function"
    },
    {
      "inputs": [],
      "name": "pendingDefaultAdmin",
      "outputs": [
        {
          "internalType": "address",
          "name": "newAdmin",
          "type": "address"
        },
        {
          "internalType": "uint48",
          "name": "schedule",
          "type": "uint48"
        }
      ],
      "stateMutability": "view",
      "type": "function"
    },
    {
      "inputs": [],
      "name": "pendingDefaultAdminDelay",
      "outputs": [
        {
          "internalType": "uint48",
          "name": "newDelay",
          "type": "uint48"
        },
        {
          "internalType": "uint48",
          "name": "schedule",
          "type": "uint48"
        }
      ],
      "stateMutability": "view",
      "type": "function"
    },
    {
      "inputs": [],
      "name": "pendingYield",
      "outputs": [
        {
          "internalType": "uint256",
          "name": "",
          "type": "uint256"
        }
      ],
      "stateMutability": "view",
      "type": "function"
    },
    {
      "inputs": [],
      "name": "periodFinish",
      "outputs": [
        {
          "internalType": "uint256",
          "name": "",
          "type": "uint256"
        }
      ],
      "stateMutability": "view",
      "type": "function"
    },
    {
      "inputs": [],
      "name": "pullYield",
      "outputs": [
        {
          "internalType": "uint256",
          "name": "amount_",
          "type": "uint256"
        }
      ],
      "stateMutability": "nonpayable",
      "type": "function"
    },
    {
      "inputs": [
        {
          "internalType": "bytes32",
          "name": "role",
          "type": "bytes32"
        },
        {
          "internalType": "address",
          "name": "account",
          "type": "address"
        }
      ],
      "name": "renounceRole",
      "outputs": [],
      "stateMutability": "nonpayable",
      "type": "function"
    },
    {
      "inputs": [
        {
          "internalType": "address",
          "name": "token_",
          "type": "address"
        },
        {
          "internalType": "address",
          "name": "to_",
          "type": "address"
        },
        {
          "internalType": "uint256",
          "name": "amount_",
          "type": "uint256"
        }
      ],
      "name": "rescueTokens",
      "outputs": [],
      "stateMutability": "nonpayable",
      "type": "function"
    },
    {
      "inputs": [
        {
          "internalType": "bytes32",
          "name": "role",
          "type": "bytes32"
        },
        {
          "internalType": "address",
          "name": "account",
          "type": "address"
        }
      ],
      "name": "revokeRole",
      "outputs": [],
      "stateMutability": "nonpayable",
      "type": "function"
    },
    {
      "inputs": [],
      "name": "rewardRate",
      "outputs": [
        {
          "internalType": "uint256",
          "name": "",
          "type": "uint256"
        }
      ],
      "stateMutability": "view",
      "type": "function"
    },
    {
      "inputs": [],
      "name": "rollbackDefaultAdminDelay",
      "outputs": [],
      "stateMutability": "nonpayable",
      "type": "function"
    },
    {
      "inputs": [
        {
          "internalType": "bytes4",
          "name": "interfaceId",
          "type": "bytes4"
        }
      ],
      "name": "supportsInterface",
      "outputs": [
        {
          "internalType": "bool",
          "name": "",
          "type": "bool"
        }
      ],
      "stateMutability": "view",
      "type": "function"
    },
    {
      "inputs": [
        {
          "internalType": "uint256",
          "name": "duration_",
          "type": "uint256"
        }
      ],
      "name": "updateYieldDuration",
      "outputs": [],
      "stateMutability": "nonpayable",
      "type": "function"
    },
    {
      "inputs": [],
      "name": "vault",
      "outputs": [
        {
          "internalType": "address",
          "name": "",
          "type": "address"
        }
      ],
      "stateMutability": "view",
      "type": "function"
    },
    {
      "inputs": [],
      "name": "yieldDuration",
      "outputs": [
        {
          "internalType": "uint256",
          "name": "",
          "type": "uint256"
        }
      ],
      "stateMutability": "view",
      "type": "function"
    }
  ],
  "transactionHash": "0xbb25af75146b44753f3228805b9f15945bf1a9e9f129dedab183b97fc0c05f5e",
  "args": [],
  "numDeployments": 1,
  "solcInputHash": "7cc6ed228f6fbdc65c13c8b508fad749",
  "bytecode": "0x6080604052348015600e575f5ffd5b5060156019565b60c9565b7ff0c57e16840df040f15088dc2f81fe391c3923bec73e23a9662efc9c229c6a00805468010000000000000000900460ff161560685760405163f92ee8a960e01b815260040160405180910390fd5b80546001600160401b039081161460c65780546001600160401b0319166001600160401b0390811782556040519081527fc7f505b2f371ae2175ee4913f4499e1f2633a7b5936321eed1cdaeb6115181d29060200160405180910390a15b50565b6118fc806100d65f395ff3fe608060405234801561000f575f5ffd5b50600436106101fd575f3560e01c8063a1eda53c11610114578063d547741f116100a9578063e172cf2111610079578063e172cf2114610455578063e362f7ba1461047c578063ebe2b12b14610486578063f0bd87cc146104ad578063fbfa77cf146104d4575f5ffd5b8063d547741f1461041f578063d602b9fd14610432578063d6a517871461043a578063dbb048731461044d575f5ffd5b8063cc8463c8116100e4578063cc8463c8146103ce578063cea9d26f146103d6578063cefc1429146103e9578063cf6eefb7146103f1575f5ffd5b8063a1eda53c14610366578063a217fddf1461038d578063c0c53b8b14610394578063c8f33c91146103a7575f5ffd5b8063634e93da1161019557806384ef8ffc1161016557806384ef8ffc146103265780638c5e221c1461032e5780638da5cb5b1461033857806391c05b0b1461034057806391d1485414610353575f5ffd5b8063634e93da146102cf578063649a5ec7146102e25780637b0a47ee146102f557806384cd41b41461031c575f5ffd5b806327774852116101d057806327774852146102705780632f2ff15d1461027857806336568abe1461028b57806338d52e0f1461029e575f5ffd5b806301ffc9a714610201578063022d63fb146102295780630aa6220b14610245578063248a9ca31461024f575b5f5ffd5b61021461020f36600461165f565b610504565b60405190151581526020015b60405180910390f35b620697805b60405165ffffffffffff9091168152602001610220565b61024d61052e565b005b61026261025d366004611686565b610543565b604051908152602001610220565b610262610563565b61024d6102863660046116b8565b610623565b61024d6102993660046116b8565b61064f565b5f5160206118a75f395f51905f52546001600160a01b03165b6040516001600160a01b039091168152602001610220565b61024d6102dd3660046116e2565b610716565b61024d6102f03660046116fb565b610729565b7fa4bf24aa89006e158355fd46322f9e11d692b1c14ce675eaa1e0885d1996150454610262565b6102626201518081565b6102b761073c565b61022e6203f48081565b6102b7610757565b61024d61034e366004611686565b610765565b6102146103613660046116b8565b6108b7565b61036e6108ed565b6040805165ffffffffffff938416815292909116602083015201610220565b6102625f81565b61024d6103a2366004611720565b61095c565b7fa4bf24aa89006e158355fd46322f9e11d692b1c14ce675eaa1e0885d1996150554610262565b61022e610b66565b61024d6103e4366004611760565b610be1565b61024d610c67565b6103f9610ca6565b604080516001600160a01b03909316835265ffffffffffff909116602083015201610220565b61024d61042d3660046116b8565b610cd3565b61024d610cfb565b61024d610448366004611686565b610d0d565b610262610dbb565b7fa4bf24aa89006e158355fd46322f9e11d692b1c14ce675eaa1e0885d1996150254610262565b61026262093a8081565b7fa4bf24aa89006e158355fd46322f9e11d692b1c14ce675eaa1e0885d1996150354610262565b6102627ffbd454f36a7e1a388bd6fc3ab10d434aa4578f811acbbcf33afb1c697486313c81565b7fa4bf24aa89006e158355fd46322f9e11d692b1c14ce675eaa1e0885d19961501546001600160a01b03166102b7565b5f6001600160e01b031982166318a4c3c360e11b1480610528575061052882610dd2565b92915050565b5f61053881610e06565b610540610e10565b50565b5f9081525f5160206118675f395f51905f52602052604090206001015490565b7fa4bf24aa89006e158355fd46322f9e11d692b1c14ce675eaa1e0885d19961501545f905f5160206118a75f395f51905f52906001600160a01b031633146105be57604051638d1af8bd60e01b815260040160405180910390fd5b6105c781610e1c565b9150811561061f5742600582015580546105eb906001600160a01b03163384610ea3565b6040518281527fcf04e66d747c8e29dc1c8d313213b9d68cfa82f4a7666b3b8a174e7d0e6d821e9060200160405180910390a15b5090565b8161064157604051631fe1e13d60e11b815260040160405180910390fd5b61064b8282610f02565b5050565b5f5160206118475f395f51905f5282158015610683575061066e61073c565b6001600160a01b0316826001600160a01b0316145b15610707575f5f610692610ca6565b90925090506001600160a01b0382161515806106b4575065ffffffffffff8116155b806106c757504265ffffffffffff821610155b156106f4576040516319ca5ebb60e01b815265ffffffffffff821660048201526024015b60405180910390fd5b5050805465ffffffffffff60a01b191681555b6107118383610f1e565b505050565b5f61072081610e06565b61064b82610f51565b5f61073381610e06565b61064b82610fc3565b5f5160206118875f395f51905f52546001600160a01b031690565b5f61076061073c565b905090565b7ffbd454f36a7e1a388bd6fc3ab10d434aa4578f811acbbcf33afb1c697486313c61078f81610e06565b815f036107af57604051631f2a200560e01b815260040160405180910390fd5b5f5160206118a75f395f51905f5280546107d4906001600160a01b0316333086611032565b5f816003015442101561081657670de0b6b3a764000082600401544284600301546107ff91906117ae565b61080991906117c1565b61081391906117d8565b90505b5f61082185836117f7565b600284015490915061083b670de0b6b3a7640000836117c1565b61084591906117d8565b600484015542600584018190556002840154610860916117f7565b60038401819055600484015460408051888152602081019290925281019190915233907f43d542a8c779acf01e70c5310257891055c891e50f56d9a561ad345331beb53b9060600160405180910390a25050505050565b5f9182525f5160206118675f395f51905f52602090815260408084206001600160a01b0393909316845291905290205460ff1690565b5f5160206118875f395f51905f52545f90600160d01b900465ffffffffffff165f5160206118475f395f51905f52811580159061093257504265ffffffffffff831610155b61093d575f5f610953565b6001810154600160a01b900465ffffffffffff16825b92509250509091565b7ff0c57e16840df040f15088dc2f81fe391c3923bec73e23a9662efc9c229c6a008054600160401b810460ff16159067ffffffffffffffff165f811580156109a15750825b90505f8267ffffffffffffffff1660011480156109bd5750303b155b9050811580156109cb575080155b156109e95760405163f92ee8a960e01b815260040160405180910390fd5b845467ffffffffffffffff191660011785558315610a1357845460ff60401b1916600160401b1785555b6001600160a01b038816610a3a5760405163d92e233d60e01b815260040160405180910390fd5b6001600160a01b038716610a615760405163d92e233d60e01b815260040160405180910390fd5b6001600160a01b038616610a885760405163d92e233d60e01b815260040160405180910390fd5b610a956203f4808761106b565b5f5160206118a75f395f51905f5280546001600160a01b038a81166001600160a01b0319928316179092557fa4bf24aa89006e158355fd46322f9e11d692b1c14ce675eaa1e0885d199615018054928a169290911691909117905562093a807fa4bf24aa89006e158355fd46322f9e11d692b1c14ce675eaa1e0885d19961502558315610b5c57845460ff60401b19168555604051600181527fc7f505b2f371ae2175ee4913f4499e1f2633a7b5936321eed1cdaeb6115181d29060200160405180910390a15b5050505050505050565b5f5160206118875f395f51905f52545f905f5160206118475f395f51905f5290600160d01b900465ffffffffffff168015801590610bab57504265ffffffffffff8216105b610bc5578154600160d01b900465ffffffffffff16610bda565b6001820154600160a01b900465ffffffffffff165b9250505090565b5f610beb81610e06565b5f5160206118a75f395f51905f52546001600160a01b0390811690851603610c2657604051637ae3ea8d60e01b815260040160405180910390fd5b6001600160a01b038316610c4d5760405163d92e233d60e01b815260040160405180910390fd5b610c616001600160a01b0385168484610ea3565b50505050565b5f610c70610ca6565b509050336001600160a01b03821614610c9e57604051636116401160e11b81523360048201526024016106eb565b61054061107d565b5f5160206118475f395f51905f52546001600160a01b03811691600160a01b90910465ffffffffffff1690565b81610cf157604051631fe1e13d60e11b815260040160405180910390fd5b61064b8282611116565b5f610d0581610e06565b610540611132565b5f610d1781610e06565b62015180821015610d475760405163387a058b60e01b8152600481018390526201518060248201526044016106eb565b7fa4bf24aa89006e158355fd46322f9e11d692b1c14ce675eaa1e0885d1996150254604080519182526020820184905280515f5160206118a75f395f51905f52927fb8b38af05dd1ee355693fa01ec0f0f46ae9b277a9ba4813d1e50aa37d4339f6492908290030190a16002019190915550565b5f6107605f5160206118a75f395f51905f52610e1c565b5f6001600160e01b03198216637965db0b60e01b148061052857506301ffc9a760e01b6001600160e01b0319831614610528565b610540813361113c565b610e1a5f5f611175565b565b5f81600501545f1480610e3157506004820154155b15610e3d57505f919050565b5f82600301544210610e53578260030154610e55565b425b905082600501548111610e6a57505f92915050565b670de0b6b3a76400008360040154846005015483610e8891906117ae565b610e9291906117c1565b610e9c91906117d8565b9392505050565b6040516001600160a01b0383811660248301526044820183905261071191859182169063a9059cbb906064015b604051602081830303815290604052915060e01b6020820180516001600160e01b03838183161783525050505061124d565b610f0b82610543565b610f1481610e06565b610c6183836112b9565b6001600160a01b0381163314610f475760405163334bd91960e11b815260040160405180910390fd5b610711828261132d565b5f610f5a610b66565b610f6342611384565b610f6d919061180a565b9050610f7982826113b6565b60405165ffffffffffff821681526001600160a01b038316907f3377dc44241e779dd06afab5b788a35ca5f3b778836e2990bdb26a2a4b2e5ed69060200160405180910390a25050565b5f610fcd82611440565b610fd642611384565b610fe0919061180a565b9050610fec8282611175565b6040805165ffffffffffff8085168252831660208201527ff1038c18cf84a56e432fdbfaf746924b7ea511dfe03a6506a0ceba4888788d9b910160405180910390a15050565b6040516001600160a01b038481166024830152838116604483015260648201839052610c619186918216906323b872dd90608401610ed0565b611073611487565b61064b82826114d0565b5f5160206118475f395f51905f525f80611095610ca6565b915091506110aa8165ffffffffffff16151590565b15806110be57504265ffffffffffff821610155b156110e6576040516319ca5ebb60e01b815265ffffffffffff821660048201526024016106eb565b6110f75f6110f261073c565b61132d565b506111025f836112b9565b505081546001600160d01b03191690915550565b61111f82610543565b61112881610e06565b610c61838361132d565b610e1a5f5f6113b6565b61114682826108b7565b61064b5760405163e2517d3f60e01b81526001600160a01b0382166004820152602481018390526044016106eb565b5f5160206118875f395f51905f52545f5160206118475f395f51905f5290600160d01b900465ffffffffffff16801561120f574265ffffffffffff821610156111e657600182015482546001600160d01b0316600160a01b90910465ffffffffffff16600160d01b0217825561120f565b6040517f2b1fa2edafe6f7b9e97c1a9e0c3660e645beb2dcaa2d45bdbf9beaf5472e1ec5905f90a15b5060010180546001600160a01b0316600160a01b65ffffffffffff948516026001600160d01b031617600160d01b9290931691909102919091179055565b5f5f60205f8451602086015f885af18061126c576040513d5f823e3d81fd5b50505f513d91508115611283578060011415611290565b6001600160a01b0384163b155b15610c6157604051635274afe760e01b81526001600160a01b03851660048201526024016106eb565b5f5f5160206118475f395f51905f528361131b575f6112d661073c565b6001600160a01b0316146112fd57604051631fe1e13d60e11b815260040160405180910390fd5b6001810180546001600160a01b0319166001600160a01b0385161790555b6113258484611536565b949350505050565b5f5f5160206118475f395f51905f5283158015611362575061134d61073c565b6001600160a01b0316836001600160a01b0316145b1561137a576001810180546001600160a01b03191690555b61132584846115d7565b5f65ffffffffffff82111561061f576040516306dfcc6560e41b815260306004820152602481018390526044016106eb565b5f5160206118475f395f51905f525f6113cd610ca6565b835465ffffffffffff8616600160a01b026001600160d01b03199091166001600160a01b03881617178455915061140d90508165ffffffffffff16151590565b15610c61576040517f8886ebfc4259abdbc16601dd8fb5678e54878f47b3c34836cfc51154a9605109905f90a150505050565b5f5f61144a610b66565b90508065ffffffffffff168365ffffffffffff16116114725761146d8382611828565b610e9c565b610e9c65ffffffffffff841662069780611650565b7ff0c57e16840df040f15088dc2f81fe391c3923bec73e23a9662efc9c229c6a0054600160401b900460ff16610e1a57604051631afcd79f60e31b815260040160405180910390fd5b6114d8611487565b5f5160206118475f395f51905f526001600160a01b03821661150f57604051636116401160e11b81525f60048201526024016106eb565b80546001600160d01b0316600160d01b65ffffffffffff851602178155610c615f836112b9565b5f5f5160206118675f395f51905f5261154f84846108b7565b6115ce575f848152602082815260408083206001600160a01b03871684529091529020805460ff191660011790556115843390565b6001600160a01b0316836001600160a01b0316857f2f8788117e7eff1d82e926ec794901d17c78024a50270940304540a733656f0d60405160405180910390a46001915050610528565b5f915050610528565b5f5f5160206118675f395f51905f526115f084846108b7565b156115ce575f848152602082815260408083206001600160a01b0387168085529252808320805460ff1916905551339287917ff6391f5c32d9c69d2a47ea670b442974b53935d1edc7fd64eb21e047a839171b9190a46001915050610528565b5f828218828410028218610e9c565b5f6020828403121561166f575f5ffd5b81356001600160e01b031981168114610e9c575f5ffd5b5f60208284031215611696575f5ffd5b5035919050565b80356001600160a01b03811681146116b3575f5ffd5b919050565b5f5f604083850312156116c9575f5ffd5b823591506116d96020840161169d565b90509250929050565b5f602082840312156116f2575f5ffd5b610e9c8261169d565b5f6020828403121561170b575f5ffd5b813565ffffffffffff81168114610e9c575f5ffd5b5f5f5f60608486031215611732575f5ffd5b61173b8461169d565b92506117496020850161169d565b91506117576040850161169d565b90509250925092565b5f5f5f60608486031215611772575f5ffd5b61177b8461169d565b92506117896020850161169d565b929592945050506040919091013590565b634e487b7160e01b5f52601160045260245ffd5b818103818111156105285761052861179a565b80820281158282048414176105285761052861179a565b5f826117f257634e487b7160e01b5f52601260045260245ffd5b500490565b808201808211156105285761052861179a565b65ffffffffffff81811683821601908111156105285761052861179a565b65ffffffffffff82811682821603908111156105285761052861179a56feeef3dac4538c82c8ace4063ab0acd2d15cdb5883aa1dff7c2673abb3d869840002dd7bc7dec4dceedda775e58dd541e08a116c6c53815c0bd028192f7b626800eef3dac4538c82c8ace4063ab0acd2d15cdb5883aa1dff7c2673abb3d8698401a4bf24aa89006e158355fd46322f9e11d692b1c14ce675eaa1e0885d19961500a26469706673582212207f287ba2ff24a4c22b74de57c828edca2c6b6f13e1e922516339f742c1976c5f64736f6c634300081e0033",
  "devdoc": {
    "details": "Yield is distributed linearly over a configurable duration period.      When new yield is added, remaining undistributed yield is combined      with the new amount and the distribution period is extended.      Uses AccessControlDefaultAdminRulesUpgradeable for secure admin transfers with delay.",
    "errors": {
      "AccessControlBadConfirmation()": [
        {
          "details": "The caller of a function is not the expected one. NOTE: Don't confuse with {AccessControlUnauthorizedAccount}."
        }
      ],
      "AccessControlEnforcedDefaultAdminDelay(uint48)": [
        {
          "details": "The delay for transferring the default admin delay is enforced and the operation must wait until `schedule`. NOTE: `schedule` can be 0 indicating there's no transfer scheduled."
        }
      ],
      "AccessControlEnforcedDefaultAdminRules()": [
        {
          "details": "At least one of the following rules was violated: - The `DEFAULT_ADMIN_ROLE` must only be managed by itself. - The `DEFAULT_ADMIN_ROLE` must only be held by one account at the time. - Any `DEFAULT_ADMIN_ROLE` transfer must be in two delayed steps."
        }
      ],
      "AccessControlInvalidDefaultAdmin(address)": [
        {
          "details": "The new default admin is not a valid default admin."
        }
      ],
      "AccessControlUnauthorizedAccount(address,bytes32)": [
        {
          "details": "The `account` is missing a role."
        }
      ],
      "InvalidInitialization()": [
        {
          "details": "The contract is already initialized."
        }
      ],
      "NotInitializing()": [
        {
          "details": "The contract is not initializing."
        }
      ],
      "SafeCastOverflowedUintDowncast(uint8,uint256)": [
        {
          "details": "Value doesn't fit in an uint of `bits` size."
        }
      ],
      "SafeERC20FailedOperation(address)": [
        {
          "details": "An operation with an ERC-20 token failed."
        }
      ]
    },
    "events": {
      "DefaultAdminDelayChangeCanceled()": {
        "details": "Emitted when a {pendingDefaultAdminDelay} is reset if its schedule didn't pass."
      },
      "DefaultAdminDelayChangeScheduled(uint48,uint48)": {
        "details": "Emitted when a {defaultAdminDelay} change is started, setting `newDelay` as the next delay to be applied between default admin transfer after `effectSchedule` has passed."
      },
      "DefaultAdminTransferCanceled()": {
        "details": "Emitted when a {pendingDefaultAdmin} is reset if it was never accepted, regardless of its schedule."
      },
      "DefaultAdminTransferScheduled(address,uint48)": {
        "details": "Emitted when a {defaultAdmin} transfer is started, setting `newAdmin` as the next address to become the {defaultAdmin} by calling {acceptDefaultAdminTransfer} only after `acceptSchedule` passes."
      },
      "Initialized(uint64)": {
        "details": "Triggered when the contract has been initialized or reinitialized."
      },
      "RoleAdminChanged(bytes32,bytes32,bytes32)": {
        "details": "Emitted when `newAdminRole` is set as ``role``'s admin role, replacing `previousAdminRole` `DEFAULT_ADMIN_ROLE` is the starting admin for all roles, despite {RoleAdminChanged} not being emitted signaling this."
      },
      "RoleGranted(bytes32,address,address)": {
        "details": "Emitted when `account` is granted `role`. `sender` is the account that originated the contract call. This account bears the admin role (for the granted role). Expected in cases where the role was granted using the internal {AccessControl-_grantRole}."
      },
      "RoleRevoked(bytes32,address,address)": {
        "details": "Emitted when `account` is revoked `role`. `sender` is the account that originated the contract call:   - if using `revokeRole`, it is the admin role bearer   - if using `renounceRole`, it is the role bearer (i.e. `account`)"
      }
    },
    "kind": "dev",
    "methods": {
      "acceptDefaultAdminTransfer()": {
        "details": "Completes a {defaultAdmin} transfer previously started with {beginDefaultAdminTransfer}. After calling the function: - `DEFAULT_ADMIN_ROLE` should be granted to the caller. - `DEFAULT_ADMIN_ROLE` should be revoked from the previous holder. - {pendingDefaultAdmin} should be reset to zero values. Requirements: - Only can be called by the {pendingDefaultAdmin}'s `newAdmin`. - The {pendingDefaultAdmin}'s `acceptSchedule` should've passed."
      },
      "asset()": {
        "returns": {
          "_0": "The asset token (IERC20)"
        }
      },
      "beginDefaultAdminTransfer(address)": {
        "details": "Starts a {defaultAdmin} transfer by setting a {pendingDefaultAdmin} scheduled for acceptance after the current timestamp plus a {defaultAdminDelay}. Requirements: - Only can be called by the current {defaultAdmin}. Emits a DefaultAdminRoleChangeStarted event."
      },
      "cancelDefaultAdminTransfer()": {
        "details": "Cancels a {defaultAdmin} transfer previously started with {beginDefaultAdminTransfer}. A {pendingDefaultAdmin} not yet accepted can also be cancelled with this function. Requirements: - Only can be called by the current {defaultAdmin}. May emit a DefaultAdminTransferCanceled event."
      },
      "changeDefaultAdminDelay(uint48)": {
        "details": "Initiates a {defaultAdminDelay} update by setting a {pendingDefaultAdminDelay} scheduled for getting into effect after the current timestamp plus a {defaultAdminDelay}. This function guarantees that any call to {beginDefaultAdminTransfer} done between the timestamp this method is called and the {pendingDefaultAdminDelay} effect schedule will use the current {defaultAdminDelay} set before calling. The {pendingDefaultAdminDelay}'s effect schedule is defined in a way that waiting until the schedule and then calling {beginDefaultAdminTransfer} with the new delay will take at least the same as another {defaultAdmin} complete transfer (including acceptance). The schedule is designed for two scenarios: - When the delay is changed for a larger one the schedule is `block.timestamp + newDelay` capped by {defaultAdminDelayIncreaseWait}. - When the delay is changed for a shorter one, the schedule is `block.timestamp + (current delay - new delay)`. A {pendingDefaultAdminDelay} that never got into effect will be canceled in favor of a new scheduled change. Requirements: - Only can be called by the current {defaultAdmin}. Emits a DefaultAdminDelayChangeScheduled event and may emit a DefaultAdminDelayChangeCanceled event."
      },
      "constructor": {
        "custom:oz-upgrades-unsafe-allow": "constructor"
      },
      "defaultAdmin()": {
        "details": "Returns the address of the current `DEFAULT_ADMIN_ROLE` holder."
      },
      "defaultAdminDelay()": {
        "details": "Returns the delay required to schedule the acceptance of a {defaultAdmin} transfer started. This delay will be added to the current timestamp when calling {beginDefaultAdminTransfer} to set the acceptance schedule. NOTE: If a delay change has been scheduled, it will take effect as soon as the schedule passes, making this function returns the new delay. See {changeDefaultAdminDelay}."
      },
      "defaultAdminDelayIncreaseWait()": {
        "details": "Maximum time in seconds for an increase to {defaultAdminDelay} (that is scheduled using {changeDefaultAdminDelay}) to take effect. Default to 5 days. When the {defaultAdminDelay} is scheduled to be increased, it goes into effect after the new delay has passed with the purpose of giving enough time for reverting any accidental change (i.e. using milliseconds instead of seconds) that may lock the contract. However, to avoid excessive schedules, the wait is capped by this function and it can be overrode for a custom {defaultAdminDelay} increase scheduling. IMPORTANT: Make sure to add a reasonable amount of time while overriding this value, otherwise, there's a risk of setting a high new delay that goes into effect almost immediately without the possibility of human intervention in the case of an input error (eg. set milliseconds instead of seconds)."
      },
      "distribute(uint256)": {
        "details": "Combines remaining undistributed yield with new amount and extends period.      Only callable by addresses with DISTRIBUTOR_ROLE.",
        "params": {
          "amount_": "The amount of yield to distribute"
        }
      },
      "getRoleAdmin(bytes32)": {
        "details": "Returns the admin role that controls `role`. See {grantRole} and {revokeRole}. To change a role's admin, use {_setRoleAdmin}."
      },
      "grantRole(bytes32,address)": {
        "details": "See {AccessControl-grantRole}. Reverts for `DEFAULT_ADMIN_ROLE`."
      },
      "hasRole(bytes32,address)": {
        "details": "Returns `true` if `account` has been granted `role`."
      },
      "initialize(address,address,address)": {
        "details": "Uses DEFAULT_ADMIN_DELAY (3 days) for admin transfer delay",
        "params": {
          "admin_": "The initial default admin of the contract",
          "asset_": "The asset token to distribute (VUSD)",
          "vault_": "The vault that will receive yield"
        }
      },
      "lastUpdateTime()": {
        "returns": {
          "_0": "The Unix timestamp when yield was last pulled"
        }
      },
      "owner()": {
        "details": "See {IERC5313-owner}."
      },
      "pendingDefaultAdmin()": {
        "details": "Returns a tuple of a `newAdmin` and an accept schedule. After the `schedule` passes, the `newAdmin` will be able to accept the {defaultAdmin} role by calling {acceptDefaultAdminTransfer}, completing the role transfer. A zero value only in `acceptSchedule` indicates no pending admin transfer. NOTE: A zero address `newAdmin` means that {defaultAdmin} is being renounced."
      },
      "pendingDefaultAdminDelay()": {
        "details": "Returns a tuple of `newDelay` and an effect schedule. After the `schedule` passes, the `newDelay` will get into effect immediately for every new {defaultAdmin} transfer started with {beginDefaultAdminTransfer}. A zero value only in `effectSchedule` indicates no pending delay change. NOTE: A zero value only for `newDelay` means that the next {defaultAdminDelay} will be zero after the effect schedule."
      },
      "pendingYield()": {
        "details": "Calculates based on time elapsed since last pull multiplied by reward rate.      Returns 0 if no distribution is active or period has not started.",
        "returns": {
          "_0": "The amount of yield tokens available to pull"
        }
      },
      "periodFinish()": {
        "returns": {
          "_0": "The Unix timestamp when yield distribution ends"
        }
      },
      "pullYield()": {
        "details": "Only callable by the vault contract. Transfers all pending yield      that has accrued since the last pull based on the linear drip rate.      Updates lastUpdateTime to current timestamp.",
        "returns": {
          "amount_": "The amount of yield transferred to the vault"
        }
      },
      "renounceRole(bytes32,address)": {
        "details": "See {AccessControl-renounceRole}. For the `DEFAULT_ADMIN_ROLE`, it only allows renouncing in two steps by first calling {beginDefaultAdminTransfer} to the `address(0)`, so it's required that the {pendingDefaultAdmin} schedule has also passed when calling this function. After its execution, it will not be possible to call `onlyRole(DEFAULT_ADMIN_ROLE)` functions. NOTE: Renouncing `DEFAULT_ADMIN_ROLE` will leave the contract without a {defaultAdmin}, thereby disabling any functionality that is only available for it, and the possibility of reassigning a non-administrated role."
      },
      "rescueTokens(address,address,uint256)": {
        "details": "Only callable by DEFAULT_ADMIN_ROLE. Cannot rescue the distribution asset.",
        "params": {
          "amount_": "The amount to rescue",
          "to_": "The address to send rescued tokens to",
          "token_": "The token to rescue"
        }
      },
      "revokeRole(bytes32,address)": {
        "details": "See {AccessControl-revokeRole}. Reverts for `DEFAULT_ADMIN_ROLE`."
      },
      "rewardRate()": {
        "returns": {
          "_0": "The reward rate used for linear yield distribution"
        }
      },
      "rollbackDefaultAdminDelay()": {
        "details": "Cancels a scheduled {defaultAdminDelay} change. Requirements: - Only can be called by the current {defaultAdmin}. May emit a DefaultAdminDelayChangeCanceled event."
      },
      "supportsInterface(bytes4)": {
        "details": "See {IERC165-supportsInterface}."
      },
      "updateYieldDuration(uint256)": {
        "details": "Only callable by DEFAULT_ADMIN_ROLE. Only affects future distributions,      not current ongoing distribution. Must be >= MIN_YIELD_DURATION (1 day).",
        "params": {
          "duration_": "The new yield duration"
        }
      },
      "vault()": {
        "returns": {
          "_0": "The vault address"
        }
      },
      "yieldDuration()": {
        "details": "This is the period over which new yield is linearly distributed",
        "returns": {
          "_0": "The duration in seconds for yield distribution"
        }
      }
    },
    "title": "YieldDistributor",
    "version": 1
  },
  "userdoc": {
    "kind": "user",
    "methods": {
      "asset()": {
        "notice": "Get the asset token being distributed"
      },
      "distribute(uint256)": {
        "notice": "Distribute yield to be dripped to the vault"
      },
      "initialize(address,address,address)": {
        "notice": "Initialize the YieldDistributor"
      },
      "lastUpdateTime()": {
        "notice": "Get the timestamp of the last yield pull"
      },
      "pendingYield()": {
        "notice": "Calculate pending yield available to pull"
      },
      "periodFinish()": {
        "notice": "Get the timestamp when current distribution period ends"
      },
      "pullYield()": {
        "notice": "Pull accrued yield to the vault"
      },
      "rescueTokens(address,address,uint256)": {
        "notice": "Rescue tokens accidentally sent to this contract"
      },
      "rewardRate()": {
        "notice": "Get the current reward rate (tokens per second, scaled by 1e18)"
      },
      "updateYieldDuration(uint256)": {
        "notice": "Update the yield distribution duration"
      },
      "vault()": {
        "notice": "Get the vault address that receives yield"
      },
      "yieldDuration()": {
        "notice": "Get the yield distribution duration"
      }
    },
    "notice": "Gradually drips yield to sVUSD vault to prevent sandwich attacks",
    "version": 1
  },
  "storageLayout": {
    "storage": [],
    "types": null
  }
}